No.     Time           Source                Destination           Protocol Length Info
      1 0.000000000    10.2.73.5             10.73.14.5            TCP      74     49200 → 22 [SYN] Seq=0 Win=64240 Len=0 MSS=1460 SACK_PERM=1 TSval=3519096905 TSecr=0 WS=128

Frame 1: 74 bytes on wire (592 bits), 74 bytes captured (592 bits) on interface enp0s3, id 0
    Interface id: 0 (enp0s3)
        Interface name: enp0s3
    Encapsulation type: Ethernet (1)
    Arrival Time: Oct 26, 2022 20:40:27.952914135 EEST
    [Time shift for this packet: 0.000000000 seconds]
    Epoch Time: 1666806027.952914135 seconds
    [Time delta from previous captured frame: 0.000000000 seconds]
    [Time delta from previous displayed frame: 0.000000000 seconds]
    [Time since reference or first frame: 0.000000000 seconds]
    Frame Number: 1
    Frame Length: 74 bytes (592 bits)
    Capture Length: 74 bytes (592 bits)
    [Frame is marked: False]
    [Frame is ignored: False]
    [Protocols in frame: eth:ethertype:ip:tcp]
    [Coloring Rule Name: TCP SYN/FIN]
    [Coloring Rule String: tcp.flags & 0x02 || tcp.flags.fin == 1]
Ethernet II, Src: PcsCompu_57:5f:a0 (08:00:27:57:5f:a0), Dst: PcsCompu_9f:a5:ba (08:00:27:9f:a5:ba)
    Destination: PcsCompu_9f:a5:ba (08:00:27:9f:a5:ba)
        Address: PcsCompu_9f:a5:ba (08:00:27:9f:a5:ba)
        .... ..0. .... .... .... .... = LG bit: Globally unique address (factory default)
        .... ...0 .... .... .... .... = IG bit: Individual address (unicast)
    Source: PcsCompu_57:5f:a0 (08:00:27:57:5f:a0)
        Address: PcsCompu_57:5f:a0 (08:00:27:57:5f:a0)
        .... ..0. .... .... .... .... = LG bit: Globally unique address (factory default)
        .... ...0 .... .... .... .... = IG bit: Individual address (unicast)
    Type: IPv4 (0x0800)
Internet Protocol Version 4, Src: 10.2.73.5, Dst: 10.73.14.5
    0100 .... = Version: 4
    .... 0101 = Header Length: 20 bytes (5)
    Differentiated Services Field: 0x10 (DSCP: Unknown, ECN: Not-ECT)
        0001 00.. = Differentiated Services Codepoint: Unknown (4)
        .... ..00 = Explicit Congestion Notification: Not ECN-Capable Transport (0)
    Total Length: 60
    Identification: 0xf8fa (63738)
    Flags: 0x40, Don't fragment
        0... .... = Reserved bit: Not set
        .1.. .... = Don't fragment: Set
        ..0. .... = More fragments: Not set
    ...0 0000 0000 0000 = Fragment Offset: 0
    Time to Live: 64
    Protocol: TCP (6)
    Header Checksum: 0xd65c [validation disabled]
    [Header checksum status: Unverified]
    Source Address: 10.2.73.5
    Destination Address: 10.73.14.5
Transmission Control Protocol, Src Port: 49200, Dst Port: 22, Seq: 0, Len: 0
    Source Port: 49200
    Destination Port: 22
    [Stream index: 0]
    [Conversation completeness: Incomplete, DATA (15)]
    [TCP Segment Len: 0]
    Sequence Number: 0    (relative sequence number)
    Sequence Number (raw): 3735242597
    [Next Sequence Number: 1    (relative sequence number)]
    Acknowledgment Number: 0
    Acknowledgment number (raw): 0
    1010 .... = Header Length: 40 bytes (10)
    Flags: 0x002 (SYN)
        000. .... .... = Reserved: Not set
        ...0 .... .... = Nonce: Not set
        .... 0... .... = Congestion Window Reduced (CWR): Not set
        .... .0.. .... = ECN-Echo: Not set
        .... ..0. .... = Urgent: Not set
        .... ...0 .... = Acknowledgment: Not set
        .... .... 0... = Push: Not set
        .... .... .0.. = Reset: Not set
        .... .... ..1. = Syn: Set
            [Expert Info (Chat/Sequence): Connection establish request (SYN): server port 22]
                [Connection establish request (SYN): server port 22]
                [Severity level: Chat]
                [Group: Sequence]
        .... .... ...0 = Fin: Not set
        [TCP Flags: ··········S·]
    Window: 64240
    [Calculated window size: 64240]
    Checksum: 0x6b83 [unverified]
    [Checksum Status: Unverified]
    Urgent Pointer: 0
    Options: (20 bytes), Maximum segment size, SACK permitted, Timestamps, No-Operation (NOP), Window scale
        TCP Option - Maximum segment size: 1460 bytes
            Kind: Maximum Segment Size (2)
            Length: 4
            MSS Value: 1460
        TCP Option - SACK permitted
            Kind: SACK Permitted (4)
            Length: 2
        TCP Option - Timestamps: TSval 3519096905, TSecr 0
            Kind: Time Stamp Option (8)
            Length: 10
            Timestamp value: 3519096905
            Timestamp echo reply: 0
        TCP Option - No-Operation (NOP)
            Kind: No-Operation (1)
        TCP Option - Window scale: 7 (multiply by 128)
            Kind: Window Scale (3)
            Length: 3
            Shift count: 7
            [Multiplier: 128]
    [Timestamps]
        [Time since first frame in this TCP stream: 0.000000000 seconds]
        [Time since previous frame in this TCP stream: 0.000000000 seconds]

0000  08 00 27 9f a5 ba 08 00 27 57 5f a0 08 00 45 10   ..'.....'W_...E.
0010  00 3c f8 fa 40 00 40 06 d6 5c 0a 02 49 05 0a 49   .<..@.@..\..I..I
0020  0e 05 c0 30 00 16 de a3 47 65 00 00 00 00 a0 02   ...0....Ge......
0030  fa f0 6b 83 00 00 02 04 05 b4 04 02 08 0a d1 c1   ..k.............
0040  28 49 00 00 00 00 01 03 03 07                     (I........

No.     Time           Source                Destination           Protocol Length Info
      2 0.001061343    10.73.14.5            10.2.73.5             TCP      74     22 → 49200 [SYN, ACK] Seq=0 Ack=1 Win=28960 Len=0 MSS=1460 SACK_PERM=1 TSval=494204 TSecr=3519096905 WS=128

Frame 2: 74 bytes on wire (592 bits), 74 bytes captured (592 bits) on interface enp0s3, id 0
    Interface id: 0 (enp0s3)
        Interface name: enp0s3
    Encapsulation type: Ethernet (1)
    Arrival Time: Oct 26, 2022 20:40:27.953975478 EEST
    [Time shift for this packet: 0.000000000 seconds]
    Epoch Time: 1666806027.953975478 seconds
    [Time delta from previous captured frame: 0.001061343 seconds]
    [Time delta from previous displayed frame: 0.001061343 seconds]
    [Time since reference or first frame: 0.001061343 seconds]
    Frame Number: 2
    Frame Length: 74 bytes (592 bits)
    Capture Length: 74 bytes (592 bits)
    [Frame is marked: False]
    [Frame is ignored: False]
    [Protocols in frame: eth:ethertype:ip:tcp]
    [Coloring Rule Name: TCP SYN/FIN]
    [Coloring Rule String: tcp.flags & 0x02 || tcp.flags.fin == 1]
Ethernet II, Src: PcsCompu_9f:a5:ba (08:00:27:9f:a5:ba), Dst: PcsCompu_57:5f:a0 (08:00:27:57:5f:a0)
    Destination: PcsCompu_57:5f:a0 (08:00:27:57:5f:a0)
        Address: PcsCompu_57:5f:a0 (08:00:27:57:5f:a0)
        .... ..0. .... .... .... .... = LG bit: Globally unique address (factory default)
        .... ...0 .... .... .... .... = IG bit: Individual address (unicast)
    Source: PcsCompu_9f:a5:ba (08:00:27:9f:a5:ba)
        Address: PcsCompu_9f:a5:ba (08:00:27:9f:a5:ba)
        .... ..0. .... .... .... .... = LG bit: Globally unique address (factory default)
        .... ...0 .... .... .... .... = IG bit: Individual address (unicast)
    Type: IPv4 (0x0800)
Internet Protocol Version 4, Src: 10.73.14.5, Dst: 10.2.73.5
    0100 .... = Version: 4
    .... 0101 = Header Length: 20 bytes (5)
    Differentiated Services Field: 0x00 (DSCP: CS0, ECN: Not-ECT)
        0000 00.. = Differentiated Services Codepoint: Default (0)
        .... ..00 = Explicit Congestion Notification: Not ECN-Capable Transport (0)
    Total Length: 60
    Identification: 0x0000 (0)
    Flags: 0x40, Don't fragment
        0... .... = Reserved bit: Not set
        .1.. .... = Don't fragment: Set
        ..0. .... = More fragments: Not set
    ...0 0000 0000 0000 = Fragment Offset: 0
    Time to Live: 63
    Protocol: TCP (6)
    Header Checksum: 0xd067 [validation disabled]
    [Header checksum status: Unverified]
    Source Address: 10.73.14.5
    Destination Address: 10.2.73.5
Transmission Control Protocol, Src Port: 22, Dst Port: 49200, Seq: 0, Ack: 1, Len: 0
    Source Port: 22
    Destination Port: 49200
    [Stream index: 0]
    [Conversation completeness: Incomplete, DATA (15)]
    [TCP Segment Len: 0]
    Sequence Number: 0    (relative sequence number)
    Sequence Number (raw): 2287526184
    [Next Sequence Number: 1    (relative sequence number)]
    Acknowledgment Number: 1    (relative ack number)
    Acknowledgment number (raw): 3735242598
    1010 .... = Header Length: 40 bytes (10)
    Flags: 0x012 (SYN, ACK)
        000. .... .... = Reserved: Not set
        ...0 .... .... = Nonce: Not set
        .... 0... .... = Congestion Window Reduced (CWR): Not set
        .... .0.. .... = ECN-Echo: Not set
        .... ..0. .... = Urgent: Not set
        .... ...1 .... = Acknowledgment: Set
        .... .... 0... = Push: Not set
        .... .... .0.. = Reset: Not set
        .... .... ..1. = Syn: Set
            [Expert Info (Chat/Sequence): Connection establish acknowledge (SYN+ACK): server port 22]
                [Connection establish acknowledge (SYN+ACK): server port 22]
                [Severity level: Chat]
                [Group: Sequence]
        .... .... ...0 = Fin: Not set
        [TCP Flags: ·······A··S·]
    Window: 28960
    [Calculated window size: 28960]
    Checksum: 0x971a [unverified]
    [Checksum Status: Unverified]
    Urgent Pointer: 0
    Options: (20 bytes), Maximum segment size, SACK permitted, Timestamps, No-Operation (NOP), Window scale
        TCP Option - Maximum segment size: 1460 bytes
            Kind: Maximum Segment Size (2)
            Length: 4
            MSS Value: 1460
        TCP Option - SACK permitted
            Kind: SACK Permitted (4)
            Length: 2
        TCP Option - Timestamps: TSval 494204, TSecr 3519096905
            Kind: Time Stamp Option (8)
            Length: 10
            Timestamp value: 494204
            Timestamp echo reply: 3519096905
        TCP Option - No-Operation (NOP)
            Kind: No-Operation (1)
        TCP Option - Window scale: 7 (multiply by 128)
            Kind: Window Scale (3)
            Length: 3
            Shift count: 7
            [Multiplier: 128]
    [Timestamps]
        [Time since first frame in this TCP stream: 0.001061343 seconds]
        [Time since previous frame in this TCP stream: 0.001061343 seconds]
    [SEQ/ACK analysis]
        [This is an ACK to the segment in frame: 1]
        [The RTT to ACK the segment was: 0.001061343 seconds]
        [iRTT: 0.001111753 seconds]

0000  08 00 27 57 5f a0 08 00 27 9f a5 ba 08 00 45 00   ..'W_...'.....E.
0010  00 3c 00 00 40 00 3f 06 d0 67 0a 49 0e 05 0a 02   .<..@.?..g.I....
0020  49 05 00 16 c0 30 88 58 e1 28 de a3 47 66 a0 12   I....0.X.(..Gf..
0030  71 20 97 1a 00 00 02 04 05 b4 04 02 08 0a 00 07   q ..............
0040  8a 7c d1 c1 28 49 01 03 03 07                     .|..(I....

No.     Time           Source                Destination           Protocol Length Info
      3 0.001111753    10.2.73.5             10.73.14.5            TCP      66     49200 → 22 [ACK] Seq=1 Ack=1 Win=64256 Len=0 TSval=3519096906 TSecr=494204

Frame 3: 66 bytes on wire (528 bits), 66 bytes captured (528 bits) on interface enp0s3, id 0
    Interface id: 0 (enp0s3)
        Interface name: enp0s3
    Encapsulation type: Ethernet (1)
    Arrival Time: Oct 26, 2022 20:40:27.954025888 EEST
    [Time shift for this packet: 0.000000000 seconds]
    Epoch Time: 1666806027.954025888 seconds
    [Time delta from previous captured frame: 0.000050410 seconds]
    [Time delta from previous displayed frame: 0.000050410 seconds]
    [Time since reference or first frame: 0.001111753 seconds]
    Frame Number: 3
    Frame Length: 66 bytes (528 bits)
    Capture Length: 66 bytes (528 bits)
    [Frame is marked: False]
    [Frame is ignored: False]
    [Protocols in frame: eth:ethertype:ip:tcp]
    [Coloring Rule Name: TCP]
    [Coloring Rule String: tcp]
Ethernet II, Src: PcsCompu_57:5f:a0 (08:00:27:57:5f:a0), Dst: PcsCompu_9f:a5:ba (08:00:27:9f:a5:ba)
    Destination: PcsCompu_9f:a5:ba (08:00:27:9f:a5:ba)
        Address: PcsCompu_9f:a5:ba (08:00:27:9f:a5:ba)
        .... ..0. .... .... .... .... = LG bit: Globally unique address (factory default)
        .... ...0 .... .... .... .... = IG bit: Individual address (unicast)
    Source: PcsCompu_57:5f:a0 (08:00:27:57:5f:a0)
        Address: PcsCompu_57:5f:a0 (08:00:27:57:5f:a0)
        .... ..0. .... .... .... .... = LG bit: Globally unique address (factory default)
        .... ...0 .... .... .... .... = IG bit: Individual address (unicast)
    Type: IPv4 (0x0800)
Internet Protocol Version 4, Src: 10.2.73.5, Dst: 10.73.14.5
    0100 .... = Version: 4
    .... 0101 = Header Length: 20 bytes (5)
    Differentiated Services Field: 0x10 (DSCP: Unknown, ECN: Not-ECT)
        0001 00.. = Differentiated Services Codepoint: Unknown (4)
        .... ..00 = Explicit Congestion Notification: Not ECN-Capable Transport (0)
    Total Length: 52
    Identification: 0xf8fb (63739)
    Flags: 0x40, Don't fragment
        0... .... = Reserved bit: Not set
        .1.. .... = Don't fragment: Set
        ..0. .... = More fragments: Not set
    ...0 0000 0000 0000 = Fragment Offset: 0
    Time to Live: 64
    Protocol: TCP (6)
    Header Checksum: 0xd663 [validation disabled]
    [Header checksum status: Unverified]
    Source Address: 10.2.73.5
    Destination Address: 10.73.14.5
Transmission Control Protocol, Src Port: 49200, Dst Port: 22, Seq: 1, Ack: 1, Len: 0
    Source Port: 49200
    Destination Port: 22
    [Stream index: 0]
    [Conversation completeness: Incomplete, DATA (15)]
    [TCP Segment Len: 0]
    Sequence Number: 1    (relative sequence number)
    Sequence Number (raw): 3735242598
    [Next Sequence Number: 1    (relative sequence number)]
    Acknowledgment Number: 1    (relative ack number)
    Acknowledgment number (raw): 2287526185
    1000 .... = Header Length: 32 bytes (8)
    Flags: 0x010 (ACK)
        000. .... .... = Reserved: Not set
        ...0 .... .... = Nonce: Not set
        .... 0... .... = Congestion Window Reduced (CWR): Not set
        .... .0.. .... = ECN-Echo: Not set
        .... ..0. .... = Urgent: Not set
        .... ...1 .... = Acknowledgment: Set
        .... .... 0... = Push: Not set
        .... .... .0.. = Reset: Not set
        .... .... ..0. = Syn: Not set
        .... .... ...0 = Fin: Not set
        [TCP Flags: ·······A····]
    Window: 502
    [Calculated window size: 64256]
    [Window size scaling factor: 128]
    Checksum: 0x6b7b [unverified]
    [Checksum Status: Unverified]
    Urgent Pointer: 0
    Options: (12 bytes), No-Operation (NOP), No-Operation (NOP), Timestamps
        TCP Option - No-Operation (NOP)
            Kind: No-Operation (1)
        TCP Option - No-Operation (NOP)
            Kind: No-Operation (1)
        TCP Option - Timestamps: TSval 3519096906, TSecr 494204
            Kind: Time Stamp Option (8)
            Length: 10
            Timestamp value: 3519096906
            Timestamp echo reply: 494204
    [Timestamps]
        [Time since first frame in this TCP stream: 0.001111753 seconds]
        [Time since previous frame in this TCP stream: 0.000050410 seconds]
    [SEQ/ACK analysis]
        [This is an ACK to the segment in frame: 2]
        [The RTT to ACK the segment was: 0.000050410 seconds]
        [iRTT: 0.001111753 seconds]

0000  08 00 27 9f a5 ba 08 00 27 57 5f a0 08 00 45 10   ..'.....'W_...E.
0010  00 34 f8 fb 40 00 40 06 d6 63 0a 02 49 05 0a 49   .4..@.@..c..I..I
0020  0e 05 c0 30 00 16 de a3 47 66 88 58 e1 29 80 10   ...0....Gf.X.)..
0030  01 f6 6b 7b 00 00 01 01 08 0a d1 c1 28 4a 00 07   ..k{........(J..
0040  8a 7c                                             .|

No.     Time           Source                Destination           Protocol Length Info
      4 0.002246534    10.2.73.5             10.73.14.5            SSHv2    98     Client: Protocol (SSH-2.0-OpenSSH_8.9p1 Ubuntu-3)

Frame 4: 98 bytes on wire (784 bits), 98 bytes captured (784 bits) on interface enp0s3, id 0
    Interface id: 0 (enp0s3)
        Interface name: enp0s3
    Encapsulation type: Ethernet (1)
    Arrival Time: Oct 26, 2022 20:40:27.955160669 EEST
    [Time shift for this packet: 0.000000000 seconds]
    Epoch Time: 1666806027.955160669 seconds
    [Time delta from previous captured frame: 0.001134781 seconds]
    [Time delta from previous displayed frame: 0.001134781 seconds]
    [Time since reference or first frame: 0.002246534 seconds]
    Frame Number: 4
    Frame Length: 98 bytes (784 bits)
    Capture Length: 98 bytes (784 bits)
    [Frame is marked: False]
    [Frame is ignored: False]
    [Protocols in frame: eth:ethertype:ip:tcp:ssh]
    [Coloring Rule Name: TCP]
    [Coloring Rule String: tcp]
Ethernet II, Src: PcsCompu_57:5f:a0 (08:00:27:57:5f:a0), Dst: PcsCompu_9f:a5:ba (08:00:27:9f:a5:ba)
    Destination: PcsCompu_9f:a5:ba (08:00:27:9f:a5:ba)
        Address: PcsCompu_9f:a5:ba (08:00:27:9f:a5:ba)
        .... ..0. .... .... .... .... = LG bit: Globally unique address (factory default)
        .... ...0 .... .... .... .... = IG bit: Individual address (unicast)
    Source: PcsCompu_57:5f:a0 (08:00:27:57:5f:a0)
        Address: PcsCompu_57:5f:a0 (08:00:27:57:5f:a0)
        .... ..0. .... .... .... .... = LG bit: Globally unique address (factory default)
        .... ...0 .... .... .... .... = IG bit: Individual address (unicast)
    Type: IPv4 (0x0800)
Internet Protocol Version 4, Src: 10.2.73.5, Dst: 10.73.14.5
    0100 .... = Version: 4
    .... 0101 = Header Length: 20 bytes (5)
    Differentiated Services Field: 0x10 (DSCP: Unknown, ECN: Not-ECT)
        0001 00.. = Differentiated Services Codepoint: Unknown (4)
        .... ..00 = Explicit Congestion Notification: Not ECN-Capable Transport (0)
    Total Length: 84
    Identification: 0xf8fc (63740)
    Flags: 0x40, Don't fragment
        0... .... = Reserved bit: Not set
        .1.. .... = Don't fragment: Set
        ..0. .... = More fragments: Not set
    ...0 0000 0000 0000 = Fragment Offset: 0
    Time to Live: 64
    Protocol: TCP (6)
    Header Checksum: 0xd642 [validation disabled]
    [Header checksum status: Unverified]
    Source Address: 10.2.73.5
    Destination Address: 10.73.14.5
Transmission Control Protocol, Src Port: 49200, Dst Port: 22, Seq: 1, Ack: 1, Len: 32
    Source Port: 49200
    Destination Port: 22
    [Stream index: 0]
    [Conversation completeness: Incomplete, DATA (15)]
    [TCP Segment Len: 32]
    Sequence Number: 1    (relative sequence number)
    Sequence Number (raw): 3735242598
    [Next Sequence Number: 33    (relative sequence number)]
    Acknowledgment Number: 1    (relative ack number)
    Acknowledgment number (raw): 2287526185
    1000 .... = Header Length: 32 bytes (8)
    Flags: 0x018 (PSH, ACK)
        000. .... .... = Reserved: Not set
        ...0 .... .... = Nonce: Not set
        .... 0... .... = Congestion Window Reduced (CWR): Not set
        .... .0.. .... = ECN-Echo: Not set
        .... ..0. .... = Urgent: Not set
        .... ...1 .... = Acknowledgment: Set
        .... .... 1... = Push: Set
        .... .... .0.. = Reset: Not set
        .... .... ..0. = Syn: Not set
        .... .... ...0 = Fin: Not set
        [TCP Flags: ·······AP···]
    Window: 502
    [Calculated window size: 64256]
    [Window size scaling factor: 128]
    Checksum: 0x6b9b [unverified]
    [Checksum Status: Unverified]
    Urgent Pointer: 0
    Options: (12 bytes), No-Operation (NOP), No-Operation (NOP), Timestamps
        TCP Option - No-Operation (NOP)
            Kind: No-Operation (1)
        TCP Option - No-Operation (NOP)
            Kind: No-Operation (1)
        TCP Option - Timestamps: TSval 3519096907, TSecr 494204
            Kind: Time Stamp Option (8)
            Length: 10
            Timestamp value: 3519096907
            Timestamp echo reply: 494204
    [Timestamps]
        [Time since first frame in this TCP stream: 0.002246534 seconds]
        [Time since previous frame in this TCP stream: 0.001134781 seconds]
    [SEQ/ACK analysis]
        [iRTT: 0.001111753 seconds]
        [Bytes in flight: 32]
        [Bytes sent since last PSH flag: 32]
    TCP payload (32 bytes)
SSH Protocol
    Protocol: SSH-2.0-OpenSSH_8.9p1 Ubuntu-3
    [Direction: client-to-server]

0000  08 00 27 9f a5 ba 08 00 27 57 5f a0 08 00 45 10   ..'.....'W_...E.
0010  00 54 f8 fc 40 00 40 06 d6 42 0a 02 49 05 0a 49   .T..@.@..B..I..I
0020  0e 05 c0 30 00 16 de a3 47 66 88 58 e1 29 80 18   ...0....Gf.X.)..
0030  01 f6 6b 9b 00 00 01 01 08 0a d1 c1 28 4b 00 07   ..k.........(K..
0040  8a 7c 53 53 48 2d 32 2e 30 2d 4f 70 65 6e 53 53   .|SSH-2.0-OpenSS
0050  48 5f 38 2e 39 70 31 20 55 62 75 6e 74 75 2d 33   H_8.9p1 Ubuntu-3
0060  0d 0a                                             ..

No.     Time           Source                Destination           Protocol Length Info
      5 0.004102225    10.73.14.5            10.2.73.5             TCP      66     22 → 49200 [ACK] Seq=1 Ack=33 Win=29056 Len=0 TSval=494207 TSecr=3519096907

Frame 5: 66 bytes on wire (528 bits), 66 bytes captured (528 bits) on interface enp0s3, id 0
    Interface id: 0 (enp0s3)
        Interface name: enp0s3
    Encapsulation type: Ethernet (1)
    Arrival Time: Oct 26, 2022 20:40:27.957016360 EEST
    [Time shift for this packet: 0.000000000 seconds]
    Epoch Time: 1666806027.957016360 seconds
    [Time delta from previous captured frame: 0.001855691 seconds]
    [Time delta from previous displayed frame: 0.001855691 seconds]
    [Time since reference or first frame: 0.004102225 seconds]
    Frame Number: 5
    Frame Length: 66 bytes (528 bits)
    Capture Length: 66 bytes (528 bits)
    [Frame is marked: False]
    [Frame is ignored: False]
    [Protocols in frame: eth:ethertype:ip:tcp]
    [Coloring Rule Name: TCP]
    [Coloring Rule String: tcp]
Ethernet II, Src: PcsCompu_9f:a5:ba (08:00:27:9f:a5:ba), Dst: PcsCompu_57:5f:a0 (08:00:27:57:5f:a0)
    Destination: PcsCompu_57:5f:a0 (08:00:27:57:5f:a0)
        Address: PcsCompu_57:5f:a0 (08:00:27:57:5f:a0)
        .... ..0. .... .... .... .... = LG bit: Globally unique address (factory default)
        .... ...0 .... .... .... .... = IG bit: Individual address (unicast)
    Source: PcsCompu_9f:a5:ba (08:00:27:9f:a5:ba)
        Address: PcsCompu_9f:a5:ba (08:00:27:9f:a5:ba)
        .... ..0. .... .... .... .... = LG bit: Globally unique address (factory default)
        .... ...0 .... .... .... .... = IG bit: Individual address (unicast)
    Type: IPv4 (0x0800)
Internet Protocol Version 4, Src: 10.73.14.5, Dst: 10.2.73.5
    0100 .... = Version: 4
    .... 0101 = Header Length: 20 bytes (5)
    Differentiated Services Field: 0x00 (DSCP: CS0, ECN: Not-ECT)
        0000 00.. = Differentiated Services Codepoint: Default (0)
        .... ..00 = Explicit Congestion Notification: Not ECN-Capable Transport (0)
    Total Length: 52
    Identification: 0x6b54 (27476)
    Flags: 0x40, Don't fragment
        0... .... = Reserved bit: Not set
        .1.. .... = Don't fragment: Set
        ..0. .... = More fragments: Not set
    ...0 0000 0000 0000 = Fragment Offset: 0
    Time to Live: 63
    Protocol: TCP (6)
    Header Checksum: 0x651b [validation disabled]
    [Header checksum status: Unverified]
    Source Address: 10.73.14.5
    Destination Address: 10.2.73.5
Transmission Control Protocol, Src Port: 22, Dst Port: 49200, Seq: 1, Ack: 33, Len: 0
    Source Port: 22
    Destination Port: 49200
    [Stream index: 0]
    [Conversation completeness: Incomplete, DATA (15)]
    [TCP Segment Len: 0]
    Sequence Number: 1    (relative sequence number)
    Sequence Number (raw): 2287526185
    [Next Sequence Number: 1    (relative sequence number)]
    Acknowledgment Number: 33    (relative ack number)
    Acknowledgment number (raw): 3735242630
    1000 .... = Header Length: 32 bytes (8)
    Flags: 0x010 (ACK)
        000. .... .... = Reserved: Not set
        ...0 .... .... = Nonce: Not set
        .... 0... .... = Congestion Window Reduced (CWR): Not set
        .... .0.. .... = ECN-Echo: Not set
        .... ..0. .... = Urgent: Not set
        .... ...1 .... = Acknowledgment: Set
        .... .... 0... = Push: Not set
        .... .... .0.. = Reset: Not set
        .... .... ..0. = Syn: Not set
        .... .... ...0 = Fin: Not set
        [TCP Flags: ·······A····]
    Window: 227
    [Calculated window size: 29056]
    [Window size scaling factor: 128]
    Checksum: 0x35ff [unverified]
    [Checksum Status: Unverified]
    Urgent Pointer: 0
    Options: (12 bytes), No-Operation (NOP), No-Operation (NOP), Timestamps
        TCP Option - No-Operation (NOP)
            Kind: No-Operation (1)
        TCP Option - No-Operation (NOP)
            Kind: No-Operation (1)
        TCP Option - Timestamps: TSval 494207, TSecr 3519096907
            Kind: Time Stamp Option (8)
            Length: 10
            Timestamp value: 494207
            Timestamp echo reply: 3519096907
    [Timestamps]
        [Time since first frame in this TCP stream: 0.004102225 seconds]
        [Time since previous frame in this TCP stream: 0.001855691 seconds]
    [SEQ/ACK analysis]
        [This is an ACK to the segment in frame: 4]
        [The RTT to ACK the segment was: 0.001855691 seconds]
        [iRTT: 0.001111753 seconds]

0000  08 00 27 57 5f a0 08 00 27 9f a5 ba 08 00 45 00   ..'W_...'.....E.
0010  00 34 6b 54 40 00 3f 06 65 1b 0a 49 0e 05 0a 02   .4kT@.?.e..I....
0020  49 05 00 16 c0 30 88 58 e1 29 de a3 47 86 80 10   I....0.X.)..G...
0030  00 e3 35 ff 00 00 01 01 08 0a 00 07 8a 7f d1 c1   ..5.............
0040  28 4b                                             (K

No.     Time           Source                Destination           Protocol Length Info
      6 0.023709242    10.73.14.5            10.2.73.5             SSHv2    87     Server: Protocol (SSH-2.0-OpenSSH_7.4)

Frame 6: 87 bytes on wire (696 bits), 87 bytes captured (696 bits) on interface enp0s3, id 0
    Interface id: 0 (enp0s3)
        Interface name: enp0s3
    Encapsulation type: Ethernet (1)
    Arrival Time: Oct 26, 2022 20:40:27.976623377 EEST
    [Time shift for this packet: 0.000000000 seconds]
    Epoch Time: 1666806027.976623377 seconds
    [Time delta from previous captured frame: 0.019607017 seconds]
    [Time delta from previous displayed frame: 0.019607017 seconds]
    [Time since reference or first frame: 0.023709242 seconds]
    Frame Number: 6
    Frame Length: 87 bytes (696 bits)
    Capture Length: 87 bytes (696 bits)
    [Frame is marked: False]
    [Frame is ignored: False]
    [Protocols in frame: eth:ethertype:ip:tcp:ssh]
    [Coloring Rule Name: TCP]
    [Coloring Rule String: tcp]
Ethernet II, Src: PcsCompu_9f:a5:ba (08:00:27:9f:a5:ba), Dst: PcsCompu_57:5f:a0 (08:00:27:57:5f:a0)
    Destination: PcsCompu_57:5f:a0 (08:00:27:57:5f:a0)
        Address: PcsCompu_57:5f:a0 (08:00:27:57:5f:a0)
        .... ..0. .... .... .... .... = LG bit: Globally unique address (factory default)
        .... ...0 .... .... .... .... = IG bit: Individual address (unicast)
    Source: PcsCompu_9f:a5:ba (08:00:27:9f:a5:ba)
        Address: PcsCompu_9f:a5:ba (08:00:27:9f:a5:ba)
        .... ..0. .... .... .... .... = LG bit: Globally unique address (factory default)
        .... ...0 .... .... .... .... = IG bit: Individual address (unicast)
    Type: IPv4 (0x0800)
Internet Protocol Version 4, Src: 10.73.14.5, Dst: 10.2.73.5
    0100 .... = Version: 4
    .... 0101 = Header Length: 20 bytes (5)
    Differentiated Services Field: 0x00 (DSCP: CS0, ECN: Not-ECT)
        0000 00.. = Differentiated Services Codepoint: Default (0)
        .... ..00 = Explicit Congestion Notification: Not ECN-Capable Transport (0)
    Total Length: 73
    Identification: 0x6b55 (27477)
    Flags: 0x40, Don't fragment
        0... .... = Reserved bit: Not set
        .1.. .... = Don't fragment: Set
        ..0. .... = More fragments: Not set
    ...0 0000 0000 0000 = Fragment Offset: 0
    Time to Live: 63
    Protocol: TCP (6)
    Header Checksum: 0x6505 [validation disabled]
    [Header checksum status: Unverified]
    Source Address: 10.73.14.5
    Destination Address: 10.2.73.5
Transmission Control Protocol, Src Port: 22, Dst Port: 49200, Seq: 1, Ack: 33, Len: 21
    Source Port: 22
    Destination Port: 49200
    [Stream index: 0]
    [Conversation completeness: Incomplete, DATA (15)]
    [TCP Segment Len: 21]
    Sequence Number: 1    (relative sequence number)
    Sequence Number (raw): 2287526185
    [Next Sequence Number: 22    (relative sequence number)]
    Acknowledgment Number: 33    (relative ack number)
    Acknowledgment number (raw): 3735242630
    1000 .... = Header Length: 32 bytes (8)
    Flags: 0x018 (PSH, ACK)
        000. .... .... = Reserved: Not set
        ...0 .... .... = Nonce: Not set
        .... 0... .... = Congestion Window Reduced (CWR): Not set
        .... .0.. .... = ECN-Echo: Not set
        .... ..0. .... = Urgent: Not set
        .... ...1 .... = Acknowledgment: Set
        .... .... 1... = Push: Set
        .... .... .0.. = Reset: Not set
        .... .... ..0. = Syn: Not set
        .... .... ...0 = Fin: Not set
        [TCP Flags: ·······AP···]
    Window: 227
    [Calculated window size: 29056]
    [Window size scaling factor: 128]
    Checksum: 0x7225 [unverified]
    [Checksum Status: Unverified]
    Urgent Pointer: 0
    Options: (12 bytes), No-Operation (NOP), No-Operation (NOP), Timestamps
        TCP Option - No-Operation (NOP)
            Kind: No-Operation (1)
        TCP Option - No-Operation (NOP)
            Kind: No-Operation (1)
        TCP Option - Timestamps: TSval 494227, TSecr 3519096907
            Kind: Time Stamp Option (8)
            Length: 10
            Timestamp value: 494227
            Timestamp echo reply: 3519096907
    [Timestamps]
        [Time since first frame in this TCP stream: 0.023709242 seconds]
        [Time since previous frame in this TCP stream: 0.019607017 seconds]
    [SEQ/ACK analysis]
        [iRTT: 0.001111753 seconds]
        [Bytes in flight: 21]
        [Bytes sent since last PSH flag: 21]
    TCP payload (21 bytes)
SSH Protocol
    Protocol: SSH-2.0-OpenSSH_7.4
    [Direction: server-to-client]

0000  08 00 27 57 5f a0 08 00 27 9f a5 ba 08 00 45 00   ..'W_...'.....E.
0010  00 49 6b 55 40 00 3f 06 65 05 0a 49 0e 05 0a 02   .IkU@.?.e..I....
0020  49 05 00 16 c0 30 88 58 e1 29 de a3 47 86 80 18   I....0.X.)..G...
0030  00 e3 72 25 00 00 01 01 08 0a 00 07 8a 93 d1 c1   ..r%............
0040  28 4b 53 53 48 2d 32 2e 30 2d 4f 70 65 6e 53 53   (KSSH-2.0-OpenSS
0050  48 5f 37 2e 34 0d 0a                              H_7.4..

No.     Time           Source                Destination           Protocol Length Info
      7 0.023744427    10.2.73.5             10.73.14.5            TCP      66     49200 → 22 [ACK] Seq=33 Ack=22 Win=64256 Len=0 TSval=3519096929 TSecr=494227

Frame 7: 66 bytes on wire (528 bits), 66 bytes captured (528 bits) on interface enp0s3, id 0
    Interface id: 0 (enp0s3)
        Interface name: enp0s3
    Encapsulation type: Ethernet (1)
    Arrival Time: Oct 26, 2022 20:40:27.976658562 EEST
    [Time shift for this packet: 0.000000000 seconds]
    Epoch Time: 1666806027.976658562 seconds
    [Time delta from previous captured frame: 0.000035185 seconds]
    [Time delta from previous displayed frame: 0.000035185 seconds]
    [Time since reference or first frame: 0.023744427 seconds]
    Frame Number: 7
    Frame Length: 66 bytes (528 bits)
    Capture Length: 66 bytes (528 bits)
    [Frame is marked: False]
    [Frame is ignored: False]
    [Protocols in frame: eth:ethertype:ip:tcp]
    [Coloring Rule Name: TCP]
    [Coloring Rule String: tcp]
Ethernet II, Src: PcsCompu_57:5f:a0 (08:00:27:57:5f:a0), Dst: PcsCompu_9f:a5:ba (08:00:27:9f:a5:ba)
    Destination: PcsCompu_9f:a5:ba (08:00:27:9f:a5:ba)
        Address: PcsCompu_9f:a5:ba (08:00:27:9f:a5:ba)
        .... ..0. .... .... .... .... = LG bit: Globally unique address (factory default)
        .... ...0 .... .... .... .... = IG bit: Individual address (unicast)
    Source: PcsCompu_57:5f:a0 (08:00:27:57:5f:a0)
        Address: PcsCompu_57:5f:a0 (08:00:27:57:5f:a0)
        .... ..0. .... .... .... .... = LG bit: Globally unique address (factory default)
        .... ...0 .... .... .... .... = IG bit: Individual address (unicast)
    Type: IPv4 (0x0800)
Internet Protocol Version 4, Src: 10.2.73.5, Dst: 10.73.14.5
    0100 .... = Version: 4
    .... 0101 = Header Length: 20 bytes (5)
    Differentiated Services Field: 0x10 (DSCP: Unknown, ECN: Not-ECT)
        0001 00.. = Differentiated Services Codepoint: Unknown (4)
        .... ..00 = Explicit Congestion Notification: Not ECN-Capable Transport (0)
    Total Length: 52
    Identification: 0xf8fd (63741)
    Flags: 0x40, Don't fragment
        0... .... = Reserved bit: Not set
        .1.. .... = Don't fragment: Set
        ..0. .... = More fragments: Not set
    ...0 0000 0000 0000 = Fragment Offset: 0
    Time to Live: 64
    Protocol: TCP (6)
    Header Checksum: 0xd661 [validation disabled]
    [Header checksum status: Unverified]
    Source Address: 10.2.73.5
    Destination Address: 10.73.14.5
Transmission Control Protocol, Src Port: 49200, Dst Port: 22, Seq: 33, Ack: 22, Len: 0
    Source Port: 49200
    Destination Port: 22
    [Stream index: 0]
    [Conversation completeness: Incomplete, DATA (15)]
    [TCP Segment Len: 0]
    Sequence Number: 33    (relative sequence number)
    Sequence Number (raw): 3735242630
    [Next Sequence Number: 33    (relative sequence number)]
    Acknowledgment Number: 22    (relative ack number)
    Acknowledgment number (raw): 2287526206
    1000 .... = Header Length: 32 bytes (8)
    Flags: 0x010 (ACK)
        000. .... .... = Reserved: Not set
        ...0 .... .... = Nonce: Not set
        .... 0... .... = Congestion Window Reduced (CWR): Not set
        .... .0.. .... = ECN-Echo: Not set
        .... ..0. .... = Urgent: Not set
        .... ...1 .... = Acknowledgment: Set
        .... .... 0... = Push: Not set
        .... .... .0.. = Reset: Not set
        .... .... ..0. = Syn: Not set
        .... .... ...0 = Fin: Not set
        [TCP Flags: ·······A····]
    Window: 502
    [Calculated window size: 64256]
    [Window size scaling factor: 128]
    Checksum: 0x6b7b [unverified]
    [Checksum Status: Unverified]
    Urgent Pointer: 0
    Options: (12 bytes), No-Operation (NOP), No-Operation (NOP), Timestamps
        TCP Option - No-Operation (NOP)
            Kind: No-Operation (1)
        TCP Option - No-Operation (NOP)
            Kind: No-Operation (1)
        TCP Option - Timestamps: TSval 3519096929, TSecr 494227
            Kind: Time Stamp Option (8)
            Length: 10
            Timestamp value: 3519096929
            Timestamp echo reply: 494227
    [Timestamps]
        [Time since first frame in this TCP stream: 0.023744427 seconds]
        [Time since previous frame in this TCP stream: 0.000035185 seconds]
    [SEQ/ACK analysis]
        [This is an ACK to the segment in frame: 6]
        [The RTT to ACK the segment was: 0.000035185 seconds]
        [iRTT: 0.001111753 seconds]

0000  08 00 27 9f a5 ba 08 00 27 57 5f a0 08 00 45 10   ..'.....'W_...E.
0010  00 34 f8 fd 40 00 40 06 d6 61 0a 02 49 05 0a 49   .4..@.@..a..I..I
0020  0e 05 c0 30 00 16 de a3 47 86 88 58 e1 3e 80 10   ...0....G..X.>..
0030  01 f6 6b 7b 00 00 01 01 08 0a d1 c1 28 61 00 07   ..k{........(a..
0040  8a 93                                             ..

No.     Time           Source                Destination           Protocol Length Info
      8 0.024553786    10.2.73.5             10.73.14.5            SSHv2    1570   Client: Key Exchange Init

Frame 8: 1570 bytes on wire (12560 bits), 1570 bytes captured (12560 bits) on interface enp0s3, id 0
    Interface id: 0 (enp0s3)
        Interface name: enp0s3
    Encapsulation type: Ethernet (1)
    Arrival Time: Oct 26, 2022 20:40:27.977467921 EEST
    [Time shift for this packet: 0.000000000 seconds]
    Epoch Time: 1666806027.977467921 seconds
    [Time delta from previous captured frame: 0.000809359 seconds]
    [Time delta from previous displayed frame: 0.000809359 seconds]
    [Time since reference or first frame: 0.024553786 seconds]
    Frame Number: 8
    Frame Length: 1570 bytes (12560 bits)
    Capture Length: 1570 bytes (12560 bits)
    [Frame is marked: False]
    [Frame is ignored: False]
    [Protocols in frame: eth:ethertype:ip:tcp:ssh]
    [Coloring Rule Name: TCP]
    [Coloring Rule String: tcp]
Ethernet II, Src: PcsCompu_57:5f:a0 (08:00:27:57:5f:a0), Dst: PcsCompu_9f:a5:ba (08:00:27:9f:a5:ba)
    Destination: PcsCompu_9f:a5:ba (08:00:27:9f:a5:ba)
        Address: PcsCompu_9f:a5:ba (08:00:27:9f:a5:ba)
        .... ..0. .... .... .... .... = LG bit: Globally unique address (factory default)
        .... ...0 .... .... .... .... = IG bit: Individual address (unicast)
    Source: PcsCompu_57:5f:a0 (08:00:27:57:5f:a0)
        Address: PcsCompu_57:5f:a0 (08:00:27:57:5f:a0)
        .... ..0. .... .... .... .... = LG bit: Globally unique address (factory default)
        .... ...0 .... .... .... .... = IG bit: Individual address (unicast)
    Type: IPv4 (0x0800)
Internet Protocol Version 4, Src: 10.2.73.5, Dst: 10.73.14.5
    0100 .... = Version: 4
    .... 0101 = Header Length: 20 bytes (5)
    Differentiated Services Field: 0x10 (DSCP: Unknown, ECN: Not-ECT)
        0001 00.. = Differentiated Services Codepoint: Unknown (4)
        .... ..00 = Explicit Congestion Notification: Not ECN-Capable Transport (0)
    Total Length: 1556
    Identification: 0xf8fe (63742)
    Flags: 0x40, Don't fragment
        0... .... = Reserved bit: Not set
        .1.. .... = Don't fragment: Set
        ..0. .... = More fragments: Not set
    ...0 0000 0000 0000 = Fragment Offset: 0
    Time to Live: 64
    Protocol: TCP (6)
    Header Checksum: 0xd080 [validation disabled]
    [Header checksum status: Unverified]
    Source Address: 10.2.73.5
    Destination Address: 10.73.14.5
Transmission Control Protocol, Src Port: 49200, Dst Port: 22, Seq: 33, Ack: 22, Len: 1504
    Source Port: 49200
    Destination Port: 22
    [Stream index: 0]
    [Conversation completeness: Incomplete, DATA (15)]
    [TCP Segment Len: 1504]
    Sequence Number: 33    (relative sequence number)
    Sequence Number (raw): 3735242630
    [Next Sequence Number: 1537    (relative sequence number)]
    Acknowledgment Number: 22    (relative ack number)
    Acknowledgment number (raw): 2287526206
    1000 .... = Header Length: 32 bytes (8)
    Flags: 0x018 (PSH, ACK)
        000. .... .... = Reserved: Not set
        ...0 .... .... = Nonce: Not set
        .... 0... .... = Congestion Window Reduced (CWR): Not set
        .... .0.. .... = ECN-Echo: Not set
        .... ..0. .... = Urgent: Not set
        .... ...1 .... = Acknowledgment: Set
        .... .... 1... = Push: Set
        .... .... .0.. = Reset: Not set
        .... .... ..0. = Syn: Not set
        .... .... ...0 = Fin: Not set
        [TCP Flags: ·······AP···]
    Window: 502
    [Calculated window size: 64256]
    [Window size scaling factor: 128]
    Checksum: 0x715b [unverified]
    [Checksum Status: Unverified]
    Urgent Pointer: 0
    Options: (12 bytes), No-Operation (NOP), No-Operation (NOP), Timestamps
        TCP Option - No-Operation (NOP)
            Kind: No-Operation (1)
        TCP Option - No-Operation (NOP)
            Kind: No-Operation (1)
        TCP Option - Timestamps: TSval 3519096929, TSecr 494227
            Kind: Time Stamp Option (8)
            Length: 10
            Timestamp value: 3519096929
            Timestamp echo reply: 494227
    [Timestamps]
        [Time since first frame in this TCP stream: 0.024553786 seconds]
        [Time since previous frame in this TCP stream: 0.000809359 seconds]
    [SEQ/ACK analysis]
        [iRTT: 0.001111753 seconds]
        [Bytes in flight: 1504]
        [Bytes sent since last PSH flag: 1504]
    TCP payload (1504 bytes)
SSH Protocol
    SSH Version 2 (encryption:chacha20-poly1305@openssh.com mac:<implicit> compression:none)
        Packet Length: 1500
        Padding Length: 4
        Key Exchange (method:curve25519-sha256)
            Message Code: Key Exchange Init (20)
            Algorithms
                Cookie: 1214be9fb3ee3d89633073fa6a5f98a0
                kex_algorithms length: 276
                kex_algorithms string [truncated]: curve25519-sha256,curve25519-sha256@libssh.org,ecdh-sha2-nistp256,ecdh-sha2-nistp384,ecdh-sha2-nistp521,sntrup761x25519-sha512@openssh.com,diffie-hellman-group-exchange-sha256,diffie-hellman-group16-sha5
                server_host_key_algorithms length: 463
                server_host_key_algorithms string [truncated]: ssh-ed25519-cert-v01@openssh.com,ecdsa-sha2-nistp256-cert-v01@openssh.com,ecdsa-sha2-nistp384-cert-v01@openssh.com,ecdsa-sha2-nistp521-cert-v01@openssh.com,sk-ssh-ed25519-cert-v01@openssh.com
                encryption_algorithms_client_to_server length: 108
                encryption_algorithms_client_to_server string: chacha20-poly1305@openssh.com,aes128-ctr,aes192-ctr,aes256-ctr,aes128-gcm@openssh.com,aes256-gcm@openssh.com
                encryption_algorithms_server_to_client length: 108
                encryption_algorithms_server_to_client string: chacha20-poly1305@openssh.com,aes128-ctr,aes192-ctr,aes256-ctr,aes128-gcm@openssh.com,aes256-gcm@openssh.com
                mac_algorithms_client_to_server length: 213
                mac_algorithms_client_to_server string [truncated]: umac-64-etm@openssh.com,umac-128-etm@openssh.com,hmac-sha2-256-etm@openssh.com,hmac-sha2-512-etm@openssh.com,hmac-sha1-etm@openssh.com,umac-64@openssh.com,umac-128@openssh.com,hmac-sha2-
                mac_algorithms_server_to_client length: 213
                mac_algorithms_server_to_client string [truncated]: umac-64-etm@openssh.com,umac-128-etm@openssh.com,hmac-sha2-256-etm@openssh.com,hmac-sha2-512-etm@openssh.com,hmac-sha1-etm@openssh.com,umac-64@openssh.com,umac-128@openssh.com,hmac-sha2-
                compression_algorithms_client_to_server length: 26
                compression_algorithms_client_to_server string: none,zlib@openssh.com,zlib
                compression_algorithms_server_to_client length: 26
                compression_algorithms_server_to_client string: none,zlib@openssh.com,zlib
                languages_client_to_server length: 0
                languages_client_to_server string: 
                languages_server_to_client length: 0
                languages_server_to_client string: 
                First KEX Packet Follows: 0
                Reserved: 00000000
                [hasshAlgorithms [truncated]: curve25519-sha256,curve25519-sha256@libssh.org,ecdh-sha2-nistp256,ecdh-sha2-nistp384,ecdh-sha2-nistp521,sntrup761x25519-sha512@openssh.com,diffie-hellman-group-exchange-sha256,diffie-hellman-group16-sha512,dif]
                [hassh: 70fb86783479c70b3ca1726b5244b1eb]
        Padding String: 00000000
    [Direction: client-to-server]

0000  08 00 27 9f a5 ba 08 00 27 57 5f a0 08 00 45 10   ..'.....'W_...E.
0010  06 14 f8 fe 40 00 40 06 d0 80 0a 02 49 05 0a 49   ....@.@.....I..I
0020  0e 05 c0 30 00 16 de a3 47 86 88 58 e1 3e 80 18   ...0....G..X.>..
0030  01 f6 71 5b 00 00 01 01 08 0a d1 c1 28 61 00 07   ..q[........(a..
0040  8a 93 00 00 05 dc 04 14 12 14 be 9f b3 ee 3d 89   ..............=.
0050  63 30 73 fa 6a 5f 98 a0 00 00 01 14 63 75 72 76   c0s.j_......curv
0060  65 32 35 35 31 39 2d 73 68 61 32 35 36 2c 63 75   e25519-sha256,cu
0070  72 76 65 32 35 35 31 39 2d 73 68 61 32 35 36 40   rve25519-sha256@
0080  6c 69 62 73 73 68 2e 6f 72 67 2c 65 63 64 68 2d   libssh.org,ecdh-
0090  73 68 61 32 2d 6e 69 73 74 70 32 35 36 2c 65 63   sha2-nistp256,ec
00a0  64 68 2d 73 68 61 32 2d 6e 69 73 74 70 33 38 34   dh-sha2-nistp384
00b0  2c 65 63 64 68 2d 73 68 61 32 2d 6e 69 73 74 70   ,ecdh-sha2-nistp
00c0  35 32 31 2c 73 6e 74 72 75 70 37 36 31 78 32 35   521,sntrup761x25
00d0  35 31 39 2d 73 68 61 35 31 32 40 6f 70 65 6e 73   519-sha512@opens
00e0  73 68 2e 63 6f 6d 2c 64 69 66 66 69 65 2d 68 65   sh.com,diffie-he
00f0  6c 6c 6d 61 6e 2d 67 72 6f 75 70 2d 65 78 63 68   llman-group-exch
0100  61 6e 67 65 2d 73 68 61 32 35 36 2c 64 69 66 66   ange-sha256,diff
0110  69 65 2d 68 65 6c 6c 6d 61 6e 2d 67 72 6f 75 70   ie-hellman-group
0120  31 36 2d 73 68 61 35 31 32 2c 64 69 66 66 69 65   16-sha512,diffie
0130  2d 68 65 6c 6c 6d 61 6e 2d 67 72 6f 75 70 31 38   -hellman-group18
0140  2d 73 68 61 35 31 32 2c 64 69 66 66 69 65 2d 68   -sha512,diffie-h
0150  65 6c 6c 6d 61 6e 2d 67 72 6f 75 70 31 34 2d 73   ellman-group14-s
0160  68 61 32 35 36 2c 65 78 74 2d 69 6e 66 6f 2d 63   ha256,ext-info-c
0170  00 00 01 cf 73 73 68 2d 65 64 32 35 35 31 39 2d   ....ssh-ed25519-
0180  63 65 72 74 2d 76 30 31 40 6f 70 65 6e 73 73 68   cert-v01@openssh
0190  2e 63 6f 6d 2c 65 63 64 73 61 2d 73 68 61 32 2d   .com,ecdsa-sha2-
01a0  6e 69 73 74 70 32 35 36 2d 63 65 72 74 2d 76 30   nistp256-cert-v0
01b0  31 40 6f 70 65 6e 73 73 68 2e 63 6f 6d 2c 65 63   1@openssh.com,ec
01c0  64 73 61 2d 73 68 61 32 2d 6e 69 73 74 70 33 38   dsa-sha2-nistp38
01d0  34 2d 63 65 72 74 2d 76 30 31 40 6f 70 65 6e 73   4-cert-v01@opens
01e0  73 68 2e 63 6f 6d 2c 65 63 64 73 61 2d 73 68 61   sh.com,ecdsa-sha
01f0  32 2d 6e 69 73 74 70 35 32 31 2d 63 65 72 74 2d   2-nistp521-cert-
0200  76 30 31 40 6f 70 65 6e 73 73 68 2e 63 6f 6d 2c   v01@openssh.com,
0210  73 6b 2d 73 73 68 2d 65 64 32 35 35 31 39 2d 63   sk-ssh-ed25519-c
0220  65 72 74 2d 76 30 31 40 6f 70 65 6e 73 73 68 2e   ert-v01@openssh.
0230  63 6f 6d 2c 73 6b 2d 65 63 64 73 61 2d 73 68 61   com,sk-ecdsa-sha
0240  32 2d 6e 69 73 74 70 32 35 36 2d 63 65 72 74 2d   2-nistp256-cert-
0250  76 30 31 40 6f 70 65 6e 73 73 68 2e 63 6f 6d 2c   v01@openssh.com,
0260  72 73 61 2d 73 68 61 32 2d 35 31 32 2d 63 65 72   rsa-sha2-512-cer
0270  74 2d 76 30 31 40 6f 70 65 6e 73 73 68 2e 63 6f   t-v01@openssh.co
0280  6d 2c 72 73 61 2d 73 68 61 32 2d 32 35 36 2d 63   m,rsa-sha2-256-c
0290  65 72 74 2d 76 30 31 40 6f 70 65 6e 73 73 68 2e   ert-v01@openssh.
02a0  63 6f 6d 2c 73 73 68 2d 65 64 32 35 35 31 39 2c   com,ssh-ed25519,
02b0  65 63 64 73 61 2d 73 68 61 32 2d 6e 69 73 74 70   ecdsa-sha2-nistp
02c0  32 35 36 2c 65 63 64 73 61 2d 73 68 61 32 2d 6e   256,ecdsa-sha2-n
02d0  69 73 74 70 33 38 34 2c 65 63 64 73 61 2d 73 68   istp384,ecdsa-sh
02e0  61 32 2d 6e 69 73 74 70 35 32 31 2c 73 6b 2d 73   a2-nistp521,sk-s
02f0  73 68 2d 65 64 32 35 35 31 39 40 6f 70 65 6e 73   sh-ed25519@opens
0300  73 68 2e 63 6f 6d 2c 73 6b 2d 65 63 64 73 61 2d   sh.com,sk-ecdsa-
0310  73 68 61 32 2d 6e 69 73 74 70 32 35 36 40 6f 70   sha2-nistp256@op
0320  65 6e 73 73 68 2e 63 6f 6d 2c 72 73 61 2d 73 68   enssh.com,rsa-sh
0330  61 32 2d 35 31 32 2c 72 73 61 2d 73 68 61 32 2d   a2-512,rsa-sha2-
0340  32 35 36 00 00 00 6c 63 68 61 63 68 61 32 30 2d   256...lchacha20-
0350  70 6f 6c 79 31 33 30 35 40 6f 70 65 6e 73 73 68   poly1305@openssh
0360  2e 63 6f 6d 2c 61 65 73 31 32 38 2d 63 74 72 2c   .com,aes128-ctr,
0370  61 65 73 31 39 32 2d 63 74 72 2c 61 65 73 32 35   aes192-ctr,aes25
0380  36 2d 63 74 72 2c 61 65 73 31 32 38 2d 67 63 6d   6-ctr,aes128-gcm
0390  40 6f 70 65 6e 73 73 68 2e 63 6f 6d 2c 61 65 73   @openssh.com,aes
03a0  32 35 36 2d 67 63 6d 40 6f 70 65 6e 73 73 68 2e   256-gcm@openssh.
03b0  63 6f 6d 00 00 00 6c 63 68 61 63 68 61 32 30 2d   com...lchacha20-
03c0  70 6f 6c 79 31 33 30 35 40 6f 70 65 6e 73 73 68   poly1305@openssh
03d0  2e 63 6f 6d 2c 61 65 73 31 32 38 2d 63 74 72 2c   .com,aes128-ctr,
03e0  61 65 73 31 39 32 2d 63 74 72 2c 61 65 73 32 35   aes192-ctr,aes25
03f0  36 2d 63 74 72 2c 61 65 73 31 32 38 2d 67 63 6d   6-ctr,aes128-gcm
0400  40 6f 70 65 6e 73 73 68 2e 63 6f 6d 2c 61 65 73   @openssh.com,aes
0410  32 35 36 2d 67 63 6d 40 6f 70 65 6e 73 73 68 2e   256-gcm@openssh.
0420  63 6f 6d 00 00 00 d5 75 6d 61 63 2d 36 34 2d 65   com....umac-64-e
0430  74 6d 40 6f 70 65 6e 73 73 68 2e 63 6f 6d 2c 75   tm@openssh.com,u
0440  6d 61 63 2d 31 32 38 2d 65 74 6d 40 6f 70 65 6e   mac-128-etm@open
0450  73 73 68 2e 63 6f 6d 2c 68 6d 61 63 2d 73 68 61   ssh.com,hmac-sha
0460  32 2d 32 35 36 2d 65 74 6d 40 6f 70 65 6e 73 73   2-256-etm@openss
0470  68 2e 63 6f 6d 2c 68 6d 61 63 2d 73 68 61 32 2d   h.com,hmac-sha2-
0480  35 31 32 2d 65 74 6d 40 6f 70 65 6e 73 73 68 2e   512-etm@openssh.
0490  63 6f 6d 2c 68 6d 61 63 2d 73 68 61 31 2d 65 74   com,hmac-sha1-et
04a0  6d 40 6f 70 65 6e 73 73 68 2e 63 6f 6d 2c 75 6d   m@openssh.com,um
04b0  61 63 2d 36 34 40 6f 70 65 6e 73 73 68 2e 63 6f   ac-64@openssh.co
04c0  6d 2c 75 6d 61 63 2d 31 32 38 40 6f 70 65 6e 73   m,umac-128@opens
04d0  73 68 2e 63 6f 6d 2c 68 6d 61 63 2d 73 68 61 32   sh.com,hmac-sha2
04e0  2d 32 35 36 2c 68 6d 61 63 2d 73 68 61 32 2d 35   -256,hmac-sha2-5
04f0  31 32 2c 68 6d 61 63 2d 73 68 61 31 00 00 00 d5   12,hmac-sha1....
0500  75 6d 61 63 2d 36 34 2d 65 74 6d 40 6f 70 65 6e   umac-64-etm@open
0510  73 73 68 2e 63 6f 6d 2c 75 6d 61 63 2d 31 32 38   ssh.com,umac-128
0520  2d 65 74 6d 40 6f 70 65 6e 73 73 68 2e 63 6f 6d   -etm@openssh.com
0530  2c 68 6d 61 63 2d 73 68 61 32 2d 32 35 36 2d 65   ,hmac-sha2-256-e
0540  74 6d 40 6f 70 65 6e 73 73 68 2e 63 6f 6d 2c 68   tm@openssh.com,h
0550  6d 61 63 2d 73 68 61 32 2d 35 31 32 2d 65 74 6d   mac-sha2-512-etm
0560  40 6f 70 65 6e 73 73 68 2e 63 6f 6d 2c 68 6d 61   @openssh.com,hma
0570  63 2d 73 68 61 31 2d 65 74 6d 40 6f 70 65 6e 73   c-sha1-etm@opens
0580  73 68 2e 63 6f 6d 2c 75 6d 61 63 2d 36 34 40 6f   sh.com,umac-64@o
0590  70 65 6e 73 73 68 2e 63 6f 6d 2c 75 6d 61 63 2d   penssh.com,umac-
05a0  31 32 38 40 6f 70 65 6e 73 73 68 2e 63 6f 6d 2c   128@openssh.com,
05b0  68 6d 61 63 2d 73 68 61 32 2d 32 35 36 2c 68 6d   hmac-sha2-256,hm
05c0  61 63 2d 73 68 61 32 2d 35 31 32 2c 68 6d 61 63   ac-sha2-512,hmac
05d0  2d 73 68 61 31 00 00 00 1a 6e 6f 6e 65 2c 7a 6c   -sha1....none,zl
05e0  69 62 40 6f 70 65 6e 73 73 68 2e 63 6f 6d 2c 7a   ib@openssh.com,z
05f0  6c 69 62 00 00 00 1a 6e 6f 6e 65 2c 7a 6c 69 62   lib....none,zlib
0600  40 6f 70 65 6e 73 73 68 2e 63 6f 6d 2c 7a 6c 69   @openssh.com,zli
0610  62 00 00 00 00 00 00 00 00 00 00 00 00 00 00 00   b...............
0620  00 00                                             ..

No.     Time           Source                Destination           Protocol Length Info
      9 0.025197849    10.73.14.5            10.2.73.5             TCP      66     22 → 49200 [ACK] Seq=22 Ack=1537 Win=32000 Len=0 TSval=494229 TSecr=3519096929

Frame 9: 66 bytes on wire (528 bits), 66 bytes captured (528 bits) on interface enp0s3, id 0
    Interface id: 0 (enp0s3)
        Interface name: enp0s3
    Encapsulation type: Ethernet (1)
    Arrival Time: Oct 26, 2022 20:40:27.978111984 EEST
    [Time shift for this packet: 0.000000000 seconds]
    Epoch Time: 1666806027.978111984 seconds
    [Time delta from previous captured frame: 0.000644063 seconds]
    [Time delta from previous displayed frame: 0.000644063 seconds]
    [Time since reference or first frame: 0.025197849 seconds]
    Frame Number: 9
    Frame Length: 66 bytes (528 bits)
    Capture Length: 66 bytes (528 bits)
    [Frame is marked: False]
    [Frame is ignored: False]
    [Protocols in frame: eth:ethertype:ip:tcp]
    [Coloring Rule Name: TCP]
    [Coloring Rule String: tcp]
Ethernet II, Src: PcsCompu_9f:a5:ba (08:00:27:9f:a5:ba), Dst: PcsCompu_57:5f:a0 (08:00:27:57:5f:a0)
    Destination: PcsCompu_57:5f:a0 (08:00:27:57:5f:a0)
        Address: PcsCompu_57:5f:a0 (08:00:27:57:5f:a0)
        .... ..0. .... .... .... .... = LG bit: Globally unique address (factory default)
        .... ...0 .... .... .... .... = IG bit: Individual address (unicast)
    Source: PcsCompu_9f:a5:ba (08:00:27:9f:a5:ba)
        Address: PcsCompu_9f:a5:ba (08:00:27:9f:a5:ba)
        .... ..0. .... .... .... .... = LG bit: Globally unique address (factory default)
        .... ...0 .... .... .... .... = IG bit: Individual address (unicast)
    Type: IPv4 (0x0800)
Internet Protocol Version 4, Src: 10.73.14.5, Dst: 10.2.73.5
    0100 .... = Version: 4
    .... 0101 = Header Length: 20 bytes (5)
    Differentiated Services Field: 0x00 (DSCP: CS0, ECN: Not-ECT)
        0000 00.. = Differentiated Services Codepoint: Default (0)
        .... ..00 = Explicit Congestion Notification: Not ECN-Capable Transport (0)
    Total Length: 52
    Identification: 0x6b56 (27478)
    Flags: 0x40, Don't fragment
        0... .... = Reserved bit: Not set
        .1.. .... = Don't fragment: Set
        ..0. .... = More fragments: Not set
    ...0 0000 0000 0000 = Fragment Offset: 0
    Time to Live: 63
    Protocol: TCP (6)
    Header Checksum: 0x6519 [validation disabled]
    [Header checksum status: Unverified]
    Source Address: 10.73.14.5
    Destination Address: 10.2.73.5
Transmission Control Protocol, Src Port: 22, Dst Port: 49200, Seq: 22, Ack: 1537, Len: 0
    Source Port: 22
    Destination Port: 49200
    [Stream index: 0]
    [Conversation completeness: Incomplete, DATA (15)]
    [TCP Segment Len: 0]
    Sequence Number: 22    (relative sequence number)
    Sequence Number (raw): 2287526206
    [Next Sequence Number: 22    (relative sequence number)]
    Acknowledgment Number: 1537    (relative ack number)
    Acknowledgment number (raw): 3735244134
    1000 .... = Header Length: 32 bytes (8)
    Flags: 0x010 (ACK)
        000. .... .... = Reserved: Not set
        ...0 .... .... = Nonce: Not set
        .... 0... .... = Congestion Window Reduced (CWR): Not set
        .... .0.. .... = ECN-Echo: Not set
        .... ..0. .... = Urgent: Not set
        .... ...1 .... = Acknowledgment: Set
        .... .... 0... = Push: Not set
        .... .... .0.. = Reset: Not set
        .... .... ..0. = Syn: Not set
        .... .... ...0 = Fin: Not set
        [TCP Flags: ·······A····]
    Window: 250
    [Calculated window size: 32000]
    [Window size scaling factor: 128]
    Checksum: 0x2fc7 [unverified]
    [Checksum Status: Unverified]
    Urgent Pointer: 0
    Options: (12 bytes), No-Operation (NOP), No-Operation (NOP), Timestamps
        TCP Option - No-Operation (NOP)
            Kind: No-Operation (1)
        TCP Option - No-Operation (NOP)
            Kind: No-Operation (1)
        TCP Option - Timestamps: TSval 494229, TSecr 3519096929
            Kind: Time Stamp Option (8)
            Length: 10
            Timestamp value: 494229
            Timestamp echo reply: 3519096929
    [Timestamps]
        [Time since first frame in this TCP stream: 0.025197849 seconds]
        [Time since previous frame in this TCP stream: 0.000644063 seconds]
    [SEQ/ACK analysis]
        [This is an ACK to the segment in frame: 8]
        [The RTT to ACK the segment was: 0.000644063 seconds]
        [iRTT: 0.001111753 seconds]

0000  08 00 27 57 5f a0 08 00 27 9f a5 ba 08 00 45 00   ..'W_...'.....E.
0010  00 34 6b 56 40 00 3f 06 65 19 0a 49 0e 05 0a 02   .4kV@.?.e..I....
0020  49 05 00 16 c0 30 88 58 e1 3e de a3 4d 66 80 10   I....0.X.>..Mf..
0030  00 fa 2f c7 00 00 01 01 08 0a 00 07 8a 95 d1 c1   ../.............
0040  28 61                                             (a

No.     Time           Source                Destination           Protocol Length Info
     10 0.030397326    10.73.14.5            10.2.73.5             SSHv2    1346   Server: Key Exchange Init

Frame 10: 1346 bytes on wire (10768 bits), 1346 bytes captured (10768 bits) on interface enp0s3, id 0
    Interface id: 0 (enp0s3)
        Interface name: enp0s3
    Encapsulation type: Ethernet (1)
    Arrival Time: Oct 26, 2022 20:40:27.983311461 EEST
    [Time shift for this packet: 0.000000000 seconds]
    Epoch Time: 1666806027.983311461 seconds
    [Time delta from previous captured frame: 0.005199477 seconds]
    [Time delta from previous displayed frame: 0.005199477 seconds]
    [Time since reference or first frame: 0.030397326 seconds]
    Frame Number: 10
    Frame Length: 1346 bytes (10768 bits)
    Capture Length: 1346 bytes (10768 bits)
    [Frame is marked: False]
    [Frame is ignored: False]
    [Protocols in frame: eth:ethertype:ip:tcp:ssh]
    [Coloring Rule Name: TCP]
    [Coloring Rule String: tcp]
Ethernet II, Src: PcsCompu_9f:a5:ba (08:00:27:9f:a5:ba), Dst: PcsCompu_57:5f:a0 (08:00:27:57:5f:a0)
    Destination: PcsCompu_57:5f:a0 (08:00:27:57:5f:a0)
        Address: PcsCompu_57:5f:a0 (08:00:27:57:5f:a0)
        .... ..0. .... .... .... .... = LG bit: Globally unique address (factory default)
        .... ...0 .... .... .... .... = IG bit: Individual address (unicast)
    Source: PcsCompu_9f:a5:ba (08:00:27:9f:a5:ba)
        Address: PcsCompu_9f:a5:ba (08:00:27:9f:a5:ba)
        .... ..0. .... .... .... .... = LG bit: Globally unique address (factory default)
        .... ...0 .... .... .... .... = IG bit: Individual address (unicast)
    Type: IPv4 (0x0800)
Internet Protocol Version 4, Src: 10.73.14.5, Dst: 10.2.73.5
    0100 .... = Version: 4
    .... 0101 = Header Length: 20 bytes (5)
    Differentiated Services Field: 0x00 (DSCP: CS0, ECN: Not-ECT)
        0000 00.. = Differentiated Services Codepoint: Default (0)
        .... ..00 = Explicit Congestion Notification: Not ECN-Capable Transport (0)
    Total Length: 1332
    Identification: 0x6b57 (27479)
    Flags: 0x40, Don't fragment
        0... .... = Reserved bit: Not set
        .1.. .... = Don't fragment: Set
        ..0. .... = More fragments: Not set
    ...0 0000 0000 0000 = Fragment Offset: 0
    Time to Live: 63
    Protocol: TCP (6)
    Header Checksum: 0x6018 [validation disabled]
    [Header checksum status: Unverified]
    Source Address: 10.73.14.5
    Destination Address: 10.2.73.5
Transmission Control Protocol, Src Port: 22, Dst Port: 49200, Seq: 22, Ack: 1537, Len: 1280
    Source Port: 22
    Destination Port: 49200
    [Stream index: 0]
    [Conversation completeness: Incomplete, DATA (15)]
    [TCP Segment Len: 1280]
    Sequence Number: 22    (relative sequence number)
    Sequence Number (raw): 2287526206
    [Next Sequence Number: 1302    (relative sequence number)]
    Acknowledgment Number: 1537    (relative ack number)
    Acknowledgment number (raw): 3735244134
    1000 .... = Header Length: 32 bytes (8)
    Flags: 0x018 (PSH, ACK)
        000. .... .... = Reserved: Not set
        ...0 .... .... = Nonce: Not set
        .... 0... .... = Congestion Window Reduced (CWR): Not set
        .... .0.. .... = ECN-Echo: Not set
        .... ..0. .... = Urgent: Not set
        .... ...1 .... = Acknowledgment: Set
        .... .... 1... = Push: Set
        .... .... .0.. = Reset: Not set
        .... .... ..0. = Syn: Not set
        .... .... ...0 = Fin: Not set
        [TCP Flags: ·······AP···]
    Window: 250
    [Calculated window size: 32000]
    [Window size scaling factor: 128]
    Checksum: 0x894d [unverified]
    [Checksum Status: Unverified]
    Urgent Pointer: 0
    Options: (12 bytes), No-Operation (NOP), No-Operation (NOP), Timestamps
        TCP Option - No-Operation (NOP)
            Kind: No-Operation (1)
        TCP Option - No-Operation (NOP)
            Kind: No-Operation (1)
        TCP Option - Timestamps: TSval 494234, TSecr 3519096929
            Kind: Time Stamp Option (8)
            Length: 10
            Timestamp value: 494234
            Timestamp echo reply: 3519096929
    [Timestamps]
        [Time since first frame in this TCP stream: 0.030397326 seconds]
        [Time since previous frame in this TCP stream: 0.005199477 seconds]
    [SEQ/ACK analysis]
        [iRTT: 0.001111753 seconds]
        [Bytes in flight: 1280]
        [Bytes sent since last PSH flag: 1280]
    TCP payload (1280 bytes)
SSH Protocol
    SSH Version 2 (encryption:chacha20-poly1305@openssh.com mac:<implicit> compression:none)
        Packet Length: 1276
        Padding Length: 10
        Key Exchange (method:curve25519-sha256)
            Message Code: Key Exchange Init (20)
            Algorithms
                Cookie: 053688d831c0dadfb04ca1c4fec29b76
                kex_algorithms length: 320
                kex_algorithms string [truncated]: curve25519-sha256,curve25519-sha256@libssh.org,ecdh-sha2-nistp256,ecdh-sha2-nistp384,ecdh-sha2-nistp521,diffie-hellman-group-exchange-sha256,diffie-hellman-group16-sha512,diffie-hellman-group18-sha512,di
                server_host_key_algorithms length: 65
                server_host_key_algorithms string: ssh-rsa,rsa-sha2-512,rsa-sha2-256,ecdsa-sha2-nistp256,ssh-ed25519
                encryption_algorithms_client_to_server length: 175
                encryption_algorithms_client_to_server string: chacha20-poly1305@openssh.com,aes128-ctr,aes192-ctr,aes256-ctr,aes128-gcm@openssh.com,aes256-gcm@openssh.com,aes128-cbc,aes192-cbc,aes256-cbc,blowfish-cbc,cast128-cbc,3des-cbc
                encryption_algorithms_server_to_client length: 175
                encryption_algorithms_server_to_client string: chacha20-poly1305@openssh.com,aes128-ctr,aes192-ctr,aes256-ctr,aes128-gcm@openssh.com,aes256-gcm@openssh.com,aes128-cbc,aes192-cbc,aes256-cbc,blowfish-cbc,cast128-cbc,3des-cbc
                mac_algorithms_client_to_server length: 213
                mac_algorithms_client_to_server string [truncated]: umac-64-etm@openssh.com,umac-128-etm@openssh.com,hmac-sha2-256-etm@openssh.com,hmac-sha2-512-etm@openssh.com,hmac-sha1-etm@openssh.com,umac-64@openssh.com,umac-128@openssh.com,hmac-sha2-
                mac_algorithms_server_to_client length: 213
                mac_algorithms_server_to_client string [truncated]: umac-64-etm@openssh.com,umac-128-etm@openssh.com,hmac-sha2-256-etm@openssh.com,hmac-sha2-512-etm@openssh.com,hmac-sha1-etm@openssh.com,umac-64@openssh.com,umac-128@openssh.com,hmac-sha2-
                compression_algorithms_client_to_server length: 21
                compression_algorithms_client_to_server string: none,zlib@openssh.com
                compression_algorithms_server_to_client length: 21
                compression_algorithms_server_to_client string: none,zlib@openssh.com
                languages_client_to_server length: 0
                languages_client_to_server string: 
                languages_server_to_client length: 0
                languages_server_to_client string: 
                First KEX Packet Follows: 0
                Reserved: 00000000
                [hasshServerAlgorithms [truncated]: curve25519-sha256,curve25519-sha256@libssh.org,ecdh-sha2-nistp256,ecdh-sha2-nistp384,ecdh-sha2-nistp521,diffie-hellman-group-exchange-sha256,diffie-hellman-group16-sha512,diffie-hellman-group18-sha512,di]
                [hasshServer: 6832f1ce43d4397c2c0a3e2f8c94334e]
        Padding String: 00000000000000000000
    [Direction: server-to-client]

0000  08 00 27 57 5f a0 08 00 27 9f a5 ba 08 00 45 00   ..'W_...'.....E.
0010  05 34 6b 57 40 00 3f 06 60 18 0a 49 0e 05 0a 02   .4kW@.?.`..I....
0020  49 05 00 16 c0 30 88 58 e1 3e de a3 4d 66 80 18   I....0.X.>..Mf..
0030  00 fa 89 4d 00 00 01 01 08 0a 00 07 8a 9a d1 c1   ...M............
0040  28 61 00 00 04 fc 0a 14 05 36 88 d8 31 c0 da df   (a.......6..1...
0050  b0 4c a1 c4 fe c2 9b 76 00 00 01 40 63 75 72 76   .L.....v...@curv
0060  65 32 35 35 31 39 2d 73 68 61 32 35 36 2c 63 75   e25519-sha256,cu
0070  72 76 65 32 35 35 31 39 2d 73 68 61 32 35 36 40   rve25519-sha256@
0080  6c 69 62 73 73 68 2e 6f 72 67 2c 65 63 64 68 2d   libssh.org,ecdh-
0090  73 68 61 32 2d 6e 69 73 74 70 32 35 36 2c 65 63   sha2-nistp256,ec
00a0  64 68 2d 73 68 61 32 2d 6e 69 73 74 70 33 38 34   dh-sha2-nistp384
00b0  2c 65 63 64 68 2d 73 68 61 32 2d 6e 69 73 74 70   ,ecdh-sha2-nistp
00c0  35 32 31 2c 64 69 66 66 69 65 2d 68 65 6c 6c 6d   521,diffie-hellm
00d0  61 6e 2d 67 72 6f 75 70 2d 65 78 63 68 61 6e 67   an-group-exchang
00e0  65 2d 73 68 61 32 35 36 2c 64 69 66 66 69 65 2d   e-sha256,diffie-
00f0  68 65 6c 6c 6d 61 6e 2d 67 72 6f 75 70 31 36 2d   hellman-group16-
0100  73 68 61 35 31 32 2c 64 69 66 66 69 65 2d 68 65   sha512,diffie-he
0110  6c 6c 6d 61 6e 2d 67 72 6f 75 70 31 38 2d 73 68   llman-group18-sh
0120  61 35 31 32 2c 64 69 66 66 69 65 2d 68 65 6c 6c   a512,diffie-hell
0130  6d 61 6e 2d 67 72 6f 75 70 2d 65 78 63 68 61 6e   man-group-exchan
0140  67 65 2d 73 68 61 31 2c 64 69 66 66 69 65 2d 68   ge-sha1,diffie-h
0150  65 6c 6c 6d 61 6e 2d 67 72 6f 75 70 31 34 2d 73   ellman-group14-s
0160  68 61 32 35 36 2c 64 69 66 66 69 65 2d 68 65 6c   ha256,diffie-hel
0170  6c 6d 61 6e 2d 67 72 6f 75 70 31 34 2d 73 68 61   lman-group14-sha
0180  31 2c 64 69 66 66 69 65 2d 68 65 6c 6c 6d 61 6e   1,diffie-hellman
0190  2d 67 72 6f 75 70 31 2d 73 68 61 31 00 00 00 41   -group1-sha1...A
01a0  73 73 68 2d 72 73 61 2c 72 73 61 2d 73 68 61 32   ssh-rsa,rsa-sha2
01b0  2d 35 31 32 2c 72 73 61 2d 73 68 61 32 2d 32 35   -512,rsa-sha2-25
01c0  36 2c 65 63 64 73 61 2d 73 68 61 32 2d 6e 69 73   6,ecdsa-sha2-nis
01d0  74 70 32 35 36 2c 73 73 68 2d 65 64 32 35 35 31   tp256,ssh-ed2551
01e0  39 00 00 00 af 63 68 61 63 68 61 32 30 2d 70 6f   9....chacha20-po
01f0  6c 79 31 33 30 35 40 6f 70 65 6e 73 73 68 2e 63   ly1305@openssh.c
0200  6f 6d 2c 61 65 73 31 32 38 2d 63 74 72 2c 61 65   om,aes128-ctr,ae
0210  73 31 39 32 2d 63 74 72 2c 61 65 73 32 35 36 2d   s192-ctr,aes256-
0220  63 74 72 2c 61 65 73 31 32 38 2d 67 63 6d 40 6f   ctr,aes128-gcm@o
0230  70 65 6e 73 73 68 2e 63 6f 6d 2c 61 65 73 32 35   penssh.com,aes25
0240  36 2d 67 63 6d 40 6f 70 65 6e 73 73 68 2e 63 6f   6-gcm@openssh.co
0250  6d 2c 61 65 73 31 32 38 2d 63 62 63 2c 61 65 73   m,aes128-cbc,aes
0260  31 39 32 2d 63 62 63 2c 61 65 73 32 35 36 2d 63   192-cbc,aes256-c
0270  62 63 2c 62 6c 6f 77 66 69 73 68 2d 63 62 63 2c   bc,blowfish-cbc,
0280  63 61 73 74 31 32 38 2d 63 62 63 2c 33 64 65 73   cast128-cbc,3des
0290  2d 63 62 63 00 00 00 af 63 68 61 63 68 61 32 30   -cbc....chacha20
02a0  2d 70 6f 6c 79 31 33 30 35 40 6f 70 65 6e 73 73   -poly1305@openss
02b0  68 2e 63 6f 6d 2c 61 65 73 31 32 38 2d 63 74 72   h.com,aes128-ctr
02c0  2c 61 65 73 31 39 32 2d 63 74 72 2c 61 65 73 32   ,aes192-ctr,aes2
02d0  35 36 2d 63 74 72 2c 61 65 73 31 32 38 2d 67 63   56-ctr,aes128-gc
02e0  6d 40 6f 70 65 6e 73 73 68 2e 63 6f 6d 2c 61 65   m@openssh.com,ae
02f0  73 32 35 36 2d 67 63 6d 40 6f 70 65 6e 73 73 68   s256-gcm@openssh
0300  2e 63 6f 6d 2c 61 65 73 31 32 38 2d 63 62 63 2c   .com,aes128-cbc,
0310  61 65 73 31 39 32 2d 63 62 63 2c 61 65 73 32 35   aes192-cbc,aes25
0320  36 2d 63 62 63 2c 62 6c 6f 77 66 69 73 68 2d 63   6-cbc,blowfish-c
0330  62 63 2c 63 61 73 74 31 32 38 2d 63 62 63 2c 33   bc,cast128-cbc,3
0340  64 65 73 2d 63 62 63 00 00 00 d5 75 6d 61 63 2d   des-cbc....umac-
0350  36 34 2d 65 74 6d 40 6f 70 65 6e 73 73 68 2e 63   64-etm@openssh.c
0360  6f 6d 2c 75 6d 61 63 2d 31 32 38 2d 65 74 6d 40   om,umac-128-etm@
0370  6f 70 65 6e 73 73 68 2e 63 6f 6d 2c 68 6d 61 63   openssh.com,hmac
0380  2d 73 68 61 32 2d 32 35 36 2d 65 74 6d 40 6f 70   -sha2-256-etm@op
0390  65 6e 73 73 68 2e 63 6f 6d 2c 68 6d 61 63 2d 73   enssh.com,hmac-s
03a0  68 61 32 2d 35 31 32 2d 65 74 6d 40 6f 70 65 6e   ha2-512-etm@open
03b0  73 73 68 2e 63 6f 6d 2c 68 6d 61 63 2d 73 68 61   ssh.com,hmac-sha
03c0  31 2d 65 74 6d 40 6f 70 65 6e 73 73 68 2e 63 6f   1-etm@openssh.co
03d0  6d 2c 75 6d 61 63 2d 36 34 40 6f 70 65 6e 73 73   m,umac-64@openss
03e0  68 2e 63 6f 6d 2c 75 6d 61 63 2d 31 32 38 40 6f   h.com,umac-128@o
03f0  70 65 6e 73 73 68 2e 63 6f 6d 2c 68 6d 61 63 2d   penssh.com,hmac-
0400  73 68 61 32 2d 32 35 36 2c 68 6d 61 63 2d 73 68   sha2-256,hmac-sh
0410  61 32 2d 35 31 32 2c 68 6d 61 63 2d 73 68 61 31   a2-512,hmac-sha1
0420  00 00 00 d5 75 6d 61 63 2d 36 34 2d 65 74 6d 40   ....umac-64-etm@
0430  6f 70 65 6e 73 73 68 2e 63 6f 6d 2c 75 6d 61 63   openssh.com,umac
0440  2d 31 32 38 2d 65 74 6d 40 6f 70 65 6e 73 73 68   -128-etm@openssh
0450  2e 63 6f 6d 2c 68 6d 61 63 2d 73 68 61 32 2d 32   .com,hmac-sha2-2
0460  35 36 2d 65 74 6d 40 6f 70 65 6e 73 73 68 2e 63   56-etm@openssh.c
0470  6f 6d 2c 68 6d 61 63 2d 73 68 61 32 2d 35 31 32   om,hmac-sha2-512
0480  2d 65 74 6d 40 6f 70 65 6e 73 73 68 2e 63 6f 6d   -etm@openssh.com
0490  2c 68 6d 61 63 2d 73 68 61 31 2d 65 74 6d 40 6f   ,hmac-sha1-etm@o
04a0  70 65 6e 73 73 68 2e 63 6f 6d 2c 75 6d 61 63 2d   penssh.com,umac-
04b0  36 34 40 6f 70 65 6e 73 73 68 2e 63 6f 6d 2c 75   64@openssh.com,u
04c0  6d 61 63 2d 31 32 38 40 6f 70 65 6e 73 73 68 2e   mac-128@openssh.
04d0  63 6f 6d 2c 68 6d 61 63 2d 73 68 61 32 2d 32 35   com,hmac-sha2-25
04e0  36 2c 68 6d 61 63 2d 73 68 61 32 2d 35 31 32 2c   6,hmac-sha2-512,
04f0  68 6d 61 63 2d 73 68 61 31 00 00 00 15 6e 6f 6e   hmac-sha1....non
0500  65 2c 7a 6c 69 62 40 6f 70 65 6e 73 73 68 2e 63   e,zlib@openssh.c
0510  6f 6d 00 00 00 15 6e 6f 6e 65 2c 7a 6c 69 62 40   om....none,zlib@
0520  6f 70 65 6e 73 73 68 2e 63 6f 6d 00 00 00 00 00   openssh.com.....
0530  00 00 00 00 00 00 00 00 00 00 00 00 00 00 00 00   ................
0540  00 00                                             ..

No.     Time           Source                Destination           Protocol Length Info
     11 0.034456220    10.2.73.5             10.73.14.5            SSHv2    114    Client: Elliptic Curve Diffie-Hellman Key Exchange Init

Frame 11: 114 bytes on wire (912 bits), 114 bytes captured (912 bits) on interface enp0s3, id 0
    Interface id: 0 (enp0s3)
        Interface name: enp0s3
    Encapsulation type: Ethernet (1)
    Arrival Time: Oct 26, 2022 20:40:27.987370355 EEST
    [Time shift for this packet: 0.000000000 seconds]
    Epoch Time: 1666806027.987370355 seconds
    [Time delta from previous captured frame: 0.004058894 seconds]
    [Time delta from previous displayed frame: 0.004058894 seconds]
    [Time since reference or first frame: 0.034456220 seconds]
    Frame Number: 11
    Frame Length: 114 bytes (912 bits)
    Capture Length: 114 bytes (912 bits)
    [Frame is marked: False]
    [Frame is ignored: False]
    [Protocols in frame: eth:ethertype:ip:tcp:ssh]
    [Coloring Rule Name: TCP]
    [Coloring Rule String: tcp]
Ethernet II, Src: PcsCompu_57:5f:a0 (08:00:27:57:5f:a0), Dst: PcsCompu_9f:a5:ba (08:00:27:9f:a5:ba)
    Destination: PcsCompu_9f:a5:ba (08:00:27:9f:a5:ba)
        Address: PcsCompu_9f:a5:ba (08:00:27:9f:a5:ba)
        .... ..0. .... .... .... .... = LG bit: Globally unique address (factory default)
        .... ...0 .... .... .... .... = IG bit: Individual address (unicast)
    Source: PcsCompu_57:5f:a0 (08:00:27:57:5f:a0)
        Address: PcsCompu_57:5f:a0 (08:00:27:57:5f:a0)
        .... ..0. .... .... .... .... = LG bit: Globally unique address (factory default)
        .... ...0 .... .... .... .... = IG bit: Individual address (unicast)
    Type: IPv4 (0x0800)
Internet Protocol Version 4, Src: 10.2.73.5, Dst: 10.73.14.5
    0100 .... = Version: 4
    .... 0101 = Header Length: 20 bytes (5)
    Differentiated Services Field: 0x10 (DSCP: Unknown, ECN: Not-ECT)
        0001 00.. = Differentiated Services Codepoint: Unknown (4)
        .... ..00 = Explicit Congestion Notification: Not ECN-Capable Transport (0)
    Total Length: 100
    Identification: 0xf900 (63744)
    Flags: 0x40, Don't fragment
        0... .... = Reserved bit: Not set
        .1.. .... = Don't fragment: Set
        ..0. .... = More fragments: Not set
    ...0 0000 0000 0000 = Fragment Offset: 0
    Time to Live: 64
    Protocol: TCP (6)
    Header Checksum: 0xd62e [validation disabled]
    [Header checksum status: Unverified]
    Source Address: 10.2.73.5
    Destination Address: 10.73.14.5
Transmission Control Protocol, Src Port: 49200, Dst Port: 22, Seq: 1537, Ack: 1302, Len: 48
    Source Port: 49200
    Destination Port: 22
    [Stream index: 0]
    [Conversation completeness: Incomplete, DATA (15)]
    [TCP Segment Len: 48]
    Sequence Number: 1537    (relative sequence number)
    Sequence Number (raw): 3735244134
    [Next Sequence Number: 1585    (relative sequence number)]
    Acknowledgment Number: 1302    (relative ack number)
    Acknowledgment number (raw): 2287527486
    1000 .... = Header Length: 32 bytes (8)
    Flags: 0x018 (PSH, ACK)
        000. .... .... = Reserved: Not set
        ...0 .... .... = Nonce: Not set
        .... 0... .... = Congestion Window Reduced (CWR): Not set
        .... .0.. .... = ECN-Echo: Not set
        .... ..0. .... = Urgent: Not set
        .... ...1 .... = Acknowledgment: Set
        .... .... 1... = Push: Set
        .... .... .0.. = Reset: Not set
        .... .... ..0. = Syn: Not set
        .... .... ...0 = Fin: Not set
        [TCP Flags: ·······AP···]
    Window: 501
    [Calculated window size: 64128]
    [Window size scaling factor: 128]
    Checksum: 0x6bab [unverified]
    [Checksum Status: Unverified]
    Urgent Pointer: 0
    Options: (12 bytes), No-Operation (NOP), No-Operation (NOP), Timestamps
        TCP Option - No-Operation (NOP)
            Kind: No-Operation (1)
        TCP Option - No-Operation (NOP)
            Kind: No-Operation (1)
        TCP Option - Timestamps: TSval 3519096939, TSecr 494234
            Kind: Time Stamp Option (8)
            Length: 10
            Timestamp value: 3519096939
            Timestamp echo reply: 494234
    [Timestamps]
        [Time since first frame in this TCP stream: 0.034456220 seconds]
        [Time since previous frame in this TCP stream: 0.004058894 seconds]
    [SEQ/ACK analysis]
        [This is an ACK to the segment in frame: 10]
        [The RTT to ACK the segment was: 0.004058894 seconds]
        [iRTT: 0.001111753 seconds]
        [Bytes in flight: 48]
        [Bytes sent since last PSH flag: 48]
    TCP payload (48 bytes)
SSH Protocol
    SSH Version 2 (encryption:chacha20-poly1305@openssh.com mac:<implicit> compression:none)
        Packet Length: 44
        Padding Length: 6
        Key Exchange (method:curve25519-sha256)
            Message Code: Elliptic Curve Diffie-Hellman Key Exchange Init (30)
            ECDH client's ephemeral public key length: 32
            ECDH client's ephemeral public key (Q_C): 31b1be7f3587d780f07f87e54e3d128ab0217d000c1a9b61b1724dd0498fe624
        Padding String: 000000000000
    [Direction: client-to-server]

0000  08 00 27 9f a5 ba 08 00 27 57 5f a0 08 00 45 10   ..'.....'W_...E.
0010  00 64 f9 00 40 00 40 06 d6 2e 0a 02 49 05 0a 49   .d..@.@.....I..I
0020  0e 05 c0 30 00 16 de a3 4d 66 88 58 e6 3e 80 18   ...0....Mf.X.>..
0030  01 f5 6b ab 00 00 01 01 08 0a d1 c1 28 6b 00 07   ..k.........(k..
0040  8a 9a 00 00 00 2c 06 1e 00 00 00 20 31 b1 be 7f   .....,..... 1...
0050  35 87 d7 80 f0 7f 87 e5 4e 3d 12 8a b0 21 7d 00   5.......N=...!}.
0060  0c 1a 9b 61 b1 72 4d d0 49 8f e6 24 00 00 00 00   ...a.rM.I..$....
0070  00 00                                             ..

No.     Time           Source                Destination           Protocol Length Info
     12 0.046278176    10.73.14.5            10.2.73.5             SSHv2    358    Server: Elliptic Curve Diffie-Hellman Key Exchange Reply, New Keys, Encrypted packet (len=84)

Frame 12: 358 bytes on wire (2864 bits), 358 bytes captured (2864 bits) on interface enp0s3, id 0
    Interface id: 0 (enp0s3)
        Interface name: enp0s3
    Encapsulation type: Ethernet (1)
    Arrival Time: Oct 26, 2022 20:40:27.999192311 EEST
    [Time shift for this packet: 0.000000000 seconds]
    Epoch Time: 1666806027.999192311 seconds
    [Time delta from previous captured frame: 0.011821956 seconds]
    [Time delta from previous displayed frame: 0.011821956 seconds]
    [Time since reference or first frame: 0.046278176 seconds]
    Frame Number: 12
    Frame Length: 358 bytes (2864 bits)
    Capture Length: 358 bytes (2864 bits)
    [Frame is marked: False]
    [Frame is ignored: False]
    [Protocols in frame: eth:ethertype:ip:tcp:ssh]
    [Coloring Rule Name: TCP]
    [Coloring Rule String: tcp]
Ethernet II, Src: PcsCompu_9f:a5:ba (08:00:27:9f:a5:ba), Dst: PcsCompu_57:5f:a0 (08:00:27:57:5f:a0)
    Destination: PcsCompu_57:5f:a0 (08:00:27:57:5f:a0)
        Address: PcsCompu_57:5f:a0 (08:00:27:57:5f:a0)
        .... ..0. .... .... .... .... = LG bit: Globally unique address (factory default)
        .... ...0 .... .... .... .... = IG bit: Individual address (unicast)
    Source: PcsCompu_9f:a5:ba (08:00:27:9f:a5:ba)
        Address: PcsCompu_9f:a5:ba (08:00:27:9f:a5:ba)
        .... ..0. .... .... .... .... = LG bit: Globally unique address (factory default)
        .... ...0 .... .... .... .... = IG bit: Individual address (unicast)
    Type: IPv4 (0x0800)
Internet Protocol Version 4, Src: 10.73.14.5, Dst: 10.2.73.5
    0100 .... = Version: 4
    .... 0101 = Header Length: 20 bytes (5)
    Differentiated Services Field: 0x00 (DSCP: CS0, ECN: Not-ECT)
        0000 00.. = Differentiated Services Codepoint: Default (0)
        .... ..00 = Explicit Congestion Notification: Not ECN-Capable Transport (0)
    Total Length: 344
    Identification: 0x6b58 (27480)
    Flags: 0x40, Don't fragment
        0... .... = Reserved bit: Not set
        .1.. .... = Don't fragment: Set
        ..0. .... = More fragments: Not set
    ...0 0000 0000 0000 = Fragment Offset: 0
    Time to Live: 63
    Protocol: TCP (6)
    Header Checksum: 0x63f3 [validation disabled]
    [Header checksum status: Unverified]
    Source Address: 10.73.14.5
    Destination Address: 10.2.73.5
Transmission Control Protocol, Src Port: 22, Dst Port: 49200, Seq: 1302, Ack: 1585, Len: 292
    Source Port: 22
    Destination Port: 49200
    [Stream index: 0]
    [Conversation completeness: Incomplete, DATA (15)]
    [TCP Segment Len: 292]
    Sequence Number: 1302    (relative sequence number)
    Sequence Number (raw): 2287527486
    [Next Sequence Number: 1594    (relative sequence number)]
    Acknowledgment Number: 1585    (relative ack number)
    Acknowledgment number (raw): 3735244182
    1000 .... = Header Length: 32 bytes (8)
    Flags: 0x018 (PSH, ACK)
        000. .... .... = Reserved: Not set
        ...0 .... .... = Nonce: Not set
        .... 0... .... = Congestion Window Reduced (CWR): Not set
        .... .0.. .... = ECN-Echo: Not set
        .... ..0. .... = Urgent: Not set
        .... ...1 .... = Acknowledgment: Set
        .... .... 1... = Push: Set
        .... .... .0.. = Reset: Not set
        .... .... ..0. = Syn: Not set
        .... .... ...0 = Fin: Not set
        [TCP Flags: ·······AP···]
    Window: 250
    [Calculated window size: 32000]
    [Window size scaling factor: 128]
    Checksum: 0x0eb1 [unverified]
    [Checksum Status: Unverified]
    Urgent Pointer: 0
    Options: (12 bytes), No-Operation (NOP), No-Operation (NOP), Timestamps
        TCP Option - No-Operation (NOP)
            Kind: No-Operation (1)
        TCP Option - No-Operation (NOP)
            Kind: No-Operation (1)
        TCP Option - Timestamps: TSval 494250, TSecr 3519096939
            Kind: Time Stamp Option (8)
            Length: 10
            Timestamp value: 494250
            Timestamp echo reply: 3519096939
    [Timestamps]
        [Time since first frame in this TCP stream: 0.046278176 seconds]
        [Time since previous frame in this TCP stream: 0.011821956 seconds]
    [SEQ/ACK analysis]
        [This is an ACK to the segment in frame: 11]
        [The RTT to ACK the segment was: 0.011821956 seconds]
        [iRTT: 0.001111753 seconds]
        [Bytes in flight: 292]
        [Bytes sent since last PSH flag: 292]
    TCP payload (292 bytes)
SSH Protocol
    SSH Version 2 (encryption:chacha20-poly1305@openssh.com mac:<implicit> compression:none)
        Packet Length: 188
        Padding Length: 8
        Key Exchange (method:curve25519-sha256)
            Message Code: Elliptic Curve Diffie-Hellman Key Exchange Reply (31)
            KEX host key (type: ssh-ed25519)
                Host key length: 51
                Host key type length: 11
                Host key type: ssh-ed25519
                EdDSA public key length: 32
                EdDSA public key: 0c0fb442ce77839355c6861fe9bdd906762f13ad8e7e93034ed21957cdcc551a
            ECDH server's ephemeral public key length: 32
            ECDH server's ephemeral public key (Q_S): 79889a10262c0a0ee206978db426ec9954b618e87cbcb28d6039a05ab51c345f
            KEX H signature length: 83
            KEX H signature: 0000000b7373682d6564323535313900000040fce1cc380acc476efec52b0f3c2744bed9…
        Padding String: 0000000000000000
    SSH Version 2 (encryption:chacha20-poly1305@openssh.com mac:<implicit> compression:none)
        Packet Length: 12
        Padding Length: 10
        Key Exchange (method:curve25519-sha256)
            Message Code: New Keys (21)
        Padding String: 00000000000000000000
    SSH Version 2 (encryption:chacha20-poly1305@openssh.com mac:<implicit> compression:none)
        Packet Length (encrypted): 4e1ca78c
        Encrypted Packet: 43622ab953bc7e42a251ec7f6b1e623a8b37f55fe9c4445c96d9eb8fb715df31e5be996d…
        MAC: fa6f178647dc56c3443563d98b5195c2
    [Direction: server-to-client]

0000  08 00 27 57 5f a0 08 00 27 9f a5 ba 08 00 45 00   ..'W_...'.....E.
0010  01 58 6b 58 40 00 3f 06 63 f3 0a 49 0e 05 0a 02   .XkX@.?.c..I....
0020  49 05 00 16 c0 30 88 58 e6 3e de a3 4d 96 80 18   I....0.X.>..M...
0030  00 fa 0e b1 00 00 01 01 08 0a 00 07 8a aa d1 c1   ................
0040  28 6b 00 00 00 bc 08 1f 00 00 00 33 00 00 00 0b   (k.........3....
0050  73 73 68 2d 65 64 32 35 35 31 39 00 00 00 20 0c   ssh-ed25519... .
0060  0f b4 42 ce 77 83 93 55 c6 86 1f e9 bd d9 06 76   ..B.w..U.......v
0070  2f 13 ad 8e 7e 93 03 4e d2 19 57 cd cc 55 1a 00   /...~..N..W..U..
0080  00 00 20 79 88 9a 10 26 2c 0a 0e e2 06 97 8d b4   .. y...&,.......
0090  26 ec 99 54 b6 18 e8 7c bc b2 8d 60 39 a0 5a b5   &..T...|...`9.Z.
00a0  1c 34 5f 00 00 00 53 00 00 00 0b 73 73 68 2d 65   .4_...S....ssh-e
00b0  64 32 35 35 31 39 00 00 00 40 fc e1 cc 38 0a cc   d25519...@...8..
00c0  47 6e fe c5 2b 0f 3c 27 44 be d9 19 aa 31 3b 6f   Gn..+.<'D....1;o
00d0  4e 78 c3 70 19 4a c1 4c e8 5f af 16 96 c3 37 76   Nx.p.J.L._....7v
00e0  16 4d fa e9 a9 6c 17 c3 02 2a 00 4c 01 9e 21 f5   .M...l...*.L..!.
00f0  9d e4 81 f8 d2 01 84 9f f0 06 00 00 00 00 00 00   ................
0100  00 00 00 00 00 0c 0a 15 00 00 00 00 00 00 00 00   ................
0110  00 00 4e 1c a7 8c 43 62 2a b9 53 bc 7e 42 a2 51   ..N...Cb*.S.~B.Q
0120  ec 7f 6b 1e 62 3a 8b 37 f5 5f e9 c4 44 5c 96 d9   ..k.b:.7._..D\..
0130  eb 8f b7 15 df 31 e5 be 99 6d b8 47 f3 d8 11 c8   .....1...m.G....
0140  e9 ce c1 f0 37 62 53 c9 7d ec 1b a0 c6 fd a2 9e   ....7bS.}.......
0150  fd d5 91 b1 74 55 fa 6f 17 86 47 dc 56 c3 44 35   ....tU.o..G.V.D5
0160  63 d9 8b 51 95 c2                                 c..Q..

No.     Time           Source                Destination           Protocol Length Info
     13 0.056573049    10.2.73.5             10.73.14.5            SSHv2    82     Client: New Keys

Frame 13: 82 bytes on wire (656 bits), 82 bytes captured (656 bits) on interface enp0s3, id 0
    Interface id: 0 (enp0s3)
        Interface name: enp0s3
    Encapsulation type: Ethernet (1)
    Arrival Time: Oct 26, 2022 20:40:28.009487184 EEST
    [Time shift for this packet: 0.000000000 seconds]
    Epoch Time: 1666806028.009487184 seconds
    [Time delta from previous captured frame: 0.010294873 seconds]
    [Time delta from previous displayed frame: 0.010294873 seconds]
    [Time since reference or first frame: 0.056573049 seconds]
    Frame Number: 13
    Frame Length: 82 bytes (656 bits)
    Capture Length: 82 bytes (656 bits)
    [Frame is marked: False]
    [Frame is ignored: False]
    [Protocols in frame: eth:ethertype:ip:tcp:ssh]
    [Coloring Rule Name: TCP]
    [Coloring Rule String: tcp]
Ethernet II, Src: PcsCompu_57:5f:a0 (08:00:27:57:5f:a0), Dst: PcsCompu_9f:a5:ba (08:00:27:9f:a5:ba)
    Destination: PcsCompu_9f:a5:ba (08:00:27:9f:a5:ba)
        Address: PcsCompu_9f:a5:ba (08:00:27:9f:a5:ba)
        .... ..0. .... .... .... .... = LG bit: Globally unique address (factory default)
        .... ...0 .... .... .... .... = IG bit: Individual address (unicast)
    Source: PcsCompu_57:5f:a0 (08:00:27:57:5f:a0)
        Address: PcsCompu_57:5f:a0 (08:00:27:57:5f:a0)
        .... ..0. .... .... .... .... = LG bit: Globally unique address (factory default)
        .... ...0 .... .... .... .... = IG bit: Individual address (unicast)
    Type: IPv4 (0x0800)
Internet Protocol Version 4, Src: 10.2.73.5, Dst: 10.73.14.5
    0100 .... = Version: 4
    .... 0101 = Header Length: 20 bytes (5)
    Differentiated Services Field: 0x10 (DSCP: Unknown, ECN: Not-ECT)
        0001 00.. = Differentiated Services Codepoint: Unknown (4)
        .... ..00 = Explicit Congestion Notification: Not ECN-Capable Transport (0)
    Total Length: 68
    Identification: 0xf901 (63745)
    Flags: 0x40, Don't fragment
        0... .... = Reserved bit: Not set
        .1.. .... = Don't fragment: Set
        ..0. .... = More fragments: Not set
    ...0 0000 0000 0000 = Fragment Offset: 0
    Time to Live: 64
    Protocol: TCP (6)
    Header Checksum: 0xd64d [validation disabled]
    [Header checksum status: Unverified]
    Source Address: 10.2.73.5
    Destination Address: 10.73.14.5
Transmission Control Protocol, Src Port: 49200, Dst Port: 22, Seq: 1585, Ack: 1594, Len: 16
    Source Port: 49200
    Destination Port: 22
    [Stream index: 0]
    [Conversation completeness: Incomplete, DATA (15)]
    [TCP Segment Len: 16]
    Sequence Number: 1585    (relative sequence number)
    Sequence Number (raw): 3735244182
    [Next Sequence Number: 1601    (relative sequence number)]
    Acknowledgment Number: 1594    (relative ack number)
    Acknowledgment number (raw): 2287527778
    1000 .... = Header Length: 32 bytes (8)
    Flags: 0x018 (PSH, ACK)
        000. .... .... = Reserved: Not set
        ...0 .... .... = Nonce: Not set
        .... 0... .... = Congestion Window Reduced (CWR): Not set
        .... .0.. .... = ECN-Echo: Not set
        .... ..0. .... = Urgent: Not set
        .... ...1 .... = Acknowledgment: Set
        .... .... 1... = Push: Set
        .... .... .0.. = Reset: Not set
        .... .... ..0. = Syn: Not set
        .... .... ...0 = Fin: Not set
        [TCP Flags: ·······AP···]
    Window: 501
    [Calculated window size: 64128]
    [Window size scaling factor: 128]
    Checksum: 0x6b8b [unverified]
    [Checksum Status: Unverified]
    Urgent Pointer: 0
    Options: (12 bytes), No-Operation (NOP), No-Operation (NOP), Timestamps
        TCP Option - No-Operation (NOP)
            Kind: No-Operation (1)
        TCP Option - No-Operation (NOP)
            Kind: No-Operation (1)
        TCP Option - Timestamps: TSval 3519096961, TSecr 494250
            Kind: Time Stamp Option (8)
            Length: 10
            Timestamp value: 3519096961
            Timestamp echo reply: 494250
    [Timestamps]
        [Time since first frame in this TCP stream: 0.056573049 seconds]
        [Time since previous frame in this TCP stream: 0.010294873 seconds]
    [SEQ/ACK analysis]
        [This is an ACK to the segment in frame: 12]
        [The RTT to ACK the segment was: 0.010294873 seconds]
        [iRTT: 0.001111753 seconds]
        [Bytes in flight: 16]
        [Bytes sent since last PSH flag: 16]
    TCP payload (16 bytes)
SSH Protocol
    SSH Version 2 (encryption:chacha20-poly1305@openssh.com mac:<implicit> compression:none)
        Packet Length: 12
        Padding Length: 10
        Key Exchange (method:curve25519-sha256)
            Message Code: New Keys (21)
        Padding String: 00000000000000000000
    [Direction: client-to-server]

0000  08 00 27 9f a5 ba 08 00 27 57 5f a0 08 00 45 10   ..'.....'W_...E.
0010  00 44 f9 01 40 00 40 06 d6 4d 0a 02 49 05 0a 49   .D..@.@..M..I..I
0020  0e 05 c0 30 00 16 de a3 4d 96 88 58 e7 62 80 18   ...0....M..X.b..
0030  01 f5 6b 8b 00 00 01 01 08 0a d1 c1 28 81 00 07   ..k.........(...
0040  8a aa 00 00 00 0c 0a 15 00 00 00 00 00 00 00 00   ................
0050  00 00                                             ..

No.     Time           Source                Destination           Protocol Length Info
     14 0.097482936    10.73.14.5            10.2.73.5             TCP      66     22 → 49200 [ACK] Seq=1594 Ack=1601 Win=32000 Len=0 TSval=494301 TSecr=3519096961

Frame 14: 66 bytes on wire (528 bits), 66 bytes captured (528 bits) on interface enp0s3, id 0
    Interface id: 0 (enp0s3)
        Interface name: enp0s3
    Encapsulation type: Ethernet (1)
    Arrival Time: Oct 26, 2022 20:40:28.050397071 EEST
    [Time shift for this packet: 0.000000000 seconds]
    Epoch Time: 1666806028.050397071 seconds
    [Time delta from previous captured frame: 0.040909887 seconds]
    [Time delta from previous displayed frame: 0.040909887 seconds]
    [Time since reference or first frame: 0.097482936 seconds]
    Frame Number: 14
    Frame Length: 66 bytes (528 bits)
    Capture Length: 66 bytes (528 bits)
    [Frame is marked: False]
    [Frame is ignored: False]
    [Protocols in frame: eth:ethertype:ip:tcp]
    [Coloring Rule Name: TCP]
    [Coloring Rule String: tcp]
Ethernet II, Src: PcsCompu_9f:a5:ba (08:00:27:9f:a5:ba), Dst: PcsCompu_57:5f:a0 (08:00:27:57:5f:a0)
    Destination: PcsCompu_57:5f:a0 (08:00:27:57:5f:a0)
        Address: PcsCompu_57:5f:a0 (08:00:27:57:5f:a0)
        .... ..0. .... .... .... .... = LG bit: Globally unique address (factory default)
        .... ...0 .... .... .... .... = IG bit: Individual address (unicast)
    Source: PcsCompu_9f:a5:ba (08:00:27:9f:a5:ba)
        Address: PcsCompu_9f:a5:ba (08:00:27:9f:a5:ba)
        .... ..0. .... .... .... .... = LG bit: Globally unique address (factory default)
        .... ...0 .... .... .... .... = IG bit: Individual address (unicast)
    Type: IPv4 (0x0800)
Internet Protocol Version 4, Src: 10.73.14.5, Dst: 10.2.73.5
    0100 .... = Version: 4
    .... 0101 = Header Length: 20 bytes (5)
    Differentiated Services Field: 0x00 (DSCP: CS0, ECN: Not-ECT)
        0000 00.. = Differentiated Services Codepoint: Default (0)
        .... ..00 = Explicit Congestion Notification: Not ECN-Capable Transport (0)
    Total Length: 52
    Identification: 0x6b59 (27481)
    Flags: 0x40, Don't fragment
        0... .... = Reserved bit: Not set
        .1.. .... = Don't fragment: Set
        ..0. .... = More fragments: Not set
    ...0 0000 0000 0000 = Fragment Offset: 0
    Time to Live: 63
    Protocol: TCP (6)
    Header Checksum: 0x6516 [validation disabled]
    [Header checksum status: Unverified]
    Source Address: 10.73.14.5
    Destination Address: 10.2.73.5
Transmission Control Protocol, Src Port: 22, Dst Port: 49200, Seq: 1594, Ack: 1601, Len: 0
    Source Port: 22
    Destination Port: 49200
    [Stream index: 0]
    [Conversation completeness: Incomplete, DATA (15)]
    [TCP Segment Len: 0]
    Sequence Number: 1594    (relative sequence number)
    Sequence Number (raw): 2287527778
    [Next Sequence Number: 1594    (relative sequence number)]
    Acknowledgment Number: 1601    (relative ack number)
    Acknowledgment number (raw): 3735244198
    1000 .... = Header Length: 32 bytes (8)
    Flags: 0x010 (ACK)
        000. .... .... = Reserved: Not set
        ...0 .... .... = Nonce: Not set
        .... 0... .... = Congestion Window Reduced (CWR): Not set
        .... .0.. .... = ECN-Echo: Not set
        .... ..0. .... = Urgent: Not set
        .... ...1 .... = Acknowledgment: Set
        .... .... 0... = Push: Not set
        .... .... .0.. = Reset: Not set
        .... .... ..0. = Syn: Not set
        .... .... ...0 = Fin: Not set
        [TCP Flags: ·······A····]
    Window: 250
    [Calculated window size: 32000]
    [Window size scaling factor: 128]
    Checksum: 0x28fb [unverified]
    [Checksum Status: Unverified]
    Urgent Pointer: 0
    Options: (12 bytes), No-Operation (NOP), No-Operation (NOP), Timestamps
        TCP Option - No-Operation (NOP)
            Kind: No-Operation (1)
        TCP Option - No-Operation (NOP)
            Kind: No-Operation (1)
        TCP Option - Timestamps: TSval 494301, TSecr 3519096961
            Kind: Time Stamp Option (8)
            Length: 10
            Timestamp value: 494301
            Timestamp echo reply: 3519096961
    [Timestamps]
        [Time since first frame in this TCP stream: 0.097482936 seconds]
        [Time since previous frame in this TCP stream: 0.040909887 seconds]
    [SEQ/ACK analysis]
        [This is an ACK to the segment in frame: 13]
        [The RTT to ACK the segment was: 0.040909887 seconds]
        [iRTT: 0.001111753 seconds]

0000  08 00 27 57 5f a0 08 00 27 9f a5 ba 08 00 45 00   ..'W_...'.....E.
0010  00 34 6b 59 40 00 3f 06 65 16 0a 49 0e 05 0a 02   .4kY@.?.e..I....
0020  49 05 00 16 c0 30 88 58 e7 62 de a3 4d a6 80 10   I....0.X.b..M...
0030  00 fa 28 fb 00 00 01 01 08 0a 00 07 8a dd d1 c1   ..(.............
0040  28 81                                             (.

No.     Time           Source                Destination           Protocol Length Info
     15 0.097497889    10.2.73.5             10.73.14.5            SSHv2    110    Client: Encrypted packet (len=44)

Frame 15: 110 bytes on wire (880 bits), 110 bytes captured (880 bits) on interface enp0s3, id 0
    Interface id: 0 (enp0s3)
        Interface name: enp0s3
    Encapsulation type: Ethernet (1)
    Arrival Time: Oct 26, 2022 20:40:28.050412024 EEST
    [Time shift for this packet: 0.000000000 seconds]
    Epoch Time: 1666806028.050412024 seconds
    [Time delta from previous captured frame: 0.000014953 seconds]
    [Time delta from previous displayed frame: 0.000014953 seconds]
    [Time since reference or first frame: 0.097497889 seconds]
    Frame Number: 15
    Frame Length: 110 bytes (880 bits)
    Capture Length: 110 bytes (880 bits)
    [Frame is marked: False]
    [Frame is ignored: False]
    [Protocols in frame: eth:ethertype:ip:tcp:ssh]
    [Coloring Rule Name: TCP]
    [Coloring Rule String: tcp]
Ethernet II, Src: PcsCompu_57:5f:a0 (08:00:27:57:5f:a0), Dst: PcsCompu_9f:a5:ba (08:00:27:9f:a5:ba)
    Destination: PcsCompu_9f:a5:ba (08:00:27:9f:a5:ba)
        Address: PcsCompu_9f:a5:ba (08:00:27:9f:a5:ba)
        .... ..0. .... .... .... .... = LG bit: Globally unique address (factory default)
        .... ...0 .... .... .... .... = IG bit: Individual address (unicast)
    Source: PcsCompu_57:5f:a0 (08:00:27:57:5f:a0)
        Address: PcsCompu_57:5f:a0 (08:00:27:57:5f:a0)
        .... ..0. .... .... .... .... = LG bit: Globally unique address (factory default)
        .... ...0 .... .... .... .... = IG bit: Individual address (unicast)
    Type: IPv4 (0x0800)
Internet Protocol Version 4, Src: 10.2.73.5, Dst: 10.73.14.5
    0100 .... = Version: 4
    .... 0101 = Header Length: 20 bytes (5)
    Differentiated Services Field: 0x10 (DSCP: Unknown, ECN: Not-ECT)
        0001 00.. = Differentiated Services Codepoint: Unknown (4)
        .... ..00 = Explicit Congestion Notification: Not ECN-Capable Transport (0)
    Total Length: 96
    Identification: 0xf902 (63746)
    Flags: 0x40, Don't fragment
        0... .... = Reserved bit: Not set
        .1.. .... = Don't fragment: Set
        ..0. .... = More fragments: Not set
    ...0 0000 0000 0000 = Fragment Offset: 0
    Time to Live: 64
    Protocol: TCP (6)
    Header Checksum: 0xd630 [validation disabled]
    [Header checksum status: Unverified]
    Source Address: 10.2.73.5
    Destination Address: 10.73.14.5
Transmission Control Protocol, Src Port: 49200, Dst Port: 22, Seq: 1601, Ack: 1594, Len: 44
    Source Port: 49200
    Destination Port: 22
    [Stream index: 0]
    [Conversation completeness: Incomplete, DATA (15)]
    [TCP Segment Len: 44]
    Sequence Number: 1601    (relative sequence number)
    Sequence Number (raw): 3735244198
    [Next Sequence Number: 1645    (relative sequence number)]
    Acknowledgment Number: 1594    (relative ack number)
    Acknowledgment number (raw): 2287527778
    1000 .... = Header Length: 32 bytes (8)
    Flags: 0x018 (PSH, ACK)
        000. .... .... = Reserved: Not set
        ...0 .... .... = Nonce: Not set
        .... 0... .... = Congestion Window Reduced (CWR): Not set
        .... .0.. .... = ECN-Echo: Not set
        .... ..0. .... = Urgent: Not set
        .... ...1 .... = Acknowledgment: Set
        .... .... 1... = Push: Set
        .... .... .0.. = Reset: Not set
        .... .... ..0. = Syn: Not set
        .... .... ...0 = Fin: Not set
        [TCP Flags: ·······AP···]
    Window: 501
    [Calculated window size: 64128]
    [Window size scaling factor: 128]
    Checksum: 0x6ba7 [unverified]
    [Checksum Status: Unverified]
    Urgent Pointer: 0
    Options: (12 bytes), No-Operation (NOP), No-Operation (NOP), Timestamps
        TCP Option - No-Operation (NOP)
            Kind: No-Operation (1)
        TCP Option - No-Operation (NOP)
            Kind: No-Operation (1)
        TCP Option - Timestamps: TSval 3519097002, TSecr 494301
            Kind: Time Stamp Option (8)
            Length: 10
            Timestamp value: 3519097002
            Timestamp echo reply: 494301
    [Timestamps]
        [Time since first frame in this TCP stream: 0.097497889 seconds]
        [Time since previous frame in this TCP stream: 0.000014953 seconds]
    [SEQ/ACK analysis]
        [iRTT: 0.001111753 seconds]
        [Bytes in flight: 44]
        [Bytes sent since last PSH flag: 44]
    TCP payload (44 bytes)
SSH Protocol
    SSH Version 2 (encryption:chacha20-poly1305@openssh.com mac:<implicit> compression:none)
        Packet Length (encrypted): 3c794047
        Encrypted Packet: 5f396e76974053dfa654ee7fc610d7e94cd31aaab5b4ef63
        MAC: 0c894b0c8918441f6809e382af77ae3c
    [Direction: client-to-server]

0000  08 00 27 9f a5 ba 08 00 27 57 5f a0 08 00 45 10   ..'.....'W_...E.
0010  00 60 f9 02 40 00 40 06 d6 30 0a 02 49 05 0a 49   .`..@.@..0..I..I
0020  0e 05 c0 30 00 16 de a3 4d a6 88 58 e7 62 80 18   ...0....M..X.b..
0030  01 f5 6b a7 00 00 01 01 08 0a d1 c1 28 aa 00 07   ..k.........(...
0040  8a dd 3c 79 40 47 5f 39 6e 76 97 40 53 df a6 54   ..<y@G_9nv.@S..T
0050  ee 7f c6 10 d7 e9 4c d3 1a aa b5 b4 ef 63 0c 89   ......L......c..
0060  4b 0c 89 18 44 1f 68 09 e3 82 af 77 ae 3c         K...D.h....w.<

No.     Time           Source                Destination           Protocol Length Info
     16 0.097908171    10.73.14.5            10.2.73.5             TCP      66     22 → 49200 [ACK] Seq=1594 Ack=1645 Win=32000 Len=0 TSval=494301 TSecr=3519097002

Frame 16: 66 bytes on wire (528 bits), 66 bytes captured (528 bits) on interface enp0s3, id 0
    Interface id: 0 (enp0s3)
        Interface name: enp0s3
    Encapsulation type: Ethernet (1)
    Arrival Time: Oct 26, 2022 20:40:28.050822306 EEST
    [Time shift for this packet: 0.000000000 seconds]
    Epoch Time: 1666806028.050822306 seconds
    [Time delta from previous captured frame: 0.000410282 seconds]
    [Time delta from previous displayed frame: 0.000410282 seconds]
    [Time since reference or first frame: 0.097908171 seconds]
    Frame Number: 16
    Frame Length: 66 bytes (528 bits)
    Capture Length: 66 bytes (528 bits)
    [Frame is marked: False]
    [Frame is ignored: False]
    [Protocols in frame: eth:ethertype:ip:tcp]
    [Coloring Rule Name: TCP]
    [Coloring Rule String: tcp]
Ethernet II, Src: PcsCompu_9f:a5:ba (08:00:27:9f:a5:ba), Dst: PcsCompu_57:5f:a0 (08:00:27:57:5f:a0)
    Destination: PcsCompu_57:5f:a0 (08:00:27:57:5f:a0)
        Address: PcsCompu_57:5f:a0 (08:00:27:57:5f:a0)
        .... ..0. .... .... .... .... = LG bit: Globally unique address (factory default)
        .... ...0 .... .... .... .... = IG bit: Individual address (unicast)
    Source: PcsCompu_9f:a5:ba (08:00:27:9f:a5:ba)
        Address: PcsCompu_9f:a5:ba (08:00:27:9f:a5:ba)
        .... ..0. .... .... .... .... = LG bit: Globally unique address (factory default)
        .... ...0 .... .... .... .... = IG bit: Individual address (unicast)
    Type: IPv4 (0x0800)
Internet Protocol Version 4, Src: 10.73.14.5, Dst: 10.2.73.5
    0100 .... = Version: 4
    .... 0101 = Header Length: 20 bytes (5)
    Differentiated Services Field: 0x00 (DSCP: CS0, ECN: Not-ECT)
        0000 00.. = Differentiated Services Codepoint: Default (0)
