No.     Time           Source                Destination           Protocol Length Info
      1 0.000000000    10.73.14.5            10.2.73.5             TCP      74     38870 → 22 [SYN] Seq=0 Win=29200 Len=0 MSS=1460 SACK_PERM=1 TSval=110853 TSecr=0 WS=128

Frame 1: 74 bytes on wire (592 bits), 74 bytes captured (592 bits) on interface enp0s3, id 0
    Interface id: 0 (enp0s3)
        Interface name: enp0s3
    Encapsulation type: Ethernet (1)
    Arrival Time: Oct 26, 2022 13:43:12.038744424 EEST
    [Time shift for this packet: 0.000000000 seconds]
    Epoch Time: 1666780992.038744424 seconds
    [Time delta from previous captured frame: 0.000000000 seconds]
    [Time delta from previous displayed frame: 0.000000000 seconds]
    [Time since reference or first frame: 0.000000000 seconds]
    Frame Number: 1
    Frame Length: 74 bytes (592 bits)
    Capture Length: 74 bytes (592 bits)
    [Frame is marked: False]
    [Frame is ignored: False]
    [Protocols in frame: eth:ethertype:ip:tcp]
    [Coloring Rule Name: TCP SYN/FIN]
    [Coloring Rule String: tcp.flags & 0x02 || tcp.flags.fin == 1]
Ethernet II, Src: PcsCompu_9f:a5:ba (08:00:27:9f:a5:ba), Dst: PcsCompu_57:5f:a0 (08:00:27:57:5f:a0)
    Destination: PcsCompu_57:5f:a0 (08:00:27:57:5f:a0)
        Address: PcsCompu_57:5f:a0 (08:00:27:57:5f:a0)
        .... ..0. .... .... .... .... = LG bit: Globally unique address (factory default)
        .... ...0 .... .... .... .... = IG bit: Individual address (unicast)
    Source: PcsCompu_9f:a5:ba (08:00:27:9f:a5:ba)
        Address: PcsCompu_9f:a5:ba (08:00:27:9f:a5:ba)
        .... ..0. .... .... .... .... = LG bit: Globally unique address (factory default)
        .... ...0 .... .... .... .... = IG bit: Individual address (unicast)
    Type: IPv4 (0x0800)
Internet Protocol Version 4, Src: 10.73.14.5, Dst: 10.2.73.5
    0100 .... = Version: 4
    .... 0101 = Header Length: 20 bytes (5)
    Differentiated Services Field: 0x00 (DSCP: CS0, ECN: Not-ECT)
        0000 00.. = Differentiated Services Codepoint: Default (0)
        .... ..00 = Explicit Congestion Notification: Not ECN-Capable Transport (0)
    Total Length: 60
    Identification: 0x3714 (14100)
    Flags: 0x40, Don't fragment
        0... .... = Reserved bit: Not set
        .1.. .... = Don't fragment: Set
        ..0. .... = More fragments: Not set
    ...0 0000 0000 0000 = Fragment Offset: 0
    Time to Live: 63
    Protocol: TCP (6)
    Header Checksum: 0x9953 [validation disabled]
    [Header checksum status: Unverified]
    Source Address: 10.73.14.5
    Destination Address: 10.2.73.5
Transmission Control Protocol, Src Port: 38870, Dst Port: 22, Seq: 0, Len: 0
    Source Port: 38870
    Destination Port: 22
    [Stream index: 0]
    [Conversation completeness: Incomplete, DATA (15)]
    [TCP Segment Len: 0]
    Sequence Number: 0    (relative sequence number)
    Sequence Number (raw): 2970650129
    [Next Sequence Number: 1    (relative sequence number)]
    Acknowledgment Number: 0
    Acknowledgment number (raw): 0
    1010 .... = Header Length: 40 bytes (10)
    Flags: 0x002 (SYN)
        000. .... .... = Reserved: Not set
        ...0 .... .... = Nonce: Not set
        .... 0... .... = Congestion Window Reduced (CWR): Not set
        .... .0.. .... = ECN-Echo: Not set
        .... ..0. .... = Urgent: Not set
        .... ...0 .... = Acknowledgment: Not set
        .... .... 0... = Push: Not set
        .... .... .0.. = Reset: Not set
        .... .... ..1. = Syn: Set
            [Expert Info (Chat/Sequence): Connection establish request (SYN): server port 22]
                [Connection establish request (SYN): server port 22]
                [Severity level: Chat]
                [Group: Sequence]
        .... .... ...0 = Fin: Not set
        [TCP Flags: ··········S·]
    Window: 29200
    [Calculated window size: 29200]
    Checksum: 0xea85 [unverified]
    [Checksum Status: Unverified]
    Urgent Pointer: 0
    Options: (20 bytes), Maximum segment size, SACK permitted, Timestamps, No-Operation (NOP), Window scale
        TCP Option - Maximum segment size: 1460 bytes
            Kind: Maximum Segment Size (2)
            Length: 4
            MSS Value: 1460
        TCP Option - SACK permitted
            Kind: SACK Permitted (4)
            Length: 2
        TCP Option - Timestamps: TSval 110853, TSecr 0
            Kind: Time Stamp Option (8)
            Length: 10
            Timestamp value: 110853
            Timestamp echo reply: 0
        TCP Option - No-Operation (NOP)
            Kind: No-Operation (1)
        TCP Option - Window scale: 7 (multiply by 128)
            Kind: Window Scale (3)
            Length: 3
            Shift count: 7
            [Multiplier: 128]
    [Timestamps]
        [Time since first frame in this TCP stream: 0.000000000 seconds]
        [Time since previous frame in this TCP stream: 0.000000000 seconds]

0000  08 00 27 57 5f a0 08 00 27 9f a5 ba 08 00 45 00   ..'W_...'.....E.
0010  00 3c 37 14 40 00 3f 06 99 53 0a 49 0e 05 0a 02   .<7.@.?..S.I....
0020  49 05 97 d6 00 16 b1 10 86 11 00 00 00 00 a0 02   I...............
0030  72 10 ea 85 00 00 02 04 05 b4 04 02 08 0a 00 01   r...............
0040  b1 05 00 00 00 00 01 03 03 07                     ..........

No.     Time           Source                Destination           Protocol Length Info
      2 0.000036852    10.2.73.5             10.73.14.5            TCP      74     22 → 38870 [SYN, ACK] Seq=0 Ack=1 Win=65160 Len=0 MSS=1460 SACK_PERM=1 TSval=366406610 TSecr=110853 WS=128

Frame 2: 74 bytes on wire (592 bits), 74 bytes captured (592 bits) on interface enp0s3, id 0
    Interface id: 0 (enp0s3)
        Interface name: enp0s3
    Encapsulation type: Ethernet (1)
    Arrival Time: Oct 26, 2022 13:43:12.038781276 EEST
    [Time shift for this packet: 0.000000000 seconds]
    Epoch Time: 1666780992.038781276 seconds
    [Time delta from previous captured frame: 0.000036852 seconds]
    [Time delta from previous displayed frame: 0.000036852 seconds]
    [Time since reference or first frame: 0.000036852 seconds]
    Frame Number: 2
    Frame Length: 74 bytes (592 bits)
    Capture Length: 74 bytes (592 bits)
    [Frame is marked: False]
    [Frame is ignored: False]
    [Protocols in frame: eth:ethertype:ip:tcp]
    [Coloring Rule Name: TCP SYN/FIN]
    [Coloring Rule String: tcp.flags & 0x02 || tcp.flags.fin == 1]
Ethernet II, Src: PcsCompu_57:5f:a0 (08:00:27:57:5f:a0), Dst: PcsCompu_9f:a5:ba (08:00:27:9f:a5:ba)
    Destination: PcsCompu_9f:a5:ba (08:00:27:9f:a5:ba)
        Address: PcsCompu_9f:a5:ba (08:00:27:9f:a5:ba)
        .... ..0. .... .... .... .... = LG bit: Globally unique address (factory default)
        .... ...0 .... .... .... .... = IG bit: Individual address (unicast)
    Source: PcsCompu_57:5f:a0 (08:00:27:57:5f:a0)
        Address: PcsCompu_57:5f:a0 (08:00:27:57:5f:a0)
        .... ..0. .... .... .... .... = LG bit: Globally unique address (factory default)
        .... ...0 .... .... .... .... = IG bit: Individual address (unicast)
    Type: IPv4 (0x0800)
Internet Protocol Version 4, Src: 10.2.73.5, Dst: 10.73.14.5
    0100 .... = Version: 4
    .... 0101 = Header Length: 20 bytes (5)
    Differentiated Services Field: 0x00 (DSCP: CS0, ECN: Not-ECT)
        0000 00.. = Differentiated Services Codepoint: Default (0)
        .... ..00 = Explicit Congestion Notification: Not ECN-Capable Transport (0)
    Total Length: 60
    Identification: 0x0000 (0)
    Flags: 0x40, Don't fragment
        0... .... = Reserved bit: Not set
        .1.. .... = Don't fragment: Set
        ..0. .... = More fragments: Not set
    ...0 0000 0000 0000 = Fragment Offset: 0
    Time to Live: 64
    Protocol: TCP (6)
    Header Checksum: 0xcf67 [validation disabled]
    [Header checksum status: Unverified]
    Source Address: 10.2.73.5
    Destination Address: 10.73.14.5
Transmission Control Protocol, Src Port: 22, Dst Port: 38870, Seq: 0, Ack: 1, Len: 0
    Source Port: 22
    Destination Port: 38870
    [Stream index: 0]
    [Conversation completeness: Incomplete, DATA (15)]
    [TCP Segment Len: 0]
    Sequence Number: 0    (relative sequence number)
    Sequence Number (raw): 4208680345
    [Next Sequence Number: 1    (relative sequence number)]
    Acknowledgment Number: 1    (relative ack number)
    Acknowledgment number (raw): 2970650130
    1010 .... = Header Length: 40 bytes (10)
    Flags: 0x012 (SYN, ACK)
        000. .... .... = Reserved: Not set
        ...0 .... .... = Nonce: Not set
        .... 0... .... = Congestion Window Reduced (CWR): Not set
        .... .0.. .... = ECN-Echo: Not set
        .... ..0. .... = Urgent: Not set
        .... ...1 .... = Acknowledgment: Set
        .... .... 0... = Push: Not set
        .... .... .0.. = Reset: Not set
        .... .... ..1. = Syn: Set
            [Expert Info (Chat/Sequence): Connection establish acknowledge (SYN+ACK): server port 22]
                [Connection establish acknowledge (SYN+ACK): server port 22]
                [Severity level: Chat]
                [Group: Sequence]
        .... .... ...0 = Fin: Not set
        [TCP Flags: ·······A··S·]
    Window: 65160
    [Calculated window size: 65160]
    Checksum: 0x6b83 [unverified]
    [Checksum Status: Unverified]
    Urgent Pointer: 0
    Options: (20 bytes), Maximum segment size, SACK permitted, Timestamps, No-Operation (NOP), Window scale
        TCP Option - Maximum segment size: 1460 bytes
            Kind: Maximum Segment Size (2)
            Length: 4
            MSS Value: 1460
        TCP Option - SACK permitted
            Kind: SACK Permitted (4)
            Length: 2
        TCP Option - Timestamps: TSval 366406610, TSecr 110853
            Kind: Time Stamp Option (8)
            Length: 10
            Timestamp value: 366406610
            Timestamp echo reply: 110853
        TCP Option - No-Operation (NOP)
            Kind: No-Operation (1)
        TCP Option - Window scale: 7 (multiply by 128)
            Kind: Window Scale (3)
            Length: 3
            Shift count: 7
            [Multiplier: 128]
    [Timestamps]
        [Time since first frame in this TCP stream: 0.000036852 seconds]
        [Time since previous frame in this TCP stream: 0.000036852 seconds]
    [SEQ/ACK analysis]
        [This is an ACK to the segment in frame: 1]
        [The RTT to ACK the segment was: 0.000036852 seconds]
        [iRTT: 0.000381139 seconds]

0000  08 00 27 9f a5 ba 08 00 27 57 5f a0 08 00 45 00   ..'.....'W_...E.
0010  00 3c 00 00 40 00 40 06 cf 67 0a 02 49 05 0a 49   .<..@.@..g..I..I
0020  0e 05 00 16 97 d6 fa db 5d 99 b1 10 86 12 a0 12   ........].......
0030  fe 88 6b 83 00 00 02 04 05 b4 04 02 08 0a 15 d6   ..k.............
0040  eb d2 00 01 b1 05 01 03 03 07                     ..........

No.     Time           Source                Destination           Protocol Length Info
      3 0.000381139    10.73.14.5            10.2.73.5             TCP      66     38870 → 22 [ACK] Seq=1 Ack=1 Win=29312 Len=0 TSval=110853 TSecr=366406610

Frame 3: 66 bytes on wire (528 bits), 66 bytes captured (528 bits) on interface enp0s3, id 0
    Interface id: 0 (enp0s3)
        Interface name: enp0s3
    Encapsulation type: Ethernet (1)
    Arrival Time: Oct 26, 2022 13:43:12.039125563 EEST
    [Time shift for this packet: 0.000000000 seconds]
    Epoch Time: 1666780992.039125563 seconds
    [Time delta from previous captured frame: 0.000344287 seconds]
    [Time delta from previous displayed frame: 0.000344287 seconds]
    [Time since reference or first frame: 0.000381139 seconds]
    Frame Number: 3
    Frame Length: 66 bytes (528 bits)
    Capture Length: 66 bytes (528 bits)
    [Frame is marked: False]
    [Frame is ignored: False]
    [Protocols in frame: eth:ethertype:ip:tcp]
    [Coloring Rule Name: TCP]
    [Coloring Rule String: tcp]
Ethernet II, Src: PcsCompu_9f:a5:ba (08:00:27:9f:a5:ba), Dst: PcsCompu_57:5f:a0 (08:00:27:57:5f:a0)
    Destination: PcsCompu_57:5f:a0 (08:00:27:57:5f:a0)
        Address: PcsCompu_57:5f:a0 (08:00:27:57:5f:a0)
        .... ..0. .... .... .... .... = LG bit: Globally unique address (factory default)
        .... ...0 .... .... .... .... = IG bit: Individual address (unicast)
    Source: PcsCompu_9f:a5:ba (08:00:27:9f:a5:ba)
        Address: PcsCompu_9f:a5:ba (08:00:27:9f:a5:ba)
        .... ..0. .... .... .... .... = LG bit: Globally unique address (factory default)
        .... ...0 .... .... .... .... = IG bit: Individual address (unicast)
    Type: IPv4 (0x0800)
Internet Protocol Version 4, Src: 10.73.14.5, Dst: 10.2.73.5
    0100 .... = Version: 4
    .... 0101 = Header Length: 20 bytes (5)
    Differentiated Services Field: 0x00 (DSCP: CS0, ECN: Not-ECT)
        0000 00.. = Differentiated Services Codepoint: Default (0)
        .... ..00 = Explicit Congestion Notification: Not ECN-Capable Transport (0)
    Total Length: 52
    Identification: 0x3715 (14101)
    Flags: 0x40, Don't fragment
        0... .... = Reserved bit: Not set
        .1.. .... = Don't fragment: Set
        ..0. .... = More fragments: Not set
    ...0 0000 0000 0000 = Fragment Offset: 0
    Time to Live: 63
    Protocol: TCP (6)
    Header Checksum: 0x995a [validation disabled]
    [Header checksum status: Unverified]
    Source Address: 10.73.14.5
    Destination Address: 10.2.73.5
Transmission Control Protocol, Src Port: 38870, Dst Port: 22, Seq: 1, Ack: 1, Len: 0
    Source Port: 38870
    Destination Port: 22
    [Stream index: 0]
    [Conversation completeness: Incomplete, DATA (15)]
    [TCP Segment Len: 0]
    Sequence Number: 1    (relative sequence number)
    Sequence Number (raw): 2970650130
    [Next Sequence Number: 1    (relative sequence number)]
    Acknowledgment Number: 1    (relative ack number)
    Acknowledgment number (raw): 4208680346
    1000 .... = Header Length: 32 bytes (8)
    Flags: 0x010 (ACK)
        000. .... .... = Reserved: Not set
        ...0 .... .... = Nonce: Not set
        .... 0... .... = Congestion Window Reduced (CWR): Not set
        .... .0.. .... = ECN-Echo: Not set
        .... ..0. .... = Urgent: Not set
        .... ...1 .... = Acknowledgment: Set
        .... .... 0... = Push: Not set
        .... .... .0.. = Reset: Not set
        .... .... ..0. = Syn: Not set
        .... .... ...0 = Fin: Not set
        [TCP Flags: ·······A····]
    Window: 229
    [Calculated window size: 29312]
    [Window size scaling factor: 128]
    Checksum: 0x304e [unverified]
    [Checksum Status: Unverified]
    Urgent Pointer: 0
    Options: (12 bytes), No-Operation (NOP), No-Operation (NOP), Timestamps
        TCP Option - No-Operation (NOP)
            Kind: No-Operation (1)
        TCP Option - No-Operation (NOP)
            Kind: No-Operation (1)
        TCP Option - Timestamps: TSval 110853, TSecr 366406610
            Kind: Time Stamp Option (8)
            Length: 10
            Timestamp value: 110853
            Timestamp echo reply: 366406610
    [Timestamps]
        [Time since first frame in this TCP stream: 0.000381139 seconds]
        [Time since previous frame in this TCP stream: 0.000344287 seconds]
    [SEQ/ACK analysis]
        [This is an ACK to the segment in frame: 2]
        [The RTT to ACK the segment was: 0.000344287 seconds]
        [iRTT: 0.000381139 seconds]

0000  08 00 27 57 5f a0 08 00 27 9f a5 ba 08 00 45 00   ..'W_...'.....E.
0010  00 34 37 15 40 00 3f 06 99 5a 0a 49 0e 05 0a 02   .47.@.?..Z.I....
0020  49 05 97 d6 00 16 b1 10 86 12 fa db 5d 9a 80 10   I...........]...
0030  00 e5 30 4e 00 00 01 01 08 0a 00 01 b1 05 15 d6   ..0N............
0040  eb d2                                             ..

No.     Time           Source                Destination           Protocol Length Info
      4 0.000973300    10.73.14.5            10.2.73.5             SSHv2    87     Client: Protocol (SSH-2.0-OpenSSH_7.4)

Frame 4: 87 bytes on wire (696 bits), 87 bytes captured (696 bits) on interface enp0s3, id 0
    Interface id: 0 (enp0s3)
        Interface name: enp0s3
    Encapsulation type: Ethernet (1)
    Arrival Time: Oct 26, 2022 13:43:12.039717724 EEST
    [Time shift for this packet: 0.000000000 seconds]
    Epoch Time: 1666780992.039717724 seconds
    [Time delta from previous captured frame: 0.000592161 seconds]
    [Time delta from previous displayed frame: 0.000592161 seconds]
    [Time since reference or first frame: 0.000973300 seconds]
    Frame Number: 4
    Frame Length: 87 bytes (696 bits)
    Capture Length: 87 bytes (696 bits)
    [Frame is marked: False]
    [Frame is ignored: False]
    [Protocols in frame: eth:ethertype:ip:tcp:ssh]
    [Coloring Rule Name: TCP]
    [Coloring Rule String: tcp]
Ethernet II, Src: PcsCompu_9f:a5:ba (08:00:27:9f:a5:ba), Dst: PcsCompu_57:5f:a0 (08:00:27:57:5f:a0)
    Destination: PcsCompu_57:5f:a0 (08:00:27:57:5f:a0)
        Address: PcsCompu_57:5f:a0 (08:00:27:57:5f:a0)
        .... ..0. .... .... .... .... = LG bit: Globally unique address (factory default)
        .... ...0 .... .... .... .... = IG bit: Individual address (unicast)
    Source: PcsCompu_9f:a5:ba (08:00:27:9f:a5:ba)
        Address: PcsCompu_9f:a5:ba (08:00:27:9f:a5:ba)
        .... ..0. .... .... .... .... = LG bit: Globally unique address (factory default)
        .... ...0 .... .... .... .... = IG bit: Individual address (unicast)
    Type: IPv4 (0x0800)
Internet Protocol Version 4, Src: 10.73.14.5, Dst: 10.2.73.5
    0100 .... = Version: 4
    .... 0101 = Header Length: 20 bytes (5)
    Differentiated Services Field: 0x00 (DSCP: CS0, ECN: Not-ECT)
        0000 00.. = Differentiated Services Codepoint: Default (0)
        .... ..00 = Explicit Congestion Notification: Not ECN-Capable Transport (0)
    Total Length: 73
    Identification: 0x3716 (14102)
    Flags: 0x40, Don't fragment
        0... .... = Reserved bit: Not set
        .1.. .... = Don't fragment: Set
        ..0. .... = More fragments: Not set
    ...0 0000 0000 0000 = Fragment Offset: 0
    Time to Live: 63
    Protocol: TCP (6)
    Header Checksum: 0x9944 [validation disabled]
    [Header checksum status: Unverified]
    Source Address: 10.73.14.5
    Destination Address: 10.2.73.5
Transmission Control Protocol, Src Port: 38870, Dst Port: 22, Seq: 1, Ack: 1, Len: 21
    Source Port: 38870
    Destination Port: 22
    [Stream index: 0]
    [Conversation completeness: Incomplete, DATA (15)]
    [TCP Segment Len: 21]
    Sequence Number: 1    (relative sequence number)
    Sequence Number (raw): 2970650130
    [Next Sequence Number: 22    (relative sequence number)]
    Acknowledgment Number: 1    (relative ack number)
    Acknowledgment number (raw): 4208680346
    1000 .... = Header Length: 32 bytes (8)
    Flags: 0x018 (PSH, ACK)
        000. .... .... = Reserved: Not set
        ...0 .... .... = Nonce: Not set
        .... 0... .... = Congestion Window Reduced (CWR): Not set
        .... .0.. .... = ECN-Echo: Not set
        .... ..0. .... = Urgent: Not set
        .... ...1 .... = Acknowledgment: Set
        .... .... 1... = Push: Set
        .... .... .0.. = Reset: Not set
        .... .... ..0. = Syn: Not set
        .... .... ...0 = Fin: Not set
        [TCP Flags: ·······AP···]
    Window: 229
    [Calculated window size: 29312]
    [Window size scaling factor: 128]
    Checksum: 0x6c88 [unverified]
    [Checksum Status: Unverified]
    Urgent Pointer: 0
    Options: (12 bytes), No-Operation (NOP), No-Operation (NOP), Timestamps
        TCP Option - No-Operation (NOP)
            Kind: No-Operation (1)
        TCP Option - No-Operation (NOP)
            Kind: No-Operation (1)
        TCP Option - Timestamps: TSval 110853, TSecr 366406610
            Kind: Time Stamp Option (8)
            Length: 10
            Timestamp value: 110853
            Timestamp echo reply: 366406610
    [Timestamps]
        [Time since first frame in this TCP stream: 0.000973300 seconds]
        [Time since previous frame in this TCP stream: 0.000592161 seconds]
    [SEQ/ACK analysis]
        [iRTT: 0.000381139 seconds]
        [Bytes in flight: 21]
        [Bytes sent since last PSH flag: 21]
    TCP payload (21 bytes)
SSH Protocol
    Protocol: SSH-2.0-OpenSSH_7.4
    [Direction: client-to-server]

0000  08 00 27 57 5f a0 08 00 27 9f a5 ba 08 00 45 00   ..'W_...'.....E.
0010  00 49 37 16 40 00 3f 06 99 44 0a 49 0e 05 0a 02   .I7.@.?..D.I....
0020  49 05 97 d6 00 16 b1 10 86 12 fa db 5d 9a 80 18   I...........]...
0030  00 e5 6c 88 00 00 01 01 08 0a 00 01 b1 05 15 d6   ..l.............
0040  eb d2 53 53 48 2d 32 2e 30 2d 4f 70 65 6e 53 53   ..SSH-2.0-OpenSS
0050  48 5f 37 2e 34 0d 0a                              H_7.4..

No.     Time           Source                Destination           Protocol Length Info
      5 0.000985613    10.2.73.5             10.73.14.5            TCP      66     22 → 38870 [ACK] Seq=1 Ack=22 Win=65152 Len=0 TSval=366406611 TSecr=110853

Frame 5: 66 bytes on wire (528 bits), 66 bytes captured (528 bits) on interface enp0s3, id 0
    Interface id: 0 (enp0s3)
        Interface name: enp0s3
    Encapsulation type: Ethernet (1)
    Arrival Time: Oct 26, 2022 13:43:12.039730037 EEST
    [Time shift for this packet: 0.000000000 seconds]
    Epoch Time: 1666780992.039730037 seconds
    [Time delta from previous captured frame: 0.000012313 seconds]
    [Time delta from previous displayed frame: 0.000012313 seconds]
    [Time since reference or first frame: 0.000985613 seconds]
    Frame Number: 5
    Frame Length: 66 bytes (528 bits)
    Capture Length: 66 bytes (528 bits)
    [Frame is marked: False]
    [Frame is ignored: False]
    [Protocols in frame: eth:ethertype:ip:tcp]
    [Coloring Rule Name: TCP]
    [Coloring Rule String: tcp]
Ethernet II, Src: PcsCompu_57:5f:a0 (08:00:27:57:5f:a0), Dst: PcsCompu_9f:a5:ba (08:00:27:9f:a5:ba)
    Destination: PcsCompu_9f:a5:ba (08:00:27:9f:a5:ba)
        Address: PcsCompu_9f:a5:ba (08:00:27:9f:a5:ba)
        .... ..0. .... .... .... .... = LG bit: Globally unique address (factory default)
        .... ...0 .... .... .... .... = IG bit: Individual address (unicast)
    Source: PcsCompu_57:5f:a0 (08:00:27:57:5f:a0)
        Address: PcsCompu_57:5f:a0 (08:00:27:57:5f:a0)
        .... ..0. .... .... .... .... = LG bit: Globally unique address (factory default)
        .... ...0 .... .... .... .... = IG bit: Individual address (unicast)
    Type: IPv4 (0x0800)
Internet Protocol Version 4, Src: 10.2.73.5, Dst: 10.73.14.5
    0100 .... = Version: 4
    .... 0101 = Header Length: 20 bytes (5)
    Differentiated Services Field: 0x00 (DSCP: CS0, ECN: Not-ECT)
        0000 00.. = Differentiated Services Codepoint: Default (0)
        .... ..00 = Explicit Congestion Notification: Not ECN-Capable Transport (0)
    Total Length: 52
    Identification: 0x1a8d (6797)
    Flags: 0x40, Don't fragment
        0... .... = Reserved bit: Not set
        .1.. .... = Don't fragment: Set
        ..0. .... = More fragments: Not set
    ...0 0000 0000 0000 = Fragment Offset: 0
    Time to Live: 64
    Protocol: TCP (6)
    Header Checksum: 0xb4e2 [validation disabled]
    [Header checksum status: Unverified]
    Source Address: 10.2.73.5
    Destination Address: 10.73.14.5
Transmission Control Protocol, Src Port: 22, Dst Port: 38870, Seq: 1, Ack: 22, Len: 0
    Source Port: 22
    Destination Port: 38870
    [Stream index: 0]
    [Conversation completeness: Incomplete, DATA (15)]
    [TCP Segment Len: 0]
    Sequence Number: 1    (relative sequence number)
    Sequence Number (raw): 4208680346
    [Next Sequence Number: 1    (relative sequence number)]
    Acknowledgment Number: 22    (relative ack number)
    Acknowledgment number (raw): 2970650151
    1000 .... = Header Length: 32 bytes (8)
    Flags: 0x010 (ACK)
        000. .... .... = Reserved: Not set
        ...0 .... .... = Nonce: Not set
        .... 0... .... = Congestion Window Reduced (CWR): Not set
        .... .0.. .... = ECN-Echo: Not set
        .... ..0. .... = Urgent: Not set
        .... ...1 .... = Acknowledgment: Set
        .... .... 0... = Push: Not set
        .... .... .0.. = Reset: Not set
        .... .... ..0. = Syn: Not set
        .... .... ...0 = Fin: Not set
        [TCP Flags: ·······A····]
    Window: 509
    [Calculated window size: 65152]
    [Window size scaling factor: 128]
    Checksum: 0x6b7b [unverified]
    [Checksum Status: Unverified]
    Urgent Pointer: 0
    Options: (12 bytes), No-Operation (NOP), No-Operation (NOP), Timestamps
        TCP Option - No-Operation (NOP)
            Kind: No-Operation (1)
        TCP Option - No-Operation (NOP)
            Kind: No-Operation (1)
        TCP Option - Timestamps: TSval 366406611, TSecr 110853
            Kind: Time Stamp Option (8)
            Length: 10
            Timestamp value: 366406611
            Timestamp echo reply: 110853
    [Timestamps]
        [Time since first frame in this TCP stream: 0.000985613 seconds]
        [Time since previous frame in this TCP stream: 0.000012313 seconds]
    [SEQ/ACK analysis]
        [This is an ACK to the segment in frame: 4]
        [The RTT to ACK the segment was: 0.000012313 seconds]
        [iRTT: 0.000381139 seconds]

0000  08 00 27 9f a5 ba 08 00 27 57 5f a0 08 00 45 00   ..'.....'W_...E.
0010  00 34 1a 8d 40 00 40 06 b4 e2 0a 02 49 05 0a 49   .4..@.@.....I..I
0020  0e 05 00 16 97 d6 fa db 5d 9a b1 10 86 27 80 10   ........]....'..
0030  01 fd 6b 7b 00 00 01 01 08 0a 15 d6 eb d3 00 01   ..k{............
0040  b1 05                                             ..

No.     Time           Source                Destination           Protocol Length Info
      6 0.080983312    10.2.73.5             10.73.14.5            SSHv2    98     Server: Protocol (SSH-2.0-OpenSSH_8.9p1 Ubuntu-3)

Frame 6: 98 bytes on wire (784 bits), 98 bytes captured (784 bits) on interface enp0s3, id 0
    Interface id: 0 (enp0s3)
        Interface name: enp0s3
    Encapsulation type: Ethernet (1)
    Arrival Time: Oct 26, 2022 13:43:12.119727736 EEST
    [Time shift for this packet: 0.000000000 seconds]
    Epoch Time: 1666780992.119727736 seconds
    [Time delta from previous captured frame: 0.079997699 seconds]
    [Time delta from previous displayed frame: 0.079997699 seconds]
    [Time since reference or first frame: 0.080983312 seconds]
    Frame Number: 6
    Frame Length: 98 bytes (784 bits)
    Capture Length: 98 bytes (784 bits)
    [Frame is marked: False]
    [Frame is ignored: False]
    [Protocols in frame: eth:ethertype:ip:tcp:ssh]
    [Coloring Rule Name: TCP]
    [Coloring Rule String: tcp]
Ethernet II, Src: PcsCompu_57:5f:a0 (08:00:27:57:5f:a0), Dst: PcsCompu_9f:a5:ba (08:00:27:9f:a5:ba)
    Destination: PcsCompu_9f:a5:ba (08:00:27:9f:a5:ba)
        Address: PcsCompu_9f:a5:ba (08:00:27:9f:a5:ba)
        .... ..0. .... .... .... .... = LG bit: Globally unique address (factory default)
        .... ...0 .... .... .... .... = IG bit: Individual address (unicast)
    Source: PcsCompu_57:5f:a0 (08:00:27:57:5f:a0)
        Address: PcsCompu_57:5f:a0 (08:00:27:57:5f:a0)
        .... ..0. .... .... .... .... = LG bit: Globally unique address (factory default)
        .... ...0 .... .... .... .... = IG bit: Individual address (unicast)
    Type: IPv4 (0x0800)
Internet Protocol Version 4, Src: 10.2.73.5, Dst: 10.73.14.5
    0100 .... = Version: 4
    .... 0101 = Header Length: 20 bytes (5)
    Differentiated Services Field: 0x00 (DSCP: CS0, ECN: Not-ECT)
        0000 00.. = Differentiated Services Codepoint: Default (0)
        .... ..00 = Explicit Congestion Notification: Not ECN-Capable Transport (0)
    Total Length: 84
    Identification: 0x1a8e (6798)
    Flags: 0x40, Don't fragment
        0... .... = Reserved bit: Not set
        .1.. .... = Don't fragment: Set
        ..0. .... = More fragments: Not set
    ...0 0000 0000 0000 = Fragment Offset: 0
    Time to Live: 64
    Protocol: TCP (6)
    Header Checksum: 0xb4c1 [validation disabled]
    [Header checksum status: Unverified]
    Source Address: 10.2.73.5
    Destination Address: 10.73.14.5
Transmission Control Protocol, Src Port: 22, Dst Port: 38870, Seq: 1, Ack: 22, Len: 32
    Source Port: 22
    Destination Port: 38870
    [Stream index: 0]
    [Conversation completeness: Incomplete, DATA (15)]
    [TCP Segment Len: 32]
    Sequence Number: 1    (relative sequence number)
    Sequence Number (raw): 4208680346
    [Next Sequence Number: 33    (relative sequence number)]
    Acknowledgment Number: 22    (relative ack number)
    Acknowledgment number (raw): 2970650151
    1000 .... = Header Length: 32 bytes (8)
    Flags: 0x018 (PSH, ACK)
        000. .... .... = Reserved: Not set
        ...0 .... .... = Nonce: Not set
        .... 0... .... = Congestion Window Reduced (CWR): Not set
        .... .0.. .... = ECN-Echo: Not set
        .... ..0. .... = Urgent: Not set
        .... ...1 .... = Acknowledgment: Set
        .... .... 1... = Push: Set
        .... .... .0.. = Reset: Not set
        .... .... ..0. = Syn: Not set
        .... .... ...0 = Fin: Not set
        [TCP Flags: ·······AP···]
    Window: 509
    [Calculated window size: 65152]
    [Window size scaling factor: 128]
    Checksum: 0x6b9b [unverified]
    [Checksum Status: Unverified]
    Urgent Pointer: 0
    Options: (12 bytes), No-Operation (NOP), No-Operation (NOP), Timestamps
        TCP Option - No-Operation (NOP)
            Kind: No-Operation (1)
        TCP Option - No-Operation (NOP)
            Kind: No-Operation (1)
        TCP Option - Timestamps: TSval 366406691, TSecr 110853
            Kind: Time Stamp Option (8)
            Length: 10
            Timestamp value: 366406691
            Timestamp echo reply: 110853
    [Timestamps]
        [Time since first frame in this TCP stream: 0.080983312 seconds]
        [Time since previous frame in this TCP stream: 0.079997699 seconds]
    [SEQ/ACK analysis]
        [iRTT: 0.000381139 seconds]
        [Bytes in flight: 32]
        [Bytes sent since last PSH flag: 32]
    TCP payload (32 bytes)
SSH Protocol
    Protocol: SSH-2.0-OpenSSH_8.9p1 Ubuntu-3
    [Direction: server-to-client]

0000  08 00 27 9f a5 ba 08 00 27 57 5f a0 08 00 45 00   ..'.....'W_...E.
0010  00 54 1a 8e 40 00 40 06 b4 c1 0a 02 49 05 0a 49   .T..@.@.....I..I
0020  0e 05 00 16 97 d6 fa db 5d 9a b1 10 86 27 80 18   ........]....'..
0030  01 fd 6b 9b 00 00 01 01 08 0a 15 d6 ec 23 00 01   ..k..........#..
0040  b1 05 53 53 48 2d 32 2e 30 2d 4f 70 65 6e 53 53   ..SSH-2.0-OpenSS
0050  48 5f 38 2e 39 70 31 20 55 62 75 6e 74 75 2d 33   H_8.9p1 Ubuntu-3
0060  0d 0a                                             ..

No.     Time           Source                Destination           Protocol Length Info
      7 0.081662960    10.73.14.5            10.2.73.5             TCP      66     38870 → 22 [ACK] Seq=22 Ack=33 Win=29312 Len=0 TSval=110934 TSecr=366406691

Frame 7: 66 bytes on wire (528 bits), 66 bytes captured (528 bits) on interface enp0s3, id 0
    Interface id: 0 (enp0s3)
        Interface name: enp0s3
    Encapsulation type: Ethernet (1)
    Arrival Time: Oct 26, 2022 13:43:12.120407384 EEST
    [Time shift for this packet: 0.000000000 seconds]
    Epoch Time: 1666780992.120407384 seconds
    [Time delta from previous captured frame: 0.000679648 seconds]
    [Time delta from previous displayed frame: 0.000679648 seconds]
    [Time since reference or first frame: 0.081662960 seconds]
    Frame Number: 7
    Frame Length: 66 bytes (528 bits)
    Capture Length: 66 bytes (528 bits)
    [Frame is marked: False]
    [Frame is ignored: False]
    [Protocols in frame: eth:ethertype:ip:tcp]
    [Coloring Rule Name: TCP]
    [Coloring Rule String: tcp]
Ethernet II, Src: PcsCompu_9f:a5:ba (08:00:27:9f:a5:ba), Dst: PcsCompu_57:5f:a0 (08:00:27:57:5f:a0)
    Destination: PcsCompu_57:5f:a0 (08:00:27:57:5f:a0)
        Address: PcsCompu_57:5f:a0 (08:00:27:57:5f:a0)
        .... ..0. .... .... .... .... = LG bit: Globally unique address (factory default)
        .... ...0 .... .... .... .... = IG bit: Individual address (unicast)
    Source: PcsCompu_9f:a5:ba (08:00:27:9f:a5:ba)
        Address: PcsCompu_9f:a5:ba (08:00:27:9f:a5:ba)
        .... ..0. .... .... .... .... = LG bit: Globally unique address (factory default)
        .... ...0 .... .... .... .... = IG bit: Individual address (unicast)
    Type: IPv4 (0x0800)
Internet Protocol Version 4, Src: 10.73.14.5, Dst: 10.2.73.5
    0100 .... = Version: 4
    .... 0101 = Header Length: 20 bytes (5)
    Differentiated Services Field: 0x00 (DSCP: CS0, ECN: Not-ECT)
        0000 00.. = Differentiated Services Codepoint: Default (0)
        .... ..00 = Explicit Congestion Notification: Not ECN-Capable Transport (0)
    Total Length: 52
    Identification: 0x3717 (14103)
    Flags: 0x40, Don't fragment
        0... .... = Reserved bit: Not set
        .1.. .... = Don't fragment: Set
        ..0. .... = More fragments: Not set
    ...0 0000 0000 0000 = Fragment Offset: 0
    Time to Live: 63
    Protocol: TCP (6)
    Header Checksum: 0x9958 [validation disabled]
    [Header checksum status: Unverified]
    Source Address: 10.73.14.5
    Destination Address: 10.2.73.5
Transmission Control Protocol, Src Port: 38870, Dst Port: 22, Seq: 22, Ack: 33, Len: 0
    Source Port: 38870
    Destination Port: 22
    [Stream index: 0]
    [Conversation completeness: Incomplete, DATA (15)]
    [TCP Segment Len: 0]
    Sequence Number: 22    (relative sequence number)
    Sequence Number (raw): 2970650151
    [Next Sequence Number: 22    (relative sequence number)]
    Acknowledgment Number: 33    (relative ack number)
    Acknowledgment number (raw): 4208680378
    1000 .... = Header Length: 32 bytes (8)
    Flags: 0x010 (ACK)
        000. .... .... = Reserved: Not set
        ...0 .... .... = Nonce: Not set
        .... 0... .... = Congestion Window Reduced (CWR): Not set
        .... .0.. .... = ECN-Echo: Not set
        .... ..0. .... = Urgent: Not set
        .... ...1 .... = Acknowledgment: Set
        .... .... 0... = Push: Not set
        .... .... .0.. = Reset: Not set
        .... .... ..0. = Syn: Not set
        .... .... ...0 = Fin: Not set
        [TCP Flags: ·······A····]
    Window: 229
    [Calculated window size: 29312]
    [Window size scaling factor: 128]
    Checksum: 0x2f77 [unverified]
    [Checksum Status: Unverified]
    Urgent Pointer: 0
    Options: (12 bytes), No-Operation (NOP), No-Operation (NOP), Timestamps
        TCP Option - No-Operation (NOP)
            Kind: No-Operation (1)
        TCP Option - No-Operation (NOP)
            Kind: No-Operation (1)
        TCP Option - Timestamps: TSval 110934, TSecr 366406691
            Kind: Time Stamp Option (8)
            Length: 10
            Timestamp value: 110934
            Timestamp echo reply: 366406691
    [Timestamps]
        [Time since first frame in this TCP stream: 0.081662960 seconds]
        [Time since previous frame in this TCP stream: 0.000679648 seconds]
    [SEQ/ACK analysis]
        [This is an ACK to the segment in frame: 6]
        [The RTT to ACK the segment was: 0.000679648 seconds]
        [iRTT: 0.000381139 seconds]

0000  08 00 27 57 5f a0 08 00 27 9f a5 ba 08 00 45 00   ..'W_...'.....E.
0010  00 34 37 17 40 00 3f 06 99 58 0a 49 0e 05 0a 02   .47.@.?..X.I....
0020  49 05 97 d6 00 16 b1 10 86 27 fa db 5d ba 80 10   I........'..]...
0030  00 e5 2f 77 00 00 01 01 08 0a 00 01 b1 56 15 d6   ../w.........V..
0040  ec 23                                             .#

No.     Time           Source                Destination           Protocol Length Info
      8 0.082556628    10.73.14.5            10.2.73.5             SSHv2    1562   Client: Key Exchange Init

Frame 8: 1562 bytes on wire (12496 bits), 1562 bytes captured (12496 bits) on interface enp0s3, id 0
    Interface id: 0 (enp0s3)
        Interface name: enp0s3
    Encapsulation type: Ethernet (1)
    Arrival Time: Oct 26, 2022 13:43:12.121301052 EEST
    [Time shift for this packet: 0.000000000 seconds]
    Epoch Time: 1666780992.121301052 seconds
    [Time delta from previous captured frame: 0.000893668 seconds]
    [Time delta from previous displayed frame: 0.000893668 seconds]
    [Time since reference or first frame: 0.082556628 seconds]
    Frame Number: 8
    Frame Length: 1562 bytes (12496 bits)
    Capture Length: 1562 bytes (12496 bits)
    [Frame is marked: False]
    [Frame is ignored: False]
    [Protocols in frame: eth:ethertype:ip:tcp:ssh]
    [Coloring Rule Name: TCP]
    [Coloring Rule String: tcp]
Ethernet II, Src: PcsCompu_9f:a5:ba (08:00:27:9f:a5:ba), Dst: PcsCompu_57:5f:a0 (08:00:27:57:5f:a0)
    Destination: PcsCompu_57:5f:a0 (08:00:27:57:5f:a0)
        Address: PcsCompu_57:5f:a0 (08:00:27:57:5f:a0)
        .... ..0. .... .... .... .... = LG bit: Globally unique address (factory default)
        .... ...0 .... .... .... .... = IG bit: Individual address (unicast)
    Source: PcsCompu_9f:a5:ba (08:00:27:9f:a5:ba)
        Address: PcsCompu_9f:a5:ba (08:00:27:9f:a5:ba)
        .... ..0. .... .... .... .... = LG bit: Globally unique address (factory default)
        .... ...0 .... .... .... .... = IG bit: Individual address (unicast)
    Type: IPv4 (0x0800)
Internet Protocol Version 4, Src: 10.73.14.5, Dst: 10.2.73.5
    0100 .... = Version: 4
    .... 0101 = Header Length: 20 bytes (5)
    Differentiated Services Field: 0x00 (DSCP: CS0, ECN: Not-ECT)
        0000 00.. = Differentiated Services Codepoint: Default (0)
        .... ..00 = Explicit Congestion Notification: Not ECN-Capable Transport (0)
    Total Length: 1548
    Identification: 0x3718 (14104)
    Flags: 0x40, Don't fragment
        0... .... = Reserved bit: Not set
        .1.. .... = Don't fragment: Set
        ..0. .... = More fragments: Not set
    ...0 0000 0000 0000 = Fragment Offset: 0
    Time to Live: 63
    Protocol: TCP (6)
    Header Checksum: 0x937f [validation disabled]
    [Header checksum status: Unverified]
    Source Address: 10.73.14.5
    Destination Address: 10.2.73.5
Transmission Control Protocol, Src Port: 38870, Dst Port: 22, Seq: 22, Ack: 33, Len: 1496
    Source Port: 38870
    Destination Port: 22
    [Stream index: 0]
    [Conversation completeness: Incomplete, DATA (15)]
    [TCP Segment Len: 1496]
    Sequence Number: 22    (relative sequence number)
    Sequence Number (raw): 2970650151
    [Next Sequence Number: 1518    (relative sequence number)]
    Acknowledgment Number: 33    (relative ack number)
    Acknowledgment number (raw): 4208680378
    1000 .... = Header Length: 32 bytes (8)
    Flags: 0x018 (PSH, ACK)
        000. .... .... = Reserved: Not set
        ...0 .... .... = Nonce: Not set
        .... 0... .... = Congestion Window Reduced (CWR): Not set
        .... .0.. .... = ECN-Echo: Not set
        .... ..0. .... = Urgent: Not set
        .... ...1 .... = Acknowledgment: Set
        .... .... 1... = Push: Set
        .... .... .0.. = Reset: Not set
        .... .... ..0. = Syn: Not set
        .... .... ...0 = Fin: Not set
        [TCP Flags: ·······AP···]
    Window: 229
    [Calculated window size: 29312]
    [Window size scaling factor: 128]
    Checksum: 0x7153 [unverified]
    [Checksum Status: Unverified]
    Urgent Pointer: 0
    Options: (12 bytes), No-Operation (NOP), No-Operation (NOP), Timestamps
        TCP Option - No-Operation (NOP)
            Kind: No-Operation (1)
        TCP Option - No-Operation (NOP)
            Kind: No-Operation (1)
        TCP Option - Timestamps: TSval 110935, TSecr 366406691
            Kind: Time Stamp Option (8)
            Length: 10
            Timestamp value: 110935
            Timestamp echo reply: 366406691
    [Timestamps]
        [Time since first frame in this TCP stream: 0.082556628 seconds]
        [Time since previous frame in this TCP stream: 0.000893668 seconds]
    [SEQ/ACK analysis]
        [iRTT: 0.000381139 seconds]
        [Bytes in flight: 1496]
        [Bytes sent since last PSH flag: 1496]
    TCP payload (1496 bytes)
SSH Protocol
    SSH Version 2 (encryption:chacha20-poly1305@openssh.com mac:<implicit> compression:none)
        Packet Length: 1492
        Padding Length: 11
        Key Exchange (method:curve25519-sha256)
            Message Code: Key Exchange Init (20)
            Algorithms
                Cookie: 818756aadb344b8f50530fc5c1013b6c
                kex_algorithms length: 331
                kex_algorithms string [truncated]: curve25519-sha256,curve25519-sha256@libssh.org,ecdh-sha2-nistp256,ecdh-sha2-nistp384,ecdh-sha2-nistp521,diffie-hellman-group-exchange-sha256,diffie-hellman-group16-sha512,diffie-hellman-group18-sha512,di
                server_host_key_algorithms length: 327
                server_host_key_algorithms string [truncated]: ecdsa-sha2-nistp256-cert-v01@openssh.com,ecdsa-sha2-nistp384-cert-v01@openssh.com,ecdsa-sha2-nistp521-cert-v01@openssh.com,ecdsa-sha2-nistp256,ecdsa-sha2-nistp384,ecdsa-sha2-nistp521,ssh-ed25
                encryption_algorithms_client_to_server length: 141
                encryption_algorithms_client_to_server string: chacha20-poly1305@openssh.com,aes128-ctr,aes192-ctr,aes256-ctr,aes128-gcm@openssh.com,aes256-gcm@openssh.com,aes128-cbc,aes192-cbc,aes256-cbc
                encryption_algorithms_server_to_client length: 141
                encryption_algorithms_server_to_client string: chacha20-poly1305@openssh.com,aes128-ctr,aes192-ctr,aes256-ctr,aes128-gcm@openssh.com,aes256-gcm@openssh.com,aes128-cbc,aes192-cbc,aes256-cbc
                mac_algorithms_client_to_server length: 213
                mac_algorithms_client_to_server string [truncated]: umac-64-etm@openssh.com,umac-128-etm@openssh.com,hmac-sha2-256-etm@openssh.com,hmac-sha2-512-etm@openssh.com,hmac-sha1-etm@openssh.com,umac-64@openssh.com,umac-128@openssh.com,hmac-sha2-
                mac_algorithms_server_to_client length: 213
                mac_algorithms_server_to_client string [truncated]: umac-64-etm@openssh.com,umac-128-etm@openssh.com,hmac-sha2-256-etm@openssh.com,hmac-sha2-512-etm@openssh.com,hmac-sha1-etm@openssh.com,umac-64@openssh.com,umac-128@openssh.com,hmac-sha2-
                compression_algorithms_client_to_server length: 26
                compression_algorithms_client_to_server string: none,zlib@openssh.com,zlib
                compression_algorithms_server_to_client length: 26
                compression_algorithms_server_to_client string: none,zlib@openssh.com,zlib
                languages_client_to_server length: 0
                languages_client_to_server string: 
                languages_server_to_client length: 0
                languages_server_to_client string: 
                First KEX Packet Follows: 0
                Reserved: 00000000
                [hasshAlgorithms [truncated]: curve25519-sha256,curve25519-sha256@libssh.org,ecdh-sha2-nistp256,ecdh-sha2-nistp384,ecdh-sha2-nistp521,diffie-hellman-group-exchange-sha256,diffie-hellman-group16-sha512,diffie-hellman-group18-sha512,diffie-h]
                [hassh: ec9ea89c70f5fc71cf61061bff5e4740]
        Padding String: 0000000000000000000000
    [Direction: client-to-server]

0000  08 00 27 57 5f a0 08 00 27 9f a5 ba 08 00 45 00   ..'W_...'.....E.
0010  06 0c 37 18 40 00 3f 06 93 7f 0a 49 0e 05 0a 02   ..7.@.?....I....
0020  49 05 97 d6 00 16 b1 10 86 27 fa db 5d ba 80 18   I........'..]...
0030  00 e5 71 53 00 00 01 01 08 0a 00 01 b1 57 15 d6   ..qS.........W..
0040  ec 23 00 00 05 d4 0b 14 81 87 56 aa db 34 4b 8f   .#........V..4K.
0050  50 53 0f c5 c1 01 3b 6c 00 00 01 4b 63 75 72 76   PS....;l...Kcurv
0060  65 32 35 35 31 39 2d 73 68 61 32 35 36 2c 63 75   e25519-sha256,cu
0070  72 76 65 32 35 35 31 39 2d 73 68 61 32 35 36 40   rve25519-sha256@
0080  6c 69 62 73 73 68 2e 6f 72 67 2c 65 63 64 68 2d   libssh.org,ecdh-
0090  73 68 61 32 2d 6e 69 73 74 70 32 35 36 2c 65 63   sha2-nistp256,ec
00a0  64 68 2d 73 68 61 32 2d 6e 69 73 74 70 33 38 34   dh-sha2-nistp384
00b0  2c 65 63 64 68 2d 73 68 61 32 2d 6e 69 73 74 70   ,ecdh-sha2-nistp
00c0  35 32 31 2c 64 69 66 66 69 65 2d 68 65 6c 6c 6d   521,diffie-hellm
00d0  61 6e 2d 67 72 6f 75 70 2d 65 78 63 68 61 6e 67   an-group-exchang
00e0  65 2d 73 68 61 32 35 36 2c 64 69 66 66 69 65 2d   e-sha256,diffie-
00f0  68 65 6c 6c 6d 61 6e 2d 67 72 6f 75 70 31 36 2d   hellman-group16-
0100  73 68 61 35 31 32 2c 64 69 66 66 69 65 2d 68 65   sha512,diffie-he
0110  6c 6c 6d 61 6e 2d 67 72 6f 75 70 31 38 2d 73 68   llman-group18-sh
0120  61 35 31 32 2c 64 69 66 66 69 65 2d 68 65 6c 6c   a512,diffie-hell
0130  6d 61 6e 2d 67 72 6f 75 70 2d 65 78 63 68 61 6e   man-group-exchan
0140  67 65 2d 73 68 61 31 2c 64 69 66 66 69 65 2d 68   ge-sha1,diffie-h
0150  65 6c 6c 6d 61 6e 2d 67 72 6f 75 70 31 34 2d 73   ellman-group14-s
0160  68 61 32 35 36 2c 64 69 66 66 69 65 2d 68 65 6c   ha256,diffie-hel
0170  6c 6d 61 6e 2d 67 72 6f 75 70 31 34 2d 73 68 61   lman-group14-sha
0180  31 2c 64 69 66 66 69 65 2d 68 65 6c 6c 6d 61 6e   1,diffie-hellman
0190  2d 67 72 6f 75 70 31 2d 73 68 61 31 2c 65 78 74   -group1-sha1,ext
01a0  2d 69 6e 66 6f 2d 63 00 00 01 47 65 63 64 73 61   -info-c...Gecdsa
01b0  2d 73 68 61 32 2d 6e 69 73 74 70 32 35 36 2d 63   -sha2-nistp256-c
01c0  65 72 74 2d 76 30 31 40 6f 70 65 6e 73 73 68 2e   ert-v01@openssh.
01d0  63 6f 6d 2c 65 63 64 73 61 2d 73 68 61 32 2d 6e   com,ecdsa-sha2-n
01e0  69 73 74 70 33 38 34 2d 63 65 72 74 2d 76 30 31   istp384-cert-v01
01f0  40 6f 70 65 6e 73 73 68 2e 63 6f 6d 2c 65 63 64   @openssh.com,ecd
0200  73 61 2d 73 68 61 32 2d 6e 69 73 74 70 35 32 31   sa-sha2-nistp521
0210  2d 63 65 72 74 2d 76 30 31 40 6f 70 65 6e 73 73   -cert-v01@openss
0220  68 2e 63 6f 6d 2c 65 63 64 73 61 2d 73 68 61 32   h.com,ecdsa-sha2
0230  2d 6e 69 73 74 70 32 35 36 2c 65 63 64 73 61 2d   -nistp256,ecdsa-
0240  73 68 61 32 2d 6e 69 73 74 70 33 38 34 2c 65 63   sha2-nistp384,ec
0250  64 73 61 2d 73 68 61 32 2d 6e 69 73 74 70 35 32   dsa-sha2-nistp52
0260  31 2c 73 73 68 2d 65 64 32 35 35 31 39 2d 63 65   1,ssh-ed25519-ce
0270  72 74 2d 76 30 31 40 6f 70 65 6e 73 73 68 2e 63   rt-v01@openssh.c
0280  6f 6d 2c 73 73 68 2d 72 73 61 2d 63 65 72 74 2d   om,ssh-rsa-cert-
0290  76 30 31 40 6f 70 65 6e 73 73 68 2e 63 6f 6d 2c   v01@openssh.com,
02a0  73 73 68 2d 64 73 73 2d 63 65 72 74 2d 76 30 31   ssh-dss-cert-v01
02b0  40 6f 70 65 6e 73 73 68 2e 63 6f 6d 2c 73 73 68   @openssh.com,ssh
02c0  2d 65 64 32 35 35 31 39 2c 72 73 61 2d 73 68 61   -ed25519,rsa-sha
02d0  32 2d 35 31 32 2c 72 73 61 2d 73 68 61 32 2d 32   2-512,rsa-sha2-2
02e0  35 36 2c 73 73 68 2d 72 73 61 2c 73 73 68 2d 64   56,ssh-rsa,ssh-d
02f0  73 73 00 00 00 8d 63 68 61 63 68 61 32 30 2d 70   ss....chacha20-p
0300  6f 6c 79 31 33 30 35 40 6f 70 65 6e 73 73 68 2e   oly1305@openssh.
0310  63 6f 6d 2c 61 65 73 31 32 38 2d 63 74 72 2c 61   com,aes128-ctr,a
0320  65 73 31 39 32 2d 63 74 72 2c 61 65 73 32 35 36   es192-ctr,aes256
0330  2d 63 74 72 2c 61 65 73 31 32 38 2d 67 63 6d 40   -ctr,aes128-gcm@
0340  6f 70 65 6e 73 73 68 2e 63 6f 6d 2c 61 65 73 32   openssh.com,aes2
0350  35 36 2d 67 63 6d 40 6f 70 65 6e 73 73 68 2e 63   56-gcm@openssh.c
0360  6f 6d 2c 61 65 73 31 32 38 2d 63 62 63 2c 61 65   om,aes128-cbc,ae
0370  73 31 39 32 2d 63 62 63 2c 61 65 73 32 35 36 2d   s192-cbc,aes256-
0380  63 62 63 00 00 00 8d 63 68 61 63 68 61 32 30 2d   cbc....chacha20-
0390  70 6f 6c 79 31 33 30 35 40 6f 70 65 6e 73 73 68   poly1305@openssh
03a0  2e 63 6f 6d 2c 61 65 73 31 32 38 2d 63 74 72 2c   .com,aes128-ctr,
03b0  61 65 73 31 39 32 2d 63 74 72 2c 61 65 73 32 35   aes192-ctr,aes25
03c0  36 2d 63 74 72 2c 61 65 73 31 32 38 2d 67 63 6d   6-ctr,aes128-gcm
03d0  40 6f 70 65 6e 73 73 68 2e 63 6f 6d 2c 61 65 73   @openssh.com,aes
03e0  32 35 36 2d 67 63 6d 40 6f 70 65 6e 73 73 68 2e   256-gcm@openssh.
03f0  63 6f 6d 2c 61 65 73 31 32 38 2d 63 62 63 2c 61   com,aes128-cbc,a
0400  65 73 31 39 32 2d 63 62 63 2c 61 65 73 32 35 36   es192-cbc,aes256
0410  2d 63 62 63 00 00 00 d5 75 6d 61 63 2d 36 34 2d   -cbc....umac-64-
0420  65 74 6d 40 6f 70 65 6e 73 73 68 2e 63 6f 6d 2c   etm@openssh.com,
0430  75 6d 61 63 2d 31 32 38 2d 65 74 6d 40 6f 70 65   umac-128-etm@ope
0440  6e 73 73 68 2e 63 6f 6d 2c 68 6d 61 63 2d 73 68   nssh.com,hmac-sh
0450  61 32 2d 32 35 36 2d 65 74 6d 40 6f 70 65 6e 73   a2-256-etm@opens
0460  73 68 2e 63 6f 6d 2c 68 6d 61 63 2d 73 68 61 32   sh.com,hmac-sha2
0470  2d 35 31 32 2d 65 74 6d 40 6f 70 65 6e 73 73 68   -512-etm@openssh
0480  2e 63 6f 6d 2c 68 6d 61 63 2d 73 68 61 31 2d 65   .com,hmac-sha1-e
0490  74 6d 40 6f 70 65 6e 73 73 68 2e 63 6f 6d 2c 75   tm@openssh.com,u
04a0  6d 61 63 2d 36 34 40 6f 70 65 6e 73 73 68 2e 63   mac-64@openssh.c
04b0  6f 6d 2c 75 6d 61 63 2d 31 32 38 40 6f 70 65 6e   om,umac-128@open
04c0  73 73 68 2e 63 6f 6d 2c 68 6d 61 63 2d 73 68 61   ssh.com,hmac-sha
04d0  32 2d 32 35 36 2c 68 6d 61 63 2d 73 68 61 32 2d   2-256,hmac-sha2-
04e0  35 31 32 2c 68 6d 61 63 2d 73 68 61 31 00 00 00   512,hmac-sha1...
04f0  d5 75 6d 61 63 2d 36 34 2d 65 74 6d 40 6f 70 65   .umac-64-etm@ope
0500  6e 73 73 68 2e 63 6f 6d 2c 75 6d 61 63 2d 31 32   nssh.com,umac-12
0510  38 2d 65 74 6d 40 6f 70 65 6e 73 73 68 2e 63 6f   8-etm@openssh.co
0520  6d 2c 68 6d 61 63 2d 73 68 61 32 2d 32 35 36 2d   m,hmac-sha2-256-
0530  65 74 6d 40 6f 70 65 6e 73 73 68 2e 63 6f 6d 2c   etm@openssh.com,
0540  68 6d 61 63 2d 73 68 61 32 2d 35 31 32 2d 65 74   hmac-sha2-512-et
0550  6d 40 6f 70 65 6e 73 73 68 2e 63 6f 6d 2c 68 6d   m@openssh.com,hm
0560  61 63 2d 73 68 61 31 2d 65 74 6d 40 6f 70 65 6e   ac-sha1-etm@open
0570  73 73 68 2e 63 6f 6d 2c 75 6d 61 63 2d 36 34 40   ssh.com,umac-64@
0580  6f 70 65 6e 73 73 68 2e 63 6f 6d 2c 75 6d 61 63   openssh.com,umac
0590  2d 31 32 38 40 6f 70 65 6e 73 73 68 2e 63 6f 6d   -128@openssh.com
05a0  2c 68 6d 61 63 2d 73 68 61 32 2d 32 35 36 2c 68   ,hmac-sha2-256,h
05b0  6d 61 63 2d 73 68 61 32 2d 35 31 32 2c 68 6d 61   mac-sha2-512,hma
05c0  63 2d 73 68 61 31 00 00 00 1a 6e 6f 6e 65 2c 7a   c-sha1....none,z
05d0  6c 69 62 40 6f 70 65 6e 73 73 68 2e 63 6f 6d 2c   lib@openssh.com,
05e0  7a 6c 69 62 00 00 00 1a 6e 6f 6e 65 2c 7a 6c 69   zlib....none,zli
05f0  62 40 6f 70 65 6e 73 73 68 2e 63 6f 6d 2c 7a 6c   b@openssh.com,zl
0600  69 62 00 00 00 00 00 00 00 00 00 00 00 00 00 00   ib..............
0610  00 00 00 00 00 00 00 00 00 00                     ..........

No.     Time           Source                Destination           Protocol Length Info
      9 0.082568937    10.2.73.5             10.73.14.5            TCP      66     22 → 38870 [ACK] Seq=33 Ack=1518 Win=64128 Len=0 TSval=366406693 TSecr=110935

Frame 9: 66 bytes on wire (528 bits), 66 bytes captured (528 bits) on interface enp0s3, id 0
    Interface id: 0 (enp0s3)
        Interface name: enp0s3
    Encapsulation type: Ethernet (1)
    Arrival Time: Oct 26, 2022 13:43:12.121313361 EEST
    [Time shift for this packet: 0.000000000 seconds]
    Epoch Time: 1666780992.121313361 seconds
    [Time delta from previous captured frame: 0.000012309 seconds]
    [Time delta from previous displayed frame: 0.000012309 seconds]
    [Time since reference or first frame: 0.082568937 seconds]
    Frame Number: 9
    Frame Length: 66 bytes (528 bits)
    Capture Length: 66 bytes (528 bits)
    [Frame is marked: False]
    [Frame is ignored: False]
    [Protocols in frame: eth:ethertype:ip:tcp]
    [Coloring Rule Name: TCP]
    [Coloring Rule String: tcp]
Ethernet II, Src: PcsCompu_57:5f:a0 (08:00:27:57:5f:a0), Dst: PcsCompu_9f:a5:ba (08:00:27:9f:a5:ba)
    Destination: PcsCompu_9f:a5:ba (08:00:27:9f:a5:ba)
        Address: PcsCompu_9f:a5:ba (08:00:27:9f:a5:ba)
        .... ..0. .... .... .... .... = LG bit: Globally unique address (factory default)
        .... ...0 .... .... .... .... = IG bit: Individual address (unicast)
    Source: PcsCompu_57:5f:a0 (08:00:27:57:5f:a0)
        Address: PcsCompu_57:5f:a0 (08:00:27:57:5f:a0)
        .... ..0. .... .... .... .... = LG bit: Globally unique address (factory default)
        .... ...0 .... .... .... .... = IG bit: Individual address (unicast)
    Type: IPv4 (0x0800)
Internet Protocol Version 4, Src: 10.2.73.5, Dst: 10.73.14.5
    0100 .... = Version: 4
    .... 0101 = Header Length: 20 bytes (5)
    Differentiated Services Field: 0x00 (DSCP: CS0, ECN: Not-ECT)
        0000 00.. = Differentiated Services Codepoint: Default (0)
        .... ..00 = Explicit Congestion Notification: Not ECN-Capable Transport (0)
    Total Length: 52
    Identification: 0x1a8f (6799)
    Flags: 0x40, Don't fragment
        0... .... = Reserved bit: Not set
        .1.. .... = Don't fragment: Set
        ..0. .... = More fragments: Not set
    ...0 0000 0000 0000 = Fragment Offset: 0
    Time to Live: 64
    Protocol: TCP (6)
    Header Checksum: 0xb4e0 [validation disabled]
    [Header checksum status: Unverified]
    Source Address: 10.2.73.5
    Destination Address: 10.73.14.5
Transmission Control Protocol, Src Port: 22, Dst Port: 38870, Seq: 33, Ack: 1518, Len: 0
    Source Port: 22
    Destination Port: 38870
    [Stream index: 0]
    [Conversation completeness: Incomplete, DATA (15)]
    [TCP Segment Len: 0]
    Sequence Number: 33    (relative sequence number)
    Sequence Number (raw): 4208680378
    [Next Sequence Number: 33    (relative sequence number)]
    Acknowledgment Number: 1518    (relative ack number)
    Acknowledgment number (raw): 2970651647
    1000 .... = Header Length: 32 bytes (8)
    Flags: 0x010 (ACK)
        000. .... .... = Reserved: Not set
        ...0 .... .... = Nonce: Not set
        .... 0... .... = Congestion Window Reduced (CWR): Not set
        .... .0.. .... = ECN-Echo: Not set
        .... ..0. .... = Urgent: Not set
        .... ...1 .... = Acknowledgment: Set
        .... .... 0... = Push: Not set
        .... .... .0.. = Reset: Not set
        .... .... ..0. = Syn: Not set
        .... .... ...0 = Fin: Not set
        [TCP Flags: ·······A····]
    Window: 501
    [Calculated window size: 64128]
    [Window size scaling factor: 128]
    Checksum: 0x6b7b [unverified]
    [Checksum Status: Unverified]
    Urgent Pointer: 0
    Options: (12 bytes), No-Operation (NOP), No-Operation (NOP), Timestamps
        TCP Option - No-Operation (NOP)
            Kind: No-Operation (1)
        TCP Option - No-Operation (NOP)
            Kind: No-Operation (1)
        TCP Option - Timestamps: TSval 366406693, TSecr 110935
            Kind: Time Stamp Option (8)
            Length: 10
            Timestamp value: 366406693
            Timestamp echo reply: 110935
    [Timestamps]
        [Time since first frame in this TCP stream: 0.082568937 seconds]
        [Time since previous frame in this TCP stream: 0.000012309 seconds]
    [SEQ/ACK analysis]
        [This is an ACK to the segment in frame: 8]
        [The RTT to ACK the segment was: 0.000012309 seconds]
        [iRTT: 0.000381139 seconds]

0000  08 00 27 9f a5 ba 08 00 27 57 5f a0 08 00 45 00   ..'.....'W_...E.
0010  00 34 1a 8f 40 00 40 06 b4 e0 0a 02 49 05 0a 49   .4..@.@.....I..I
0020  0e 05 00 16 97 d6 fa db 5d ba b1 10 8b ff 80 10   ........].......
0030  01 f5 6b 7b 00 00 01 01 08 0a 15 d6 ec 25 00 01   ..k{.........%..
0040  b1 57                                             .W

No.     Time           Source                Destination           Protocol Length Info
     10 0.088295960    10.2.73.5             10.73.14.5            SSHv2    1146   Server: Key Exchange Init

Frame 10: 1146 bytes on wire (9168 bits), 1146 bytes captured (9168 bits) on interface enp0s3, id 0
    Interface id: 0 (enp0s3)
        Interface name: enp0s3
    Encapsulation type: Ethernet (1)
    Arrival Time: Oct 26, 2022 13:43:12.127040384 EEST
    [Time shift for this packet: 0.000000000 seconds]
    Epoch Time: 1666780992.127040384 seconds
    [Time delta from previous captured frame: 0.005727023 seconds]
    [Time delta from previous displayed frame: 0.005727023 seconds]
    [Time since reference or first frame: 0.088295960 seconds]
    Frame Number: 10
    Frame Length: 1146 bytes (9168 bits)
    Capture Length: 1146 bytes (9168 bits)
    [Frame is marked: False]
    [Frame is ignored: False]
    [Protocols in frame: eth:ethertype:ip:tcp:ssh]
    [Coloring Rule Name: TCP]
    [Coloring Rule String: tcp]
Ethernet II, Src: PcsCompu_57:5f:a0 (08:00:27:57:5f:a0), Dst: PcsCompu_9f:a5:ba (08:00:27:9f:a5:ba)
    Destination: PcsCompu_9f:a5:ba (08:00:27:9f:a5:ba)
        Address: PcsCompu_9f:a5:ba (08:00:27:9f:a5:ba)
        .... ..0. .... .... .... .... = LG bit: Globally unique address (factory default)
        .... ...0 .... .... .... .... = IG bit: Individual address (unicast)
    Source: PcsCompu_57:5f:a0 (08:00:27:57:5f:a0)
        Address: PcsCompu_57:5f:a0 (08:00:27:57:5f:a0)
        .... ..0. .... .... .... .... = LG bit: Globally unique address (factory default)
        .... ...0 .... .... .... .... = IG bit: Individual address (unicast)
    Type: IPv4 (0x0800)
Internet Protocol Version 4, Src: 10.2.73.5, Dst: 10.73.14.5
    0100 .... = Version: 4
    .... 0101 = Header Length: 20 bytes (5)
    Differentiated Services Field: 0x00 (DSCP: CS0, ECN: Not-ECT)
        0000 00.. = Differentiated Services Codepoint: Default (0)
        .... ..00 = Explicit Congestion Notification: Not ECN-Capable Transport (0)
    Total Length: 1132
    Identification: 0x1a90 (6800)
    Flags: 0x40, Don't fragment
        0... .... = Reserved bit: Not set
        .1.. .... = Don't fragment: Set
        ..0. .... = More fragments: Not set
    ...0 0000 0000 0000 = Fragment Offset: 0
    Time to Live: 64
    Protocol: TCP (6)
    Header Checksum: 0xb0a7 [validation disabled]
    [Header checksum status: Unverified]
    Source Address: 10.2.73.5
    Destination Address: 10.73.14.5
Transmission Control Protocol, Src Port: 22, Dst Port: 38870, Seq: 33, Ack: 1518, Len: 1080
    Source Port: 22
    Destination Port: 38870
    [Stream index: 0]
    [Conversation completeness: Incomplete, DATA (15)]
    [TCP Segment Len: 1080]
    Sequence Number: 33    (relative sequence number)
    Sequence Number (raw): 4208680378
    [Next Sequence Number: 1113    (relative sequence number)]
    Acknowledgment Number: 1518    (relative ack number)
    Acknowledgment number (raw): 2970651647
    1000 .... = Header Length: 32 bytes (8)
    Flags: 0x018 (PSH, ACK)
        000. .... .... = Reserved: Not set
        ...0 .... .... = Nonce: Not set
        .... 0... .... = Congestion Window Reduced (CWR): Not set
        .... .0.. .... = ECN-Echo: Not set
        .... ..0. .... = Urgent: Not set
        .... ...1 .... = Acknowledgment: Set
        .... .... 1... = Push: Set
        .... .... .0.. = Reset: Not set
        .... .... ..0. = Syn: Not set
        .... .... ...0 = Fin: Not set
        [TCP Flags: ·······AP···]
    Window: 501
    [Calculated window size: 64128]
    [Window size scaling factor: 128]
    Checksum: 0x6fb3 [unverified]
    [Checksum Status: Unverified]
    Urgent Pointer: 0
    Options: (12 bytes), No-Operation (NOP), No-Operation (NOP), Timestamps
        TCP Option - No-Operation (NOP)
            Kind: No-Operation (1)
        TCP Option - No-Operation (NOP)
            Kind: No-Operation (1)
        TCP Option - Timestamps: TSval 366406699, TSecr 110935
            Kind: Time Stamp Option (8)
            Length: 10
            Timestamp value: 366406699
            Timestamp echo reply: 110935
    [Timestamps]
        [Time since first frame in this TCP stream: 0.088295960 seconds]
        [Time since previous frame in this TCP stream: 0.005727023 seconds]
    [SEQ/ACK analysis]
        [iRTT: 0.000381139 seconds]
        [Bytes in flight: 1080]
        [Bytes sent since last PSH flag: 1080]
    TCP payload (1080 bytes)
SSH Protocol
    SSH Version 2 (encryption:chacha20-poly1305@openssh.com mac:<implicit> compression:none)
        Packet Length: 1076
        Padding Length: 7
        Key Exchange (method:curve25519-sha256)
            Message Code: Key Exchange Init (20)
            Algorithms
                Cookie: 50257c9efdbd064facc2cf78758ae368
                kex_algorithms length: 265
                kex_algorithms string [truncated]: curve25519-sha256,curve25519-sha256@libssh.org,ecdh-sha2-nistp256,ecdh-sha2-nistp384,ecdh-sha2-nistp521,sntrup761x25519-sha512@openssh.com,diffie-hellman-group-exchange-sha256,diffie-hellman-group16-sha5
                server_host_key_algorithms length: 57
                server_host_key_algorithms string: rsa-sha2-512,rsa-sha2-256,ecdsa-sha2-nistp256,ssh-ed25519
                encryption_algorithms_client_to_server length: 108
                encryption_algorithms_client_to_server string: chacha20-poly1305@openssh.com,aes128-ctr,aes192-ctr,aes256-ctr,aes128-gcm@openssh.com,aes256-gcm@openssh.com
                encryption_algorithms_server_to_client length: 108
                encryption_algorithms_server_to_client string: chacha20-poly1305@openssh.com,aes128-ctr,aes192-ctr,aes256-ctr,aes128-gcm@openssh.com,aes256-gcm@openssh.com
                mac_algorithms_client_to_server length: 213
                mac_algorithms_client_to_server string [truncated]: umac-64-etm@openssh.com,umac-128-etm@openssh.com,hmac-sha2-256-etm@openssh.com,hmac-sha2-512-etm@openssh.com,hmac-sha1-etm@openssh.com,umac-64@openssh.com,umac-128@openssh.com,hmac-sha2-
                mac_algorithms_server_to_client length: 213
                mac_algorithms_server_to_client string [truncated]: umac-64-etm@openssh.com,umac-128-etm@openssh.com,hmac-sha2-256-etm@openssh.com,hmac-sha2-512-etm@openssh.com,hmac-sha1-etm@openssh.com,umac-64@openssh.com,umac-128@openssh.com,hmac-sha2-
                compression_algorithms_client_to_server length: 21
                compression_algorithms_client_to_server string: none,zlib@openssh.com
                compression_algorithms_server_to_client length: 21
                compression_algorithms_server_to_client string: none,zlib@openssh.com
                languages_client_to_server length: 0
                languages_client_to_server string: 
                languages_server_to_client length: 0
                languages_server_to_client string: 
                First KEX Packet Follows: 0
                Reserved: 00000000
                [hasshServerAlgorithms [truncated]: curve25519-sha256,curve25519-sha256@libssh.org,ecdh-sha2-nistp256,ecdh-sha2-nistp384,ecdh-sha2-nistp521,sntrup761x25519-sha512@openssh.com,diffie-hellman-group-exchange-sha256,diffie-hellman-group16-sha5]
                [hasshServer: 699519fdcc30cbcd093d5cd01e4b1d56]
        Padding String: 00000000000000
    [Direction: server-to-client]

0000  08 00 27 9f a5 ba 08 00 27 57 5f a0 08 00 45 00   ..'.....'W_...E.
0010  04 6c 1a 90 40 00 40 06 b0 a7 0a 02 49 05 0a 49   .l..@.@.....I..I
0020  0e 05 00 16 97 d6 fa db 5d ba b1 10 8b ff 80 18   ........].......
0030  01 f5 6f b3 00 00 01 01 08 0a 15 d6 ec 2b 00 01   ..o..........+..
0040  b1 57 00 00 04 34 07 14 50 25 7c 9e fd bd 06 4f   .W...4..P%|....O
0050  ac c2 cf 78 75 8a e3 68 00 00 01 09 63 75 72 76   ...xu..h....curv
0060  65 32 35 35 31 39 2d 73 68 61 32 35 36 2c 63 75   e25519-sha256,cu
0070  72 76 65 32 35 35 31 39 2d 73 68 61 32 35 36 40   rve25519-sha256@
0080  6c 69 62 73 73 68 2e 6f 72 67 2c 65 63 64 68 2d   libssh.org,ecdh-
0090  73 68 61 32 2d 6e 69 73 74 70 32 35 36 2c 65 63   sha2-nistp256,ec
00a0  64 68 2d 73 68 61 32 2d 6e 69 73 74 70 33 38 34   dh-sha2-nistp384
00b0  2c 65 63 64 68 2d 73 68 61 32 2d 6e 69 73 74 70   ,ecdh-sha2-nistp
00c0  35 32 31 2c 73 6e 74 72 75 70 37 36 31 78 32 35   521,sntrup761x25
00d0  35 31 39 2d 73 68 61 35 31 32 40 6f 70 65 6e 73   519-sha512@opens
00e0  73 68 2e 63 6f 6d 2c 64 69 66 66 69 65 2d 68 65   sh.com,diffie-he
00f0  6c 6c 6d 61 6e 2d 67 72 6f 75 70 2d 65 78 63 68   llman-group-exch
0100  61 6e 67 65 2d 73 68 61 32 35 36 2c 64 69 66 66   ange-sha256,diff
0110  69 65 2d 68 65 6c 6c 6d 61 6e 2d 67 72 6f 75 70   ie-hellman-group
0120  31 36 2d 73 68 61 35 31 32 2c 64 69 66 66 69 65   16-sha512,diffie
0130  2d 68 65 6c 6c 6d 61 6e 2d 67 72 6f 75 70 31 38   -hellman-group18
0140  2d 73 68 61 35 31 32 2c 64 69 66 66 69 65 2d 68   -sha512,diffie-h
0150  65 6c 6c 6d 61 6e 2d 67 72 6f 75 70 31 34 2d 73   ellman-group14-s
0160  68 61 32 35 36 00 00 00 39 72 73 61 2d 73 68 61   ha256...9rsa-sha
0170  32 2d 35 31 32 2c 72 73 61 2d 73 68 61 32 2d 32   2-512,rsa-sha2-2
0180  35 36 2c 65 63 64 73 61 2d 73 68 61 32 2d 6e 69   56,ecdsa-sha2-ni
0190  73 74 70 32 35 36 2c 73 73 68 2d 65 64 32 35 35   stp256,ssh-ed255
01a0  31 39 00 00 00 6c 63 68 61 63 68 61 32 30 2d 70   19...lchacha20-p
01b0  6f 6c 79 31 33 30 35 40 6f 70 65 6e 73 73 68 2e   oly1305@openssh.
01c0  63 6f 6d 2c 61 65 73 31 32 38 2d 63 74 72 2c 61   com,aes128-ctr,a
01d0  65 73 31 39 32 2d 63 74 72 2c 61 65 73 32 35 36   es192-ctr,aes256
01e0  2d 63 74 72 2c 61 65 73 31 32 38 2d 67 63 6d 40   -ctr,aes128-gcm@
01f0  6f 70 65 6e 73 73 68 2e 63 6f 6d 2c 61 65 73 32   openssh.com,aes2
0200  35 36 2d 67 63 6d 40 6f 70 65 6e 73 73 68 2e 63   56-gcm@openssh.c
0210  6f 6d 00 00 00 6c 63 68 61 63 68 61 32 30 2d 70   om...lchacha20-p
0220  6f 6c 79 31 33 30 35 40 6f 70 65 6e 73 73 68 2e   oly1305@openssh.
0230  63 6f 6d 2c 61 65 73 31 32 38 2d 63 74 72 2c 61   com,aes128-ctr,a
0240  65 73 31 39 32 2d 63 74 72 2c 61 65 73 32 35 36   es192-ctr,aes256
0250  2d 63 74 72 2c 61 65 73 31 32 38 2d 67 63 6d 40   -ctr,aes128-gcm@
0260  6f 70 65 6e 73 73 68 2e 63 6f 6d 2c 61 65 73 32   openssh.com,aes2
0270  35 36 2d 67 63 6d 40 6f 70 65 6e 73 73 68 2e 63   56-gcm@openssh.c
0280  6f 6d 00 00 00 d5 75 6d 61 63 2d 36 34 2d 65 74   om....umac-64-et
0290  6d 40 6f 70 65 6e 73 73 68 2e 63 6f 6d 2c 75 6d   m@openssh.com,um
02a0  61 63 2d 31 32 38 2d 65 74 6d 40 6f 70 65 6e 73   ac-128-etm@opens
02b0  73 68 2e 63 6f 6d 2c 68 6d 61 63 2d 73 68 61 32   sh.com,hmac-sha2
02c0  2d 32 35 36 2d 65 74 6d 40 6f 70 65 6e 73 73 68   -256-etm@openssh
02d0  2e 63 6f 6d 2c 68 6d 61 63 2d 73 68 61 32 2d 35   .com,hmac-sha2-5
02e0  31 32 2d 65 74 6d 40 6f 70 65 6e 73 73 68 2e 63   12-etm@openssh.c
02f0  6f 6d 2c 68 6d 61 63 2d 73 68 61 31 2d 65 74 6d   om,hmac-sha1-etm
0300  40 6f 70 65 6e 73 73 68 2e 63 6f 6d 2c 75 6d 61   @openssh.com,uma
0310  63 2d 36 34 40 6f 70 65 6e 73 73 68 2e 63 6f 6d   c-64@openssh.com
0320  2c 75 6d 61 63 2d 31 32 38 40 6f 70 65 6e 73 73   ,umac-128@openss
0330  68 2e 63 6f 6d 2c 68 6d 61 63 2d 73 68 61 32 2d   h.com,hmac-sha2-
0340  32 35 36 2c 68 6d 61 63 2d 73 68 61 32 2d 35 31   256,hmac-sha2-51
0350  32 2c 68 6d 61 63 2d 73 68 61 31 00 00 00 d5 75   2,hmac-sha1....u
0360  6d 61 63 2d 36 34 2d 65 74 6d 40 6f 70 65 6e 73   mac-64-etm@opens
0370  73 68 2e 63 6f 6d 2c 75 6d 61 63 2d 31 32 38 2d   sh.com,umac-128-
0380  65 74 6d 40 6f 70 65 6e 73 73 68 2e 63 6f 6d 2c   etm@openssh.com,
0390  68 6d 61 63 2d 73 68 61 32 2d 32 35 36 2d 65 74   hmac-sha2-256-et
03a0  6d 40 6f 70 65 6e 73 73 68 2e 63 6f 6d 2c 68 6d   m@openssh.com,hm
03b0  61 63 2d 73 68 61 32 2d 35 31 32 2d 65 74 6d 40   ac-sha2-512-etm@
03c0  6f 70 65 6e 73 73 68 2e 63 6f 6d 2c 68 6d 61 63   openssh.com,hmac
03d0  2d 73 68 61 31 2d 65 74 6d 40 6f 70 65 6e 73 73   -sha1-etm@openss
03e0  68 2e 63 6f 6d 2c 75 6d 61 63 2d 36 34 40 6f 70   h.com,umac-64@op
03f0  65 6e 73 73 68 2e 63 6f 6d 2c 75 6d 61 63 2d 31   enssh.com,umac-1
0400  32 38 40 6f 70 65 6e 73 73 68 2e 63 6f 6d 2c 68   28@openssh.com,h
0410  6d 61 63 2d 73 68 61 32 2d 32 35 36 2c 68 6d 61   mac-sha2-256,hma
0420  63 2d 73 68 61 32 2d 35 31 32 2c 68 6d 61 63 2d   c-sha2-512,hmac-
0430  73 68 61 31 00 00 00 15 6e 6f 6e 65 2c 7a 6c 69   sha1....none,zli
0440  62 40 6f 70 65 6e 73 73 68 2e 63 6f 6d 00 00 00   b@openssh.com...
0450  15 6e 6f 6e 65 2c 7a 6c 69 62 40 6f 70 65 6e 73   .none,zlib@opens
0460  73 68 2e 63 6f 6d 00 00 00 00 00 00 00 00 00 00   sh.com..........
0470  00 00 00 00 00 00 00 00 00 00                     ..........

No.     Time           Source                Destination           Protocol Length Info
     11 0.093650007    10.73.14.5            10.2.73.5             SSHv2    114    Client: Elliptic Curve Diffie-Hellman Key Exchange Init

Frame 11: 114 bytes on wire (912 bits), 114 bytes captured (912 bits) on interface enp0s3, id 0
    Interface id: 0 (enp0s3)
        Interface name: enp0s3
    Encapsulation type: Ethernet (1)
    Arrival Time: Oct 26, 2022 13:43:12.132394431 EEST
    [Time shift for this packet: 0.000000000 seconds]
    Epoch Time: 1666780992.132394431 seconds
    [Time delta from previous captured frame: 0.005354047 seconds]
    [Time delta from previous displayed frame: 0.005354047 seconds]
    [Time since reference or first frame: 0.093650007 seconds]
    Frame Number: 11
    Frame Length: 114 bytes (912 bits)
    Capture Length: 114 bytes (912 bits)
    [Frame is marked: False]
    [Frame is ignored: False]
    [Protocols in frame: eth:ethertype:ip:tcp:ssh]
    [Coloring Rule Name: TCP]
    [Coloring Rule String: tcp]
Ethernet II, Src: PcsCompu_9f:a5:ba (08:00:27:9f:a5:ba), Dst: PcsCompu_57:5f:a0 (08:00:27:57:5f:a0)
    Destination: PcsCompu_57:5f:a0 (08:00:27:57:5f:a0)
        Address: PcsCompu_57:5f:a0 (08:00:27:57:5f:a0)
        .... ..0. .... .... .... .... = LG bit: Globally unique address (factory default)
        .... ...0 .... .... .... .... = IG bit: Individual address (unicast)
    Source: PcsCompu_9f:a5:ba (08:00:27:9f:a5:ba)
        Address: PcsCompu_9f:a5:ba (08:00:27:9f:a5:ba)
        .... ..0. .... .... .... .... = LG bit: Globally unique address (factory default)
        .... ...0 .... .... .... .... = IG bit: Individual address (unicast)
    Type: IPv4 (0x0800)
Internet Protocol Version 4, Src: 10.73.14.5, Dst: 10.2.73.5
    0100 .... = Version: 4
    .... 0101 = Header Length: 20 bytes (5)
    Differentiated Services Field: 0x00 (DSCP: CS0, ECN: Not-ECT)
        0000 00.. = Differentiated Services Codepoint: Default (0)
        .... ..00 = Explicit Congestion Notification: Not ECN-Capable Transport (0)
    Total Length: 100
    Identification: 0x371a (14106)
    Flags: 0x40, Don't fragment
        0... .... = Reserved bit: Not set
        .1.. .... = Don't fragment: Set
        ..0. .... = More fragments: Not set
    ...0 0000 0000 0000 = Fragment Offset: 0
    Time to Live: 63
    Protocol: TCP (6)
    Header Checksum: 0x9925 [validation disabled]
    [Header checksum status: Unverified]
    Source Address: 10.73.14.5
    Destination Address: 10.2.73.5
Transmission Control Protocol, Src Port: 38870, Dst Port: 22, Seq: 1518, Ack: 1113, Len: 48
    Source Port: 38870
    Destination Port: 22
    [Stream index: 0]
    [Conversation completeness: Incomplete, DATA (15)]
    [TCP Segment Len: 48]
    Sequence Number: 1518    (relative sequence number)
    Sequence Number (raw): 2970651647
    [Next Sequence Number: 1566    (relative sequence number)]
    Acknowledgment Number: 1113    (relative ack number)
    Acknowledgment number (raw): 4208681458
    1000 .... = Header Length: 32 bytes (8)
    Flags: 0x018 (PSH, ACK)
        000. .... .... = Reserved: Not set
        ...0 .... .... = Nonce: Not set
        .... 0... .... = Congestion Window Reduced (CWR): Not set
        .... .0.. .... = ECN-Echo: Not set
        .... ..0. .... = Urgent: Not set
        .... ...1 .... = Acknowledgment: Set
        .... .... 1... = Push: Set
        .... .... .0.. = Reset: Not set
        .... .... ..0. = Syn: Not set
        .... .... ...0 = Fin: Not set
        [TCP Flags: ·······AP···]
    Window: 245
    [Calculated window size: 31360]
    [Window size scaling factor: 128]
    Checksum: 0xe373 [unverified]
    [Checksum Status: Unverified]
    Urgent Pointer: 0
    Options: (12 bytes), No-Operation (NOP), No-Operation (NOP), Timestamps
        TCP Option - No-Operation (NOP)
            Kind: No-Operation (1)
        TCP Option - No-Operation (NOP)
            Kind: No-Operation (1)
        TCP Option - Timestamps: TSval 110945, TSecr 366406699
            Kind: Time Stamp Option (8)
            Length: 10
            Timestamp value: 110945
            Timestamp echo reply: 366406699
    [Timestamps]
        [Time since first frame in this TCP stream: 0.093650007 seconds]
        [Time since previous frame in this TCP stream: 0.005354047 seconds]
    [SEQ/ACK analysis]
        [This is an ACK to the segment in frame: 10]
        [The RTT to ACK the segment was: 0.005354047 seconds]
        [iRTT: 0.000381139 seconds]
        [Bytes in flight: 48]
        [Bytes sent since last PSH flag: 48]
    TCP payload (48 bytes)
SSH Protocol
    SSH Version 2 (encryption:chacha20-poly1305@openssh.com mac:<implicit> compression:none)
        Packet Length: 44
        Padding Length: 6
        Key Exchange (method:curve25519-sha256)
            Message Code: Elliptic Curve Diffie-Hellman Key Exchange Init (30)
            ECDH client's ephemeral public key length: 32
            ECDH client's ephemeral public key (Q_C): 0bed71729130ed86007eca0efdaba43bf65f29b1c63a88b2f5dfd901b968db59
        Padding String: 000000000000
    [Direction: client-to-server]

0000  08 00 27 57 5f a0 08 00 27 9f a5 ba 08 00 45 00   ..'W_...'.....E.
0010  00 64 37 1a 40 00 3f 06 99 25 0a 49 0e 05 0a 02   .d7.@.?..%.I....
0020  49 05 97 d6 00 16 b1 10 8b ff fa db 61 f2 80 18   I...........a...
0030  00 f5 e3 73 00 00 01 01 08 0a 00 01 b1 61 15 d6   ...s.........a..
0040  ec 2b 00 00 00 2c 06 1e 00 00 00 20 0b ed 71 72   .+...,..... ..qr
0050  91 30 ed 86 00 7e ca 0e fd ab a4 3b f6 5f 29 b1   .0...~.....;._).
0060  c6 3a 88 b2 f5 df d9 01 b9 68 db 59 00 00 00 00   .:.......h.Y....
0070  00 00                                             ..

No.     Time           Source                Destination           Protocol Length Info
     12 0.102118663    10.2.73.5             10.73.14.5            SSHv2    662    Server: Elliptic Curve Diffie-Hellman Key Exchange Reply, New Keys, Encrypted packet (len=316)

Frame 12: 662 bytes on wire (5296 bits), 662 bytes captured (5296 bits) on interface enp0s3, id 0
    Interface id: 0 (enp0s3)
        Interface name: enp0s3
    Encapsulation type: Ethernet (1)
    Arrival Time: Oct 26, 2022 13:43:12.140863087 EEST
    [Time shift for this packet: 0.000000000 seconds]
    Epoch Time: 1666780992.140863087 seconds
    [Time delta from previous captured frame: 0.008468656 seconds]
    [Time delta from previous displayed frame: 0.008468656 seconds]
    [Time since reference or first frame: 0.102118663 seconds]
    Frame Number: 12
    Frame Length: 662 bytes (5296 bits)
    Capture Length: 662 bytes (5296 bits)
    [Frame is marked: False]
    [Frame is ignored: False]
    [Protocols in frame: eth:ethertype:ip:tcp:ssh]
    [Coloring Rule Name: TCP]
    [Coloring Rule String: tcp]
Ethernet II, Src: PcsCompu_57:5f:a0 (08:00:27:57:5f:a0), Dst: PcsCompu_9f:a5:ba (08:00:27:9f:a5:ba)
    Destination: PcsCompu_9f:a5:ba (08:00:27:9f:a5:ba)
        Address: PcsCompu_9f:a5:ba (08:00:27:9f:a5:ba)
        .... ..0. .... .... .... .... = LG bit: Globally unique address (factory default)
        .... ...0 .... .... .... .... = IG bit: Individual address (unicast)
    Source: PcsCompu_57:5f:a0 (08:00:27:57:5f:a0)
        Address: PcsCompu_57:5f:a0 (08:00:27:57:5f:a0)
        .... ..0. .... .... .... .... = LG bit: Globally unique address (factory default)
        .... ...0 .... .... .... .... = IG bit: Individual address (unicast)
    Type: IPv4 (0x0800)
Internet Protocol Version 4, Src: 10.2.73.5, Dst: 10.73.14.5
    0100 .... = Version: 4
    .... 0101 = Header Length: 20 bytes (5)
    Differentiated Services Field: 0x00 (DSCP: CS0, ECN: Not-ECT)
        0000 00.. = Differentiated Services Codepoint: Default (0)
        .... ..00 = Explicit Congestion Notification: Not ECN-Capable Transport (0)
    Total Length: 648
    Identification: 0x1a91 (6801)
    Flags: 0x40, Don't fragment
        0... .... = Reserved bit: Not set
        .1.. .... = Don't fragment: Set
        ..0. .... = More fragments: Not set
    ...0 0000 0000 0000 = Fragment Offset: 0
    Time to Live: 64
    Protocol: TCP (6)
    Header Checksum: 0xb28a [validation disabled]
    [Header checksum status: Unverified]
    Source Address: 10.2.73.5
    Destination Address: 10.73.14.5
Transmission Control Protocol, Src Port: 22, Dst Port: 38870, Seq: 1113, Ack: 1566, Len: 596
    Source Port: 22
    Destination Port: 38870
    [Stream index: 0]
    [Conversation completeness: Incomplete, DATA (15)]
    [TCP Segment Len: 596]
    Sequence Number: 1113    (relative sequence number)
    Sequence Number (raw): 4208681458
    [Next Sequence Number: 1709    (relative sequence number)]
    Acknowledgment Number: 1566    (relative ack number)
    Acknowledgment number (raw): 2970651695
    1000 .... = Header Length: 32 bytes (8)
    Flags: 0x018 (PSH, ACK)
        000. .... .... = Reserved: Not set
        ...0 .... .... = Nonce: Not set
        .... 0... .... = Congestion Window Reduced (CWR): Not set
        .... .0.. .... = ECN-Echo: Not set
        .... ..0. .... = Urgent: Not set
        .... ...1 .... = Acknowledgment: Set
        .... .... 1... = Push: Set
        .... .... .0.. = Reset: Not set
        .... .... ..0. = Syn: Not set
        .... .... ...0 = Fin: Not set
        [TCP Flags: ·······AP···]
    Window: 501
    [Calculated window size: 64128]
    [Window size scaling factor: 128]
    Checksum: 0x6dcf [unverified]
    [Checksum Status: Unverified]
    Urgent Pointer: 0
    Options: (12 bytes), No-Operation (NOP), No-Operation (NOP), Timestamps
        TCP Option - No-Operation (NOP)
            Kind: No-Operation (1)
        TCP Option - No-Operation (NOP)
            Kind: No-Operation (1)
        TCP Option - Timestamps: TSval 366406712, TSecr 110945
            Kind: Time Stamp Option (8)
            Length: 10
            Timestamp value: 366406712
            Timestamp echo reply: 110945
    [Timestamps]
        [Time since first frame in this TCP stream: 0.102118663 seconds]
        [Time since previous frame in this TCP stream: 0.008468656 seconds]
    [SEQ/ACK analysis]
        [This is an ACK to the segment in frame: 11]
        [The RTT to ACK the segment was: 0.008468656 seconds]
        [iRTT: 0.000381139 seconds]
        [Bytes in flight: 596]
        [Bytes sent since last PSH flag: 596]
    TCP payload (596 bytes)
SSH Protocol
    SSH Version 2 (encryption:chacha20-poly1305@openssh.com mac:<implicit> compression:none)
        Packet Length: 260
        Padding Length: 10
        Key Exchange (method:curve25519-sha256)
            Message Code: Elliptic Curve Diffie-Hellman Key Exchange Reply (31)
            KEX host key (type: ecdsa-sha2-nistp256)
                Host key length: 104
                Host key type length: 19
                Host key type: ecdsa-sha2-nistp256
                ECDSA elliptic curve identifier length: 8
                ECDSA elliptic curve identifier: nistp256
                ECDSA public key length: 65
                ECDSA public key (Q): 04c132cd1be1605758bb473e99dd4e297540819c99079193338ba697d435d572de00eb87…
            ECDH server's ephemeral public key length: 32
            ECDH server's ephemeral public key (Q_S): b21ae8955412956422569de0708d63b5e0ffa742f15ca18a70bdb502e487f50a
            KEX H signature length: 100
            KEX H signature: 0000001365636473612d736861322d6e69737470323536000000490000002100b66fbf94…
        Padding String: 00000000000000000000
    SSH Version 2 (encryption:chacha20-poly1305@openssh.com mac:<implicit> compression:none)
        Packet Length: 12
        Padding Length: 10
        Key Exchange (method:curve25519-sha256)
            Message Code: New Keys (21)
        Padding String: 00000000000000000000
    SSH Version 2 (encryption:chacha20-poly1305@openssh.com mac:<implicit> compression:none)
        Packet Length (encrypted): 45951588
        Encrypted Packet: edc86b5ec86f618d6dcd9bbcabfe4b826b89a690173ece5af9b4584354da3ebbce1a9751…
        MAC: 670efeb74cc1d86b6d88dffff839638e
    [Direction: server-to-client]

0000  08 00 27 9f a5 ba 08 00 27 57 5f a0 08 00 45 00   ..'.....'W_...E.
0010  02 88 1a 91 40 00 40 06 b2 8a 0a 02 49 05 0a 49   ....@.@.....I..I
0020  0e 05 00 16 97 d6 fa db 61 f2 b1 10 8c 2f 80 18   ........a..../..
0030  01 f5 6d cf 00 00 01 01 08 0a 15 d6 ec 38 00 01   ..m..........8..
0040  b1 61 00 00 01 04 0a 1f 00 00 00 68 00 00 00 13   .a.........h....
0050  65 63 64 73 61 2d 73 68 61 32 2d 6e 69 73 74 70   ecdsa-sha2-nistp
0060  32 35 36 00 00 00 08 6e 69 73 74 70 32 35 36 00   256....nistp256.
0070  00 00 41 04 c1 32 cd 1b e1 60 57 58 bb 47 3e 99   ..A..2...`WX.G>.
0080  dd 4e 29 75 40 81 9c 99 07 91 93 33 8b a6 97 d4   .N)u@......3....
0090  35 d5 72 de 00 eb 87 25 39 ae d2 c2 fc 3b c0 6b   5.r....%9....;.k
00a0  d5 18 6d 71 5c 6d a4 e3 e4 4f 29 77 81 d3 96 d7   ..mq\m...O)w....
00b0  82 bf 27 96 00 00 00 20 b2 1a e8 95 54 12 95 64   ..'.... ....T..d
00c0  22 56 9d e0 70 8d 63 b5 e0 ff a7 42 f1 5c a1 8a   "V..p.c....B.\..
00d0  70 bd b5 02 e4 87 f5 0a 00 00 00 64 00 00 00 13   p..........d....
00e0  65 63 64 73 61 2d 73 68 61 32 2d 6e 69 73 74 70   ecdsa-sha2-nistp
00f0  32 35 36 00 00 00 49 00 00 00 21 00 b6 6f bf 94   256...I...!..o..
0100  cf a4 db 53 d7 56 87 b4 91 5c a3 4c bb 0b 75 45   ...S.V...\.L..uE
0110  2c 0b f1 78 84 b5 8a 3c 38 0c b9 08 00 00 00 20   ,..x...<8...... 
0120  7d b4 71 9f 45 74 44 76 c2 b9 37 fc 73 56 62 6a   }.q.EtDv..7.sVbj
0130  09 29 5a 4c 47 5b 04 13 cc 8d d7 c2 87 3c 80 aa   .)ZLG[.......<..
0140  00 00 00 00 00 00 00 00 00 00 00 00 00 0c 0a 15   ................
0150  00 00 00 00 00 00 00 00 00 00 45 95 15 88 ed c8   ..........E.....
0160  6b 5e c8 6f 61 8d 6d cd 9b bc ab fe 4b 82 6b 89   k^.oa.m.....K.k.
0170  a6 90 17 3e ce 5a f9 b4 58 43 54 da 3e bb ce 1a   ...>.Z..XCT.>...
0180  97 51 d5 43 4f ce e0 49 5c d6 af f8 99 ef e2 e6   .Q.CO..I\.......
0190  d3 22 c7 2b c3 5c 99 a2 57 86 bb fa 8c 6f a2 95   .".+.\..W....o..
01a0  2d 30 a3 7f 13 ed 6a cd e6 b8 ac 78 27 5a 4c 80   -0....j....x'ZL.
01b0  1e 54 92 f7 5f a8 2f 73 a2 19 8b aa 77 d0 a2 90   .T.._./s....w...
01c0  41 c0 ae 3d 2a e8 87 66 0f a8 fb 35 ce dc a2 b4   A..=*..f...5....
01d0  a9 90 ba 64 6e 8b 6f 6d 5b 9e fc 75 0e dc 9e 7b   ...dn.om[..u...{
01e0  58 4e b2 ed f9 92 fd 47 eb 52 55 d4 10 d8 25 37   XN.....G.RU...%7
01f0  8d d0 34 3f fc 67 e6 c4 f1 b6 c3 92 f5 22 75 13   ..4?.g......."u.
0200  c4 fc 2f 89 f9 ce 0f 2c 67 a3 0c 90 76 be f4 af   ../....,g...v...
0210  b7 8c 46 28 e0 82 d0 7b 62 5a 80 f8 82 3f ec b6   ..F(...{bZ...?..
0220  87 97 54 6f dd c3 e0 a6 43 06 87 a0 32 52 ba b6   ..To....C...2R..
0230  e5 c2 3e 30 b7 33 9a ef 41 95 46 c6 32 01 b3 ed   ..>0.3..A.F.2...
0240  24 c0 a2 96 d8 08 2a 46 d8 96 d5 5e a8 ad fa e8   $.....*F...^....
0250  40 0d 0a 51 18 6b d8 d6 dd 4c 23 4a 5b bb 84 7b   @..Q.k...L#J[..{
0260  b2 e5 04 ea df d6 44 50 62 3c d3 c1 d3 6d e9 21   ......DPb<...m.!
0270  1c f2 d2 54 2d 23 2e 91 c4 b5 b7 89 4f 06 ad c3   ...T-#......O...
0280  f3 a8 f1 c2 e6 73 67 0e fe b7 4c c1 d8 6b 6d 88   .....sg...L..km.
0290  df ff f8 39 63 8e                                 ...9c.

No.     Time           Source                Destination           Protocol Length Info
     13 0.108578293    10.73.14.5            10.2.73.5             SSHv2    82     Client: New Keys

Frame 13: 82 bytes on wire (656 bits), 82 bytes captured (656 bits) on interface enp0s3, id 0
    Interface id: 0 (enp0s3)
        Interface name: enp0s3
    Encapsulation type: Ethernet (1)
    Arrival Time: Oct 26, 2022 13:43:12.147322717 EEST
    [Time shift for this packet: 0.000000000 seconds]
    Epoch Time: 1666780992.147322717 seconds
    [Time delta from previous captured frame: 0.006459630 seconds]
    [Time delta from previous displayed frame: 0.006459630 seconds]
    [Time since reference or first frame: 0.108578293 seconds]
    Frame Number: 13
    Frame Length: 82 bytes (656 bits)
    Capture Length: 82 bytes (656 bits)
    [Frame is marked: False]
    [Frame is ignored: False]
    [Protocols in frame: eth:ethertype:ip:tcp:ssh]
    [Coloring Rule Name: TCP]
    [Coloring Rule String: tcp]
Ethernet II, Src: PcsCompu_9f:a5:ba (08:00:27:9f:a5:ba), Dst: PcsCompu_57:5f:a0 (08:00:27:57:5f:a0)
    Destination: PcsCompu_57:5f:a0 (08:00:27:57:5f:a0)
        Address: PcsCompu_57:5f:a0 (08:00:27:57:5f:a0)
        .... ..0. .... .... .... .... = LG bit: Globally unique address (factory default)
        .... ...0 .... .... .... .... = IG bit: Individual address (unicast)
    Source: PcsCompu_9f:a5:ba (08:00:27:9f:a5:ba)
        Address: PcsCompu_9f:a5:ba (08:00:27:9f:a5:ba)
        .... ..0. .... .... .... .... = LG bit: Globally unique address (factory default)
        .... ...0 .... .... .... .... = IG bit: Individual address (unicast)
    Type: IPv4 (0x0800)
Internet Protocol Version 4, Src: 10.73.14.5, Dst: 10.2.73.5
    0100 .... = Version: 4
    .... 0101 = Header Length: 20 bytes (5)
    Differentiated Services Field: 0x00 (DSCP: CS0, ECN: Not-ECT)
        0000 00.. = Differentiated Services Codepoint: Default (0)
        .... ..00 = Explicit Congestion Notification: Not ECN-Capable Transport (0)
    Total Length: 68
    Identification: 0x371b (14107)
    Flags: 0x40, Don't fragment
        0... .... = Reserved bit: Not set
        .1.. .... = Don't fragment: Set
        ..0. .... = More fragments: Not set
    ...0 0000 0000 0000 = Fragment Offset: 0
    Time to Live: 63
    Protocol: TCP (6)
    Header Checksum: 0x9944 [validation disabled]
    [Header checksum status: Unverified]
    Source Address: 10.73.14.5
    Destination Address: 10.2.73.5
Transmission Control Protocol, Src Port: 38870, Dst Port: 22, Seq: 1566, Ack: 1709, Len: 16
    Source Port: 38870
    Destination Port: 22
    [Stream index: 0]
    [Conversation completeness: Incomplete, DATA (15)]
    [TCP Segment Len: 16]
    Sequence Number: 1566    (relative sequence number)
    Sequence Number (raw): 2970651695
    [Next Sequence Number: 1582    (relative sequence number)]
    Acknowledgment Number: 1709    (relative ack number)
    Acknowledgment number (raw): 4208682054
    1000 .... = Header Length: 32 bytes (8)
    Flags: 0x018 (PSH, ACK)
        000. .... .... = Reserved: Not set
        ...0 .... .... = Nonce: Not set
        .... 0... .... = Congestion Window Reduced (CWR): Not set
        .... .0.. .... = ECN-Echo: Not set
        .... ..0. .... = Urgent: Not set
        .... ...1 .... = Acknowledgment: Set
        .... .... 1... = Push: Set
        .... .... .0.. = Reset: Not set
        .... .... ..0. = Syn: Not set
        .... .... ...0 = Fin: Not set
        [TCP Flags: ·······AP···]
    Window: 262
    [Calculated window size: 33536]
    [Window size scaling factor: 128]
    Checksum: 0x1859 [unverified]
    [Checksum Status: Unverified]
    Urgent Pointer: 0
    Options: (12 bytes), No-Operation (NOP), No-Operation (NOP), Timestamps
        TCP Option - No-Operation (NOP)
            Kind: No-Operation (1)
        TCP Option - No-Operation (NOP)
            Kind: No-Operation (1)
        TCP Option - Timestamps: TSval 110961, TSecr 366406712
            Kind: Time Stamp Option (8)
            Length: 10
            Timestamp value: 110961
            Timestamp echo reply: 366406712
    [Timestamps]
        [Time since first frame in this TCP stream: 0.108578293 seconds]
        [Time since previous frame in this TCP stream: 0.006459630 seconds]
    [SEQ/ACK analysis]
        [This is an ACK to the segment in frame: 12]
        [The RTT to ACK the segment was: 0.006459630 seconds]
        [iRTT: 0.000381139 seconds]
        [Bytes in flight: 16]
        [Bytes sent since last PSH flag: 16]
    TCP payload (16 bytes)
SSH Protocol
    SSH Version 2 (encryption:chacha20-poly1305@openssh.com mac:<implicit> compression:none)
        Packet Length: 12
        Padding Length: 10
        Key Exchange (method:curve25519-sha256)
            Message Code: New Keys (21)
        Padding String: 00000000000000000000
    [Direction: client-to-server]

0000  08 00 27 57 5f a0 08 00 27 9f a5 ba 08 00 45 00   ..'W_...'.....E.
0010  00 44 37 1b 40 00 3f 06 99 44 0a 49 0e 05 0a 02   .D7.@.?..D.I....
0020  49 05 97 d6 00 16 b1 10 8c 2f fa db 64 46 80 18   I......../..dF..
0030  01 06 18 59 00 00 01 01 08 0a 00 01 b1 71 15 d6   ...Y.........q..
0040  ec 38 00 00 00 0c 0a 15 00 00 00 00 00 00 00 00   .8..............
0050  00 00                                             ..

No.     Time           Source                Destination           Protocol Length Info
     14 0.173483939    10.2.73.5             10.73.14.5            TCP      66     22 → 38870 [ACK] Seq=1709 Ack=1582 Win=64128 Len=0 TSval=366406784 TSecr=110961

Frame 14: 66 bytes on wire (528 bits), 66 bytes captured (528 bits) on interface enp0s3, id 0
    Interface id: 0 (enp0s3)
        Interface name: enp0s3
    Encapsulation type: Ethernet (1)
    Arrival Time: Oct 26, 2022 13:43:12.212228363 EEST
    [Time shift for this packet: 0.000000000 seconds]
    Epoch Time: 1666780992.212228363 seconds
    [Time delta from previous captured frame: 0.064905646 seconds]
    [Time delta from previous displayed frame: 0.064905646 seconds]
    [Time since reference or first frame: 0.173483939 seconds]
    Frame Number: 14
    Frame Length: 66 bytes (528 bits)
    Capture Length: 66 bytes (528 bits)
    [Frame is marked: False]
    [Frame is ignored: False]
    [Protocols in frame: eth:ethertype:ip:tcp]
    [Coloring Rule Name: TCP]
    [Coloring Rule String: tcp]
Ethernet II, Src: PcsCompu_57:5f:a0 (08:00:27:57:5f:a0), Dst: PcsCompu_9f:a5:ba (08:00:27:9f:a5:ba)
    Destination: PcsCompu_9f:a5:ba (08:00:27:9f:a5:ba)
        Address: PcsCompu_9f:a5:ba (08:00:27:9f:a5:ba)
        .... ..0. .... .... .... .... = LG bit: Globally unique address (factory default)
        .... ...0 .... .... .... .... = IG bit: Individual address (unicast)
    Source: PcsCompu_57:5f:a0 (08:00:27:57:5f:a0)
        Address: PcsCompu_57:5f:a0 (08:00:27:57:5f:a0)
        .... ..0. .... .... .... .... = LG bit: Globally unique address (factory default)
        .... ...0 .... .... .... .... = IG bit: Individual address (unicast)
    Type: IPv4 (0x0800)
Internet Protocol Version 4, Src: 10.2.73.5, Dst: 10.73.14.5
    0100 .... = Version: 4
    .... 0101 = Header Length: 20 bytes (5)
    Differentiated Services Field: 0x00 (DSCP: CS0, ECN: Not-ECT)
        0000 00.. = Differentiated Services Codepoint: Default (0)
        .... ..00 = Explicit Congestion Notification: Not ECN-Capable Transport (0)
    Total Length: 52
    Identification: 0x1a92 (6802)
    Flags: 0x40, Don't fragment
        0... .... = Reserved bit: Not set
        .1.. .... = Don't fragment: Set
        ..0. .... = More fragments: Not set
    ...0 0000 0000 0000 = Fragment Offset: 0
    Time to Live: 64
    Protocol: TCP (6)
    Header Checksum: 0xb4dd [validation disabled]
    [Header checksum status: Unverified]
    Source Address: 10.2.73.5
    Destination Address: 10.73.14.5
Transmission Control Protocol, Src Port: 22, Dst Port: 38870, Seq: 1709, Ack: 1582, Len: 0
    Source Port: 22
    Destination Port: 38870
    [Stream index: 0]
    [Conversation completeness: Incomplete, DATA (15)]
    [TCP Segment Len: 0]
    Sequence Number: 1709    (relative sequence number)
    Sequence Number (raw): 4208682054
    [Next Sequence Number: 1709    (relative sequence number)]
    Acknowledgment Number: 1582    (relative ack number)
    Acknowledgment number (raw): 2970651711
    1000 .... = Header Length: 32 bytes (8)
    Flags: 0x010 (ACK)
        000. .... .... = Reserved: Not set
        ...0 .... .... = Nonce: Not set
        .... 0... .... = Congestion Window Reduced (CWR): Not set
        .... .0.. .... = ECN-Echo: Not set
        .... ..0. .... = Urgent: Not set
        .... ...1 .... = Acknowledgment: Set
        .... .... 0... = Push: Not set
        .... .... .0.. = Reset: Not set
        .... .... ..0. = Syn: Not set
        .... .... ...0 = Fin: Not set
        [TCP Flags: ·······A····]
    Window: 501
    [Calculated window size: 64128]
    [Window size scaling factor: 128]
    Checksum: 0x6b7b [unverified]
    [Checksum Status: Unverified]
    Urgent Pointer: 0
    Options: (12 bytes), No-Operation (NOP), No-Operation (NOP), Timestamps
        TCP Option - No-Operation (NOP)
            Kind: No-Operation (1)
        TCP Option - No-Operation (NOP)
            Kind: No-Operation (1)
        TCP Option - Timestamps: TSval 366406784, TSecr 110961
            Kind: Time Stamp Option (8)
            Length: 10
            Timestamp value: 366406784
            Timestamp echo reply: 110961
    [Timestamps]
        [Time since first frame in this TCP stream: 0.173483939 seconds]
        [Time since previous frame in this TCP stream: 0.064905646 seconds]
    [SEQ/ACK analysis]
        [This is an ACK to the segment in frame: 13]
        [The RTT to ACK the segment was: 0.064905646 seconds]
        [iRTT: 0.000381139 seconds]

0000  08 00 27 9f a5 ba 08 00 27 57 5f a0 08 00 45 00   ..'.....'W_...E.
0010  00 34 1a 92 40 00 40 06 b4 dd 0a 02 49 05 0a 49   .4..@.@.....I..I
0020  0e 05 00 16 97 d6 fa db 64 46 b1 10 8c 3f 80 10   ........dF...?..
0030  01 f5 6b 7b 00 00 01 01 08 0a 15 d6 ec 80 00 01   ..k{............
0040  b1 71                                             .q

No.     Time           Source                Destination           Protocol Length Info
     15 0.174053962    10.73.14.5            10.2.73.5             SSHv2    110    Client: Encrypted packet (len=44)

Frame 15: 110 bytes on wire (880 bits), 110 bytes captured (880 bits) on interface enp0s3, id 0
    Interface id: 0 (enp0s3)
        Interface name: enp0s3
    Encapsulation type: Ethernet (1)
    Arrival Time: Oct 26, 2022 13:43:12.212798386 EEST
    [Time shift for this packet: 0.000000000 seconds]
    Epoch Time: 1666780992.212798386 seconds
    [Time delta from previous captured frame: 0.000570023 seconds]
    [Time delta from previous displayed frame: 0.000570023 seconds]
    [Time since reference or first frame: 0.174053962 seconds]
    Frame Number: 15
    Frame Length: 110 bytes (880 bits)
    Capture Length: 110 bytes (880 bits)
    [Frame is marked: False]
    [Frame is ignored: False]
    [Protocols in frame: eth:ethertype:ip:tcp:ssh]
    [Coloring Rule Name: TCP]
    [Coloring Rule String: tcp]
Ethernet II, Src: PcsCompu_9f:a5:ba (08:00:27:9f:a5:ba), Dst: PcsCompu_57:5f:a0 (08:00:27:57:5f:a0)
    Destination: PcsCompu_57:5f:a0 (08:00:27:57:5f:a0)
        Address: PcsCompu_57:5f:a0 (08:00:27:57:5f:a0)
        .... ..0. .... .... .... .... = LG bit: Globally unique address (factory default)
        .... ...0 .... .... .... .... = IG bit: Individual address (unicast)
    Source: PcsCompu_9f:a5:ba (08:00:27:9f:a5:ba)
        Address: PcsCompu_9f:a5:ba (08:00:27:9f:a5:ba)
        .... ..0. .... .... .... .... = LG bit: Globally unique address (factory default)
        .... ...0 .... .... .... .... = IG bit: Individual address (unicast)
    Type: IPv4 (0x0800)
Internet Protocol Version 4, Src: 10.73.14.5, Dst: 10.2.73.5
    0100 .... = Version: 4
    .... 0101 = Header Length: 20 bytes (5)
    Differentiated Services Field: 0x00 (DSCP: CS0, ECN: Not-ECT)
        0000 00.. = Differentiated Services Codepoint: Default (0)
        .... ..00 = Explicit Congestion Notification: Not ECN-Capable Transport (0)
    Total Length: 96
    Identification: 0x371c (14108)
    Flags: 0x40, Don't fragment
        0... .... = Reserved bit: Not set
        .1.. .... = Don't fragment: Set
        ..0. .... = More fragments: Not set
    ...0 0000 0000 0000 = Fragment Offset: 0
    Time to Live: 63
    Protocol: TCP (6)
    Header Checksum: 0x9927 [validation disabled]
    [Header checksum status: Unverified]
    Source Address: 10.73.14.5
    Destination Address: 10.2.73.5
Transmission Control Protocol, Src Port: 38870, Dst Port: 22, Seq: 1582, Ack: 1709, Len: 44
    Source Port: 38870
    Destination Port: 22
    [Stream index: 0]
    [Conversation completeness: Incomplete, DATA (15)]
    [TCP Segment Len: 44]
    Sequence Number: 1582    (relative sequence number)
    Sequence Number (raw): 2970651711
    [Next Sequence Number: 1626    (relative sequence number)]
    Acknowledgment Number: 1709    (relative ack number)
    Acknowledgment number (raw): 4208682054
    1000 .... = Header Length: 32 bytes (8)
    Flags: 0x018 (PSH, ACK)
        000. .... .... = Reserved: Not set
        ...0 .... .... = Nonce: Not set
        .... 0... .... = Congestion Window Reduced (CWR): Not set
        .... .0.. .... = ECN-Echo: Not set
        .... ..0. .... = Urgent: Not set
        .... ...1 .... = Acknowledgment: Set
        .... .... 1... = Push: Set
        .... .... .0.. = Reset: Not set
        .... .... ..0. = Syn: Not set
        .... .... ...0 = Fin: Not set
        [TCP Flags: ·······AP···]
    Window: 262
    [Calculated window size: 33536]
    [Window size scaling factor: 128]
    Checksum: 0x9f20 [unverified]
    [Checksum Status: Unverified]
    Urgent Pointer: 0
    Options: (12 bytes), No-Operation (NOP), No-Operation (NOP), Timestamps
        TCP Option - No-Operation (NOP)
            Kind: No-Operation (1)
        TCP Option - No-Operation (NOP)
            Kind: No-Operation (1)
        TCP Option - Timestamps: TSval 111027, TSecr 366406784
            Kind: Time Stamp Option (8)
            Length: 10
            Timestamp value: 111027
            Timestamp echo reply: 366406784
    [Timestamps]
        [Time since first frame in this TCP stream: 0.174053962 seconds]
        [Time since previous frame in this TCP stream: 0.000570023 seconds]
    [SEQ/ACK analysis]
        [iRTT: 0.000381139 seconds]
        [Bytes in flight: 44]
        [Bytes sent since last PSH flag: 44]
    TCP payload (44 bytes)
SSH Protocol
    SSH Version 2 (encryption:chacha20-poly1305@openssh.com mac:<implicit> compression:none)
        Packet Length (encrypted): bcb10a49
        Encrypted Packet: 0a2876d4ac87805b8c4555c3526a0e9f89301e6f7b1bad3e
        MAC: e3ffa1c5ca0dc979354d534039801f62
    [Direction: client-to-server]

0000  08 00 27 57 5f a0 08 00 27 9f a5 ba 08 00 45 00   ..'W_...'.....E.
0010  00 60 37 1c 40 00 3f 06 99 27 0a 49 0e 05 0a 02   .`7.@.?..'.I....
0020  49 05 97 d6 00 16 b1 10 8c 3f fa db 64 46 80 18   I........?..dF..
0030  01 06 9f 20 00 00 01 01 08 0a 00 01 b1 b3 15 d6   ... ............
0040  ec 80 bc b1 0a 49 0a 28 76 d4 ac 87 80 5b 8c 45   .....I.(v....[.E
0050  55 c3 52 6a 0e 9f 89 30 1e 6f 7b 1b ad 3e e3 ff   U.Rj...0.o{..>..
0060  a1 c5 ca 0d c9 79 35 4d 53 40 39 80 1f 62         .....y5MS@9..b

No.     Time           Source                Destination           Protocol Length Info
     16 0.174071531    10.2.73.5             10.73.14.5            TCP      66     22 → 38870 [ACK] Seq=1709 Ack=1626 Win=64128 Len=0 TSval=366406784 TSecr=111027

Frame 16: 66 bytes on wire (528 bits), 66 bytes captured (528 bits) on interface enp0s3, id 0
    Interface id: 0 (enp0s3)
        Interface name: enp0s3
    Encapsulation type: Ethernet (1)
    Arrival Time: Oct 26, 2022 13:43:12.212815955 EEST
    [Time shift for this packet: 0.000000000 seconds]
    Epoch Time: 1666780992.212815955 seconds
    [Time delta from previous captured frame: 0.000017569 seconds]
    [Time delta from previous displayed frame: 0.000017569 seconds]
    [Time since reference or first frame: 0.174071531 seconds]
    Frame Number: 16
    Frame Length: 66 bytes (528 bits)
    Capture Length: 66 bytes (528 bits)
    [Frame is marked: False]
    [Frame is ignored: False]
    [Protocols in frame: eth:ethertype:ip:tcp]
    [Coloring Rule Name: TCP]
    [Coloring Rule String: tcp]
Ethernet II, Src: PcsCompu_57:5f:a0 (08:00:27:57:5f:a0), Dst: PcsCompu_9f:a5:ba (08:00:27:9f:a5:ba)
    Destination: PcsCompu_9f:a5:ba (08:00:27:9f:a5:ba)
        Address: PcsCompu_9f:a5:ba (08:00:27:9f:a5:ba)
        .... ..0. .... .... .... .... = LG bit: Globally unique address (factory default)
        .... ...0 .... .... .... .... = IG bit: Individual address (unicast)
    Source: PcsCompu_57:5f:a0 (08:00:27:57:5f:a0)
        Address: PcsCompu_57:5f:a0 (08:00:27:57:5f:a0)
        .... ..0. .... .... .... .... = LG bit: Globally unique address (factory default)
