No.     Time           Source                Destination           Protocol Length Info
      1 0.000000000    10.2.73.5             10.73.14.5            TCP      74     57064 > ssh [SYN] Seq=0 Win=64240 Len=0 MSS=1460 SACK_PERM=1 TSval=368421471 TSecr=0 WS=128

Frame 1: 74 bytes on wire (592 bits), 74 bytes captured (592 bits) on interface 0
    Interface id: 0
    Encapsulation type: Ethernet (1)
    Arrival Time: Oct 26, 2022 14:16:21.541372885 MSK
    [Time shift for this packet: 0.000000000 seconds]
    Epoch Time: 1666782981.541372885 seconds
    [Time delta from previous captured frame: 0.000000000 seconds]
    [Time delta from previous displayed frame: 0.000000000 seconds]
    [Time since reference or first frame: 0.000000000 seconds]
    Frame Number: 1
    Frame Length: 74 bytes (592 bits)
    Capture Length: 74 bytes (592 bits)
    [Frame is marked: False]
    [Frame is ignored: False]
    [Protocols in frame: eth:ip:tcp]
    [Coloring Rule Name: TCP SYN/FIN]
    [Coloring Rule String: tcp.flags & 0x02 || tcp.flags.fin == 1]
Ethernet II, Src: CadmusCo_62:0e:57 (08:00:27:62:0e:57), Dst: CadmusCo_41:0f:d0 (08:00:27:41:0f:d0)
    Destination: CadmusCo_41:0f:d0 (08:00:27:41:0f:d0)
        Address: CadmusCo_41:0f:d0 (08:00:27:41:0f:d0)
        .... ..0. .... .... .... .... = LG bit: Globally unique address (factory default)
        .... ...0 .... .... .... .... = IG bit: Individual address (unicast)
    Source: CadmusCo_62:0e:57 (08:00:27:62:0e:57)
        Address: CadmusCo_62:0e:57 (08:00:27:62:0e:57)
        .... ..0. .... .... .... .... = LG bit: Globally unique address (factory default)
        .... ...0 .... .... .... .... = IG bit: Individual address (unicast)
    Type: IP (0x0800)
Internet Protocol Version 4, Src: 10.2.73.5 (10.2.73.5), Dst: 10.73.14.5 (10.73.14.5)
    Version: 4
    Header length: 20 bytes
    Differentiated Services Field: 0x10 (DSCP 0x04: Unknown DSCP; ECN: 0x00: Not-ECT (Not ECN-Capable Transport))
        0001 00.. = Differentiated Services Codepoint: Unknown (0x04)
        .... ..00 = Explicit Congestion Notification: Not-ECT (Not ECN-Capable Transport) (0x00)
    Total Length: 60
    Identification: 0x46c5 (18117)
    Flags: 0x02 (Don't Fragment)
        0... .... = Reserved bit: Not set
        .1.. .... = Don't fragment: Set
        ..0. .... = More fragments: Not set
    Fragment offset: 0
    Time to live: 63
    Protocol: TCP (6)
    Header checksum: 0x8992 [validation disabled]
        [Good: False]
        [Bad: False]
    Source: 10.2.73.5 (10.2.73.5)
    Destination: 10.73.14.5 (10.73.14.5)
Transmission Control Protocol, Src Port: 57064 (57064), Dst Port: ssh (22), Seq: 0, Len: 0
    Source port: 57064 (57064)
    Destination port: ssh (22)
    [Stream index: 0]
    Sequence number: 0    (relative sequence number)
    Header length: 40 bytes
    Flags: 0x002 (SYN)
        000. .... .... = Reserved: Not set
        ...0 .... .... = Nonce: Not set
        .... 0... .... = Congestion Window Reduced (CWR): Not set
        .... .0.. .... = ECN-Echo: Not set
        .... ..0. .... = Urgent: Not set
        .... ...0 .... = Acknowledgment: Not set
        .... .... 0... = Push: Not set
        .... .... .0.. = Reset: Not set
        .... .... ..1. = Syn: Set
            [Expert Info (Chat/Sequence): Connection establish request (SYN): server port ssh]
                [Message: Connection establish request (SYN): server port ssh]
                [Severity level: Chat]
                [Group: Sequence]
        .... .... ...0 = Fin: Not set
    Window size value: 64240
    [Calculated window size: 64240]
    Checksum: 0x3db0 [validation disabled]
        [Good Checksum: False]
        [Bad Checksum: False]
    Options: (20 bytes), Maximum segment size, SACK permitted, Timestamps, No-Operation (NOP), Window scale
        Maximum segment size: 1460 bytes
            Kind: MSS size (2)
            Length: 4
            MSS Value: 1460
        TCP SACK Permitted Option: True
            Kind: SACK Permission (4)
            Length: 2
        Timestamps: TSval 368421471, TSecr 0
            Kind: Timestamp (8)
            Length: 10
            Timestamp value: 368421471
            Timestamp echo reply: 0
        No-Operation (NOP)
            Type: 1
                0... .... = Copy on fragmentation: No
                .00. .... = Class: Control (0)
                ...0 0001 = Number: No-Operation (NOP) (1)
        Window scale: 7 (multiply by 128)
            Kind: Window Scale (3)
            Length: 3
            Shift count: 7
            [Multiplier: 128]

0000  08 00 27 41 0f d0 08 00 27 62 0e 57 08 00 45 10   ..'A....'b.W..E.
0010  00 3c 46 c5 40 00 3f 06 89 92 0a 02 49 05 0a 49   .<F.@.?.....I..I
0020  0e 05 de e8 00 16 b7 d9 4c dd 00 00 00 00 a0 02   ........L.......
0030  fa f0 3d b0 00 00 02 04 05 b4 04 02 08 0a 15 f5   ..=.............
0040  aa 5f 00 00 00 00 01 03 03 07                     ._........
No.     Time           Source                Destination           Protocol Length Info
      2 0.000117977    10.73.14.5            10.2.73.5             TCP      74     ssh > 57064 [SYN, ACK] Seq=0 Ack=1 Win=28960 Len=0 MSS=1460 SACK_PERM=1 TSval=2125703 TSecr=368421471 WS=128

Frame 2: 74 bytes on wire (592 bits), 74 bytes captured (592 bits) on interface 0
    Interface id: 0
    Encapsulation type: Ethernet (1)
    Arrival Time: Oct 26, 2022 14:16:21.541490862 MSK
    [Time shift for this packet: 0.000000000 seconds]
    Epoch Time: 1666782981.541490862 seconds
    [Time delta from previous captured frame: 0.000117977 seconds]
    [Time delta from previous displayed frame: 0.000117977 seconds]
    [Time since reference or first frame: 0.000117977 seconds]
    Frame Number: 2
    Frame Length: 74 bytes (592 bits)
    Capture Length: 74 bytes (592 bits)
    [Frame is marked: False]
    [Frame is ignored: False]
    [Protocols in frame: eth:ip:tcp]
    [Coloring Rule Name: TCP SYN/FIN]
    [Coloring Rule String: tcp.flags & 0x02 || tcp.flags.fin == 1]
Ethernet II, Src: CadmusCo_41:0f:d0 (08:00:27:41:0f:d0), Dst: CadmusCo_62:0e:57 (08:00:27:62:0e:57)
    Destination: CadmusCo_62:0e:57 (08:00:27:62:0e:57)
        Address: CadmusCo_62:0e:57 (08:00:27:62:0e:57)
        .... ..0. .... .... .... .... = LG bit: Globally unique address (factory default)
        .... ...0 .... .... .... .... = IG bit: Individual address (unicast)
    Source: CadmusCo_41:0f:d0 (08:00:27:41:0f:d0)
        Address: CadmusCo_41:0f:d0 (08:00:27:41:0f:d0)
        .... ..0. .... .... .... .... = LG bit: Globally unique address (factory default)
        .... ...0 .... .... .... .... = IG bit: Individual address (unicast)
    Type: IP (0x0800)
Internet Protocol Version 4, Src: 10.73.14.5 (10.73.14.5), Dst: 10.2.73.5 (10.2.73.5)
    Version: 4
    Header length: 20 bytes
    Differentiated Services Field: 0x00 (DSCP 0x00: Default; ECN: 0x00: Not-ECT (Not ECN-Capable Transport))
        0000 00.. = Differentiated Services Codepoint: Default (0x00)
        .... ..00 = Explicit Congestion Notification: Not-ECT (Not ECN-Capable Transport) (0x00)
    Total Length: 60
    Identification: 0x0000 (0)
    Flags: 0x02 (Don't Fragment)
        0... .... = Reserved bit: Not set
        .1.. .... = Don't fragment: Set
        ..0. .... = More fragments: Not set
    Fragment offset: 0
    Time to live: 64
    Protocol: TCP (6)
    Header checksum: 0xcf67 [validation disabled]
        [Good: False]
        [Bad: False]
    Source: 10.73.14.5 (10.73.14.5)
    Destination: 10.2.73.5 (10.2.73.5)
Transmission Control Protocol, Src Port: ssh (22), Dst Port: 57064 (57064), Seq: 0, Ack: 1, Len: 0
    Source port: ssh (22)
    Destination port: 57064 (57064)
    [Stream index: 0]
    Sequence number: 0    (relative sequence number)
    Acknowledgment number: 1    (relative ack number)
    Header length: 40 bytes
    Flags: 0x012 (SYN, ACK)
        000. .... .... = Reserved: Not set
        ...0 .... .... = Nonce: Not set
        .... 0... .... = Congestion Window Reduced (CWR): Not set
        .... .0.. .... = ECN-Echo: Not set
        .... ..0. .... = Urgent: Not set
        .... ...1 .... = Acknowledgment: Set
        .... .... 0... = Push: Not set
        .... .... .0.. = Reset: Not set
        .... .... ..1. = Syn: Set
            [Expert Info (Chat/Sequence): Connection establish acknowledge (SYN+ACK): server port ssh]
                [Message: Connection establish acknowledge (SYN+ACK): server port ssh]
                [Severity level: Chat]
                [Group: Sequence]
        .... .... ...0 = Fin: Not set
    Window size value: 28960
    [Calculated window size: 28960]
    Checksum: 0x6b83 [validation disabled]
        [Good Checksum: False]
        [Bad Checksum: False]
    Options: (20 bytes), Maximum segment size, SACK permitted, Timestamps, No-Operation (NOP), Window scale
        Maximum segment size: 1460 bytes
            Kind: MSS size (2)
            Length: 4
            MSS Value: 1460
        TCP SACK Permitted Option: True
            Kind: SACK Permission (4)
            Length: 2
        Timestamps: TSval 2125703, TSecr 368421471
            Kind: Timestamp (8)
            Length: 10
            Timestamp value: 2125703
            Timestamp echo reply: 368421471
        No-Operation (NOP)
            Type: 1
                0... .... = Copy on fragmentation: No
                .00. .... = Class: Control (0)
                ...0 0001 = Number: No-Operation (NOP) (1)
        Window scale: 7 (multiply by 128)
            Kind: Window Scale (3)
            Length: 3
            Shift count: 7
            [Multiplier: 128]
    [SEQ/ACK analysis]
        [This is an ACK to the segment in frame: 1]
        [The RTT to ACK the segment was: 0.000117977 seconds]

0000  08 00 27 62 0e 57 08 00 27 41 0f d0 08 00 45 00   ..'b.W..'A....E.
0010  00 3c 00 00 40 00 40 06 cf 67 0a 49 0e 05 0a 02   .<..@.@..g.I....
0020  49 05 00 16 de e8 d9 66 f3 56 b7 d9 4c de a0 12   I......f.V..L...
0030  71 20 6b 83 00 00 02 04 05 b4 04 02 08 0a 00 20   q k............ 
0040  6f 87 15 f5 aa 5f 01 03 03 07                     o...._....
No.     Time           Source                Destination           Protocol Length Info
      3 0.000584970    10.2.73.5             10.73.14.5            TCP      66     57064 > ssh [ACK] Seq=1 Ack=1 Win=64256 Len=0 TSval=368421471 TSecr=2125703

Frame 3: 66 bytes on wire (528 bits), 66 bytes captured (528 bits) on interface 0
    Interface id: 0
    Encapsulation type: Ethernet (1)
    Arrival Time: Oct 26, 2022 14:16:21.541957855 MSK
    [Time shift for this packet: 0.000000000 seconds]
    Epoch Time: 1666782981.541957855 seconds
    [Time delta from previous captured frame: 0.000466993 seconds]
    [Time delta from previous displayed frame: 0.000466993 seconds]
    [Time since reference or first frame: 0.000584970 seconds]
    Frame Number: 3
    Frame Length: 66 bytes (528 bits)
    Capture Length: 66 bytes (528 bits)
    [Frame is marked: False]
    [Frame is ignored: False]
    [Protocols in frame: eth:ip:tcp]
    [Coloring Rule Name: TCP]
    [Coloring Rule String: tcp]
Ethernet II, Src: CadmusCo_62:0e:57 (08:00:27:62:0e:57), Dst: CadmusCo_41:0f:d0 (08:00:27:41:0f:d0)
    Destination: CadmusCo_41:0f:d0 (08:00:27:41:0f:d0)
        Address: CadmusCo_41:0f:d0 (08:00:27:41:0f:d0)
        .... ..0. .... .... .... .... = LG bit: Globally unique address (factory default)
        .... ...0 .... .... .... .... = IG bit: Individual address (unicast)
    Source: CadmusCo_62:0e:57 (08:00:27:62:0e:57)
        Address: CadmusCo_62:0e:57 (08:00:27:62:0e:57)
        .... ..0. .... .... .... .... = LG bit: Globally unique address (factory default)
        .... ...0 .... .... .... .... = IG bit: Individual address (unicast)
    Type: IP (0x0800)
Internet Protocol Version 4, Src: 10.2.73.5 (10.2.73.5), Dst: 10.73.14.5 (10.73.14.5)
    Version: 4
    Header length: 20 bytes
    Differentiated Services Field: 0x10 (DSCP 0x04: Unknown DSCP; ECN: 0x00: Not-ECT (Not ECN-Capable Transport))
        0001 00.. = Differentiated Services Codepoint: Unknown (0x04)
        .... ..00 = Explicit Congestion Notification: Not-ECT (Not ECN-Capable Transport) (0x00)
    Total Length: 52
    Identification: 0x46c6 (18118)
    Flags: 0x02 (Don't Fragment)
        0... .... = Reserved bit: Not set
        .1.. .... = Don't fragment: Set
        ..0. .... = More fragments: Not set
    Fragment offset: 0
    Time to live: 63
    Protocol: TCP (6)
    Header checksum: 0x8999 [validation disabled]
        [Good: False]
        [Bad: False]
    Source: 10.2.73.5 (10.2.73.5)
    Destination: 10.73.14.5 (10.73.14.5)
Transmission Control Protocol, Src Port: 57064 (57064), Dst Port: ssh (22), Seq: 1, Ack: 1, Len: 0
    Source port: 57064 (57064)
    Destination port: ssh (22)
    [Stream index: 0]
    Sequence number: 1    (relative sequence number)
    Acknowledgment number: 1    (relative ack number)
    Header length: 32 bytes
    Flags: 0x010 (ACK)
        000. .... .... = Reserved: Not set
        ...0 .... .... = Nonce: Not set
        .... 0... .... = Congestion Window Reduced (CWR): Not set
        .... .0.. .... = ECN-Echo: Not set
        .... ..0. .... = Urgent: Not set
        .... ...1 .... = Acknowledgment: Set
        .... .... 0... = Push: Not set
        .... .... .0.. = Reset: Not set
        .... .... ..0. = Syn: Not set
        .... .... ...0 = Fin: Not set
    Window size value: 502
    [Calculated window size: 64256]
    [Window size scaling factor: 128]
    Checksum: 0x2901 [validation disabled]
        [Good Checksum: False]
        [Bad Checksum: False]
    Options: (12 bytes), No-Operation (NOP), No-Operation (NOP), Timestamps
        No-Operation (NOP)
            Type: 1
                0... .... = Copy on fragmentation: No
                .00. .... = Class: Control (0)
                ...0 0001 = Number: No-Operation (NOP) (1)
        No-Operation (NOP)
            Type: 1
                0... .... = Copy on fragmentation: No
                .00. .... = Class: Control (0)
                ...0 0001 = Number: No-Operation (NOP) (1)
        Timestamps: TSval 368421471, TSecr 2125703
            Kind: Timestamp (8)
            Length: 10
            Timestamp value: 368421471
            Timestamp echo reply: 2125703
    [SEQ/ACK analysis]
        [This is an ACK to the segment in frame: 2]
        [The RTT to ACK the segment was: 0.000466993 seconds]

0000  08 00 27 41 0f d0 08 00 27 62 0e 57 08 00 45 10   ..'A....'b.W..E.
0010  00 34 46 c6 40 00 3f 06 89 99 0a 02 49 05 0a 49   .4F.@.?.....I..I
0020  0e 05 de e8 00 16 b7 d9 4c de d9 66 f3 57 80 10   ........L..f.W..
0030  01 f6 29 01 00 00 01 01 08 0a 15 f5 aa 5f 00 20   ..).........._. 
0040  6f 87                                             o.
No.     Time           Source                Destination           Protocol Length Info
      4 0.001261114    10.2.73.5             10.73.14.5            SSHv2    98     Encrypted request packet len=32

Frame 4: 98 bytes on wire (784 bits), 98 bytes captured (784 bits) on interface 0
    Interface id: 0
    Encapsulation type: Ethernet (1)
    Arrival Time: Oct 26, 2022 14:16:21.542633999 MSK
    [Time shift for this packet: 0.000000000 seconds]
    Epoch Time: 1666782981.542633999 seconds
    [Time delta from previous captured frame: 0.000676144 seconds]
    [Time delta from previous displayed frame: 0.000676144 seconds]
    [Time since reference or first frame: 0.001261114 seconds]
    Frame Number: 4
    Frame Length: 98 bytes (784 bits)
    Capture Length: 98 bytes (784 bits)
    [Frame is marked: False]
    [Frame is ignored: False]
    [Protocols in frame: eth:ip:tcp:ssh]
    [Coloring Rule Name: TCP]
    [Coloring Rule String: tcp]
Ethernet II, Src: CadmusCo_62:0e:57 (08:00:27:62:0e:57), Dst: CadmusCo_41:0f:d0 (08:00:27:41:0f:d0)
    Destination: CadmusCo_41:0f:d0 (08:00:27:41:0f:d0)
        Address: CadmusCo_41:0f:d0 (08:00:27:41:0f:d0)
        .... ..0. .... .... .... .... = LG bit: Globally unique address (factory default)
        .... ...0 .... .... .... .... = IG bit: Individual address (unicast)
    Source: CadmusCo_62:0e:57 (08:00:27:62:0e:57)
        Address: CadmusCo_62:0e:57 (08:00:27:62:0e:57)
        .... ..0. .... .... .... .... = LG bit: Globally unique address (factory default)
        .... ...0 .... .... .... .... = IG bit: Individual address (unicast)
    Type: IP (0x0800)
Internet Protocol Version 4, Src: 10.2.73.5 (10.2.73.5), Dst: 10.73.14.5 (10.73.14.5)
    Version: 4
    Header length: 20 bytes
    Differentiated Services Field: 0x10 (DSCP 0x04: Unknown DSCP; ECN: 0x00: Not-ECT (Not ECN-Capable Transport))
        0001 00.. = Differentiated Services Codepoint: Unknown (0x04)
        .... ..00 = Explicit Congestion Notification: Not-ECT (Not ECN-Capable Transport) (0x00)
    Total Length: 84
    Identification: 0x46c7 (18119)
    Flags: 0x02 (Don't Fragment)
        0... .... = Reserved bit: Not set
        .1.. .... = Don't fragment: Set
        ..0. .... = More fragments: Not set
    Fragment offset: 0
    Time to live: 63
    Protocol: TCP (6)
    Header checksum: 0x8978 [validation disabled]
        [Good: False]
        [Bad: False]
    Source: 10.2.73.5 (10.2.73.5)
    Destination: 10.73.14.5 (10.73.14.5)
Transmission Control Protocol, Src Port: 57064 (57064), Dst Port: ssh (22), Seq: 1, Ack: 1, Len: 32
    Source port: 57064 (57064)
    Destination port: ssh (22)
    [Stream index: 0]
    Sequence number: 1    (relative sequence number)
    [Next sequence number: 33    (relative sequence number)]
    Acknowledgment number: 1    (relative ack number)
    Header length: 32 bytes
    Flags: 0x018 (PSH, ACK)
        000. .... .... = Reserved: Not set
        ...0 .... .... = Nonce: Not set
        .... 0... .... = Congestion Window Reduced (CWR): Not set
        .... .0.. .... = ECN-Echo: Not set
        .... ..0. .... = Urgent: Not set
        .... ...1 .... = Acknowledgment: Set
        .... .... 1... = Push: Set
        .... .... .0.. = Reset: Not set
        .... .... ..0. = Syn: Not set
        .... .... ...0 = Fin: Not set
    Window size value: 502
    [Calculated window size: 64256]
    [Window size scaling factor: 128]
    Checksum: 0xbe28 [validation disabled]
        [Good Checksum: False]
        [Bad Checksum: False]
    Options: (12 bytes), No-Operation (NOP), No-Operation (NOP), Timestamps
        No-Operation (NOP)
            Type: 1
                0... .... = Copy on fragmentation: No
                .00. .... = Class: Control (0)
                ...0 0001 = Number: No-Operation (NOP) (1)
        No-Operation (NOP)
            Type: 1
                0... .... = Copy on fragmentation: No
                .00. .... = Class: Control (0)
                ...0 0001 = Number: No-Operation (NOP) (1)
        Timestamps: TSval 368421472, TSecr 2125703
            Kind: Timestamp (8)
            Length: 10
            Timestamp value: 368421472
            Timestamp echo reply: 2125703
    [SEQ/ACK analysis]
        [Bytes in flight: 32]
SSH Protocol
    SSH Version 2 (encryption:chacha20-poly1305@openssh.com mac:umac-64-etm@openssh.com compression:none)
        Encrypted Packet: 5353482d322e302d4f70656e5353485f382e397031205562...

0000  08 00 27 41 0f d0 08 00 27 62 0e 57 08 00 45 10   ..'A....'b.W..E.
0010  00 54 46 c7 40 00 3f 06 89 78 0a 02 49 05 0a 49   .TF.@.?..x..I..I
0020  0e 05 de e8 00 16 b7 d9 4c de d9 66 f3 57 80 18   ........L..f.W..
0030  01 f6 be 28 00 00 01 01 08 0a 15 f5 aa 60 00 20   ...(.........`. 
0040  6f 87 53 53 48 2d 32 2e 30 2d 4f 70 65 6e 53 53   o.SSH-2.0-OpenSS
0050  48 5f 38 2e 39 70 31 20 55 62 75 6e 74 75 2d 33   H_8.9p1 Ubuntu-3
0060  0d 0a                                             ..
No.     Time           Source                Destination           Protocol Length Info
      5 0.001305461    10.73.14.5            10.2.73.5             TCP      66     ssh > 57064 [ACK] Seq=1 Ack=33 Win=29056 Len=0 TSval=2125705 TSecr=368421472

Frame 5: 66 bytes on wire (528 bits), 66 bytes captured (528 bits) on interface 0
    Interface id: 0
    Encapsulation type: Ethernet (1)
    Arrival Time: Oct 26, 2022 14:16:21.542678346 MSK
    [Time shift for this packet: 0.000000000 seconds]
    Epoch Time: 1666782981.542678346 seconds
    [Time delta from previous captured frame: 0.000044347 seconds]
    [Time delta from previous displayed frame: 0.000044347 seconds]
    [Time since reference or first frame: 0.001305461 seconds]
    Frame Number: 5
    Frame Length: 66 bytes (528 bits)
    Capture Length: 66 bytes (528 bits)
    [Frame is marked: False]
    [Frame is ignored: False]
    [Protocols in frame: eth:ip:tcp]
    [Coloring Rule Name: TCP]
    [Coloring Rule String: tcp]
Ethernet II, Src: CadmusCo_41:0f:d0 (08:00:27:41:0f:d0), Dst: CadmusCo_62:0e:57 (08:00:27:62:0e:57)
    Destination: CadmusCo_62:0e:57 (08:00:27:62:0e:57)
        Address: CadmusCo_62:0e:57 (08:00:27:62:0e:57)
        .... ..0. .... .... .... .... = LG bit: Globally unique address (factory default)
        .... ...0 .... .... .... .... = IG bit: Individual address (unicast)
    Source: CadmusCo_41:0f:d0 (08:00:27:41:0f:d0)
        Address: CadmusCo_41:0f:d0 (08:00:27:41:0f:d0)
        .... ..0. .... .... .... .... = LG bit: Globally unique address (factory default)
        .... ...0 .... .... .... .... = IG bit: Individual address (unicast)
    Type: IP (0x0800)
Internet Protocol Version 4, Src: 10.73.14.5 (10.73.14.5), Dst: 10.2.73.5 (10.2.73.5)
    Version: 4
    Header length: 20 bytes
    Differentiated Services Field: 0x00 (DSCP 0x00: Default; ECN: 0x00: Not-ECT (Not ECN-Capable Transport))
        0000 00.. = Differentiated Services Codepoint: Default (0x00)
        .... ..00 = Explicit Congestion Notification: Not-ECT (Not ECN-Capable Transport) (0x00)
    Total Length: 52
    Identification: 0x9cdf (40159)
    Flags: 0x02 (Don't Fragment)
        0... .... = Reserved bit: Not set
        .1.. .... = Don't fragment: Set
        ..0. .... = More fragments: Not set
    Fragment offset: 0
    Time to live: 64
    Protocol: TCP (6)
    Header checksum: 0x3290 [validation disabled]
        [Good: False]
        [Bad: False]
    Source: 10.73.14.5 (10.73.14.5)
    Destination: 10.2.73.5 (10.2.73.5)
Transmission Control Protocol, Src Port: ssh (22), Dst Port: 57064 (57064), Seq: 1, Ack: 33, Len: 0
    Source port: ssh (22)
    Destination port: 57064 (57064)
    [Stream index: 0]
    Sequence number: 1    (relative sequence number)
    Acknowledgment number: 33    (relative ack number)
    Header length: 32 bytes
    Flags: 0x010 (ACK)
        000. .... .... = Reserved: Not set
        ...0 .... .... = Nonce: Not set
        .... 0... .... = Congestion Window Reduced (CWR): Not set
        .... .0.. .... = ECN-Echo: Not set
        .... ..0. .... = Urgent: Not set
        .... ...1 .... = Acknowledgment: Set
        .... .... 0... = Push: Not set
        .... .... .0.. = Reset: Not set
        .... .... ..0. = Syn: Not set
        .... .... ...0 = Fin: Not set
    Window size value: 227
    [Calculated window size: 29056]
    [Window size scaling factor: 128]
    Checksum: 0x6b7b [validation disabled]
        [Good Checksum: False]
        [Bad Checksum: False]
    Options: (12 bytes), No-Operation (NOP), No-Operation (NOP), Timestamps
        No-Operation (NOP)
            Type: 1
                0... .... = Copy on fragmentation: No
                .00. .... = Class: Control (0)
                ...0 0001 = Number: No-Operation (NOP) (1)
        No-Operation (NOP)
            Type: 1
                0... .... = Copy on fragmentation: No
                .00. .... = Class: Control (0)
                ...0 0001 = Number: No-Operation (NOP) (1)
        Timestamps: TSval 2125705, TSecr 368421472
            Kind: Timestamp (8)
            Length: 10
            Timestamp value: 2125705
            Timestamp echo reply: 368421472
    [SEQ/ACK analysis]
        [This is an ACK to the segment in frame: 4]
        [The RTT to ACK the segment was: 0.000044347 seconds]

0000  08 00 27 62 0e 57 08 00 27 41 0f d0 08 00 45 00   ..'b.W..'A....E.
0010  00 34 9c df 40 00 40 06 32 90 0a 49 0e 05 0a 02   .4..@.@.2..I....
0020  49 05 00 16 de e8 d9 66 f3 57 b7 d9 4c fe 80 10   I......f.W..L...
0030  00 e3 6b 7b 00 00 01 01 08 0a 00 20 6f 89 15 f5   ..k{....... o...
0040  aa 60                                             .`
No.     Time           Source                Destination           Protocol Length Info
      6 0.432415900    10.73.14.5            10.2.73.5             SSHv2    87     Encrypted response packet len=21

Frame 6: 87 bytes on wire (696 bits), 87 bytes captured (696 bits) on interface 0
    Interface id: 0
    Encapsulation type: Ethernet (1)
    Arrival Time: Oct 26, 2022 14:16:21.973788785 MSK
    [Time shift for this packet: 0.000000000 seconds]
    Epoch Time: 1666782981.973788785 seconds
    [Time delta from previous captured frame: 0.431110439 seconds]
    [Time delta from previous displayed frame: 0.431110439 seconds]
    [Time since reference or first frame: 0.432415900 seconds]
    Frame Number: 6
    Frame Length: 87 bytes (696 bits)
    Capture Length: 87 bytes (696 bits)
    [Frame is marked: False]
    [Frame is ignored: False]
    [Protocols in frame: eth:ip:tcp:ssh]
    [Coloring Rule Name: TCP]
    [Coloring Rule String: tcp]
Ethernet II, Src: CadmusCo_41:0f:d0 (08:00:27:41:0f:d0), Dst: CadmusCo_62:0e:57 (08:00:27:62:0e:57)
    Destination: CadmusCo_62:0e:57 (08:00:27:62:0e:57)
        Address: CadmusCo_62:0e:57 (08:00:27:62:0e:57)
        .... ..0. .... .... .... .... = LG bit: Globally unique address (factory default)
        .... ...0 .... .... .... .... = IG bit: Individual address (unicast)
    Source: CadmusCo_41:0f:d0 (08:00:27:41:0f:d0)
        Address: CadmusCo_41:0f:d0 (08:00:27:41:0f:d0)
        .... ..0. .... .... .... .... = LG bit: Globally unique address (factory default)
        .... ...0 .... .... .... .... = IG bit: Individual address (unicast)
    Type: IP (0x0800)
Internet Protocol Version 4, Src: 10.73.14.5 (10.73.14.5), Dst: 10.2.73.5 (10.2.73.5)
    Version: 4
    Header length: 20 bytes
    Differentiated Services Field: 0x00 (DSCP 0x00: Default; ECN: 0x00: Not-ECT (Not ECN-Capable Transport))
        0000 00.. = Differentiated Services Codepoint: Default (0x00)
        .... ..00 = Explicit Congestion Notification: Not-ECT (Not ECN-Capable Transport) (0x00)
    Total Length: 73
    Identification: 0x9ce0 (40160)
    Flags: 0x02 (Don't Fragment)
        0... .... = Reserved bit: Not set
        .1.. .... = Don't fragment: Set
        ..0. .... = More fragments: Not set
    Fragment offset: 0
    Time to live: 64
    Protocol: TCP (6)
    Header checksum: 0x327a [validation disabled]
        [Good: False]
        [Bad: False]
    Source: 10.73.14.5 (10.73.14.5)
    Destination: 10.2.73.5 (10.2.73.5)
Transmission Control Protocol, Src Port: ssh (22), Dst Port: 57064 (57064), Seq: 1, Ack: 33, Len: 21
    Source port: ssh (22)
    Destination port: 57064 (57064)
    [Stream index: 0]
    Sequence number: 1    (relative sequence number)
    [Next sequence number: 22    (relative sequence number)]
    Acknowledgment number: 33    (relative ack number)
    Header length: 32 bytes
    Flags: 0x018 (PSH, ACK)
        000. .... .... = Reserved: Not set
        ...0 .... .... = Nonce: Not set
        .... 0... .... = Congestion Window Reduced (CWR): Not set
        .... .0.. .... = ECN-Echo: Not set
        .... ..0. .... = Urgent: Not set
        .... ...1 .... = Acknowledgment: Set
        .... .... 1... = Push: Set
        .... .... .0.. = Reset: Not set
        .... .... ..0. = Syn: Not set
        .... .... ...0 = Fin: Not set
    Window size value: 227
    [Calculated window size: 29056]
    [Window size scaling factor: 128]
    Checksum: 0x6b90 [validation disabled]
        [Good Checksum: False]
        [Bad Checksum: False]
    Options: (12 bytes), No-Operation (NOP), No-Operation (NOP), Timestamps
        No-Operation (NOP)
            Type: 1
                0... .... = Copy on fragmentation: No
                .00. .... = Class: Control (0)
                ...0 0001 = Number: No-Operation (NOP) (1)
        No-Operation (NOP)
            Type: 1
                0... .... = Copy on fragmentation: No
                .00. .... = Class: Control (0)
                ...0 0001 = Number: No-Operation (NOP) (1)
        Timestamps: TSval 2126136, TSecr 368421472
            Kind: Timestamp (8)
            Length: 10
            Timestamp value: 2126136
            Timestamp echo reply: 368421472
    [SEQ/ACK analysis]
        [Bytes in flight: 21]
SSH Protocol
    SSH Version 2 (encryption:chacha20-poly1305@openssh.com mac:umac-64-etm@openssh.com compression:none)
        Encrypted Packet: 5353482d322e302d4f70656e5353485f372e340d0a

0000  08 00 27 62 0e 57 08 00 27 41 0f d0 08 00 45 00   ..'b.W..'A....E.
0010  00 49 9c e0 40 00 40 06 32 7a 0a 49 0e 05 0a 02   .I..@.@.2z.I....
0020  49 05 00 16 de e8 d9 66 f3 57 b7 d9 4c fe 80 18   I......f.W..L...
0030  00 e3 6b 90 00 00 01 01 08 0a 00 20 71 38 15 f5   ..k........ q8..
0040  aa 60 53 53 48 2d 32 2e 30 2d 4f 70 65 6e 53 53   .`SSH-2.0-OpenSS
0050  48 5f 37 2e 34 0d 0a                              H_7.4..
No.     Time           Source                Destination           Protocol Length Info
      7 0.432907640    10.2.73.5             10.73.14.5            TCP      66     57064 > ssh [ACK] Seq=33 Ack=22 Win=64256 Len=0 TSval=368421904 TSecr=2126136

Frame 7: 66 bytes on wire (528 bits), 66 bytes captured (528 bits) on interface 0
    Interface id: 0
    Encapsulation type: Ethernet (1)
    Arrival Time: Oct 26, 2022 14:16:21.974280525 MSK
    [Time shift for this packet: 0.000000000 seconds]
    Epoch Time: 1666782981.974280525 seconds
    [Time delta from previous captured frame: 0.000491740 seconds]
    [Time delta from previous displayed frame: 0.000491740 seconds]
    [Time since reference or first frame: 0.432907640 seconds]
    Frame Number: 7
    Frame Length: 66 bytes (528 bits)
    Capture Length: 66 bytes (528 bits)
    [Frame is marked: False]
    [Frame is ignored: False]
    [Protocols in frame: eth:ip:tcp]
Ethernet II, Src: CadmusCo_62:0e:57 (08:00:27:62:0e:57), Dst: CadmusCo_41:0f:d0 (08:00:27:41:0f:d0)
    Destination: CadmusCo_41:0f:d0 (08:00:27:41:0f:d0)
        Address: CadmusCo_41:0f:d0 (08:00:27:41:0f:d0)
        .... ..0. .... .... .... .... = LG bit: Globally unique address (factory default)
        .... ...0 .... .... .... .... = IG bit: Individual address (unicast)
    Source: CadmusCo_62:0e:57 (08:00:27:62:0e:57)
        Address: CadmusCo_62:0e:57 (08:00:27:62:0e:57)
        .... ..0. .... .... .... .... = LG bit: Globally unique address (factory default)
        .... ...0 .... .... .... .... = IG bit: Individual address (unicast)
    Type: IP (0x0800)
Internet Protocol Version 4, Src: 10.2.73.5 (10.2.73.5), Dst: 10.73.14.5 (10.73.14.5)
    Version: 4
    Header length: 20 bytes
    Differentiated Services Field: 0x10 (DSCP 0x04: Unknown DSCP; ECN: 0x00: Not-ECT (Not ECN-Capable Transport))
        0001 00.. = Differentiated Services Codepoint: Unknown (0x04)
        .... ..00 = Explicit Congestion Notification: Not-ECT (Not ECN-Capable Transport) (0x00)
    Total Length: 52
    Identification: 0x46c8 (18120)
    Flags: 0x02 (Don't Fragment)
        0... .... = Reserved bit: Not set
        .1.. .... = Don't fragment: Set
        ..0. .... = More fragments: Not set
    Fragment offset: 0
    Time to live: 63
    Protocol: TCP (6)
    Header checksum: 0x8997 [validation disabled]
        [Good: False]
        [Bad: False]
    Source: 10.2.73.5 (10.2.73.5)
    Destination: 10.73.14.5 (10.73.14.5)
Transmission Control Protocol, Src Port: 57064 (57064), Dst Port: ssh (22), Seq: 33, Ack: 22, Len: 0
    Source port: 57064 (57064)
    Destination port: ssh (22)
    [Stream index: 0]
    Sequence number: 33    (relative sequence number)
    Acknowledgment number: 22    (relative ack number)
    Header length: 32 bytes
    Flags: 0x010 (ACK)
        000. .... .... = Reserved: Not set
        ...0 .... .... = Nonce: Not set
        .... 0... .... = Congestion Window Reduced (CWR): Not set
        .... .0.. .... = ECN-Echo: Not set
        .... ..0. .... = Urgent: Not set
        .... ...1 .... = Acknowledgment: Set
        .... .... 0... = Push: Not set
        .... .... .0.. = Reset: Not set
        .... .... ..0. = Syn: Not set
        .... .... ...0 = Fin: Not set
    Window size value: 502
    [Calculated window size: 64256]
    [Window size scaling factor: 128]
    Checksum: 0x256a [validation disabled]
        [Good Checksum: False]
        [Bad Checksum: False]
    Options: (12 bytes), No-Operation (NOP), No-Operation (NOP), Timestamps
        No-Operation (NOP)
            Type: 1
                0... .... = Copy on fragmentation: No
                .00. .... = Class: Control (0)
                ...0 0001 = Number: No-Operation (NOP) (1)
        No-Operation (NOP)
            Type: 1
                0... .... = Copy on fragmentation: No
                .00. .... = Class: Control (0)
                ...0 0001 = Number: No-Operation (NOP) (1)
        Timestamps: TSval 368421904, TSecr 2126136
            Kind: Timestamp (8)
            Length: 10
            Timestamp value: 368421904
            Timestamp echo reply: 2126136
    [SEQ/ACK analysis]
        [This is an ACK to the segment in frame: 6]
        [The RTT to ACK the segment was: 0.000491740 seconds]

0000  08 00 27 41 0f d0 08 00 27 62 0e 57 08 00 45 10   ..'A....'b.W..E.
0010  00 34 46 c8 40 00 3f 06 89 97 0a 02 49 05 0a 49   .4F.@.?.....I..I
0020  0e 05 de e8 00 16 b7 d9 4c fe d9 66 f3 6c 80 10   ........L..f.l..
0030  01 f6 25 6a 00 00 01 01 08 0a 15 f5 ac 10 00 20   ..%j........... 
0040  71 38                                             q8
No.     Time           Source                Destination           Protocol Length Info
      8 0.442736921    10.2.73.5             10.73.14.5            SSHv2    1570   Client: Key Exchange Init

Frame 8: 1570 bytes on wire (12560 bits), 1570 bytes captured (12560 bits) on interface 0
    Interface id: 0
    Encapsulation type: Ethernet (1)
    Arrival Time: Oct 26, 2022 14:16:21.984109806 MSK
    [Time shift for this packet: 0.000000000 seconds]
    Epoch Time: 1666782981.984109806 seconds
    [Time delta from previous captured frame: 0.009829281 seconds]
    [Time delta from previous displayed frame: 0.009829281 seconds]
    [Time since reference or first frame: 0.442736921 seconds]
    Frame Number: 8
    Frame Length: 1570 bytes (12560 bits)
    Capture Length: 1570 bytes (12560 bits)
    [Frame is marked: False]
    [Frame is ignored: False]
    [Protocols in frame: eth:ip:tcp:ssh]
Ethernet II, Src: CadmusCo_62:0e:57 (08:00:27:62:0e:57), Dst: CadmusCo_41:0f:d0 (08:00:27:41:0f:d0)
    Destination: CadmusCo_41:0f:d0 (08:00:27:41:0f:d0)
        Address: CadmusCo_41:0f:d0 (08:00:27:41:0f:d0)
        .... ..0. .... .... .... .... = LG bit: Globally unique address (factory default)
        .... ...0 .... .... .... .... = IG bit: Individual address (unicast)
    Source: CadmusCo_62:0e:57 (08:00:27:62:0e:57)
        Address: CadmusCo_62:0e:57 (08:00:27:62:0e:57)
        .... ..0. .... .... .... .... = LG bit: Globally unique address (factory default)
        .... ...0 .... .... .... .... = IG bit: Individual address (unicast)
    Type: IP (0x0800)
Internet Protocol Version 4, Src: 10.2.73.5 (10.2.73.5), Dst: 10.73.14.5 (10.73.14.5)
    Version: 4
    Header length: 20 bytes
    Differentiated Services Field: 0x10 (DSCP 0x04: Unknown DSCP; ECN: 0x00: Not-ECT (Not ECN-Capable Transport))
        0001 00.. = Differentiated Services Codepoint: Unknown (0x04)
        .... ..00 = Explicit Congestion Notification: Not-ECT (Not ECN-Capable Transport) (0x00)
    Total Length: 1556
    Identification: 0x46c9 (18121)
    Flags: 0x02 (Don't Fragment)
        0... .... = Reserved bit: Not set
        .1.. .... = Don't fragment: Set
        ..0. .... = More fragments: Not set
    Fragment offset: 0
    Time to live: 63
    Protocol: TCP (6)
    Header checksum: 0x83b6 [validation disabled]
        [Good: False]
        [Bad: False]
    Source: 10.2.73.5 (10.2.73.5)
    Destination: 10.73.14.5 (10.73.14.5)
Transmission Control Protocol, Src Port: 57064 (57064), Dst Port: ssh (22), Seq: 33, Ack: 22, Len: 1504
    Source port: 57064 (57064)
    Destination port: ssh (22)
    [Stream index: 0]
    Sequence number: 33    (relative sequence number)
    [Next sequence number: 1537    (relative sequence number)]
    Acknowledgment number: 22    (relative ack number)
    Header length: 32 bytes
    Flags: 0x018 (PSH, ACK)
        000. .... .... = Reserved: Not set
        ...0 .... .... = Nonce: Not set
        .... 0... .... = Congestion Window Reduced (CWR): Not set
        .... .0.. .... = ECN-Echo: Not set
        .... ..0. .... = Urgent: Not set
        .... ...1 .... = Acknowledgment: Set
        .... .... 1... = Push: Set
        .... .... .0.. = Reset: Not set
        .... .... ..0. = Syn: Not set
        .... .... ...0 = Fin: Not set
    Window size value: 502
    [Calculated window size: 64256]
    [Window size scaling factor: 128]
    Checksum: 0x715b [validation disabled]
        [Good Checksum: False]
        [Bad Checksum: False]
    Options: (12 bytes), No-Operation (NOP), No-Operation (NOP), Timestamps
        No-Operation (NOP)
            Type: 1
                0... .... = Copy on fragmentation: No
                .00. .... = Class: Control (0)
                ...0 0001 = Number: No-Operation (NOP) (1)
        No-Operation (NOP)
            Type: 1
                0... .... = Copy on fragmentation: No
                .00. .... = Class: Control (0)
                ...0 0001 = Number: No-Operation (NOP) (1)
        Timestamps: TSval 368421913, TSecr 2126136
            Kind: Timestamp (8)
            Length: 10
            Timestamp value: 368421913
            Timestamp echo reply: 2126136
    [SEQ/ACK analysis]
        [Bytes in flight: 1504]
SSH Protocol
    SSH Version 2 (encryption:chacha20-poly1305@openssh.com mac:umac-64-etm@openssh.com compression:none)
        Packet Length: 1500
        Padding Length: 4
        Key Exchange
            Message Code: Key Exchange Init (20)
            Algorithms
                Cookie: 930e42afbbf4a1955de2b0aeab43d389
                kex_algorithms length: 276
                kex_algorithms string [truncated]: curve25519-sha256,curve25519-sha256@libssh.org,ecdh-sha2-nistp256,ecdh-sha2-nistp384,ecdh-sha2-nistp521,sntrup761x25519-sha512@openssh.com,diffie-hellman-group-exchange-sha256,diffie-hellman-group16-sha51
                server_host_key_algorithms length: 463
                server_host_key_algorithms string [truncated]: ssh-ed25519-cert-v01@openssh.com,ecdsa-sha2-nistp256-cert-v01@openssh.com,ecdsa-sha2-nistp384-cert-v01@openssh.com,ecdsa-sha2-nistp521-cert-v01@openssh.com,sk-ssh-ed25519-cert-v01@openssh.com,
                encryption_algorithms_client_to_server length: 108
                encryption_algorithms_client_to_server string: chacha20-poly1305@openssh.com,aes128-ctr,aes192-ctr,aes256-ctr,aes128-gcm@openssh.com,aes256-gcm@openssh.com
                encryption_algorithms_server_to_client length: 108
                encryption_algorithms_server_to_client string: chacha20-poly1305@openssh.com,aes128-ctr,aes192-ctr,aes256-ctr,aes128-gcm@openssh.com,aes256-gcm@openssh.com
                mac_algorithms_client_to_server length: 213
                mac_algorithms_client_to_server string [truncated]: umac-64-etm@openssh.com,umac-128-etm@openssh.com,hmac-sha2-256-etm@openssh.com,hmac-sha2-512-etm@openssh.com,hmac-sha1-etm@openssh.com,umac-64@openssh.com,umac-128@openssh.com,hmac-sha2-2
                mac_algorithms_server_to_client length: 213
                mac_algorithms_server_to_client string [truncated]: umac-64-etm@openssh.com,umac-128-etm@openssh.com,hmac-sha2-256-etm@openssh.com,hmac-sha2-512-etm@openssh.com,hmac-sha1-etm@openssh.com,umac-64@openssh.com,umac-128@openssh.com,hmac-sha2-2
                compression_algorithms_client_to_server length: 26
                compression_algorithms_client_to_server string: none,zlib@openssh.com,zlib
                compression_algorithms_server_to_client length: 26
                compression_algorithms_server_to_client string: none,zlib@openssh.com,zlib
                languages_client_to_server length: 0
                languages_server_to_client length: 0
                KEX First Packet Follows: 0
                Reserved: 00000000
            Padding String: 00000000

0000  08 00 27 41 0f d0 08 00 27 62 0e 57 08 00 45 10   ..'A....'b.W..E.
0010  06 14 46 c9 40 00 3f 06 83 b6 0a 02 49 05 0a 49   ..F.@.?.....I..I
0020  0e 05 de e8 00 16 b7 d9 4c fe d9 66 f3 6c 80 18   ........L..f.l..
0030  01 f6 71 5b 00 00 01 01 08 0a 15 f5 ac 19 00 20   ..q[........... 
0040  71 38 00 00 05 dc 04 14 93 0e 42 af bb f4 a1 95   q8........B.....
0050  5d e2 b0 ae ab 43 d3 89 00 00 01 14 63 75 72 76   ]....C......curv
0060  65 32 35 35 31 39 2d 73 68 61 32 35 36 2c 63 75   e25519-sha256,cu
0070  72 76 65 32 35 35 31 39 2d 73 68 61 32 35 36 40   rve25519-sha256@
0080  6c 69 62 73 73 68 2e 6f 72 67 2c 65 63 64 68 2d   libssh.org,ecdh-
0090  73 68 61 32 2d 6e 69 73 74 70 32 35 36 2c 65 63   sha2-nistp256,ec
00a0  64 68 2d 73 68 61 32 2d 6e 69 73 74 70 33 38 34   dh-sha2-nistp384
00b0  2c 65 63 64 68 2d 73 68 61 32 2d 6e 69 73 74 70   ,ecdh-sha2-nistp
00c0  35 32 31 2c 73 6e 74 72 75 70 37 36 31 78 32 35   521,sntrup761x25
00d0  35 31 39 2d 73 68 61 35 31 32 40 6f 70 65 6e 73   519-sha512@opens
00e0  73 68 2e 63 6f 6d 2c 64 69 66 66 69 65 2d 68 65   sh.com,diffie-he
00f0  6c 6c 6d 61 6e 2d 67 72 6f 75 70 2d 65 78 63 68   llman-group-exch
0100  61 6e 67 65 2d 73 68 61 32 35 36 2c 64 69 66 66   ange-sha256,diff
0110  69 65 2d 68 65 6c 6c 6d 61 6e 2d 67 72 6f 75 70   ie-hellman-group
0120  31 36 2d 73 68 61 35 31 32 2c 64 69 66 66 69 65   16-sha512,diffie
0130  2d 68 65 6c 6c 6d 61 6e 2d 67 72 6f 75 70 31 38   -hellman-group18
0140  2d 73 68 61 35 31 32 2c 64 69 66 66 69 65 2d 68   -sha512,diffie-h
0150  65 6c 6c 6d 61 6e 2d 67 72 6f 75 70 31 34 2d 73   ellman-group14-s
0160  68 61 32 35 36 2c 65 78 74 2d 69 6e 66 6f 2d 63   ha256,ext-info-c
0170  00 00 01 cf 73 73 68 2d 65 64 32 35 35 31 39 2d   ....ssh-ed25519-
0180  63 65 72 74 2d 76 30 31 40 6f 70 65 6e 73 73 68   cert-v01@openssh
0190  2e 63 6f 6d 2c 65 63 64 73 61 2d 73 68 61 32 2d   .com,ecdsa-sha2-
01a0  6e 69 73 74 70 32 35 36 2d 63 65 72 74 2d 76 30   nistp256-cert-v0
01b0  31 40 6f 70 65 6e 73 73 68 2e 63 6f 6d 2c 65 63   1@openssh.com,ec
01c0  64 73 61 2d 73 68 61 32 2d 6e 69 73 74 70 33 38   dsa-sha2-nistp38
01d0  34 2d 63 65 72 74 2d 76 30 31 40 6f 70 65 6e 73   4-cert-v01@opens
01e0  73 68 2e 63 6f 6d 2c 65 63 64 73 61 2d 73 68 61   sh.com,ecdsa-sha
01f0  32 2d 6e 69 73 74 70 35 32 31 2d 63 65 72 74 2d   2-nistp521-cert-
0200  76 30 31 40 6f 70 65 6e 73 73 68 2e 63 6f 6d 2c   v01@openssh.com,
0210  73 6b 2d 73 73 68 2d 65 64 32 35 35 31 39 2d 63   sk-ssh-ed25519-c
0220  65 72 74 2d 76 30 31 40 6f 70 65 6e 73 73 68 2e   ert-v01@openssh.
0230  63 6f 6d 2c 73 6b 2d 65 63 64 73 61 2d 73 68 61   com,sk-ecdsa-sha
0240  32 2d 6e 69 73 74 70 32 35 36 2d 63 65 72 74 2d   2-nistp256-cert-
0250  76 30 31 40 6f 70 65 6e 73 73 68 2e 63 6f 6d 2c   v01@openssh.com,
0260  72 73 61 2d 73 68 61 32 2d 35 31 32 2d 63 65 72   rsa-sha2-512-cer
0270  74 2d 76 30 31 40 6f 70 65 6e 73 73 68 2e 63 6f   t-v01@openssh.co
0280  6d 2c 72 73 61 2d 73 68 61 32 2d 32 35 36 2d 63   m,rsa-sha2-256-c
0290  65 72 74 2d 76 30 31 40 6f 70 65 6e 73 73 68 2e   ert-v01@openssh.
02a0  63 6f 6d 2c 73 73 68 2d 65 64 32 35 35 31 39 2c   com,ssh-ed25519,
02b0  65 63 64 73 61 2d 73 68 61 32 2d 6e 69 73 74 70   ecdsa-sha2-nistp
02c0  32 35 36 2c 65 63 64 73 61 2d 73 68 61 32 2d 6e   256,ecdsa-sha2-n
02d0  69 73 74 70 33 38 34 2c 65 63 64 73 61 2d 73 68   istp384,ecdsa-sh
02e0  61 32 2d 6e 69 73 74 70 35 32 31 2c 73 6b 2d 73   a2-nistp521,sk-s
02f0  73 68 2d 65 64 32 35 35 31 39 40 6f 70 65 6e 73   sh-ed25519@opens
0300  73 68 2e 63 6f 6d 2c 73 6b 2d 65 63 64 73 61 2d   sh.com,sk-ecdsa-
0310  73 68 61 32 2d 6e 69 73 74 70 32 35 36 40 6f 70   sha2-nistp256@op
0320  65 6e 73 73 68 2e 63 6f 6d 2c 72 73 61 2d 73 68   enssh.com,rsa-sh
0330  61 32 2d 35 31 32 2c 72 73 61 2d 73 68 61 32 2d   a2-512,rsa-sha2-
0340  32 35 36 00 00 00 6c 63 68 61 63 68 61 32 30 2d   256...lchacha20-
0350  70 6f 6c 79 31 33 30 35 40 6f 70 65 6e 73 73 68   poly1305@openssh
0360  2e 63 6f 6d 2c 61 65 73 31 32 38 2d 63 74 72 2c   .com,aes128-ctr,
0370  61 65 73 31 39 32 2d 63 74 72 2c 61 65 73 32 35   aes192-ctr,aes25
0380  36 2d 63 74 72 2c 61 65 73 31 32 38 2d 67 63 6d   6-ctr,aes128-gcm
0390  40 6f 70 65 6e 73 73 68 2e 63 6f 6d 2c 61 65 73   @openssh.com,aes
03a0  32 35 36 2d 67 63 6d 40 6f 70 65 6e 73 73 68 2e   256-gcm@openssh.
03b0  63 6f 6d 00 00 00 6c 63 68 61 63 68 61 32 30 2d   com...lchacha20-
03c0  70 6f 6c 79 31 33 30 35 40 6f 70 65 6e 73 73 68   poly1305@openssh
03d0  2e 63 6f 6d 2c 61 65 73 31 32 38 2d 63 74 72 2c   .com,aes128-ctr,
03e0  61 65 73 31 39 32 2d 63 74 72 2c 61 65 73 32 35   aes192-ctr,aes25
03f0  36 2d 63 74 72 2c 61 65 73 31 32 38 2d 67 63 6d   6-ctr,aes128-gcm
0400  40 6f 70 65 6e 73 73 68 2e 63 6f 6d 2c 61 65 73   @openssh.com,aes
0410  32 35 36 2d 67 63 6d 40 6f 70 65 6e 73 73 68 2e   256-gcm@openssh.
0420  63 6f 6d 00 00 00 d5 75 6d 61 63 2d 36 34 2d 65   com....umac-64-e
0430  74 6d 40 6f 70 65 6e 73 73 68 2e 63 6f 6d 2c 75   tm@openssh.com,u
0440  6d 61 63 2d 31 32 38 2d 65 74 6d 40 6f 70 65 6e   mac-128-etm@open
0450  73 73 68 2e 63 6f 6d 2c 68 6d 61 63 2d 73 68 61   ssh.com,hmac-sha
0460  32 2d 32 35 36 2d 65 74 6d 40 6f 70 65 6e 73 73   2-256-etm@openss
0470  68 2e 63 6f 6d 2c 68 6d 61 63 2d 73 68 61 32 2d   h.com,hmac-sha2-
0480  35 31 32 2d 65 74 6d 40 6f 70 65 6e 73 73 68 2e   512-etm@openssh.
0490  63 6f 6d 2c 68 6d 61 63 2d 73 68 61 31 2d 65 74   com,hmac-sha1-et
04a0  6d 40 6f 70 65 6e 73 73 68 2e 63 6f 6d 2c 75 6d   m@openssh.com,um
04b0  61 63 2d 36 34 40 6f 70 65 6e 73 73 68 2e 63 6f   ac-64@openssh.co
04c0  6d 2c 75 6d 61 63 2d 31 32 38 40 6f 70 65 6e 73   m,umac-128@opens
04d0  73 68 2e 63 6f 6d 2c 68 6d 61 63 2d 73 68 61 32   sh.com,hmac-sha2
04e0  2d 32 35 36 2c 68 6d 61 63 2d 73 68 61 32 2d 35   -256,hmac-sha2-5
04f0  31 32 2c 68 6d 61 63 2d 73 68 61 31 00 00 00 d5   12,hmac-sha1....
0500  75 6d 61 63 2d 36 34 2d 65 74 6d 40 6f 70 65 6e   umac-64-etm@open
0510  73 73 68 2e 63 6f 6d 2c 75 6d 61 63 2d 31 32 38   ssh.com,umac-128
0520  2d 65 74 6d 40 6f 70 65 6e 73 73 68 2e 63 6f 6d   -etm@openssh.com
0530  2c 68 6d 61 63 2d 73 68 61 32 2d 32 35 36 2d 65   ,hmac-sha2-256-e
0540  74 6d 40 6f 70 65 6e 73 73 68 2e 63 6f 6d 2c 68   tm@openssh.com,h
0550  6d 61 63 2d 73 68 61 32 2d 35 31 32 2d 65 74 6d   mac-sha2-512-etm
0560  40 6f 70 65 6e 73 73 68 2e 63 6f 6d 2c 68 6d 61   @openssh.com,hma
0570  63 2d 73 68 61 31 2d 65 74 6d 40 6f 70 65 6e 73   c-sha1-etm@opens
0580  73 68 2e 63 6f 6d 2c 75 6d 61 63 2d 36 34 40 6f   sh.com,umac-64@o
0590  70 65 6e 73 73 68 2e 63 6f 6d 2c 75 6d 61 63 2d   penssh.com,umac-
05a0  31 32 38 40 6f 70 65 6e 73 73 68 2e 63 6f 6d 2c   128@openssh.com,
05b0  68 6d 61 63 2d 73 68 61 32 2d 32 35 36 2c 68 6d   hmac-sha2-256,hm
05c0  61 63 2d 73 68 61 32 2d 35 31 32 2c 68 6d 61 63   ac-sha2-512,hmac
05d0  2d 73 68 61 31 00 00 00 1a 6e 6f 6e 65 2c 7a 6c   -sha1....none,zl
05e0  69 62 40 6f 70 65 6e 73 73 68 2e 63 6f 6d 2c 7a   ib@openssh.com,z
05f0  6c 69 62 00 00 00 1a 6e 6f 6e 65 2c 7a 6c 69 62   lib....none,zlib
0600  40 6f 70 65 6e 73 73 68 2e 63 6f 6d 2c 7a 6c 69   @openssh.com,zli
0610  62 00 00 00 00 00 00 00 00 00 00 00 00 00 00 00   b...............
0620  00 00                                             ..
No.     Time           Source                Destination           Protocol Length Info
      9 0.442782634    10.73.14.5            10.2.73.5             TCP      66     ssh > 57064 [ACK] Seq=22 Ack=1537 Win=32000 Len=0 TSval=2126146 TSecr=368421913

Frame 9: 66 bytes on wire (528 bits), 66 bytes captured (528 bits) on interface 0
    Interface id: 0
    Encapsulation type: Ethernet (1)
    Arrival Time: Oct 26, 2022 14:16:21.984155519 MSK
    [Time shift for this packet: 0.000000000 seconds]
    Epoch Time: 1666782981.984155519 seconds
    [Time delta from previous captured frame: 0.000045713 seconds]
    [Time delta from previous displayed frame: 0.000045713 seconds]
    [Time since reference or first frame: 0.442782634 seconds]
    Frame Number: 9
    Frame Length: 66 bytes (528 bits)
    Capture Length: 66 bytes (528 bits)
    [Frame is marked: False]
    [Frame is ignored: False]
    [Protocols in frame: eth:ip:tcp]
Ethernet II, Src: CadmusCo_41:0f:d0 (08:00:27:41:0f:d0), Dst: CadmusCo_62:0e:57 (08:00:27:62:0e:57)
    Destination: CadmusCo_62:0e:57 (08:00:27:62:0e:57)
        Address: CadmusCo_62:0e:57 (08:00:27:62:0e:57)
        .... ..0. .... .... .... .... = LG bit: Globally unique address (factory default)
        .... ...0 .... .... .... .... = IG bit: Individual address (unicast)
    Source: CadmusCo_41:0f:d0 (08:00:27:41:0f:d0)
        Address: CadmusCo_41:0f:d0 (08:00:27:41:0f:d0)
        .... ..0. .... .... .... .... = LG bit: Globally unique address (factory default)
        .... ...0 .... .... .... .... = IG bit: Individual address (unicast)
    Type: IP (0x0800)
Internet Protocol Version 4, Src: 10.73.14.5 (10.73.14.5), Dst: 10.2.73.5 (10.2.73.5)
    Version: 4
    Header length: 20 bytes
    Differentiated Services Field: 0x00 (DSCP 0x00: Default; ECN: 0x00: Not-ECT (Not ECN-Capable Transport))
        0000 00.. = Differentiated Services Codepoint: Default (0x00)
        .... ..00 = Explicit Congestion Notification: Not-ECT (Not ECN-Capable Transport) (0x00)
    Total Length: 52
    Identification: 0x9ce1 (40161)
    Flags: 0x02 (Don't Fragment)
        0... .... = Reserved bit: Not set
        .1.. .... = Don't fragment: Set
        ..0. .... = More fragments: Not set
    Fragment offset: 0
    Time to live: 64
    Protocol: TCP (6)
    Header checksum: 0x328e [validation disabled]
        [Good: False]
        [Bad: False]
    Source: 10.73.14.5 (10.73.14.5)
    Destination: 10.2.73.5 (10.2.73.5)
Transmission Control Protocol, Src Port: ssh (22), Dst Port: 57064 (57064), Seq: 22, Ack: 1537, Len: 0
    Source port: ssh (22)
    Destination port: 57064 (57064)
    [Stream index: 0]
    Sequence number: 22    (relative sequence number)
    Acknowledgment number: 1537    (relative ack number)
    Header length: 32 bytes
    Flags: 0x010 (ACK)
        000. .... .... = Reserved: Not set
        ...0 .... .... = Nonce: Not set
        .... 0... .... = Congestion Window Reduced (CWR): Not set
        .... .0.. .... = ECN-Echo: Not set
        .... ..0. .... = Urgent: Not set
        .... ...1 .... = Acknowledgment: Set
        .... .... 0... = Push: Not set
        .... .... .0.. = Reset: Not set
        .... .... ..0. = Syn: Not set
        .... .... ...0 = Fin: Not set
    Window size value: 250
    [Calculated window size: 32000]
    [Window size scaling factor: 128]
    Checksum: 0x6b7b [validation disabled]
        [Good Checksum: False]
        [Bad Checksum: False]
    Options: (12 bytes), No-Operation (NOP), No-Operation (NOP), Timestamps
        No-Operation (NOP)
            Type: 1
                0... .... = Copy on fragmentation: No
                .00. .... = Class: Control (0)
                ...0 0001 = Number: No-Operation (NOP) (1)
        No-Operation (NOP)
            Type: 1
                0... .... = Copy on fragmentation: No
                .00. .... = Class: Control (0)
                ...0 0001 = Number: No-Operation (NOP) (1)
        Timestamps: TSval 2126146, TSecr 368421913
            Kind: Timestamp (8)
            Length: 10
            Timestamp value: 2126146
            Timestamp echo reply: 368421913
    [SEQ/ACK analysis]
        [This is an ACK to the segment in frame: 8]
        [The RTT to ACK the segment was: 0.000045713 seconds]

0000  08 00 27 62 0e 57 08 00 27 41 0f d0 08 00 45 00   ..'b.W..'A....E.
0010  00 34 9c e1 40 00 40 06 32 8e 0a 49 0e 05 0a 02   .4..@.@.2..I....
0020  49 05 00 16 de e8 d9 66 f3 6c b7 d9 52 de 80 10   I......f.l..R...
0030  00 fa 6b 7b 00 00 01 01 08 0a 00 20 71 42 15 f5   ..k{....... qB..
0040  ac 19                                             ..
No.     Time           Source                Destination           Protocol Length Info
     10 0.474934696    10.73.14.5            10.2.73.5             SSHv2    1346   Server: Key Exchange Init

Frame 10: 1346 bytes on wire (10768 bits), 1346 bytes captured (10768 bits) on interface 0
    Interface id: 0
    Encapsulation type: Ethernet (1)
    Arrival Time: Oct 26, 2022 14:16:22.016307581 MSK
    [Time shift for this packet: 0.000000000 seconds]
    Epoch Time: 1666782982.016307581 seconds
    [Time delta from previous captured frame: 0.032152062 seconds]
    [Time delta from previous displayed frame: 0.032152062 seconds]
    [Time since reference or first frame: 0.474934696 seconds]
    Frame Number: 10
    Frame Length: 1346 bytes (10768 bits)
    Capture Length: 1346 bytes (10768 bits)
    [Frame is marked: False]
    [Frame is ignored: False]
    [Protocols in frame: eth:ip:tcp:ssh]
Ethernet II, Src: CadmusCo_41:0f:d0 (08:00:27:41:0f:d0), Dst: CadmusCo_62:0e:57 (08:00:27:62:0e:57)
    Destination: CadmusCo_62:0e:57 (08:00:27:62:0e:57)
        Address: CadmusCo_62:0e:57 (08:00:27:62:0e:57)
        .... ..0. .... .... .... .... = LG bit: Globally unique address (factory default)
        .... ...0 .... .... .... .... = IG bit: Individual address (unicast)
    Source: CadmusCo_41:0f:d0 (08:00:27:41:0f:d0)
        Address: CadmusCo_41:0f:d0 (08:00:27:41:0f:d0)
        .... ..0. .... .... .... .... = LG bit: Globally unique address (factory default)
        .... ...0 .... .... .... .... = IG bit: Individual address (unicast)
    Type: IP (0x0800)
Internet Protocol Version 4, Src: 10.73.14.5 (10.73.14.5), Dst: 10.2.73.5 (10.2.73.5)
    Version: 4
    Header length: 20 bytes
    Differentiated Services Field: 0x00 (DSCP 0x00: Default; ECN: 0x00: Not-ECT (Not ECN-Capable Transport))
        0000 00.. = Differentiated Services Codepoint: Default (0x00)
        .... ..00 = Explicit Congestion Notification: Not-ECT (Not ECN-Capable Transport) (0x00)
    Total Length: 1332
    Identification: 0x9ce2 (40162)
    Flags: 0x02 (Don't Fragment)
        0... .... = Reserved bit: Not set
        .1.. .... = Don't fragment: Set
        ..0. .... = More fragments: Not set
    Fragment offset: 0
    Time to live: 64
    Protocol: TCP (6)
    Header checksum: 0x2d8d [validation disabled]
        [Good: False]
        [Bad: False]
    Source: 10.73.14.5 (10.73.14.5)
    Destination: 10.2.73.5 (10.2.73.5)
Transmission Control Protocol, Src Port: ssh (22), Dst Port: 57064 (57064), Seq: 22, Ack: 1537, Len: 1280
    Source port: ssh (22)
    Destination port: 57064 (57064)
    [Stream index: 0]
    Sequence number: 22    (relative sequence number)
    [Next sequence number: 1302    (relative sequence number)]
    Acknowledgment number: 1537    (relative ack number)
    Header length: 32 bytes
    Flags: 0x018 (PSH, ACK)
        000. .... .... = Reserved: Not set
        ...0 .... .... = Nonce: Not set
        .... 0... .... = Congestion Window Reduced (CWR): Not set
        .... .0.. .... = ECN-Echo: Not set
        .... ..0. .... = Urgent: Not set
        .... ...1 .... = Acknowledgment: Set
        .... .... 1... = Push: Set
        .... .... .0.. = Reset: Not set
        .... .... ..0. = Syn: Not set
        .... .... ...0 = Fin: Not set
    Window size value: 250
    [Calculated window size: 32000]
    [Window size scaling factor: 128]
    Checksum: 0x707b [validation disabled]
        [Good Checksum: False]
        [Bad Checksum: False]
    Options: (12 bytes), No-Operation (NOP), No-Operation (NOP), Timestamps
        No-Operation (NOP)
            Type: 1
                0... .... = Copy on fragmentation: No
                .00. .... = Class: Control (0)
                ...0 0001 = Number: No-Operation (NOP) (1)
        No-Operation (NOP)
            Type: 1
                0... .... = Copy on fragmentation: No
                .00. .... = Class: Control (0)
                ...0 0001 = Number: No-Operation (NOP) (1)
        Timestamps: TSval 2126178, TSecr 368421913
            Kind: Timestamp (8)
            Length: 10
            Timestamp value: 2126178
            Timestamp echo reply: 368421913
    [SEQ/ACK analysis]
        [Bytes in flight: 1280]
SSH Protocol
    SSH Version 2 (encryption:chacha20-poly1305@openssh.com mac:umac-64-etm@openssh.com compression:none)
        Packet Length: 1276
        Padding Length: 10
        Key Exchange
            Message Code: Key Exchange Init (20)
            Payload: 07a57dcb34c5dd1369d7b981ecaa34910000014063757276...
            Padding String: 00000000000000000000

0000  08 00 27 62 0e 57 08 00 27 41 0f d0 08 00 45 00   ..'b.W..'A....E.
0010  05 34 9c e2 40 00 40 06 2d 8d 0a 49 0e 05 0a 02   .4..@.@.-..I....
0020  49 05 00 16 de e8 d9 66 f3 6c b7 d9 52 de 80 18   I......f.l..R...
0030  00 fa 70 7b 00 00 01 01 08 0a 00 20 71 62 15 f5   ..p{....... qb..
0040  ac 19 00 00 04 fc 0a 14 07 a5 7d cb 34 c5 dd 13   ..........}.4...
0050  69 d7 b9 81 ec aa 34 91 00 00 01 40 63 75 72 76   i.....4....@curv
0060  65 32 35 35 31 39 2d 73 68 61 32 35 36 2c 63 75   e25519-sha256,cu
0070  72 76 65 32 35 35 31 39 2d 73 68 61 32 35 36 40   rve25519-sha256@
0080  6c 69 62 73 73 68 2e 6f 72 67 2c 65 63 64 68 2d   libssh.org,ecdh-
0090  73 68 61 32 2d 6e 69 73 74 70 32 35 36 2c 65 63   sha2-nistp256,ec
00a0  64 68 2d 73 68 61 32 2d 6e 69 73 74 70 33 38 34   dh-sha2-nistp384
00b0  2c 65 63 64 68 2d 73 68 61 32 2d 6e 69 73 74 70   ,ecdh-sha2-nistp
00c0  35 32 31 2c 64 69 66 66 69 65 2d 68 65 6c 6c 6d   521,diffie-hellm
00d0  61 6e 2d 67 72 6f 75 70 2d 65 78 63 68 61 6e 67   an-group-exchang
00e0  65 2d 73 68 61 32 35 36 2c 64 69 66 66 69 65 2d   e-sha256,diffie-
00f0  68 65 6c 6c 6d 61 6e 2d 67 72 6f 75 70 31 36 2d   hellman-group16-
0100  73 68 61 35 31 32 2c 64 69 66 66 69 65 2d 68 65   sha512,diffie-he
0110  6c 6c 6d 61 6e 2d 67 72 6f 75 70 31 38 2d 73 68   llman-group18-sh
0120  61 35 31 32 2c 64 69 66 66 69 65 2d 68 65 6c 6c   a512,diffie-hell
0130  6d 61 6e 2d 67 72 6f 75 70 2d 65 78 63 68 61 6e   man-group-exchan
0140  67 65 2d 73 68 61 31 2c 64 69 66 66 69 65 2d 68   ge-sha1,diffie-h
0150  65 6c 6c 6d 61 6e 2d 67 72 6f 75 70 31 34 2d 73   ellman-group14-s
0160  68 61 32 35 36 2c 64 69 66 66 69 65 2d 68 65 6c   ha256,diffie-hel
0170  6c 6d 61 6e 2d 67 72 6f 75 70 31 34 2d 73 68 61   lman-group14-sha
0180  31 2c 64 69 66 66 69 65 2d 68 65 6c 6c 6d 61 6e   1,diffie-hellman
0190  2d 67 72 6f 75 70 31 2d 73 68 61 31 00 00 00 41   -group1-sha1...A
01a0  73 73 68 2d 72 73 61 2c 72 73 61 2d 73 68 61 32   ssh-rsa,rsa-sha2
01b0  2d 35 31 32 2c 72 73 61 2d 73 68 61 32 2d 32 35   -512,rsa-sha2-25
01c0  36 2c 65 63 64 73 61 2d 73 68 61 32 2d 6e 69 73   6,ecdsa-sha2-nis
01d0  74 70 32 35 36 2c 73 73 68 2d 65 64 32 35 35 31   tp256,ssh-ed2551
01e0  39 00 00 00 af 63 68 61 63 68 61 32 30 2d 70 6f   9....chacha20-po
01f0  6c 79 31 33 30 35 40 6f 70 65 6e 73 73 68 2e 63   ly1305@openssh.c
0200  6f 6d 2c 61 65 73 31 32 38 2d 63 74 72 2c 61 65   om,aes128-ctr,ae
0210  73 31 39 32 2d 63 74 72 2c 61 65 73 32 35 36 2d   s192-ctr,aes256-
0220  63 74 72 2c 61 65 73 31 32 38 2d 67 63 6d 40 6f   ctr,aes128-gcm@o
0230  70 65 6e 73 73 68 2e 63 6f 6d 2c 61 65 73 32 35   penssh.com,aes25
0240  36 2d 67 63 6d 40 6f 70 65 6e 73 73 68 2e 63 6f   6-gcm@openssh.co
0250  6d 2c 61 65 73 31 32 38 2d 63 62 63 2c 61 65 73   m,aes128-cbc,aes
0260  31 39 32 2d 63 62 63 2c 61 65 73 32 35 36 2d 63   192-cbc,aes256-c
0270  62 63 2c 62 6c 6f 77 66 69 73 68 2d 63 62 63 2c   bc,blowfish-cbc,
0280  63 61 73 74 31 32 38 2d 63 62 63 2c 33 64 65 73   cast128-cbc,3des
0290  2d 63 62 63 00 00 00 af 63 68 61 63 68 61 32 30   -cbc....chacha20
02a0  2d 70 6f 6c 79 31 33 30 35 40 6f 70 65 6e 73 73   -poly1305@openss
02b0  68 2e 63 6f 6d 2c 61 65 73 31 32 38 2d 63 74 72   h.com,aes128-ctr
02c0  2c 61 65 73 31 39 32 2d 63 74 72 2c 61 65 73 32   ,aes192-ctr,aes2
02d0  35 36 2d 63 74 72 2c 61 65 73 31 32 38 2d 67 63   56-ctr,aes128-gc
02e0  6d 40 6f 70 65 6e 73 73 68 2e 63 6f 6d 2c 61 65   m@openssh.com,ae
02f0  73 32 35 36 2d 67 63 6d 40 6f 70 65 6e 73 73 68   s256-gcm@openssh
0300  2e 63 6f 6d 2c 61 65 73 31 32 38 2d 63 62 63 2c   .com,aes128-cbc,
0310  61 65 73 31 39 32 2d 63 62 63 2c 61 65 73 32 35   aes192-cbc,aes25
0320  36 2d 63 62 63 2c 62 6c 6f 77 66 69 73 68 2d 63   6-cbc,blowfish-c
0330  62 63 2c 63 61 73 74 31 32 38 2d 63 62 63 2c 33   bc,cast128-cbc,3
0340  64 65 73 2d 63 62 63 00 00 00 d5 75 6d 61 63 2d   des-cbc....umac-
0350  36 34 2d 65 74 6d 40 6f 70 65 6e 73 73 68 2e 63   64-etm@openssh.c
0360  6f 6d 2c 75 6d 61 63 2d 31 32 38 2d 65 74 6d 40   om,umac-128-etm@
0370  6f 70 65 6e 73 73 68 2e 63 6f 6d 2c 68 6d 61 63   openssh.com,hmac
0380  2d 73 68 61 32 2d 32 35 36 2d 65 74 6d 40 6f 70   -sha2-256-etm@op
0390  65 6e 73 73 68 2e 63 6f 6d 2c 68 6d 61 63 2d 73   enssh.com,hmac-s
03a0  68 61 32 2d 35 31 32 2d 65 74 6d 40 6f 70 65 6e   ha2-512-etm@open
03b0  73 73 68 2e 63 6f 6d 2c 68 6d 61 63 2d 73 68 61   ssh.com,hmac-sha
03c0  31 2d 65 74 6d 40 6f 70 65 6e 73 73 68 2e 63 6f   1-etm@openssh.co
03d0  6d 2c 75 6d 61 63 2d 36 34 40 6f 70 65 6e 73 73   m,umac-64@openss
03e0  68 2e 63 6f 6d 2c 75 6d 61 63 2d 31 32 38 40 6f   h.com,umac-128@o
03f0  70 65 6e 73 73 68 2e 63 6f 6d 2c 68 6d 61 63 2d   penssh.com,hmac-
0400  73 68 61 32 2d 32 35 36 2c 68 6d 61 63 2d 73 68   sha2-256,hmac-sh
0410  61 32 2d 35 31 32 2c 68 6d 61 63 2d 73 68 61 31   a2-512,hmac-sha1
0420  00 00 00 d5 75 6d 61 63 2d 36 34 2d 65 74 6d 40   ....umac-64-etm@
0430  6f 70 65 6e 73 73 68 2e 63 6f 6d 2c 75 6d 61 63   openssh.com,umac
0440  2d 31 32 38 2d 65 74 6d 40 6f 70 65 6e 73 73 68   -128-etm@openssh
0450  2e 63 6f 6d 2c 68 6d 61 63 2d 73 68 61 32 2d 32   .com,hmac-sha2-2
0460  35 36 2d 65 74 6d 40 6f 70 65 6e 73 73 68 2e 63   56-etm@openssh.c
0470  6f 6d 2c 68 6d 61 63 2d 73 68 61 32 2d 35 31 32   om,hmac-sha2-512
0480  2d 65 74 6d 40 6f 70 65 6e 73 73 68 2e 63 6f 6d   -etm@openssh.com
0490  2c 68 6d 61 63 2d 73 68 61 31 2d 65 74 6d 40 6f   ,hmac-sha1-etm@o
04a0  70 65 6e 73 73 68 2e 63 6f 6d 2c 75 6d 61 63 2d   penssh.com,umac-
04b0  36 34 40 6f 70 65 6e 73 73 68 2e 63 6f 6d 2c 75   64@openssh.com,u
04c0  6d 61 63 2d 31 32 38 40 6f 70 65 6e 73 73 68 2e   mac-128@openssh.
04d0  63 6f 6d 2c 68 6d 61 63 2d 73 68 61 32 2d 32 35   com,hmac-sha2-25
04e0  36 2c 68 6d 61 63 2d 73 68 61 32 2d 35 31 32 2c   6,hmac-sha2-512,
04f0  68 6d 61 63 2d 73 68 61 31 00 00 00 15 6e 6f 6e   hmac-sha1....non
0500  65 2c 7a 6c 69 62 40 6f 70 65 6e 73 73 68 2e 63   e,zlib@openssh.c
0510  6f 6d 00 00 00 15 6e 6f 6e 65 2c 7a 6c 69 62 40   om....none,zlib@
0520  6f 70 65 6e 73 73 68 2e 63 6f 6d 00 00 00 00 00   openssh.com.....
0530  00 00 00 00 00 00 00 00 00 00 00 00 00 00 00 00   ................
0540  00 00                                             ..
No.     Time           Source                Destination           Protocol Length Info
     11 0.479403085    10.2.73.5             10.73.14.5            SSHv2    114    Client: Diffie-Hellman Key Exchange Init

Frame 11: 114 bytes on wire (912 bits), 114 bytes captured (912 bits) on interface 0
    Interface id: 0
    Encapsulation type: Ethernet (1)
    Arrival Time: Oct 26, 2022 14:16:22.020775970 MSK
    [Time shift for this packet: 0.000000000 seconds]
    Epoch Time: 1666782982.020775970 seconds
    [Time delta from previous captured frame: 0.004468389 seconds]
    [Time delta from previous displayed frame: 0.004468389 seconds]
    [Time since reference or first frame: 0.479403085 seconds]
    Frame Number: 11
    Frame Length: 114 bytes (912 bits)
    Capture Length: 114 bytes (912 bits)
    [Frame is marked: False]
    [Frame is ignored: False]
    [Protocols in frame: eth:ip:tcp:ssh]
    [Coloring Rule Name: TCP]
    [Coloring Rule String: tcp]
Ethernet II, Src: CadmusCo_62:0e:57 (08:00:27:62:0e:57), Dst: CadmusCo_41:0f:d0 (08:00:27:41:0f:d0)
    Destination: CadmusCo_41:0f:d0 (08:00:27:41:0f:d0)
        Address: CadmusCo_41:0f:d0 (08:00:27:41:0f:d0)
        .... ..0. .... .... .... .... = LG bit: Globally unique address (factory default)
        .... ...0 .... .... .... .... = IG bit: Individual address (unicast)
    Source: CadmusCo_62:0e:57 (08:00:27:62:0e:57)
        Address: CadmusCo_62:0e:57 (08:00:27:62:0e:57)
        .... ..0. .... .... .... .... = LG bit: Globally unique address (factory default)
        .... ...0 .... .... .... .... = IG bit: Individual address (unicast)
    Type: IP (0x0800)
Internet Protocol Version 4, Src: 10.2.73.5 (10.2.73.5), Dst: 10.73.14.5 (10.73.14.5)
    Version: 4
    Header length: 20 bytes
    Differentiated Services Field: 0x10 (DSCP 0x04: Unknown DSCP; ECN: 0x00: Not-ECT (Not ECN-Capable Transport))
        0001 00.. = Differentiated Services Codepoint: Unknown (0x04)
        .... ..00 = Explicit Congestion Notification: Not-ECT (Not ECN-Capable Transport) (0x00)
    Total Length: 100
    Identification: 0x46cb (18123)
    Flags: 0x02 (Don't Fragment)
        0... .... = Reserved bit: Not set
        .1.. .... = Don't fragment: Set
        ..0. .... = More fragments: Not set
    Fragment offset: 0
    Time to live: 63
    Protocol: TCP (6)
    Header checksum: 0x8964 [validation disabled]
        [Good: False]
        [Bad: False]
    Source: 10.2.73.5 (10.2.73.5)
    Destination: 10.73.14.5 (10.73.14.5)
Transmission Control Protocol, Src Port: 57064 (57064), Dst Port: ssh (22), Seq: 1537, Ack: 1302, Len: 48
    Source port: 57064 (57064)
    Destination port: ssh (22)
    [Stream index: 0]
    Sequence number: 1537    (relative sequence number)
    [Next sequence number: 1585    (relative sequence number)]
    Acknowledgment number: 1302    (relative ack number)
    Header length: 32 bytes
    Flags: 0x018 (PSH, ACK)
        000. .... .... = Reserved: Not set
        ...0 .... .... = Nonce: Not set
        .... 0... .... = Congestion Window Reduced (CWR): Not set
        .... .0.. .... = ECN-Echo: Not set
        .... ..0. .... = Urgent: Not set
        .... ...1 .... = Acknowledgment: Set
        .... .... 1... = Push: Set
        .... .... .0.. = Reset: Not set
        .... .... ..0. = Syn: Not set
        .... .... ...0 = Fin: Not set
    Window size value: 501
    [Calculated window size: 64128]
    [Window size scaling factor: 128]
    Checksum: 0x0369 [validation disabled]
        [Good Checksum: False]
        [Bad Checksum: False]
    Options: (12 bytes), No-Operation (NOP), No-Operation (NOP), Timestamps
        No-Operation (NOP)
            Type: 1
                0... .... = Copy on fragmentation: No
                .00. .... = Class: Control (0)
                ...0 0001 = Number: No-Operation (NOP) (1)
        No-Operation (NOP)
            Type: 1
                0... .... = Copy on fragmentation: No
                .00. .... = Class: Control (0)
                ...0 0001 = Number: No-Operation (NOP) (1)
        Timestamps: TSval 368421950, TSecr 2126178
            Kind: Timestamp (8)
            Length: 10
            Timestamp value: 368421950
            Timestamp echo reply: 2126178
    [SEQ/ACK analysis]
        [This is an ACK to the segment in frame: 10]
        [The RTT to ACK the segment was: 0.004468389 seconds]
        [Bytes in flight: 48]
SSH Protocol
    SSH Version 2 (encryption:chacha20-poly1305@openssh.com mac:umac-64-etm@openssh.com compression:none)
        Packet Length: 44
        Padding Length: 6
        Key Exchange
            Message Code: Diffie-Hellman Key Exchange Init (30)
            Payload: 000000206bb7299847f666dd5ba616300ce88ce366cdf34f...
            Padding String: 000000000000

0000  08 00 27 41 0f d0 08 00 27 62 0e 57 08 00 45 10   ..'A....'b.W..E.
0010  00 64 46 cb 40 00 3f 06 89 64 0a 02 49 05 0a 49   .dF.@.?..d..I..I
0020  0e 05 de e8 00 16 b7 d9 52 de d9 66 f8 6c 80 18   ........R..f.l..
0030  01 f5 03 69 00 00 01 01 08 0a 15 f5 ac 3e 00 20   ...i.........>. 
0040  71 62 00 00 00 2c 06 1e 00 00 00 20 6b b7 29 98   qb...,..... k.).
0050  47 f6 66 dd 5b a6 16 30 0c e8 8c e3 66 cd f3 4f   G.f.[..0....f..O
0060  e2 b9 58 5e f1 47 22 6d 1f 3b f8 3c 00 00 00 00   ..X^.G"m.;.<....
0070  00 00                                             ..
No.     Time           Source                Destination           Protocol Length Info
     12 0.489957281    10.73.14.5            10.2.73.5             SSHv2    358    Server: New Keys

Frame 12: 358 bytes on wire (2864 bits), 358 bytes captured (2864 bits) on interface 0
    Interface id: 0
    Encapsulation type: Ethernet (1)
    Arrival Time: Oct 26, 2022 14:16:22.031330166 MSK
    [Time shift for this packet: 0.000000000 seconds]
    Epoch Time: 1666782982.031330166 seconds
    [Time delta from previous captured frame: 0.010554196 seconds]
    [Time delta from previous displayed frame: 0.010554196 seconds]
    [Time since reference or first frame: 0.489957281 seconds]
    Frame Number: 12
    Frame Length: 358 bytes (2864 bits)
    Capture Length: 358 bytes (2864 bits)
    [Frame is marked: False]
    [Frame is ignored: False]
    [Protocols in frame: eth:ip:tcp:ssh]
    [Coloring Rule Name: TCP]
    [Coloring Rule String: tcp]
Ethernet II, Src: CadmusCo_41:0f:d0 (08:00:27:41:0f:d0), Dst: CadmusCo_62:0e:57 (08:00:27:62:0e:57)
    Destination: CadmusCo_62:0e:57 (08:00:27:62:0e:57)
        Address: CadmusCo_62:0e:57 (08:00:27:62:0e:57)
        .... ..0. .... .... .... .... = LG bit: Globally unique address (factory default)
        .... ...0 .... .... .... .... = IG bit: Individual address (unicast)
    Source: CadmusCo_41:0f:d0 (08:00:27:41:0f:d0)
        Address: CadmusCo_41:0f:d0 (08:00:27:41:0f:d0)
        .... ..0. .... .... .... .... = LG bit: Globally unique address (factory default)
        .... ...0 .... .... .... .... = IG bit: Individual address (unicast)
    Type: IP (0x0800)
Internet Protocol Version 4, Src: 10.73.14.5 (10.73.14.5), Dst: 10.2.73.5 (10.2.73.5)
    Version: 4
    Header length: 20 bytes
    Differentiated Services Field: 0x00 (DSCP 0x00: Default; ECN: 0x00: Not-ECT (Not ECN-Capable Transport))
        0000 00.. = Differentiated Services Codepoint: Default (0x00)
        .... ..00 = Explicit Congestion Notification: Not-ECT (Not ECN-Capable Transport) (0x00)
    Total Length: 344
    Identification: 0x9ce3 (40163)
    Flags: 0x02 (Don't Fragment)
        0... .... = Reserved bit: Not set
        .1.. .... = Don't fragment: Set
        ..0. .... = More fragments: Not set
    Fragment offset: 0
    Time to live: 64
    Protocol: TCP (6)
    Header checksum: 0x3168 [validation disabled]
        [Good: False]
        [Bad: False]
    Source: 10.73.14.5 (10.73.14.5)
    Destination: 10.2.73.5 (10.2.73.5)
Transmission Control Protocol, Src Port: ssh (22), Dst Port: 57064 (57064), Seq: 1302, Ack: 1585, Len: 292
    Source port: ssh (22)
    Destination port: 57064 (57064)
    [Stream index: 0]
    Sequence number: 1302    (relative sequence number)
    [Next sequence number: 1594    (relative sequence number)]
    Acknowledgment number: 1585    (relative ack number)
    Header length: 32 bytes
    Flags: 0x018 (PSH, ACK)
        000. .... .... = Reserved: Not set
        ...0 .... .... = Nonce: Not set
        .... 0... .... = Congestion Window Reduced (CWR): Not set
        .... .0.. .... = ECN-Echo: Not set
        .... ..0. .... = Urgent: Not set
        .... ...1 .... = Acknowledgment: Set
        .... .... 1... = Push: Set
        .... .... .0.. = Reset: Not set
        .... .... ..0. = Syn: Not set
        .... .... ...0 = Fin: Not set
    Window size value: 250
    [Calculated window size: 32000]
    [Window size scaling factor: 128]
    Checksum: 0x6c9f [validation disabled]
        [Good Checksum: False]
        [Bad Checksum: False]
    Options: (12 bytes), No-Operation (NOP), No-Operation (NOP), Timestamps
        No-Operation (NOP)
            Type: 1
                0... .... = Copy on fragmentation: No
                .00. .... = Class: Control (0)
                ...0 0001 = Number: No-Operation (NOP) (1)
        No-Operation (NOP)
            Type: 1
                0... .... = Copy on fragmentation: No
                .00. .... = Class: Control (0)
                ...0 0001 = Number: No-Operation (NOP) (1)
        Timestamps: TSval 2126193, TSecr 368421950
            Kind: Timestamp (8)
            Length: 10
            Timestamp value: 2126193
            Timestamp echo reply: 368421950
    [SEQ/ACK analysis]
        [This is an ACK to the segment in frame: 11]
        [The RTT to ACK the segment was: 0.010554196 seconds]
        [Bytes in flight: 292]
    TCP segment data (84 bytes)
SSH Protocol
    SSH Version 2 (encryption:chacha20-poly1305@openssh.com mac:umac-64-etm@openssh.com compression:none)
        Packet Length: 188
        Padding Length: 8
        Key Exchange
            Message Code: Diffie-Hellman Key Exchange Reply (31)
            Multi Precision Integer Length: 51
            DH modulus (P): 0000000b7373682d65643235353139000000200c0fb442ce...
            Multi Precision Integer Length: 32
            DH base (G): 3b414cb474c06fb692ba2be3ec29d1f1c68c840aa9772047...
            Payload: 000000530000000b7373682d65643235353139000000406d...
            Padding String: 0000000000000000
    SSH Version 2 (encryption:chacha20-poly1305@openssh.com mac:umac-64-etm@openssh.com compression:none)
        Packet Length: 12
        Padding Length: 10
        Key Exchange
            Message Code: New Keys (21)
            Padding String: 00000000000000000000
    SSH Version 2 (encryption:chacha20-poly1305@openssh.com mac:umac-64-etm@openssh.com compression:none)

0000  08 00 27 62 0e 57 08 00 27 41 0f d0 08 00 45 00   ..'b.W..'A....E.
0010  01 58 9c e3 40 00 40 06 31 68 0a 49 0e 05 0a 02   .X..@.@.1h.I....
0020  49 05 00 16 de e8 d9 66 f8 6c b7 d9 53 0e 80 18   I......f.l..S...
0030  00 fa 6c 9f 00 00 01 01 08 0a 00 20 71 71 15 f5   ..l........ qq..
0040  ac 3e 00 00 00 bc 08 1f 00 00 00 33 00 00 00 0b   .>.........3....
0050  73 73 68 2d 65 64 32 35 35 31 39 00 00 00 20 0c   ssh-ed25519... .
0060  0f b4 42 ce 77 83 93 55 c6 86 1f e9 bd d9 06 76   ..B.w..U.......v
0070  2f 13 ad 8e 7e 93 03 4e d2 19 57 cd cc 55 1a 00   /...~..N..W..U..
0080  00 00 20 3b 41 4c b4 74 c0 6f b6 92 ba 2b e3 ec   .. ;AL.t.o...+..
0090  29 d1 f1 c6 8c 84 0a a9 77 20 47 58 6a f2 e9 03   ).......w GXj...
00a0  79 8a 53 00 00 00 53 00 00 00 0b 73 73 68 2d 65   y.S...S....ssh-e
00b0  64 32 35 35 31 39 00 00 00 40 6d 01 40 5c bf c5   d25519...@m.@\..
00c0  fc 1b 6f 41 59 06 c6 cf f0 e3 44 e6 a0 3f c8 07   ..oAY.....D..?..
00d0  29 68 1b e1 d2 18 d3 5e a4 30 06 c8 46 20 e9 06   )h.....^.0..F ..
00e0  27 4c 91 2b c1 18 48 6d 00 f3 52 ff 07 0b 9e 07   'L.+..Hm..R.....
00f0  55 66 03 30 15 3e 22 51 ed 08 00 00 00 00 00 00   Uf.0.>"Q........
0100  00 00 00 00 00 0c 0a 15 00 00 00 00 00 00 00 00   ................
0110  00 00 06 33 1c bc 33 e2 7d 31 0c 6f 79 41 cc 04   ...3..3.}1.oyA..
0120  bc 6a 40 c6 26 fd 54 70 6c e6 39 d7 ba d9 ec 3d   .j@.&.Tpl.9....=
0130  49 38 14 88 fc 18 ec c7 fa eb 7d a0 51 d7 fe b6   I8........}.Q...
0140  aa a8 3b a5 4a d8 49 70 fd e5 da 78 9e ed 27 c1   ..;.J.Ip...x..'.
0150  90 7d 98 a0 6d 76 8d 4f c9 0c d0 07 bc f0 77 24   .}..mv.O......w$
0160  02 3d 65 01 0a 48                                 .=e..H
No.     Time           Source                Destination           Protocol Length Info
     13 0.500457833    10.2.73.5             10.73.14.5            SSHv2    82     Client: New Keys

Frame 13: 82 bytes on wire (656 bits), 82 bytes captured (656 bits) on interface 0
    Interface id: 0
    Encapsulation type: Ethernet (1)
    Arrival Time: Oct 26, 2022 14:16:22.041830718 MSK
    [Time shift for this packet: 0.000000000 seconds]
    Epoch Time: 1666782982.041830718 seconds
    [Time delta from previous captured frame: 0.010500552 seconds]
    [Time delta from previous displayed frame: 0.010500552 seconds]
    [Time since reference or first frame: 0.500457833 seconds]
    Frame Number: 13
    Frame Length: 82 bytes (656 bits)
    Capture Length: 82 bytes (656 bits)
    [Frame is marked: False]
    [Frame is ignored: False]
    [Protocols in frame: eth:ip:tcp:ssh]
    [Coloring Rule Name: TCP]
    [Coloring Rule String: tcp]
Ethernet II, Src: CadmusCo_62:0e:57 (08:00:27:62:0e:57), Dst: CadmusCo_41:0f:d0 (08:00:27:41:0f:d0)
    Destination: CadmusCo_41:0f:d0 (08:00:27:41:0f:d0)
        Address: CadmusCo_41:0f:d0 (08:00:27:41:0f:d0)
        .... ..0. .... .... .... .... = LG bit: Globally unique address (factory default)
        .... ...0 .... .... .... .... = IG bit: Individual address (unicast)
    Source: CadmusCo_62:0e:57 (08:00:27:62:0e:57)
        Address: CadmusCo_62:0e:57 (08:00:27:62:0e:57)
        .... ..0. .... .... .... .... = LG bit: Globally unique address (factory default)
        .... ...0 .... .... .... .... = IG bit: Individual address (unicast)
    Type: IP (0x0800)
Internet Protocol Version 4, Src: 10.2.73.5 (10.2.73.5), Dst: 10.73.14.5 (10.73.14.5)
    Version: 4
    Header length: 20 bytes
    Differentiated Services Field: 0x10 (DSCP 0x04: Unknown DSCP; ECN: 0x00: Not-ECT (Not ECN-Capable Transport))
        0001 00.. = Differentiated Services Codepoint: Unknown (0x04)
        .... ..00 = Explicit Congestion Notification: Not-ECT (Not ECN-Capable Transport) (0x00)
    Total Length: 68
    Identification: 0x46cc (18124)
    Flags: 0x02 (Don't Fragment)
        0... .... = Reserved bit: Not set
        .1.. .... = Don't fragment: Set
        ..0. .... = More fragments: Not set
    Fragment offset: 0
    Time to live: 63
    Protocol: TCP (6)
    Header checksum: 0x8983 [validation disabled]
        [Good: False]
        [Bad: False]
    Source: 10.2.73.5 (10.2.73.5)
    Destination: 10.73.14.5 (10.73.14.5)
Transmission Control Protocol, Src Port: 57064 (57064), Dst Port: ssh (22), Seq: 1585, Ack: 1594, Len: 16
    Source port: 57064 (57064)
    Destination port: ssh (22)
    [Stream index: 0]
    Sequence number: 1585    (relative sequence number)
    [Next sequence number: 1601    (relative sequence number)]
    Acknowledgment number: 1594    (relative ack number)
    Header length: 32 bytes
    Flags: 0x018 (PSH, ACK)
        000. .... .... = Reserved: Not set
        ...0 .... .... = Nonce: Not set
        .... 0... .... = Congestion Window Reduced (CWR): Not set
        .... .0.. .... = ECN-Echo: Not set
        .... ..0. .... = Urgent: Not set
        .... ...1 .... = Acknowledgment: Set
        .... .... 1... = Push: Set
        .... .... .0.. = Reset: Not set
        .... .... ..0. = Syn: Not set
        .... .... ...0 = Fin: Not set
    Window size value: 501
    [Calculated window size: 64128]
    [Window size scaling factor: 128]
    Checksum: 0x0e82 [validation disabled]
        [Good Checksum: False]
        [Bad Checksum: False]
    Options: (12 bytes), No-Operation (NOP), No-Operation (NOP), Timestamps
        No-Operation (NOP)
            Type: 1
                0... .... = Copy on fragmentation: No
                .00. .... = Class: Control (0)
                ...0 0001 = Number: No-Operation (NOP) (1)
        No-Operation (NOP)
            Type: 1
                0... .... = Copy on fragmentation: No
                .00. .... = Class: Control (0)
                ...0 0001 = Number: No-Operation (NOP) (1)
        Timestamps: TSval 368421971, TSecr 2126193
            Kind: Timestamp (8)
            Length: 10
            Timestamp value: 368421971
            Timestamp echo reply: 2126193
    [SEQ/ACK analysis]
        [This is an ACK to the segment in frame: 12]
        [The RTT to ACK the segment was: 0.010500552 seconds]
        [Bytes in flight: 16]
SSH Protocol
    SSH Version 2 (encryption:chacha20-poly1305@openssh.com mac:umac-64-etm@openssh.com compression:none)
        Packet Length: 12
        Padding Length: 10
        Key Exchange
            Message Code: New Keys (21)
            Padding String: 00000000000000000000

0000  08 00 27 41 0f d0 08 00 27 62 0e 57 08 00 45 10   ..'A....'b.W..E.
0010  00 44 46 cc 40 00 3f 06 89 83 0a 02 49 05 0a 49   .DF.@.?.....I..I
0020  0e 05 de e8 00 16 b7 d9 53 0e d9 66 f9 90 80 18   ........S..f....
0030  01 f5 0e 82 00 00 01 01 08 0a 15 f5 ac 53 00 20   .............S. 
0040  71 71 00 00 00 0c 0a 15 00 00 00 00 00 00 00 00   qq..............
0050  00 00                                             ..
No.     Time           Source                Destination           Protocol Length Info
     14 0.540123569    10.73.14.5            10.2.73.5             TCP      66     ssh > 57064 [ACK] Seq=1594 Ack=1601 Win=32000 Len=0 TSval=2126244 TSecr=368421971

Frame 14: 66 bytes on wire (528 bits), 66 bytes captured (528 bits) on interface 0
    Interface id: 0
    Encapsulation type: Ethernet (1)
    Arrival Time: Oct 26, 2022 14:16:22.081496454 MSK
    [Time shift for this packet: 0.000000000 seconds]
    Epoch Time: 1666782982.081496454 seconds
    [Time delta from previous captured frame: 0.039665736 seconds]
    [Time delta from previous displayed frame: 0.039665736 seconds]
    [Time since reference or first frame: 0.540123569 seconds]
    Frame Number: 14
    Frame Length: 66 bytes (528 bits)
    Capture Length: 66 bytes (528 bits)
    [Frame is marked: False]
    [Frame is ignored: False]
    [Protocols in frame: eth:ip:tcp]
    [Coloring Rule Name: TCP]
    [Coloring Rule String: tcp]
Ethernet II, Src: CadmusCo_41:0f:d0 (08:00:27:41:0f:d0), Dst: CadmusCo_62:0e:57 (08:00:27:62:0e:57)
    Destination: CadmusCo_62:0e:57 (08:00:27:62:0e:57)
        Address: CadmusCo_62:0e:57 (08:00:27:62:0e:57)
        .... ..0. .... .... .... .... = LG bit: Globally unique address (factory default)
        .... ...0 .... .... .... .... = IG bit: Individual address (unicast)
    Source: CadmusCo_41:0f:d0 (08:00:27:41:0f:d0)
        Address: CadmusCo_41:0f:d0 (08:00:27:41:0f:d0)
        .... ..0. .... .... .... .... = LG bit: Globally unique address (factory default)
        .... ...0 .... .... .... .... = IG bit: Individual address (unicast)
    Type: IP (0x0800)
Internet Protocol Version 4, Src: 10.73.14.5 (10.73.14.5), Dst: 10.2.73.5 (10.2.73.5)
    Version: 4
    Header length: 20 bytes
    Differentiated Services Field: 0x00 (DSCP 0x00: Default; ECN: 0x00: Not-ECT (Not ECN-Capable Transport))
        0000 00.. = Differentiated Services Codepoint: Default (0x00)
        .... ..00 = Explicit Congestion Notification: Not-ECT (Not ECN-Capable Transport) (0x00)
    Total Length: 52
    Identification: 0x9ce4 (40164)
    Flags: 0x02 (Don't Fragment)
        0... .... = Reserved bit: Not set
        .1.. .... = Don't fragment: Set
        ..0. .... = More fragments: Not set
    Fragment offset: 0
    Time to live: 64
    Protocol: TCP (6)
    Header checksum: 0x328b [validation disabled]
        [Good: False]
        [Bad: False]
    Source: 10.73.14.5 (10.73.14.5)
    Destination: 10.2.73.5 (10.2.73.5)
Transmission Control Protocol, Src Port: ssh (22), Dst Port: 57064 (57064), Seq: 1594, Ack: 1601, Len: 0
    Source port: ssh (22)
    Destination port: 57064 (57064)
    [Stream index: 0]
    Sequence number: 1594    (relative sequence number)
    Acknowledgment number: 1601    (relative ack number)
    Header length: 32 bytes
    Flags: 0x010 (ACK)
        000. .... .... = Reserved: Not set
        ...0 .... .... = Nonce: Not set
        .... 0... .... = Congestion Window Reduced (CWR): Not set
        .... .0.. .... = ECN-Echo: Not set
        .... ..0. .... = Urgent: Not set
        .... ...1 .... = Acknowledgment: Set
        .... .... 0... = Push: Not set
        .... .... .0.. = Reset: Not set
        .... .... ..0. = Syn: Not set
        .... .... ...0 = Fin: Not set
    Window size value: 250
    [Calculated window size: 32000]
    [Window size scaling factor: 128]
    Checksum: 0x6b7b [validation disabled]
        [Good Checksum: False]
        [Bad Checksum: False]
    Options: (12 bytes), No-Operation (NOP), No-Operation (NOP), Timestamps
        No-Operation (NOP)
            Type: 1
                0... .... = Copy on fragmentation: No
                .00. .... = Class: Control (0)
                ...0 0001 = Number: No-Operation (NOP) (1)
        No-Operation (NOP)
            Type: 1
                0... .... = Copy on fragmentation: No
                .00. .... = Class: Control (0)
                ...0 0001 = Number: No-Operation (NOP) (1)
        Timestamps: TSval 2126244, TSecr 368421971
            Kind: Timestamp (8)
            Length: 10
            Timestamp value: 2126244
            Timestamp echo reply: 368421971
    [SEQ/ACK analysis]
        [This is an ACK to the segment in frame: 13]
        [The RTT to ACK the segment was: 0.039665736 seconds]

0000  08 00 27 62 0e 57 08 00 27 41 0f d0 08 00 45 00   ..'b.W..'A....E.
0010  00 34 9c e4 40 00 40 06 32 8b 0a 49 0e 05 0a 02   .4..@.@.2..I....
0020  49 05 00 16 de e8 d9 66 f9 90 b7 d9 53 1e 80 10   I......f....S...
0030  00 fa 6b 7b 00 00 01 01 08 0a 00 20 71 a4 15 f5   ..k{....... q...
0040  ac 53                                             .S
No.     Time           Source                Destination           Protocol Length Info
     15 0.540539075    10.2.73.5             10.73.14.5            SSHv2    110    Encrypted request packet len=44

Frame 15: 110 bytes on wire (880 bits), 110 bytes captured (880 bits) on interface 0
    Interface id: 0
    Encapsulation type: Ethernet (1)
    Arrival Time: Oct 26, 2022 14:16:22.081911960 MSK
    [Time shift for this packet: 0.000000000 seconds]
    Epoch Time: 1666782982.081911960 seconds
    [Time delta from previous captured frame: 0.000415506 seconds]
    [Time delta from previous displayed frame: 0.000415506 seconds]
    [Time since reference or first frame: 0.540539075 seconds]
    Frame Number: 15
    Frame Length: 110 bytes (880 bits)
    Capture Length: 110 bytes (880 bits)
    [Frame is marked: False]
    [Frame is ignored: False]
    [Protocols in frame: eth:ip:tcp:ssh]
    [Coloring Rule Name: TCP]
    [Coloring Rule String: tcp]
Ethernet II, Src: CadmusCo_62:0e:57 (08:00:27:62:0e:57), Dst: CadmusCo_41:0f:d0 (08:00:27:41:0f:d0)
    Destination: CadmusCo_41:0f:d0 (08:00:27:41:0f:d0)
        Address: CadmusCo_41:0f:d0 (08:00:27:41:0f:d0)
        .... ..0. .... .... .... .... = LG bit: Globally unique address (factory default)
        .... ...0 .... .... .... .... = IG bit: Individual address (unicast)
    Source: CadmusCo_62:0e:57 (08:00:27:62:0e:57)
        Address: CadmusCo_62:0e:57 (08:00:27:62:0e:57)
        .... ..0. .... .... .... .... = LG bit: Globally unique address (factory default)
        .... ...0 .... .... .... .... = IG bit: Individual address (unicast)
    Type: IP (0x0800)
Internet Protocol Version 4, Src: 10.2.73.5 (10.2.73.5), Dst: 10.73.14.5 (10.73.14.5)
    Version: 4
    Header length: 20 bytes
    Differentiated Services Field: 0x10 (DSCP 0x04: Unknown DSCP; ECN: 0x00: Not-ECT (Not ECN-Capable Transport))
        0001 00.. = Differentiated Services Codepoint: Unknown (0x04)
        .... ..00 = Explicit Congestion Notification: Not-ECT (Not ECN-Capable Transport) (0x00)
    Total Length: 96
    Identification: 0x46cd (18125)
    Flags: 0x02 (Don't Fragment)
        0... .... = Reserved bit: Not set
        .1.. .... = Don't fragment: Set
        ..0. .... = More fragments: Not set
    Fragment offset: 0
    Time to live: 63
    Protocol: TCP (6)
    Header checksum: 0x8966 [validation disabled]
        [Good: False]
        [Bad: False]
    Source: 10.2.73.5 (10.2.73.5)
    Destination: 10.73.14.5 (10.73.14.5)
Transmission Control Protocol, Src Port: 57064 (57064), Dst Port: ssh (22), Seq: 1601, Ack: 1594, Len: 44
    Source port: 57064 (57064)
    Destination port: ssh (22)
    [Stream index: 0]
    Sequence number: 1601    (relative sequence number)
    [Next sequence number: 1645    (relative sequence number)]
    Acknowledgment number: 1594    (relative ack number)
    Header length: 32 bytes
    Flags: 0x018 (PSH, ACK)
        000. .... .... = Reserved: Not set
        ...0 .... .... = Nonce: Not set
        .... 0... .... = Congestion Window Reduced (CWR): Not set
        .... .0.. .... = ECN-Echo: Not set
        .... ..0. .... = Urgent: Not set
        .... ...1 .... = Acknowledgment: Set
        .... .... 1... = Push: Set
        .... .... .0.. = Reset: Not set
        .... .... ..0. = Syn: Not set
        .... .... ...0 = Fin: Not set
    Window size value: 501
    [Calculated window size: 64128]
    [Window size scaling factor: 128]
    Checksum: 0xae88 [validation disabled]
        [Good Checksum: False]
        [Bad Checksum: False]
    Options: (12 bytes), No-Operation (NOP), No-Operation (NOP), Timestamps
        No-Operation (NOP)
            Type: 1
                0... .... = Copy on fragmentation: No
                .00. .... = Class: Control (0)
                ...0 0001 = Number: No-Operation (NOP) (1)
        No-Operation (NOP)
            Type: 1
                0... .... = Copy on fragmentation: No
                .00. .... = Class: Control (0)
                ...0 0001 = Number: No-Operation (NOP) (1)
        Timestamps: TSval 368422011, TSecr 2126244
            Kind: Timestamp (8)
            Length: 10
            Timestamp value: 368422011
            Timestamp echo reply: 2126244
    [SEQ/ACK analysis]
        [Bytes in flight: 44]
SSH Protocol
    SSH Version 2 (encryption:chacha20-poly1305@openssh.com mac:umac-64-etm@openssh.com compression:none)
        Encrypted Packet: 915be3c5735678d24a48a683bdc384dd1a1780a3b6b93e30...

0000  08 00 27 41 0f d0 08 00 27 62 0e 57 08 00 45 10   ..'A....'b.W..E.
0010  00 60 46 cd 40 00 3f 06 89 66 0a 02 49 05 0a 49   .`F.@.?..f..I..I
0020  0e 05 de e8 00 16 b7 d9 53 1e d9 66 f9 90 80 18   ........S..f....
0030  01 f5 ae 88 00 00 01 01 08 0a 15 f5 ac 7b 00 20   .............{. 
0040  71 a4 91 5b e3 c5 73 56 78 d2 4a 48 a6 83 bd c3   q..[..sVx.JH....
0050  84 dd 1a 17 80 a3 b6 b9 3e 30 32 d3 bd 86 be d0   ........>02.....
0060  61 a9 9c 0e e0 29 ce ff cc a1 d2 de 49 aa         a....)......I.
No.     Time           Source                Destination           Protocol Length Info
     16 0.540563647    10.73.14.5            10.2.73.5             TCP      66     ssh > 57064 [ACK] Seq=1594 Ack=1645 Win=32000 Len=0 TSval=2126244 TSecr=368422011

Frame 16: 66 bytes on wire (528 bits), 66 bytes captured (528 bits) on interface 0
    Interface id: 0
    Encapsulation type: Ethernet (1)
    Arrival Time: Oct 26, 2022 14:16:22.081936532 MSK
    [Time shift for this packet: 0.000000000 seconds]
    Epoch Time: 1666782982.081936532 seconds
    [Time delta from previous captured frame: 0.000024572 seconds]
    [Time delta from previous displayed frame: 0.000024572 seconds]
    [Time since reference or first frame: 0.540563647 seconds]
    Frame Number: 16
    Frame Length: 66 bytes (528 bits)
    Capture Length: 66 bytes (528 bits)
    [Frame is marked: False]
    [Frame is ignored: False]
    [Protocols in frame: eth:ip:tcp]
    [Coloring Rule Name: TCP]
    [Coloring Rule String: tcp]
Ethernet II, Src: CadmusCo_41:0f:d0 (08:00:27:41:0f:d0), Dst: CadmusCo_62:0e:57 (08:00:27:62:0e:57)
    Destination: CadmusCo_62:0e:57 (08:00:27:62:0e:57)
        Address: CadmusCo_62:0e:57 (08:00:27:62:0e:57)
        .... ..0. .... .... .... .... = LG bit: Globally unique address (factory default)
        .... ...0 .... .... .... .... = IG bit: Individual address (unicast)
    Source: CadmusCo_41:0f:d0 (08:00:27:41:0f:d0)
        Address: CadmusCo_41:0f:d0 (08:00:27:41:0f:d0)
        .... ..0. .... .... .... .... = LG bit: Globally unique address (factory default)
        .... ...0 .... .... .... .... = IG bit: Individual address (unicast)
    Type: IP (0x0800)
Internet Protocol Version 4, Src: 10.73.14.5 (10.73.14.5), Dst: 10.2.73.5 (10.2.73.5)
    Version: 4
    Header length: 20 bytes
    Differentiated Services Field: 0x00 (DSCP 0x00: Default; ECN: 0x00: Not-ECT (Not ECN-Capable Transport))
        0000 00.. = Differentiated Services Codepoint: Default (0x00)
        .... ..00 = Explicit Congestion Notification: Not-ECT (Not ECN-Capable Transport) (0x00)
    Total Length: 52
    Identification: 0x9ce5 (40165)
    Flags: 0x02 (Don't Fragment)
        0... .... = Reserved bit: Not set
        .1.. .... = Don't fragment: Set
        ..0. .... = More fragments: Not set
    Fragment offset: 0
    Time to live: 64
    Protocol: TCP (6)
    Header checksum: 0x328a [validation disabled]
        [Good: False]
        [Bad: False]
    Source: 10.73.14.5 (10.73.14.5)
    Destination: 10.2.73.5 (10.2.73.5)
Transmission Control Protocol, Src Port: ssh (22), Dst Port: 57064 (57064), Seq: 1594, Ack: 1645, Len: 0
    Source port: ssh (22)
    Destination port: 57064 (57064)
    [Stream index: 0]
    Sequence number: 1594    (relative sequence number)
    Acknowledgment number: 1645    (relative ack number)
    Header length: 32 bytes
    Flags: 0x010 (ACK)
        000. .... .... = Reserved: Not set
        ...0 .... .... = Nonce: Not set
        .... 0... .... = Congestion Window Reduced (CWR): Not set
        .... .0.. .... = ECN-Echo: Not set
        .... ..0. .... = Urgent: Not set
        .... ...1 .... = Acknowledgment: Set
        .... .... 0... = Push: Not set
        .... .... .0.. = Reset: Not set
        .... .... ..0. = Syn: Not set
        .... .... ...0 = Fin: Not set
    Window size value: 250
    [Calculated window size: 32000]
    [Window size scaling factor: 128]
    Checksum: 0x6b7b [validation disabled]
        [Good Checksum: False]
        [Bad Checksum: False]
    Options: (12 bytes), No-Operation (NOP), No-Operation (NOP), Timestamps
        No-Operation (NOP)
            Type: 1
                0... .... = Copy on fragmentation: No
                .00. .... = Class: Control (0)
                ...0 0001 = Number: No-Operation (NOP) (1)
        No-Operation (NOP)
            Type: 1
                0... .... = Copy on fragmentation: No
                .00. .... = Class: Control (0)
                ...0 0001 = Number: No-Operation (NOP) (1)
        Timestamps: TSval 2126244, TSecr 368422011
            Kind: Timestamp (8)
            Length: 10
            Timestamp value: 2126244
            Timestamp echo reply: 368422011
    [SEQ/ACK analysis]
        [This is an ACK to the segment in frame: 15]
        [The RTT to ACK the segment was: 0.000024572 seconds]

0000  08 00 27 62 0e 57 08 00 27 41 0f d0 08 00 45 00   ..'b.W..'A....E.
0010  00 34 9c e5 40 00 40 06 32 8a 0a 49 0e 05 0a 02   .4..@.@.2..I....
0020  49 05 00 16 de e8 d9 66 f9 90 b7 d9 53 4a 80 10   I......f....SJ..
0030  00 fa 6b 7b 00 00 01 01 08 0a 00 20 71 a4 15 f5   ..k{....... q...
0040  ac 7b                                             .{
No.     Time           Source                Destination           Protocol Length Info
     17 0.540670458    10.73.14.5            10.2.73.5             TCP      110    [TCP segment of a reassembled PDU]

Frame 17: 110 bytes on wire (880 bits), 110 bytes captured (880 bits) on interface 0
    Interface id: 0
    Encapsulation type: Ethernet (1)
    Arrival Time: Oct 26, 2022 14:16:22.082043343 MSK
    [Time shift for this packet: 0.000000000 seconds]
    Epoch Time: 1666782982.082043343 seconds
    [Time delta from previous captured frame: 0.000106811 seconds]
    [Time delta from previous displayed frame: 0.000106811 seconds]
    [Time since reference or first frame: 0.540670458 seconds]
    Frame Number: 17
    Frame Length: 110 bytes (880 bits)
    Capture Length: 110 bytes (880 bits)
    [Frame is marked: False]
    [Frame is ignored: False]
    [Protocols in frame: eth:ip:tcp]
    [Coloring Rule Name: TCP]
    [Coloring Rule String: tcp]
Ethernet II, Src: CadmusCo_41:0f:d0 (08:00:27:41:0f:d0), Dst: CadmusCo_62:0e:57 (08:00:27:62:0e:57)
    Destination: CadmusCo_62:0e:57 (08:00:27:62:0e:57)
        Address: CadmusCo_62:0e:57 (08:00:27:62:0e:57)
        .... ..0. .... .... .... .... = LG bit: Globally unique address (factory default)
        .... ...0 .... .... .... .... = IG bit: Individual address (unicast)
    Source: CadmusCo_41:0f:d0 (08:00:27:41:0f:d0)
        Address: CadmusCo_41:0f:d0 (08:00:27:41:0f:d0)
        .... ..0. .... .... .... .... = LG bit: Globally unique address (factory default)
        .... ...0 .... .... .... .... = IG bit: Individual address (unicast)
    Type: IP (0x0800)
Internet Protocol Version 4, Src: 10.73.14.5 (10.73.14.5), Dst: 10.2.73.5 (10.2.73.5)
    Version: 4
    Header length: 20 bytes
    Differentiated Services Field: 0x00 (DSCP 0x00: Default; ECN: 0x00: Not-ECT (Not ECN-Capable Transport))
        0000 00.. = Differentiated Services Codepoint: Default (0x00)
        .... ..00 = Explicit Congestion Notification: Not-ECT (Not ECN-Capable Transport) (0x00)
    Total Length: 96
    Identification: 0x9ce6 (40166)
    Flags: 0x02 (Don't Fragment)
        0... .... = Reserved bit: Not set
        .1.. .... = Don't fragment: Set
        ..0. .... = More fragments: Not set
    Fragment offset: 0
    Time to live: 64
    Protocol: TCP (6)
    Header checksum: 0x325d [validation disabled]
        [Good: False]
        [Bad: False]
    Source: 10.73.14.5 (10.73.14.5)
    Destination: 10.2.73.5 (10.2.73.5)
Transmission Control Protocol, Src Port: ssh (22), Dst Port: 57064 (57064), Seq: 1594, Ack: 1645, Len: 44
    Source port: ssh (22)
    Destination port: 57064 (57064)
    [Stream index: 0]
    Sequence number: 1594    (relative sequence number)
    [Next sequence number: 1638    (relative sequence number)]
    Acknowledgment number: 1645    (relative ack number)
    Header length: 32 bytes
    Flags: 0x018 (PSH, ACK)
        000. .... .... = Reserved: Not set
        ...0 .... .... = Nonce: Not set
        .... 0... .... = Congestion Window Reduced (CWR): Not set
        .... .0.. .... = ECN-Echo: Not set
        .... ..0. .... = Urgent: Not set
        .... ...1 .... = Acknowledgment: Set
        .... .... 1... = Push: Set
        .... .... .0.. = Reset: Not set
        .... .... ..0. = Syn: Not set
        .... .... ...0 = Fin: Not set
    Window size value: 250
    [Calculated window size: 32000]
    [Window size scaling factor: 128]
    Checksum: 0x6ba7 [validation disabled]
        [Good Checksum: False]
        [Bad Checksum: False]
    Options: (12 bytes), No-Operation (NOP), No-Operation (NOP), Timestamps
        No-Operation (NOP)
            Type: 1
                0... .... = Copy on fragmentation: No
                .00. .... = Class: Control (0)
                ...0 0001 = Number: No-Operation (NOP) (1)
        No-Operation (NOP)
            Type: 1
                0... .... = Copy on fragmentation: No
                .00. .... = Class: Control (0)
                ...0 0001 = Number: No-Operation (NOP) (1)
        Timestamps: TSval 2126244, TSecr 368422011
            Kind: Timestamp (8)
            Length: 10
            Timestamp value: 2126244
            Timestamp echo reply: 368422011
    [SEQ/ACK analysis]
        [Bytes in flight: 44]
    TCP segment data (44 bytes)

0000  08 00 27 62 0e 57 08 00 27 41 0f d0 08 00 45 00   ..'b.W..'A....E.
0010  00 60 9c e6 40 00 40 06 32 5d 0a 49 0e 05 0a 02   .`..@.@.2].I....
0020  49 05 00 16 de e8 d9 66 f9 90 b7 d9 53 4a 80 18   I......f....SJ..
0030  00 fa 6b a7 00 00 01 01 08 0a 00 20 71 a4 15 f5   ..k........ q...
0040  ac 7b 39 6b 81 70 47 01 0b 26 7e cb 24 5a fd 55   .{9k.pG..&~.$Z.U
0050  a6 4a 6e e4 e2 e3 b1 1a 4f 0f 1a 39 f2 d0 12 af   .Jn.....O..9....
0060  73 dc 95 4a 47 ae 3b bb 9f 44 b4 18 8a 47         s..JG.;..D...G
