No.     Time           Source                Destination           Protocol Length Info
      1 0.000000000    10.73.14.5            192.168.0.1           DNS      70     Standard query 0x8a41  A google.com

Frame 1: 70 bytes on wire (560 bits), 70 bytes captured (560 bits) on interface 0
    Interface id: 0
    Encapsulation type: Ethernet (1)
    Arrival Time: Oct 23, 2022 15:55:38.760394286 MSK
    [Time shift for this packet: 0.000000000 seconds]
    Epoch Time: 1666529738.760394286 seconds
    [Time delta from previous captured frame: 0.000000000 seconds]
    [Time delta from previous displayed frame: 0.000000000 seconds]
    [Time since reference or first frame: 0.000000000 seconds]
    Frame Number: 1
    Frame Length: 70 bytes (560 bits)
    Capture Length: 70 bytes (560 bits)
    [Frame is marked: False]
    [Frame is ignored: False]
    [Protocols in frame: eth:ip:udp:dns]
    [Coloring Rule Name: UDP]
    [Coloring Rule String: udp]
Ethernet II, Src: CadmusCo_41:0f:d0 (08:00:27:41:0f:d0), Dst: CadmusCo_62:0e:57 (08:00:27:62:0e:57)
    Destination: CadmusCo_62:0e:57 (08:00:27:62:0e:57)
        Address: CadmusCo_62:0e:57 (08:00:27:62:0e:57)
        .... ..0. .... .... .... .... = LG bit: Globally unique address (factory default)
        .... ...0 .... .... .... .... = IG bit: Individual address (unicast)
    Source: CadmusCo_41:0f:d0 (08:00:27:41:0f:d0)
        Address: CadmusCo_41:0f:d0 (08:00:27:41:0f:d0)
        .... ..0. .... .... .... .... = LG bit: Globally unique address (factory default)
        .... ...0 .... .... .... .... = IG bit: Individual address (unicast)
    Type: IP (0x0800)
Internet Protocol Version 4, Src: 10.73.14.5 (10.73.14.5), Dst: 192.168.0.1 (192.168.0.1)
    Version: 4
    Header length: 20 bytes
    Differentiated Services Field: 0x00 (DSCP 0x00: Default; ECN: 0x00: Not-ECT (Not ECN-Capable Transport))
        0000 00.. = Differentiated Services Codepoint: Default (0x00)
        .... ..00 = Explicit Congestion Notification: Not-ECT (Not ECN-Capable Transport) (0x00)
    Total Length: 56
    Identification: 0x3eda (16090)
    Flags: 0x02 (Don't Fragment)
        0... .... = Reserved bit: Not set
        .1.. .... = Don't fragment: Set
        ..0. .... = More fragments: Not set
    Fragment offset: 0
    Time to live: 64
    Protocol: UDP (17)
    Header checksum: 0x22e4 [validation disabled]
        [Good: False]
        [Bad: False]
    Source: 10.73.14.5 (10.73.14.5)
    Destination: 192.168.0.1 (192.168.0.1)
User Datagram Protocol, Src Port: 53042 (53042), Dst Port: domain (53)
    Source port: 53042 (53042)
    Destination port: domain (53)
    Length: 36
    Checksum: 0xd92c [validation disabled]
        [Good Checksum: False]
        [Bad Checksum: False]
Domain Name System (query)
    [Response In: 3]
    Transaction ID: 0x8a41
    Flags: 0x0100 Standard query
        0... .... .... .... = Response: Message is a query
        .000 0... .... .... = Opcode: Standard query (0)
        .... ..0. .... .... = Truncated: Message is not truncated
        .... ...1 .... .... = Recursion desired: Do query recursively
        .... .... .0.. .... = Z: reserved (0)
        .... .... ...0 .... = Non-authenticated data: Unacceptable
    Questions: 1
    Answer RRs: 0
    Authority RRs: 0
    Additional RRs: 0
    Queries
        google.com: type A, class IN
            Name: google.com
            Type: A (Host address)
            Class: IN (0x0001)

0000  08 00 27 62 0e 57 08 00 27 41 0f d0 08 00 45 00   ..'b.W..'A....E.
0010  00 38 3e da 40 00 40 11 22 e4 0a 49 0e 05 c0 a8   .8>.@.@."..I....
0020  00 01 cf 32 00 35 00 24 d9 2c 8a 41 01 00 00 01   ...2.5.$.,.A....
0030  00 00 00 00 00 00 06 67 6f 6f 67 6c 65 03 63 6f   .......google.co
0040  6d 00 00 01 00 01                                 m.....
No.     Time           Source                Destination           Protocol Length Info
      2 0.000038485    10.73.14.5            192.168.0.1           DNS      70     Standard query 0xf2cf  AAAA google.com

Frame 2: 70 bytes on wire (560 bits), 70 bytes captured (560 bits) on interface 0
    Interface id: 0
    Encapsulation type: Ethernet (1)
    Arrival Time: Oct 23, 2022 15:55:38.760432771 MSK
    [Time shift for this packet: 0.000000000 seconds]
    Epoch Time: 1666529738.760432771 seconds
    [Time delta from previous captured frame: 0.000038485 seconds]
    [Time delta from previous displayed frame: 0.000038485 seconds]
    [Time since reference or first frame: 0.000038485 seconds]
    Frame Number: 2
    Frame Length: 70 bytes (560 bits)
    Capture Length: 70 bytes (560 bits)
    [Frame is marked: False]
    [Frame is ignored: False]
    [Protocols in frame: eth:ip:udp:dns]
    [Coloring Rule Name: UDP]
    [Coloring Rule String: udp]
Ethernet II, Src: CadmusCo_41:0f:d0 (08:00:27:41:0f:d0), Dst: CadmusCo_62:0e:57 (08:00:27:62:0e:57)
    Destination: CadmusCo_62:0e:57 (08:00:27:62:0e:57)
        Address: CadmusCo_62:0e:57 (08:00:27:62:0e:57)
        .... ..0. .... .... .... .... = LG bit: Globally unique address (factory default)
        .... ...0 .... .... .... .... = IG bit: Individual address (unicast)
    Source: CadmusCo_41:0f:d0 (08:00:27:41:0f:d0)
        Address: CadmusCo_41:0f:d0 (08:00:27:41:0f:d0)
        .... ..0. .... .... .... .... = LG bit: Globally unique address (factory default)
        .... ...0 .... .... .... .... = IG bit: Individual address (unicast)
    Type: IP (0x0800)
Internet Protocol Version 4, Src: 10.73.14.5 (10.73.14.5), Dst: 192.168.0.1 (192.168.0.1)
    Version: 4
    Header length: 20 bytes
    Differentiated Services Field: 0x00 (DSCP 0x00: Default; ECN: 0x00: Not-ECT (Not ECN-Capable Transport))
        0000 00.. = Differentiated Services Codepoint: Default (0x00)
        .... ..00 = Explicit Congestion Notification: Not-ECT (Not ECN-Capable Transport) (0x00)
    Total Length: 56
    Identification: 0x3edb (16091)
    Flags: 0x02 (Don't Fragment)
        0... .... = Reserved bit: Not set
        .1.. .... = Don't fragment: Set
        ..0. .... = More fragments: Not set
    Fragment offset: 0
    Time to live: 64
    Protocol: UDP (17)
    Header checksum: 0x22e3 [validation disabled]
        [Good: False]
        [Bad: False]
    Source: 10.73.14.5 (10.73.14.5)
    Destination: 192.168.0.1 (192.168.0.1)
User Datagram Protocol, Src Port: 53042 (53042), Dst Port: domain (53)
    Source port: 53042 (53042)
    Destination port: domain (53)
    Length: 36
    Checksum: 0xd92c [validation disabled]
        [Good Checksum: False]
        [Bad Checksum: False]
Domain Name System (query)
    [Response In: 4]
    Transaction ID: 0xf2cf
    Flags: 0x0100 Standard query
        0... .... .... .... = Response: Message is a query
        .000 0... .... .... = Opcode: Standard query (0)
        .... ..0. .... .... = Truncated: Message is not truncated
        .... ...1 .... .... = Recursion desired: Do query recursively
        .... .... .0.. .... = Z: reserved (0)
        .... .... ...0 .... = Non-authenticated data: Unacceptable
    Questions: 1
    Answer RRs: 0
    Authority RRs: 0
    Additional RRs: 0
    Queries
        google.com: type AAAA, class IN
            Name: google.com
            Type: AAAA (IPv6 address)
            Class: IN (0x0001)

0000  08 00 27 62 0e 57 08 00 27 41 0f d0 08 00 45 00   ..'b.W..'A....E.
0010  00 38 3e db 40 00 40 11 22 e3 0a 49 0e 05 c0 a8   .8>.@.@."..I....
0020  00 01 cf 32 00 35 00 24 d9 2c f2 cf 01 00 00 01   ...2.5.$.,......
0030  00 00 00 00 00 00 06 67 6f 6f 67 6c 65 03 63 6f   .......google.co
0040  6d 00 00 1c 00 01                                 m.....
No.     Time           Source                Destination           Protocol Length Info
      3 0.043794750    192.168.0.1           10.73.14.5            DNS      86     Standard query response 0x8a41  A 216.58.215.110

Frame 3: 86 bytes on wire (688 bits), 86 bytes captured (688 bits) on interface 0
    Interface id: 0
    Encapsulation type: Ethernet (1)
    Arrival Time: Oct 23, 2022 15:55:38.804189036 MSK
    [Time shift for this packet: 0.000000000 seconds]
    Epoch Time: 1666529738.804189036 seconds
    [Time delta from previous captured frame: 0.043756265 seconds]
    [Time delta from previous displayed frame: 0.043756265 seconds]
    [Time since reference or first frame: 0.043794750 seconds]
    Frame Number: 3
    Frame Length: 86 bytes (688 bits)
    Capture Length: 86 bytes (688 bits)
    [Frame is marked: False]
    [Frame is ignored: False]
    [Protocols in frame: eth:ip:udp:dns]
    [Coloring Rule Name: UDP]
    [Coloring Rule String: udp]
Ethernet II, Src: CadmusCo_62:0e:57 (08:00:27:62:0e:57), Dst: CadmusCo_41:0f:d0 (08:00:27:41:0f:d0)
    Destination: CadmusCo_41:0f:d0 (08:00:27:41:0f:d0)
        Address: CadmusCo_41:0f:d0 (08:00:27:41:0f:d0)
        .... ..0. .... .... .... .... = LG bit: Globally unique address (factory default)
        .... ...0 .... .... .... .... = IG bit: Individual address (unicast)
    Source: CadmusCo_62:0e:57 (08:00:27:62:0e:57)
        Address: CadmusCo_62:0e:57 (08:00:27:62:0e:57)
        .... ..0. .... .... .... .... = LG bit: Globally unique address (factory default)
        .... ...0 .... .... .... .... = IG bit: Individual address (unicast)
    Type: IP (0x0800)
Internet Protocol Version 4, Src: 192.168.0.1 (192.168.0.1), Dst: 10.73.14.5 (10.73.14.5)
    Version: 4
    Header length: 20 bytes
    Differentiated Services Field: 0x00 (DSCP 0x00: Default; ECN: 0x00: Not-ECT (Not ECN-Capable Transport))
        0000 00.. = Differentiated Services Codepoint: Default (0x00)
        .... ..00 = Explicit Congestion Notification: Not-ECT (Not ECN-Capable Transport) (0x00)
    Total Length: 72
    Identification: 0x6259 (25177)
    Flags: 0x00
        0... .... = Reserved bit: Not set
        .0.. .... = Don't fragment: Not set
        ..0. .... = More fragments: Not set
    Fragment offset: 0
    Time to live: 57
    Protocol: UDP (17)
    Header checksum: 0x4655 [validation disabled]
        [Good: False]
        [Bad: False]
    Source: 192.168.0.1 (192.168.0.1)
    Destination: 10.73.14.5 (10.73.14.5)
User Datagram Protocol, Src Port: domain (53), Dst Port: 53042 (53042)
    Source port: domain (53)
    Destination port: 53042 (53042)
    Length: 52
    Checksum: 0xc7ea [validation disabled]
        [Good Checksum: False]
        [Bad Checksum: False]
Domain Name System (response)
    [Request In: 1]
    [Time: 0.043794750 seconds]
    Transaction ID: 0x8a41
    Flags: 0x8180 Standard query response, No error
        1... .... .... .... = Response: Message is a response
        .000 0... .... .... = Opcode: Standard query (0)
        .... .0.. .... .... = Authoritative: Server is not an authority for domain
        .... ..0. .... .... = Truncated: Message is not truncated
        .... ...1 .... .... = Recursion desired: Do query recursively
        .... .... 1... .... = Recursion available: Server can do recursive queries
        .... .... .0.. .... = Z: reserved (0)
        .... .... ..0. .... = Answer authenticated: Answer/authority portion was not authenticated by the server
        .... .... ...0 .... = Non-authenticated data: Unacceptable
        .... .... .... 0000 = Reply code: No error (0)
    Questions: 1
    Answer RRs: 1
    Authority RRs: 0
    Additional RRs: 0
    Queries
        google.com: type A, class IN
            Name: google.com
            Type: A (Host address)
            Class: IN (0x0001)
    Answers
        google.com: type A, class IN, addr 216.58.215.110
            Name: google.com
            Type: A (Host address)
            Class: IN (0x0001)
            Time to live: 4 minutes, 20 seconds
            Data length: 4
            Addr: 216.58.215.110 (216.58.215.110)

0000  08 00 27 41 0f d0 08 00 27 62 0e 57 08 00 45 00   ..'A....'b.W..E.
0010  00 48 62 59 00 00 39 11 46 55 c0 a8 00 01 0a 49   .HbY..9.FU.....I
0020  0e 05 00 35 cf 32 00 34 c7 ea 8a 41 81 80 00 01   ...5.2.4...A....
0030  00 01 00 00 00 00 06 67 6f 6f 67 6c 65 03 63 6f   .......google.co
0040  6d 00 00 01 00 01 c0 0c 00 01 00 01 00 00 01 04   m...............
0050  00 04 d8 3a d7 6e                                 ...:.n
No.     Time           Source                Destination           Protocol Length Info
      4 0.045583956    192.168.0.1           10.73.14.5            DNS      98     Standard query response 0xf2cf  AAAA 2a00:1450:401b:807::200e

Frame 4: 98 bytes on wire (784 bits), 98 bytes captured (784 bits) on interface 0
    Interface id: 0
    Encapsulation type: Ethernet (1)
    Arrival Time: Oct 23, 2022 15:55:38.805978242 MSK
    [Time shift for this packet: 0.000000000 seconds]
    Epoch Time: 1666529738.805978242 seconds
    [Time delta from previous captured frame: 0.001789206 seconds]
    [Time delta from previous displayed frame: 0.001789206 seconds]
    [Time since reference or first frame: 0.045583956 seconds]
    Frame Number: 4
    Frame Length: 98 bytes (784 bits)
    Capture Length: 98 bytes (784 bits)
    [Frame is marked: False]
    [Frame is ignored: False]
    [Protocols in frame: eth:ip:udp:dns]
    [Coloring Rule Name: UDP]
    [Coloring Rule String: udp]
Ethernet II, Src: CadmusCo_62:0e:57 (08:00:27:62:0e:57), Dst: CadmusCo_41:0f:d0 (08:00:27:41:0f:d0)
    Destination: CadmusCo_41:0f:d0 (08:00:27:41:0f:d0)
        Address: CadmusCo_41:0f:d0 (08:00:27:41:0f:d0)
        .... ..0. .... .... .... .... = LG bit: Globally unique address (factory default)
        .... ...0 .... .... .... .... = IG bit: Individual address (unicast)
    Source: CadmusCo_62:0e:57 (08:00:27:62:0e:57)
        Address: CadmusCo_62:0e:57 (08:00:27:62:0e:57)
        .... ..0. .... .... .... .... = LG bit: Globally unique address (factory default)
        .... ...0 .... .... .... .... = IG bit: Individual address (unicast)
    Type: IP (0x0800)
Internet Protocol Version 4, Src: 192.168.0.1 (192.168.0.1), Dst: 10.73.14.5 (10.73.14.5)
    Version: 4
    Header length: 20 bytes
    Differentiated Services Field: 0x00 (DSCP 0x00: Default; ECN: 0x00: Not-ECT (Not ECN-Capable Transport))
        0000 00.. = Differentiated Services Codepoint: Default (0x00)
        .... ..00 = Explicit Congestion Notification: Not-ECT (Not ECN-Capable Transport) (0x00)
    Total Length: 84
    Identification: 0x625a (25178)
    Flags: 0x00
        0... .... = Reserved bit: Not set
        .0.. .... = Don't fragment: Not set
        ..0. .... = More fragments: Not set
    Fragment offset: 0
    Time to live: 57
    Protocol: UDP (17)
    Header checksum: 0x4648 [validation disabled]
        [Good: False]
        [Bad: False]
    Source: 192.168.0.1 (192.168.0.1)
    Destination: 10.73.14.5 (10.73.14.5)
User Datagram Protocol, Src Port: domain (53), Dst Port: 53042 (53042)
    Source port: domain (53)
    Destination port: 53042 (53042)
    Length: 64
    Checksum: 0x690b [validation disabled]
        [Good Checksum: False]
        [Bad Checksum: False]
Domain Name System (response)
    [Request In: 2]
    [Time: 0.045545471 seconds]
    Transaction ID: 0xf2cf
    Flags: 0x8180 Standard query response, No error
        1... .... .... .... = Response: Message is a response
        .000 0... .... .... = Opcode: Standard query (0)
        .... .0.. .... .... = Authoritative: Server is not an authority for domain
        .... ..0. .... .... = Truncated: Message is not truncated
        .... ...1 .... .... = Recursion desired: Do query recursively
        .... .... 1... .... = Recursion available: Server can do recursive queries
        .... .... .0.. .... = Z: reserved (0)
        .... .... ..0. .... = Answer authenticated: Answer/authority portion was not authenticated by the server
        .... .... ...0 .... = Non-authenticated data: Unacceptable
        .... .... .... 0000 = Reply code: No error (0)
    Questions: 1
    Answer RRs: 1
    Authority RRs: 0
    Additional RRs: 0
    Queries
        google.com: type AAAA, class IN
            Name: google.com
            Type: AAAA (IPv6 address)
            Class: IN (0x0001)
    Answers
        google.com: type AAAA, class IN, addr 2a00:1450:401b:807::200e
            Name: google.com
            Type: AAAA (IPv6 address)
            Class: IN (0x0001)
            Time to live: 36 seconds
            Data length: 16
            Addr: 2a00:1450:401b:807::200e

0000  08 00 27 41 0f d0 08 00 27 62 0e 57 08 00 45 00   ..'A....'b.W..E.
0010  00 54 62 5a 00 00 39 11 46 48 c0 a8 00 01 0a 49   .TbZ..9.FH.....I
0020  0e 05 00 35 cf 32 00 40 69 0b f2 cf 81 80 00 01   ...5.2.@i.......
0030  00 01 00 00 00 00 06 67 6f 6f 67 6c 65 03 63 6f   .......google.co
0040  6d 00 00 1c 00 01 c0 0c 00 1c 00 01 00 00 00 24   m..............$
0050  00 10 2a 00 14 50 40 1b 08 07 00 00 00 00 00 00   ..*..P@.........
0060  20 0e                                              .
No.     Time           Source                Destination           Protocol Length Info
      5 0.051284078    10.73.14.5            216.58.215.110        UDP      74     Source port: 36433  Destination port: traceroute

Frame 5: 74 bytes on wire (592 bits), 74 bytes captured (592 bits) on interface 0
    Interface id: 0
    Encapsulation type: Ethernet (1)
    Arrival Time: Oct 23, 2022 15:55:38.811678364 MSK
    [Time shift for this packet: 0.000000000 seconds]
    Epoch Time: 1666529738.811678364 seconds
    [Time delta from previous captured frame: 0.005700122 seconds]
    [Time delta from previous displayed frame: 0.005700122 seconds]
    [Time since reference or first frame: 0.051284078 seconds]
    Frame Number: 5
    Frame Length: 74 bytes (592 bits)
    Capture Length: 74 bytes (592 bits)
    [Frame is marked: False]
    [Frame is ignored: False]
    [Protocols in frame: eth:ip:udp:data]
    [Coloring Rule Name: TTL low or unexpected]
    [Coloring Rule String: ( ! ip.dst == 224.0.0.0/4 && ip.ttl < 5 && !pim) || (ip.dst == 224.0.0.0/24 && ip.ttl != 1)]
Ethernet II, Src: CadmusCo_41:0f:d0 (08:00:27:41:0f:d0), Dst: CadmusCo_62:0e:57 (08:00:27:62:0e:57)
    Destination: CadmusCo_62:0e:57 (08:00:27:62:0e:57)
        Address: CadmusCo_62:0e:57 (08:00:27:62:0e:57)
        .... ..0. .... .... .... .... = LG bit: Globally unique address (factory default)
        .... ...0 .... .... .... .... = IG bit: Individual address (unicast)
    Source: CadmusCo_41:0f:d0 (08:00:27:41:0f:d0)
        Address: CadmusCo_41:0f:d0 (08:00:27:41:0f:d0)
        .... ..0. .... .... .... .... = LG bit: Globally unique address (factory default)
        .... ...0 .... .... .... .... = IG bit: Individual address (unicast)
    Type: IP (0x0800)
Internet Protocol Version 4, Src: 10.73.14.5 (10.73.14.5), Dst: 216.58.215.110 (216.58.215.110)
    Version: 4
    Header length: 20 bytes
    Differentiated Services Field: 0x00 (DSCP 0x00: Default; ECN: 0x00: Not-ECT (Not ECN-Capable Transport))
        0000 00.. = Differentiated Services Codepoint: Default (0x00)
        .... ..00 = Explicit Congestion Notification: Not-ECT (Not ECN-Capable Transport) (0x00)
    Total Length: 60
    Identification: 0x3d39 (15673)
    Flags: 0x00
        0... .... = Reserved bit: Not set
        .0.. .... = Don't fragment: Not set
        ..0. .... = More fragments: Not set
    Fragment offset: 0
    Time to live: 1
        [Expert Info (Note/Sequence): "Time To Live" only 1]
            [Message: "Time To Live" only 1]
            [Severity level: Note]
            [Group: Sequence]
    Protocol: UDP (17)
    Header checksum: 0xb481 [validation disabled]
        [Good: False]
        [Bad: False]
    Source: 10.73.14.5 (10.73.14.5)
    Destination: 216.58.215.110 (216.58.215.110)
User Datagram Protocol, Src Port: 36433 (36433), Dst Port: traceroute (33434)
    Source port: 36433 (36433)
    Destination port: traceroute (33434)
    Length: 40
    Checksum: 0xc830 [validation disabled]
        [Good Checksum: False]
        [Bad Checksum: False]
Data (32 bytes)
    Data: 404142434445464748494a4b4c4d4e4f5051525354555657...
    [Length: 32]

0000  08 00 27 62 0e 57 08 00 27 41 0f d0 08 00 45 00   ..'b.W..'A....E.
0010  00 3c 3d 39 00 00 01 11 b4 81 0a 49 0e 05 d8 3a   .<=9.......I...:
0020  d7 6e 8e 51 82 9a 00 28 c8 30 40 41 42 43 44 45   .n.Q...(.0@ABCDE
0030  46 47 48 49 4a 4b 4c 4d 4e 4f 50 51 52 53 54 55   FGHIJKLMNOPQRSTU
0040  56 57 58 59 5a 5b 5c 5d 5e 5f                     VWXYZ[\]^_
No.     Time           Source                Destination           Protocol Length Info
      6 0.051398019    10.73.14.5            216.58.215.110        UDP      74     Source port: 47274  Destination port: 33435

Frame 6: 74 bytes on wire (592 bits), 74 bytes captured (592 bits) on interface 0
    Interface id: 0
    Encapsulation type: Ethernet (1)
    Arrival Time: Oct 23, 2022 15:55:38.811792305 MSK
    [Time shift for this packet: 0.000000000 seconds]
    Epoch Time: 1666529738.811792305 seconds
    [Time delta from previous captured frame: 0.000113941 seconds]
    [Time delta from previous displayed frame: 0.000113941 seconds]
    [Time since reference or first frame: 0.051398019 seconds]
    Frame Number: 6
    Frame Length: 74 bytes (592 bits)
    Capture Length: 74 bytes (592 bits)
    [Frame is marked: False]
    [Frame is ignored: False]
    [Protocols in frame: eth:ip:udp:data]
    [Coloring Rule Name: TTL low or unexpected]
    [Coloring Rule String: ( ! ip.dst == 224.0.0.0/4 && ip.ttl < 5 && !pim) || (ip.dst == 224.0.0.0/24 && ip.ttl != 1)]
Ethernet II, Src: CadmusCo_41:0f:d0 (08:00:27:41:0f:d0), Dst: CadmusCo_62:0e:57 (08:00:27:62:0e:57)
    Destination: CadmusCo_62:0e:57 (08:00:27:62:0e:57)
        Address: CadmusCo_62:0e:57 (08:00:27:62:0e:57)
        .... ..0. .... .... .... .... = LG bit: Globally unique address (factory default)
        .... ...0 .... .... .... .... = IG bit: Individual address (unicast)
    Source: CadmusCo_41:0f:d0 (08:00:27:41:0f:d0)
        Address: CadmusCo_41:0f:d0 (08:00:27:41:0f:d0)
        .... ..0. .... .... .... .... = LG bit: Globally unique address (factory default)
        .... ...0 .... .... .... .... = IG bit: Individual address (unicast)
    Type: IP (0x0800)
Internet Protocol Version 4, Src: 10.73.14.5 (10.73.14.5), Dst: 216.58.215.110 (216.58.215.110)
    Version: 4
    Header length: 20 bytes
    Differentiated Services Field: 0x00 (DSCP 0x00: Default; ECN: 0x00: Not-ECT (Not ECN-Capable Transport))
        0000 00.. = Differentiated Services Codepoint: Default (0x00)
        .... ..00 = Explicit Congestion Notification: Not-ECT (Not ECN-Capable Transport) (0x00)
    Total Length: 60
    Identification: 0x3d3a (15674)
    Flags: 0x00
        0... .... = Reserved bit: Not set
        .0.. .... = Don't fragment: Not set
        ..0. .... = More fragments: Not set
    Fragment offset: 0
    Time to live: 1
        [Expert Info (Note/Sequence): "Time To Live" only 1]
            [Message: "Time To Live" only 1]
            [Severity level: Note]
            [Group: Sequence]
    Protocol: UDP (17)
    Header checksum: 0xb480 [validation disabled]
        [Good: False]
        [Bad: False]
    Source: 10.73.14.5 (10.73.14.5)
    Destination: 216.58.215.110 (216.58.215.110)
User Datagram Protocol, Src Port: 47274 (47274), Dst Port: 33435 (33435)
    Source port: 47274 (47274)
    Destination port: 33435 (33435)
        [Expert Info (Chat/Sequence): Possible traceroute: hop #1, attempt #1]
            [Message: Possible traceroute: hop #1, attempt #1]
            [Severity level: Chat]
            [Group: Sequence]
    Length: 40
    Checksum: 0xc830 [validation disabled]
        [Good Checksum: False]
        [Bad Checksum: False]
Data (32 bytes)
    Data: 404142434445464748494a4b4c4d4e4f5051525354555657...
    [Length: 32]

0000  08 00 27 62 0e 57 08 00 27 41 0f d0 08 00 45 00   ..'b.W..'A....E.
0010  00 3c 3d 3a 00 00 01 11 b4 80 0a 49 0e 05 d8 3a   .<=:.......I...:
0020  d7 6e b8 aa 82 9b 00 28 c8 30 40 41 42 43 44 45   .n.....(.0@ABCDE
0030  46 47 48 49 4a 4b 4c 4d 4e 4f 50 51 52 53 54 55   FGHIJKLMNOPQRSTU
0040  56 57 58 59 5a 5b 5c 5d 5e 5f                     VWXYZ[\]^_
No.     Time           Source                Destination           Protocol Length Info
      7 0.051482858    10.73.14.254          10.73.14.5            ICMP     102    Time-to-live exceeded (Time to live exceeded in transit)

Frame 7: 102 bytes on wire (816 bits), 102 bytes captured (816 bits) on interface 0
    Interface id: 0
    Encapsulation type: Ethernet (1)
    Arrival Time: Oct 23, 2022 15:55:38.811877144 MSK
    [Time shift for this packet: 0.000000000 seconds]
    Epoch Time: 1666529738.811877144 seconds
    [Time delta from previous captured frame: 0.000084839 seconds]
    [Time delta from previous displayed frame: 0.000084839 seconds]
    [Time since reference or first frame: 0.051482858 seconds]
    Frame Number: 7
    Frame Length: 102 bytes (816 bits)
    Capture Length: 102 bytes (816 bits)
    [Frame is marked: False]
    [Frame is ignored: False]
    [Protocols in frame: eth:ip:icmp:ip:udp:data]
    [Coloring Rule Name: ICMP errors]
    [Coloring Rule String: icmp.type eq 3 || icmp.type eq 4 || icmp.type eq 5 || icmp.type eq 11 || icmpv6.type eq 1 || icmpv6.type eq 2 || icmpv6.type eq 3 || icmpv6.type eq 4]
Ethernet II, Src: CadmusCo_62:0e:57 (08:00:27:62:0e:57), Dst: CadmusCo_41:0f:d0 (08:00:27:41:0f:d0)
    Destination: CadmusCo_41:0f:d0 (08:00:27:41:0f:d0)
        Address: CadmusCo_41:0f:d0 (08:00:27:41:0f:d0)
        .... ..0. .... .... .... .... = LG bit: Globally unique address (factory default)
        .... ...0 .... .... .... .... = IG bit: Individual address (unicast)
    Source: CadmusCo_62:0e:57 (08:00:27:62:0e:57)
        Address: CadmusCo_62:0e:57 (08:00:27:62:0e:57)
        .... ..0. .... .... .... .... = LG bit: Globally unique address (factory default)
        .... ...0 .... .... .... .... = IG bit: Individual address (unicast)
    Type: IP (0x0800)
Internet Protocol Version 4, Src: 10.73.14.254 (10.73.14.254), Dst: 10.73.14.5 (10.73.14.5)
    Version: 4
    Header length: 20 bytes
    Differentiated Services Field: 0xc0 (DSCP 0x30: Class Selector 6; ECN: 0x00: Not-ECT (Not ECN-Capable Transport))
        1100 00.. = Differentiated Services Codepoint: Class Selector 6 (0x30)
        .... ..00 = Explicit Congestion Notification: Not-ECT (Not ECN-Capable Transport) (0x00)
    Total Length: 88
    Identification: 0x8d5b (36187)
    Flags: 0x00
        0... .... = Reserved bit: Not set
        .0.. .... = Don't fragment: Not set
        ..0. .... = More fragments: Not set
    Fragment offset: 0
    Time to live: 64
    Protocol: ICMP (1)
    Header checksum: 0xbaf5 [validation disabled]
        [Good: False]
        [Bad: False]
    Source: 10.73.14.254 (10.73.14.254)
    Destination: 10.73.14.5 (10.73.14.5)
Internet Control Message Protocol
    Type: 11 (Time-to-live exceeded)
    Code: 0 (Time to live exceeded in transit)
    Checksum: 0xbd30 [correct]
    Internet Protocol Version 4, Src: 10.73.14.5 (10.73.14.5), Dst: 216.58.215.110 (216.58.215.110)
        Version: 4
        Header length: 20 bytes
        Differentiated Services Field: 0x00 (DSCP 0x00: Default; ECN: 0x00: Not-ECT (Not ECN-Capable Transport))
            0000 00.. = Differentiated Services Codepoint: Default (0x00)
            .... ..00 = Explicit Congestion Notification: Not-ECT (Not ECN-Capable Transport) (0x00)
        Total Length: 60
        Identification: 0x3d39 (15673)
        Flags: 0x00
            0... .... = Reserved bit: Not set
            .0.. .... = Don't fragment: Not set
            ..0. .... = More fragments: Not set
        Fragment offset: 0
        Time to live: 1
            [Expert Info (Note/Sequence): "Time To Live" only 1]
                [Message: "Time To Live" only 1]
                [Severity level: Note]
                [Group: Sequence]
        Protocol: UDP (17)
        Header checksum: 0xb481 [validation disabled]
            [Good: False]
            [Bad: False]
        Source: 10.73.14.5 (10.73.14.5)
        Destination: 216.58.215.110 (216.58.215.110)
    User Datagram Protocol, Src Port: 36433 (36433), Dst Port: traceroute (33434)
        Source port: 36433 (36433)
        Destination port: traceroute (33434)
        Length: 40
        Checksum: 0x31b6 [validation disabled]
            [Good Checksum: False]
            [Bad Checksum: False]
    Data (32 bytes)
        Data: 404142434445464748494a4b4c4d4e4f5051525354555657...
        [Length: 32]

0000  08 00 27 41 0f d0 08 00 27 62 0e 57 08 00 45 c0   ..'A....'b.W..E.
0010  00 58 8d 5b 00 00 40 01 ba f5 0a 49 0e fe 0a 49   .X.[..@....I...I
0020  0e 05 0b 00 bd 30 00 00 00 00 45 00 00 3c 3d 39   .....0....E..<=9
0030  00 00 01 11 b4 81 0a 49 0e 05 d8 3a d7 6e 8e 51   .......I...:.n.Q
0040  82 9a 00 28 31 b6 40 41 42 43 44 45 46 47 48 49   ...(1.@ABCDEFGHI
0050  4a 4b 4c 4d 4e 4f 50 51 52 53 54 55 56 57 58 59   JKLMNOPQRSTUVWXY
0060  5a 5b 5c 5d 5e 5f                                 Z[\]^_
No.     Time           Source                Destination           Protocol Length Info
      8 0.051539545    10.73.14.5            216.58.215.110        UDP      74     Source port: 50908  Destination port: 33436

Frame 8: 74 bytes on wire (592 bits), 74 bytes captured (592 bits) on interface 0
    Interface id: 0
    Encapsulation type: Ethernet (1)
    Arrival Time: Oct 23, 2022 15:55:38.811933831 MSK
    [Time shift for this packet: 0.000000000 seconds]
    Epoch Time: 1666529738.811933831 seconds
    [Time delta from previous captured frame: 0.000056687 seconds]
    [Time delta from previous displayed frame: 0.000056687 seconds]
    [Time since reference or first frame: 0.051539545 seconds]
    Frame Number: 8
    Frame Length: 74 bytes (592 bits)
    Capture Length: 74 bytes (592 bits)
    [Frame is marked: False]
    [Frame is ignored: False]
    [Protocols in frame: eth:ip:udp:data]
    [Coloring Rule Name: TTL low or unexpected]
    [Coloring Rule String: ( ! ip.dst == 224.0.0.0/4 && ip.ttl < 5 && !pim) || (ip.dst == 224.0.0.0/24 && ip.ttl != 1)]
Ethernet II, Src: CadmusCo_41:0f:d0 (08:00:27:41:0f:d0), Dst: CadmusCo_62:0e:57 (08:00:27:62:0e:57)
    Destination: CadmusCo_62:0e:57 (08:00:27:62:0e:57)
        Address: CadmusCo_62:0e:57 (08:00:27:62:0e:57)
        .... ..0. .... .... .... .... = LG bit: Globally unique address (factory default)
        .... ...0 .... .... .... .... = IG bit: Individual address (unicast)
    Source: CadmusCo_41:0f:d0 (08:00:27:41:0f:d0)
        Address: CadmusCo_41:0f:d0 (08:00:27:41:0f:d0)
        .... ..0. .... .... .... .... = LG bit: Globally unique address (factory default)
        .... ...0 .... .... .... .... = IG bit: Individual address (unicast)
    Type: IP (0x0800)
Internet Protocol Version 4, Src: 10.73.14.5 (10.73.14.5), Dst: 216.58.215.110 (216.58.215.110)
    Version: 4
    Header length: 20 bytes
    Differentiated Services Field: 0x00 (DSCP 0x00: Default; ECN: 0x00: Not-ECT (Not ECN-Capable Transport))
        0000 00.. = Differentiated Services Codepoint: Default (0x00)
        .... ..00 = Explicit Congestion Notification: Not-ECT (Not ECN-Capable Transport) (0x00)
    Total Length: 60
    Identification: 0x3d3b (15675)
    Flags: 0x00
        0... .... = Reserved bit: Not set
        .0.. .... = Don't fragment: Not set
        ..0. .... = More fragments: Not set
    Fragment offset: 0
    Time to live: 1
        [Expert Info (Note/Sequence): "Time To Live" only 1]
            [Message: "Time To Live" only 1]
            [Severity level: Note]
            [Group: Sequence]
    Protocol: UDP (17)
    Header checksum: 0xb47f [validation disabled]
        [Good: False]
        [Bad: False]
    Source: 10.73.14.5 (10.73.14.5)
    Destination: 216.58.215.110 (216.58.215.110)
User Datagram Protocol, Src Port: 50908 (50908), Dst Port: 33436 (33436)
    Source port: 50908 (50908)
    Destination port: 33436 (33436)
        [Expert Info (Chat/Sequence): Possible traceroute: hop #1, attempt #2]
            [Message: Possible traceroute: hop #1, attempt #2]
            [Severity level: Chat]
            [Group: Sequence]
    Length: 40
    Checksum: 0xc830 [validation disabled]
        [Good Checksum: False]
        [Bad Checksum: False]
Data (32 bytes)
    Data: 404142434445464748494a4b4c4d4e4f5051525354555657...
    [Length: 32]

0000  08 00 27 62 0e 57 08 00 27 41 0f d0 08 00 45 00   ..'b.W..'A....E.
0010  00 3c 3d 3b 00 00 01 11 b4 7f 0a 49 0e 05 d8 3a   .<=;.......I...:
0020  d7 6e c6 dc 82 9c 00 28 c8 30 40 41 42 43 44 45   .n.....(.0@ABCDE
0030  46 47 48 49 4a 4b 4c 4d 4e 4f 50 51 52 53 54 55   FGHIJKLMNOPQRSTU
0040  56 57 58 59 5a 5b 5c 5d 5e 5f                     VWXYZ[\]^_
No.     Time           Source                Destination           Protocol Length Info
      9 0.051657278    10.73.14.5            216.58.215.110        UDP      74     Source port: 38336  Destination port: 33437

Frame 9: 74 bytes on wire (592 bits), 74 bytes captured (592 bits) on interface 0
    Interface id: 0
    Encapsulation type: Ethernet (1)
    Arrival Time: Oct 23, 2022 15:55:38.812051564 MSK
    [Time shift for this packet: 0.000000000 seconds]
    Epoch Time: 1666529738.812051564 seconds
    [Time delta from previous captured frame: 0.000117733 seconds]
    [Time delta from previous displayed frame: 0.000117733 seconds]
    [Time since reference or first frame: 0.051657278 seconds]
    Frame Number: 9
    Frame Length: 74 bytes (592 bits)
    Capture Length: 74 bytes (592 bits)
    [Frame is marked: False]
    [Frame is ignored: False]
    [Protocols in frame: eth:ip:udp:data]
    [Coloring Rule Name: TTL low or unexpected]
    [Coloring Rule String: ( ! ip.dst == 224.0.0.0/4 && ip.ttl < 5 && !pim) || (ip.dst == 224.0.0.0/24 && ip.ttl != 1)]
Ethernet II, Src: CadmusCo_41:0f:d0 (08:00:27:41:0f:d0), Dst: CadmusCo_62:0e:57 (08:00:27:62:0e:57)
    Destination: CadmusCo_62:0e:57 (08:00:27:62:0e:57)
        Address: CadmusCo_62:0e:57 (08:00:27:62:0e:57)
        .... ..0. .... .... .... .... = LG bit: Globally unique address (factory default)
        .... ...0 .... .... .... .... = IG bit: Individual address (unicast)
    Source: CadmusCo_41:0f:d0 (08:00:27:41:0f:d0)
        Address: CadmusCo_41:0f:d0 (08:00:27:41:0f:d0)
        .... ..0. .... .... .... .... = LG bit: Globally unique address (factory default)
        .... ...0 .... .... .... .... = IG bit: Individual address (unicast)
    Type: IP (0x0800)
Internet Protocol Version 4, Src: 10.73.14.5 (10.73.14.5), Dst: 216.58.215.110 (216.58.215.110)
    Version: 4
    Header length: 20 bytes
    Differentiated Services Field: 0x00 (DSCP 0x00: Default; ECN: 0x00: Not-ECT (Not ECN-Capable Transport))
        0000 00.. = Differentiated Services Codepoint: Default (0x00)
        .... ..00 = Explicit Congestion Notification: Not-ECT (Not ECN-Capable Transport) (0x00)
    Total Length: 60
    Identification: 0x3d3c (15676)
    Flags: 0x00
        0... .... = Reserved bit: Not set
        .0.. .... = Don't fragment: Not set
        ..0. .... = More fragments: Not set
    Fragment offset: 0
    Time to live: 2
        [Expert Info (Note/Sequence): "Time To Live" only 2]
            [Message: "Time To Live" only 2]
            [Severity level: Note]
            [Group: Sequence]
    Protocol: UDP (17)
    Header checksum: 0xb37e [validation disabled]
        [Good: False]
        [Bad: False]
    Source: 10.73.14.5 (10.73.14.5)
    Destination: 216.58.215.110 (216.58.215.110)
User Datagram Protocol, Src Port: 38336 (38336), Dst Port: 33437 (33437)
    Source port: 38336 (38336)
    Destination port: 33437 (33437)
        [Expert Info (Chat/Sequence): Possible traceroute: hop #1, attempt #3]
            [Message: Possible traceroute: hop #1, attempt #3]
            [Severity level: Chat]
            [Group: Sequence]
    Length: 40
    Checksum: 0xc830 [validation disabled]
        [Good Checksum: False]
        [Bad Checksum: False]
Data (32 bytes)
    Data: 404142434445464748494a4b4c4d4e4f5051525354555657...
    [Length: 32]

0000  08 00 27 62 0e 57 08 00 27 41 0f d0 08 00 45 00   ..'b.W..'A....E.
0010  00 3c 3d 3c 00 00 02 11 b3 7e 0a 49 0e 05 d8 3a   .<=<.....~.I...:
0020  d7 6e 95 c0 82 9d 00 28 c8 30 40 41 42 43 44 45   .n.....(.0@ABCDE
0030  46 47 48 49 4a 4b 4c 4d 4e 4f 50 51 52 53 54 55   FGHIJKLMNOPQRSTU
0040  56 57 58 59 5a 5b 5c 5d 5e 5f                     VWXYZ[\]^_
No.     Time           Source                Destination           Protocol Length Info
     10 0.051785258    10.73.14.5            216.58.215.110        UDP      74     Source port: 41076  Destination port: 33438

Frame 10: 74 bytes on wire (592 bits), 74 bytes captured (592 bits) on interface 0
    Interface id: 0
    Encapsulation type: Ethernet (1)
    Arrival Time: Oct 23, 2022 15:55:38.812179544 MSK
    [Time shift for this packet: 0.000000000 seconds]
    Epoch Time: 1666529738.812179544 seconds
    [Time delta from previous captured frame: 0.000127980 seconds]
    [Time delta from previous displayed frame: 0.000127980 seconds]
    [Time since reference or first frame: 0.051785258 seconds]
    Frame Number: 10
    Frame Length: 74 bytes (592 bits)
    Capture Length: 74 bytes (592 bits)
    [Frame is marked: False]
    [Frame is ignored: False]
    [Protocols in frame: eth:ip:udp:data]
    [Coloring Rule Name: TTL low or unexpected]
    [Coloring Rule String: ( ! ip.dst == 224.0.0.0/4 && ip.ttl < 5 && !pim) || (ip.dst == 224.0.0.0/24 && ip.ttl != 1)]
Ethernet II, Src: CadmusCo_41:0f:d0 (08:00:27:41:0f:d0), Dst: CadmusCo_62:0e:57 (08:00:27:62:0e:57)
    Destination: CadmusCo_62:0e:57 (08:00:27:62:0e:57)
        Address: CadmusCo_62:0e:57 (08:00:27:62:0e:57)
        .... ..0. .... .... .... .... = LG bit: Globally unique address (factory default)
        .... ...0 .... .... .... .... = IG bit: Individual address (unicast)
    Source: CadmusCo_41:0f:d0 (08:00:27:41:0f:d0)
        Address: CadmusCo_41:0f:d0 (08:00:27:41:0f:d0)
        .... ..0. .... .... .... .... = LG bit: Globally unique address (factory default)
        .... ...0 .... .... .... .... = IG bit: Individual address (unicast)
    Type: IP (0x0800)
Internet Protocol Version 4, Src: 10.73.14.5 (10.73.14.5), Dst: 216.58.215.110 (216.58.215.110)
    Version: 4
    Header length: 20 bytes
    Differentiated Services Field: 0x00 (DSCP 0x00: Default; ECN: 0x00: Not-ECT (Not ECN-Capable Transport))
        0000 00.. = Differentiated Services Codepoint: Default (0x00)
        .... ..00 = Explicit Congestion Notification: Not-ECT (Not ECN-Capable Transport) (0x00)
    Total Length: 60
    Identification: 0x3d3d (15677)
    Flags: 0x00
        0... .... = Reserved bit: Not set
        .0.. .... = Don't fragment: Not set
        ..0. .... = More fragments: Not set
    Fragment offset: 0
    Time to live: 2
        [Expert Info (Note/Sequence): "Time To Live" only 2]
            [Message: "Time To Live" only 2]
            [Severity level: Note]
            [Group: Sequence]
    Protocol: UDP (17)
    Header checksum: 0xb37d [validation disabled]
        [Good: False]
        [Bad: False]
    Source: 10.73.14.5 (10.73.14.5)
    Destination: 216.58.215.110 (216.58.215.110)
User Datagram Protocol, Src Port: 41076 (41076), Dst Port: 33438 (33438)
    Source port: 41076 (41076)
    Destination port: 33438 (33438)
        [Expert Info (Chat/Sequence): Possible traceroute: hop #2, attempt #1]
            [Message: Possible traceroute: hop #2, attempt #1]
            [Severity level: Chat]
            [Group: Sequence]
    Length: 40
    Checksum: 0xc830 [validation disabled]
        [Good Checksum: False]
        [Bad Checksum: False]
Data (32 bytes)
    Data: 404142434445464748494a4b4c4d4e4f5051525354555657...
    [Length: 32]

0000  08 00 27 62 0e 57 08 00 27 41 0f d0 08 00 45 00   ..'b.W..'A....E.
0010  00 3c 3d 3d 00 00 02 11 b3 7d 0a 49 0e 05 d8 3a   .<==.....}.I...:
0020  d7 6e a0 74 82 9e 00 28 c8 30 40 41 42 43 44 45   .n.t...(.0@ABCDE
0030  46 47 48 49 4a 4b 4c 4d 4e 4f 50 51 52 53 54 55   FGHIJKLMNOPQRSTU
0040  56 57 58 59 5a 5b 5c 5d 5e 5f                     VWXYZ[\]^_
No.     Time           Source                Destination           Protocol Length Info
     11 0.051847146    10.73.14.254          10.73.14.5            ICMP     102    Time-to-live exceeded (Time to live exceeded in transit)

Frame 11: 102 bytes on wire (816 bits), 102 bytes captured (816 bits) on interface 0
    Interface id: 0
    Encapsulation type: Ethernet (1)
    Arrival Time: Oct 23, 2022 15:55:38.812241432 MSK
    [Time shift for this packet: 0.000000000 seconds]
    Epoch Time: 1666529738.812241432 seconds
    [Time delta from previous captured frame: 0.000061888 seconds]
    [Time delta from previous displayed frame: 0.000061888 seconds]
    [Time since reference or first frame: 0.051847146 seconds]
    Frame Number: 11
    Frame Length: 102 bytes (816 bits)
    Capture Length: 102 bytes (816 bits)
    [Frame is marked: False]
    [Frame is ignored: False]
    [Protocols in frame: eth:ip:icmp:ip:udp:data]
    [Coloring Rule Name: ICMP errors]
    [Coloring Rule String: icmp.type eq 3 || icmp.type eq 4 || icmp.type eq 5 || icmp.type eq 11 || icmpv6.type eq 1 || icmpv6.type eq 2 || icmpv6.type eq 3 || icmpv6.type eq 4]
Ethernet II, Src: CadmusCo_62:0e:57 (08:00:27:62:0e:57), Dst: CadmusCo_41:0f:d0 (08:00:27:41:0f:d0)
    Destination: CadmusCo_41:0f:d0 (08:00:27:41:0f:d0)
        Address: CadmusCo_41:0f:d0 (08:00:27:41:0f:d0)
        .... ..0. .... .... .... .... = LG bit: Globally unique address (factory default)
        .... ...0 .... .... .... .... = IG bit: Individual address (unicast)
    Source: CadmusCo_62:0e:57 (08:00:27:62:0e:57)
        Address: CadmusCo_62:0e:57 (08:00:27:62:0e:57)
        .... ..0. .... .... .... .... = LG bit: Globally unique address (factory default)
        .... ...0 .... .... .... .... = IG bit: Individual address (unicast)
    Type: IP (0x0800)
Internet Protocol Version 4, Src: 10.73.14.254 (10.73.14.254), Dst: 10.73.14.5 (10.73.14.5)
    Version: 4
    Header length: 20 bytes
    Differentiated Services Field: 0xc0 (DSCP 0x30: Class Selector 6; ECN: 0x00: Not-ECT (Not ECN-Capable Transport))
        1100 00.. = Differentiated Services Codepoint: Class Selector 6 (0x30)
        .... ..00 = Explicit Congestion Notification: Not-ECT (Not ECN-Capable Transport) (0x00)
    Total Length: 88
    Identification: 0x8d5c (36188)
    Flags: 0x00
        0... .... = Reserved bit: Not set
        .0.. .... = Don't fragment: Not set
        ..0. .... = More fragments: Not set
    Fragment offset: 0
    Time to live: 64
    Protocol: ICMP (1)
    Header checksum: 0xbaf4 [validation disabled]
        [Good: False]
        [Bad: False]
    Source: 10.73.14.254 (10.73.14.254)
    Destination: 10.73.14.5 (10.73.14.5)
Internet Control Message Protocol
    Type: 11 (Time-to-live exceeded)
    Code: 0 (Time to live exceeded in transit)
    Checksum: 0xbd30 [correct]
    Internet Protocol Version 4, Src: 10.73.14.5 (10.73.14.5), Dst: 216.58.215.110 (216.58.215.110)
        Version: 4
        Header length: 20 bytes
        Differentiated Services Field: 0x00 (DSCP 0x00: Default; ECN: 0x00: Not-ECT (Not ECN-Capable Transport))
            0000 00.. = Differentiated Services Codepoint: Default (0x00)
            .... ..00 = Explicit Congestion Notification: Not-ECT (Not ECN-Capable Transport) (0x00)
        Total Length: 60
        Identification: 0x3d3a (15674)
        Flags: 0x00
            0... .... = Reserved bit: Not set
            .0.. .... = Don't fragment: Not set
            ..0. .... = More fragments: Not set
        Fragment offset: 0
        Time to live: 1
            [Expert Info (Note/Sequence): "Time To Live" only 1]
                [Message: "Time To Live" only 1]
                [Severity level: Note]
                [Group: Sequence]
        Protocol: UDP (17)
        Header checksum: 0xb480 [validation disabled]
            [Good: False]
            [Bad: False]
        Source: 10.73.14.5 (10.73.14.5)
        Destination: 216.58.215.110 (216.58.215.110)
    User Datagram Protocol, Src Port: 47274 (47274), Dst Port: 33435 (33435)
        Source port: 47274 (47274)
        Destination port: 33435 (33435)
            [Expert Info (Chat/Sequence): Possible traceroute: hop #1, attempt #1]
                [Message: Possible traceroute: hop #1, attempt #1]
                [Severity level: Chat]
                [Group: Sequence]
        Length: 40
        Checksum: 0x075c [validation disabled]
            [Good Checksum: False]
            [Bad Checksum: False]
    Data (32 bytes)
        Data: 404142434445464748494a4b4c4d4e4f5051525354555657...
        [Length: 32]

0000  08 00 27 41 0f d0 08 00 27 62 0e 57 08 00 45 c0   ..'A....'b.W..E.
0010  00 58 8d 5c 00 00 40 01 ba f4 0a 49 0e fe 0a 49   .X.\..@....I...I
0020  0e 05 0b 00 bd 30 00 00 00 00 45 00 00 3c 3d 3a   .....0....E..<=:
0030  00 00 01 11 b4 80 0a 49 0e 05 d8 3a d7 6e b8 aa   .......I...:.n..
0040  82 9b 00 28 07 5c 40 41 42 43 44 45 46 47 48 49   ...(.\@ABCDEFGHI
0050  4a 4b 4c 4d 4e 4f 50 51 52 53 54 55 56 57 58 59   JKLMNOPQRSTUVWXY
0060  5a 5b 5c 5d 5e 5f                                 Z[\]^_
No.     Time           Source                Destination           Protocol Length Info
     12 0.051860040    10.73.14.254          10.73.14.5            ICMP     102    Time-to-live exceeded (Time to live exceeded in transit)

Frame 12: 102 bytes on wire (816 bits), 102 bytes captured (816 bits) on interface 0
    Interface id: 0
    Encapsulation type: Ethernet (1)
    Arrival Time: Oct 23, 2022 15:55:38.812254326 MSK
    [Time shift for this packet: 0.000000000 seconds]
    Epoch Time: 1666529738.812254326 seconds
    [Time delta from previous captured frame: 0.000012894 seconds]
    [Time delta from previous displayed frame: 0.000012894 seconds]
    [Time since reference or first frame: 0.051860040 seconds]
    Frame Number: 12
    Frame Length: 102 bytes (816 bits)
    Capture Length: 102 bytes (816 bits)
    [Frame is marked: False]
    [Frame is ignored: False]
    [Protocols in frame: eth:ip:icmp:ip:udp:data]
    [Coloring Rule Name: ICMP errors]
    [Coloring Rule String: icmp.type eq 3 || icmp.type eq 4 || icmp.type eq 5 || icmp.type eq 11 || icmpv6.type eq 1 || icmpv6.type eq 2 || icmpv6.type eq 3 || icmpv6.type eq 4]
Ethernet II, Src: CadmusCo_62:0e:57 (08:00:27:62:0e:57), Dst: CadmusCo_41:0f:d0 (08:00:27:41:0f:d0)
    Destination: CadmusCo_41:0f:d0 (08:00:27:41:0f:d0)
        Address: CadmusCo_41:0f:d0 (08:00:27:41:0f:d0)
        .... ..0. .... .... .... .... = LG bit: Globally unique address (factory default)
        .... ...0 .... .... .... .... = IG bit: Individual address (unicast)
    Source: CadmusCo_62:0e:57 (08:00:27:62:0e:57)
        Address: CadmusCo_62:0e:57 (08:00:27:62:0e:57)
        .... ..0. .... .... .... .... = LG bit: Globally unique address (factory default)
        .... ...0 .... .... .... .... = IG bit: Individual address (unicast)
    Type: IP (0x0800)
Internet Protocol Version 4, Src: 10.73.14.254 (10.73.14.254), Dst: 10.73.14.5 (10.73.14.5)
    Version: 4
    Header length: 20 bytes
    Differentiated Services Field: 0xc0 (DSCP 0x30: Class Selector 6; ECN: 0x00: Not-ECT (Not ECN-Capable Transport))
        1100 00.. = Differentiated Services Codepoint: Class Selector 6 (0x30)
        .... ..00 = Explicit Congestion Notification: Not-ECT (Not ECN-Capable Transport) (0x00)
    Total Length: 88
    Identification: 0x8d5d (36189)
    Flags: 0x00
        0... .... = Reserved bit: Not set
        .0.. .... = Don't fragment: Not set
        ..0. .... = More fragments: Not set
    Fragment offset: 0
    Time to live: 64
    Protocol: ICMP (1)
    Header checksum: 0xbaf3 [validation disabled]
        [Good: False]
        [Bad: False]
    Source: 10.73.14.254 (10.73.14.254)
    Destination: 10.73.14.5 (10.73.14.5)
Internet Control Message Protocol
    Type: 11 (Time-to-live exceeded)
    Code: 0 (Time to live exceeded in transit)
    Checksum: 0xbd30 [correct]
    Internet Protocol Version 4, Src: 10.73.14.5 (10.73.14.5), Dst: 216.58.215.110 (216.58.215.110)
        Version: 4
        Header length: 20 bytes
        Differentiated Services Field: 0x00 (DSCP 0x00: Default; ECN: 0x00: Not-ECT (Not ECN-Capable Transport))
            0000 00.. = Differentiated Services Codepoint: Default (0x00)
            .... ..00 = Explicit Congestion Notification: Not-ECT (Not ECN-Capable Transport) (0x00)
        Total Length: 60
        Identification: 0x3d3b (15675)
        Flags: 0x00
            0... .... = Reserved bit: Not set
            .0.. .... = Don't fragment: Not set
            ..0. .... = More fragments: Not set
        Fragment offset: 0
        Time to live: 1
            [Expert Info (Note/Sequence): "Time To Live" only 1]
                [Message: "Time To Live" only 1]
                [Severity level: Note]
                [Group: Sequence]
        Protocol: UDP (17)
        Header checksum: 0xb47f [validation disabled]
            [Good: False]
            [Bad: False]
        Source: 10.73.14.5 (10.73.14.5)
        Destination: 216.58.215.110 (216.58.215.110)
    User Datagram Protocol, Src Port: 50908 (50908), Dst Port: 33436 (33436)
        Source port: 50908 (50908)
        Destination port: 33436 (33436)
            [Expert Info (Chat/Sequence): Possible traceroute: hop #1, attempt #2]
                [Message: Possible traceroute: hop #1, attempt #2]
                [Severity level: Chat]
                [Group: Sequence]
        Length: 40
        Checksum: 0xf928 [validation disabled]
            [Good Checksum: False]
            [Bad Checksum: False]
    Data (32 bytes)
        Data: 404142434445464748494a4b4c4d4e4f5051525354555657...
        [Length: 32]

0000  08 00 27 41 0f d0 08 00 27 62 0e 57 08 00 45 c0   ..'A....'b.W..E.
0010  00 58 8d 5d 00 00 40 01 ba f3 0a 49 0e fe 0a 49   .X.]..@....I...I
0020  0e 05 0b 00 bd 30 00 00 00 00 45 00 00 3c 3d 3b   .....0....E..<=;
0030  00 00 01 11 b4 7f 0a 49 0e 05 d8 3a d7 6e c6 dc   .......I...:.n..
0040  82 9c 00 28 f9 28 40 41 42 43 44 45 46 47 48 49   ...(.(@ABCDEFGHI
0050  4a 4b 4c 4d 4e 4f 50 51 52 53 54 55 56 57 58 59   JKLMNOPQRSTUVWXY
0060  5a 5b 5c 5d 5e 5f                                 Z[\]^_
No.     Time           Source                Destination           Protocol Length Info
     13 0.051938274    10.73.14.5            216.58.215.110        UDP      74     Source port: 53498  Destination port: 33439

Frame 13: 74 bytes on wire (592 bits), 74 bytes captured (592 bits) on interface 0
    Interface id: 0
    Encapsulation type: Ethernet (1)
    Arrival Time: Oct 23, 2022 15:55:38.812332560 MSK
    [Time shift for this packet: 0.000000000 seconds]
    Epoch Time: 1666529738.812332560 seconds
    [Time delta from previous captured frame: 0.000078234 seconds]
    [Time delta from previous displayed frame: 0.000078234 seconds]
    [Time since reference or first frame: 0.051938274 seconds]
    Frame Number: 13
    Frame Length: 74 bytes (592 bits)
    Capture Length: 74 bytes (592 bits)
    [Frame is marked: False]
    [Frame is ignored: False]
    [Protocols in frame: eth:ip:udp:data]
    [Coloring Rule Name: TTL low or unexpected]
    [Coloring Rule String: ( ! ip.dst == 224.0.0.0/4 && ip.ttl < 5 && !pim) || (ip.dst == 224.0.0.0/24 && ip.ttl != 1)]
Ethernet II, Src: CadmusCo_41:0f:d0 (08:00:27:41:0f:d0), Dst: CadmusCo_62:0e:57 (08:00:27:62:0e:57)
    Destination: CadmusCo_62:0e:57 (08:00:27:62:0e:57)
        Address: CadmusCo_62:0e:57 (08:00:27:62:0e:57)
        .... ..0. .... .... .... .... = LG bit: Globally unique address (factory default)
        .... ...0 .... .... .... .... = IG bit: Individual address (unicast)
    Source: CadmusCo_41:0f:d0 (08:00:27:41:0f:d0)
        Address: CadmusCo_41:0f:d0 (08:00:27:41:0f:d0)
        .... ..0. .... .... .... .... = LG bit: Globally unique address (factory default)
        .... ...0 .... .... .... .... = IG bit: Individual address (unicast)
    Type: IP (0x0800)
Internet Protocol Version 4, Src: 10.73.14.5 (10.73.14.5), Dst: 216.58.215.110 (216.58.215.110)
    Version: 4
    Header length: 20 bytes
    Differentiated Services Field: 0x00 (DSCP 0x00: Default; ECN: 0x00: Not-ECT (Not ECN-Capable Transport))
        0000 00.. = Differentiated Services Codepoint: Default (0x00)
        .... ..00 = Explicit Congestion Notification: Not-ECT (Not ECN-Capable Transport) (0x00)
    Total Length: 60
    Identification: 0x3d3e (15678)
    Flags: 0x00
        0... .... = Reserved bit: Not set
        .0.. .... = Don't fragment: Not set
        ..0. .... = More fragments: Not set
    Fragment offset: 0
    Time to live: 2
        [Expert Info (Note/Sequence): "Time To Live" only 2]
            [Message: "Time To Live" only 2]
            [Severity level: Note]
            [Group: Sequence]
    Protocol: UDP (17)
    Header checksum: 0xb37c [validation disabled]
        [Good: False]
        [Bad: False]
    Source: 10.73.14.5 (10.73.14.5)
    Destination: 216.58.215.110 (216.58.215.110)
User Datagram Protocol, Src Port: 53498 (53498), Dst Port: 33439 (33439)
    Source port: 53498 (53498)
    Destination port: 33439 (33439)
        [Expert Info (Chat/Sequence): Possible traceroute: hop #2, attempt #2]
            [Message: Possible traceroute: hop #2, attempt #2]
            [Severity level: Chat]
            [Group: Sequence]
    Length: 40
    Checksum: 0xc830 [validation disabled]
        [Good Checksum: False]
        [Bad Checksum: False]
Data (32 bytes)
    Data: 404142434445464748494a4b4c4d4e4f5051525354555657...
    [Length: 32]

0000  08 00 27 62 0e 57 08 00 27 41 0f d0 08 00 45 00   ..'b.W..'A....E.
0010  00 3c 3d 3e 00 00 02 11 b3 7c 0a 49 0e 05 d8 3a   .<=>.....|.I...:
0020  d7 6e d0 fa 82 9f 00 28 c8 30 40 41 42 43 44 45   .n.....(.0@ABCDE
0030  46 47 48 49 4a 4b 4c 4d 4e 4f 50 51 52 53 54 55   FGHIJKLMNOPQRSTU
0040  56 57 58 59 5a 5b 5c 5d 5e 5f                     VWXYZ[\]^_
No.     Time           Source                Destination           Protocol Length Info
     14 0.052006108    10.73.14.5            216.58.215.110        UDP      74     Source port: 40499  Destination port: 33440

Frame 14: 74 bytes on wire (592 bits), 74 bytes captured (592 bits) on interface 0
    Interface id: 0
    Encapsulation type: Ethernet (1)
    Arrival Time: Oct 23, 2022 15:55:38.812400394 MSK
    [Time shift for this packet: 0.000000000 seconds]
    Epoch Time: 1666529738.812400394 seconds
    [Time delta from previous captured frame: 0.000067834 seconds]
    [Time delta from previous displayed frame: 0.000067834 seconds]
    [Time since reference or first frame: 0.052006108 seconds]
    Frame Number: 14
    Frame Length: 74 bytes (592 bits)
    Capture Length: 74 bytes (592 bits)
    [Frame is marked: False]
    [Frame is ignored: False]
    [Protocols in frame: eth:ip:udp:data]
    [Coloring Rule Name: TTL low or unexpected]
    [Coloring Rule String: ( ! ip.dst == 224.0.0.0/4 && ip.ttl < 5 && !pim) || (ip.dst == 224.0.0.0/24 && ip.ttl != 1)]
Ethernet II, Src: CadmusCo_41:0f:d0 (08:00:27:41:0f:d0), Dst: CadmusCo_62:0e:57 (08:00:27:62:0e:57)
    Destination: CadmusCo_62:0e:57 (08:00:27:62:0e:57)
        Address: CadmusCo_62:0e:57 (08:00:27:62:0e:57)
        .... ..0. .... .... .... .... = LG bit: Globally unique address (factory default)
        .... ...0 .... .... .... .... = IG bit: Individual address (unicast)
    Source: CadmusCo_41:0f:d0 (08:00:27:41:0f:d0)
        Address: CadmusCo_41:0f:d0 (08:00:27:41:0f:d0)
        .... ..0. .... .... .... .... = LG bit: Globally unique address (factory default)
        .... ...0 .... .... .... .... = IG bit: Individual address (unicast)
    Type: IP (0x0800)
Internet Protocol Version 4, Src: 10.73.14.5 (10.73.14.5), Dst: 216.58.215.110 (216.58.215.110)
    Version: 4
    Header length: 20 bytes
    Differentiated Services Field: 0x00 (DSCP 0x00: Default; ECN: 0x00: Not-ECT (Not ECN-Capable Transport))
        0000 00.. = Differentiated Services Codepoint: Default (0x00)
        .... ..00 = Explicit Congestion Notification: Not-ECT (Not ECN-Capable Transport) (0x00)
    Total Length: 60
    Identification: 0x3d3f (15679)
    Flags: 0x00
        0... .... = Reserved bit: Not set
        .0.. .... = Don't fragment: Not set
        ..0. .... = More fragments: Not set
    Fragment offset: 0
    Time to live: 3
        [Expert Info (Note/Sequence): "Time To Live" only 3]
            [Message: "Time To Live" only 3]
            [Severity level: Note]
            [Group: Sequence]
    Protocol: UDP (17)
    Header checksum: 0xb27b [validation disabled]
        [Good: False]
        [Bad: False]
    Source: 10.73.14.5 (10.73.14.5)
    Destination: 216.58.215.110 (216.58.215.110)
User Datagram Protocol, Src Port: 40499 (40499), Dst Port: 33440 (33440)
    Source port: 40499 (40499)
    Destination port: 33440 (33440)
        [Expert Info (Chat/Sequence): Possible traceroute: hop #2, attempt #3]
            [Message: Possible traceroute: hop #2, attempt #3]
            [Severity level: Chat]
            [Group: Sequence]
    Length: 40
    Checksum: 0xc830 [validation disabled]
        [Good Checksum: False]
        [Bad Checksum: False]
Data (32 bytes)
    Data: 404142434445464748494a4b4c4d4e4f5051525354555657...
    [Length: 32]

0000  08 00 27 62 0e 57 08 00 27 41 0f d0 08 00 45 00   ..'b.W..'A....E.
0010  00 3c 3d 3f 00 00 03 11 b2 7b 0a 49 0e 05 d8 3a   .<=?.....{.I...:
0020  d7 6e 9e 33 82 a0 00 28 c8 30 40 41 42 43 44 45   .n.3...(.0@ABCDE
0030  46 47 48 49 4a 4b 4c 4d 4e 4f 50 51 52 53 54 55   FGHIJKLMNOPQRSTU
0040  56 57 58 59 5a 5b 5c 5d 5e 5f                     VWXYZ[\]^_
No.     Time           Source                Destination           Protocol Length Info
     15 0.052071972    10.73.14.5            216.58.215.110        UDP      74     Source port: 48195  Destination port: 33441

Frame 15: 74 bytes on wire (592 bits), 74 bytes captured (592 bits) on interface 0
    Interface id: 0
    Encapsulation type: Ethernet (1)
    Arrival Time: Oct 23, 2022 15:55:38.812466258 MSK
    [Time shift for this packet: 0.000000000 seconds]
    Epoch Time: 1666529738.812466258 seconds
    [Time delta from previous captured frame: 0.000065864 seconds]
    [Time delta from previous displayed frame: 0.000065864 seconds]
    [Time since reference or first frame: 0.052071972 seconds]
    Frame Number: 15
    Frame Length: 74 bytes (592 bits)
    Capture Length: 74 bytes (592 bits)
    [Frame is marked: False]
    [Frame is ignored: False]
    [Protocols in frame: eth:ip:udp:data]
    [Coloring Rule Name: TTL low or unexpected]
    [Coloring Rule String: ( ! ip.dst == 224.0.0.0/4 && ip.ttl < 5 && !pim) || (ip.dst == 224.0.0.0/24 && ip.ttl != 1)]
Ethernet II, Src: CadmusCo_41:0f:d0 (08:00:27:41:0f:d0), Dst: CadmusCo_62:0e:57 (08:00:27:62:0e:57)
    Destination: CadmusCo_62:0e:57 (08:00:27:62:0e:57)
        Address: CadmusCo_62:0e:57 (08:00:27:62:0e:57)
        .... ..0. .... .... .... .... = LG bit: Globally unique address (factory default)
        .... ...0 .... .... .... .... = IG bit: Individual address (unicast)
    Source: CadmusCo_41:0f:d0 (08:00:27:41:0f:d0)
        Address: CadmusCo_41:0f:d0 (08:00:27:41:0f:d0)
        .... ..0. .... .... .... .... = LG bit: Globally unique address (factory default)
        .... ...0 .... .... .... .... = IG bit: Individual address (unicast)
    Type: IP (0x0800)
Internet Protocol Version 4, Src: 10.73.14.5 (10.73.14.5), Dst: 216.58.215.110 (216.58.215.110)
    Version: 4
    Header length: 20 bytes
    Differentiated Services Field: 0x00 (DSCP 0x00: Default; ECN: 0x00: Not-ECT (Not ECN-Capable Transport))
        0000 00.. = Differentiated Services Codepoint: Default (0x00)
        .... ..00 = Explicit Congestion Notification: Not-ECT (Not ECN-Capable Transport) (0x00)
    Total Length: 60
    Identification: 0x3d40 (15680)
    Flags: 0x00
        0... .... = Reserved bit: Not set
        .0.. .... = Don't fragment: Not set
        ..0. .... = More fragments: Not set
    Fragment offset: 0
    Time to live: 3
        [Expert Info (Note/Sequence): "Time To Live" only 3]
            [Message: "Time To Live" only 3]
            [Severity level: Note]
            [Group: Sequence]
    Protocol: UDP (17)
    Header checksum: 0xb27a [validation disabled]
        [Good: False]
        [Bad: False]
    Source: 10.73.14.5 (10.73.14.5)
    Destination: 216.58.215.110 (216.58.215.110)
User Datagram Protocol, Src Port: 48195 (48195), Dst Port: 33441 (33441)
    Source port: 48195 (48195)
    Destination port: 33441 (33441)
        [Expert Info (Chat/Sequence): Possible traceroute: hop #3, attempt #1]
            [Message: Possible traceroute: hop #3, attempt #1]
            [Severity level: Chat]
            [Group: Sequence]
    Length: 40
    Checksum: 0xc830 [validation disabled]
        [Good Checksum: False]
        [Bad Checksum: False]
Data (32 bytes)
    Data: 404142434445464748494a4b4c4d4e4f5051525354555657...
    [Length: 32]

0000  08 00 27 62 0e 57 08 00 27 41 0f d0 08 00 45 00   ..'b.W..'A....E.
0010  00 3c 3d 40 00 00 03 11 b2 7a 0a 49 0e 05 d8 3a   .<=@.....z.I...:
0020  d7 6e bc 43 82 a1 00 28 c8 30 40 41 42 43 44 45   .n.C...(.0@ABCDE
0030  46 47 48 49 4a 4b 4c 4d 4e 4f 50 51 52 53 54 55   FGHIJKLMNOPQRSTU
0040  56 57 58 59 5a 5b 5c 5d 5e 5f                     VWXYZ[\]^_
No.     Time           Source                Destination           Protocol Length Info
     16 0.052212339    10.73.14.5            216.58.215.110        UDP      74     Source port: 57035  Destination port: 33442

Frame 16: 74 bytes on wire (592 bits), 74 bytes captured (592 bits) on interface 0
    Interface id: 0
    Encapsulation type: Ethernet (1)
    Arrival Time: Oct 23, 2022 15:55:38.812606625 MSK
    [Time shift for this packet: 0.000000000 seconds]
    Epoch Time: 1666529738.812606625 seconds
    [Time delta from previous captured frame: 0.000140367 seconds]
    [Time delta from previous displayed frame: 0.000140367 seconds]
    [Time since reference or first frame: 0.052212339 seconds]
    Frame Number: 16
    Frame Length: 74 bytes (592 bits)
    Capture Length: 74 bytes (592 bits)
    [Frame is marked: False]
    [Frame is ignored: False]
    [Protocols in frame: eth:ip:udp:data]
    [Coloring Rule Name: TTL low or unexpected]
    [Coloring Rule String: ( ! ip.dst == 224.0.0.0/4 && ip.ttl < 5 && !pim) || (ip.dst == 224.0.0.0/24 && ip.ttl != 1)]
Ethernet II, Src: CadmusCo_41:0f:d0 (08:00:27:41:0f:d0), Dst: CadmusCo_62:0e:57 (08:00:27:62:0e:57)
    Destination: CadmusCo_62:0e:57 (08:00:27:62:0e:57)
        Address: CadmusCo_62:0e:57 (08:00:27:62:0e:57)
        .... ..0. .... .... .... .... = LG bit: Globally unique address (factory default)
        .... ...0 .... .... .... .... = IG bit: Individual address (unicast)
    Source: CadmusCo_41:0f:d0 (08:00:27:41:0f:d0)
        Address: CadmusCo_41:0f:d0 (08:00:27:41:0f:d0)
        .... ..0. .... .... .... .... = LG bit: Globally unique address (factory default)
        .... ...0 .... .... .... .... = IG bit: Individual address (unicast)
    Type: IP (0x0800)
Internet Protocol Version 4, Src: 10.73.14.5 (10.73.14.5), Dst: 216.58.215.110 (216.58.215.110)
    Version: 4
    Header length: 20 bytes
    Differentiated Services Field: 0x00 (DSCP 0x00: Default; ECN: 0x00: Not-ECT (Not ECN-Capable Transport))
        0000 00.. = Differentiated Services Codepoint: Default (0x00)
        .... ..00 = Explicit Congestion Notification: Not-ECT (Not ECN-Capable Transport) (0x00)
    Total Length: 60
    Identification: 0x3d41 (15681)
    Flags: 0x00
        0... .... = Reserved bit: Not set
        .0.. .... = Don't fragment: Not set
        ..0. .... = More fragments: Not set
    Fragment offset: 0
    Time to live: 3
        [Expert Info (Note/Sequence): "Time To Live" only 3]
            [Message: "Time To Live" only 3]
            [Severity level: Note]
            [Group: Sequence]
    Protocol: UDP (17)
    Header checksum: 0xb279 [validation disabled]
        [Good: False]
        [Bad: False]
    Source: 10.73.14.5 (10.73.14.5)
    Destination: 216.58.215.110 (216.58.215.110)
User Datagram Protocol, Src Port: 57035 (57035), Dst Port: 33442 (33442)
    Source port: 57035 (57035)
    Destination port: 33442 (33442)
        [Expert Info (Chat/Sequence): Possible traceroute: hop #3, attempt #2]
            [Message: Possible traceroute: hop #3, attempt #2]
            [Severity level: Chat]
            [Group: Sequence]
    Length: 40
    Checksum: 0xc830 [validation disabled]
        [Good Checksum: False]
        [Bad Checksum: False]
Data (32 bytes)
    Data: 404142434445464748494a4b4c4d4e4f5051525354555657...
    [Length: 32]

0000  08 00 27 62 0e 57 08 00 27 41 0f d0 08 00 45 00   ..'b.W..'A....E.
0010  00 3c 3d 41 00 00 03 11 b2 79 0a 49 0e 05 d8 3a   .<=A.....y.I...:
0020  d7 6e de cb 82 a2 00 28 c8 30 40 41 42 43 44 45   .n.....(.0@ABCDE
0030  46 47 48 49 4a 4b 4c 4d 4e 4f 50 51 52 53 54 55   FGHIJKLMNOPQRSTU
0040  56 57 58 59 5a 5b 5c 5d 5e 5f                     VWXYZ[\]^_
No.     Time           Source                Destination           Protocol Length Info
     17 0.052355386    10.73.14.5            216.58.215.110        UDP      74     Source port: 43158  Destination port: 33443

Frame 17: 74 bytes on wire (592 bits), 74 bytes captured (592 bits) on interface 0
    Interface id: 0
    Encapsulation type: Ethernet (1)
    Arrival Time: Oct 23, 2022 15:55:38.812749672 MSK
    [Time shift for this packet: 0.000000000 seconds]
    Epoch Time: 1666529738.812749672 seconds
    [Time delta from previous captured frame: 0.000143047 seconds]
    [Time delta from previous displayed frame: 0.000143047 seconds]
    [Time since reference or first frame: 0.052355386 seconds]
    Frame Number: 17
    Frame Length: 74 bytes (592 bits)
    Capture Length: 74 bytes (592 bits)
    [Frame is marked: False]
    [Frame is ignored: False]
    [Protocols in frame: eth:ip:udp:data]
    [Coloring Rule Name: TTL low or unexpected]
    [Coloring Rule String: ( ! ip.dst == 224.0.0.0/4 && ip.ttl < 5 && !pim) || (ip.dst == 224.0.0.0/24 && ip.ttl != 1)]
Ethernet II, Src: CadmusCo_41:0f:d0 (08:00:27:41:0f:d0), Dst: CadmusCo_62:0e:57 (08:00:27:62:0e:57)
    Destination: CadmusCo_62:0e:57 (08:00:27:62:0e:57)
        Address: CadmusCo_62:0e:57 (08:00:27:62:0e:57)
        .... ..0. .... .... .... .... = LG bit: Globally unique address (factory default)
        .... ...0 .... .... .... .... = IG bit: Individual address (unicast)
    Source: CadmusCo_41:0f:d0 (08:00:27:41:0f:d0)
        Address: CadmusCo_41:0f:d0 (08:00:27:41:0f:d0)
        .... ..0. .... .... .... .... = LG bit: Globally unique address (factory default)
        .... ...0 .... .... .... .... = IG bit: Individual address (unicast)
    Type: IP (0x0800)
Internet Protocol Version 4, Src: 10.73.14.5 (10.73.14.5), Dst: 216.58.215.110 (216.58.215.110)
    Version: 4
    Header length: 20 bytes
    Differentiated Services Field: 0x00 (DSCP 0x00: Default; ECN: 0x00: Not-ECT (Not ECN-Capable Transport))
        0000 00.. = Differentiated Services Codepoint: Default (0x00)
        .... ..00 = Explicit Congestion Notification: Not-ECT (Not ECN-Capable Transport) (0x00)
    Total Length: 60
    Identification: 0x3d42 (15682)
    Flags: 0x00
        0... .... = Reserved bit: Not set
        .0.. .... = Don't fragment: Not set
        ..0. .... = More fragments: Not set
    Fragment offset: 0
    Time to live: 4
        [Expert Info (Note/Sequence): "Time To Live" only 4]
            [Message: "Time To Live" only 4]
            [Severity level: Note]
            [Group: Sequence]
    Protocol: UDP (17)
    Header checksum: 0xb178 [validation disabled]
        [Good: False]
        [Bad: False]
    Source: 10.73.14.5 (10.73.14.5)
    Destination: 216.58.215.110 (216.58.215.110)
User Datagram Protocol, Src Port: 43158 (43158), Dst Port: 33443 (33443)
    Source port: 43158 (43158)
    Destination port: 33443 (33443)
        [Expert Info (Chat/Sequence): Possible traceroute: hop #3, attempt #3]
            [Message: Possible traceroute: hop #3, attempt #3]
            [Severity level: Chat]
            [Group: Sequence]
    Length: 40
    Checksum: 0xc830 [validation disabled]
        [Good Checksum: False]
        [Bad Checksum: False]
Data (32 bytes)
    Data: 404142434445464748494a4b4c4d4e4f5051525354555657...
    [Length: 32]

0000  08 00 27 62 0e 57 08 00 27 41 0f d0 08 00 45 00   ..'b.W..'A....E.
0010  00 3c 3d 42 00 00 04 11 b1 78 0a 49 0e 05 d8 3a   .<=B.....x.I...:
0020  d7 6e a8 96 82 a3 00 28 c8 30 40 41 42 43 44 45   .n.....(.0@ABCDE
0030  46 47 48 49 4a 4b 4c 4d 4e 4f 50 51 52 53 54 55   FGHIJKLMNOPQRSTU
0040  56 57 58 59 5a 5b 5c 5d 5e 5f                     VWXYZ[\]^_
No.     Time           Source                Destination           Protocol Length Info
     18 0.052492587    10.73.14.5            216.58.215.110        UDP      74     Source port: 53215  Destination port: 33444

Frame 18: 74 bytes on wire (592 bits), 74 bytes captured (592 bits) on interface 0
    Interface id: 0
    Encapsulation type: Ethernet (1)
    Arrival Time: Oct 23, 2022 15:55:38.812886873 MSK
    [Time shift for this packet: 0.000000000 seconds]
    Epoch Time: 1666529738.812886873 seconds
    [Time delta from previous captured frame: 0.000137201 seconds]
    [Time delta from previous displayed frame: 0.000137201 seconds]
    [Time since reference or first frame: 0.052492587 seconds]
    Frame Number: 18
    Frame Length: 74 bytes (592 bits)
    Capture Length: 74 bytes (592 bits)
    [Frame is marked: False]
    [Frame is ignored: False]
    [Protocols in frame: eth:ip:udp:data]
    [Coloring Rule Name: TTL low or unexpected]
    [Coloring Rule String: ( ! ip.dst == 224.0.0.0/4 && ip.ttl < 5 && !pim) || (ip.dst == 224.0.0.0/24 && ip.ttl != 1)]
Ethernet II, Src: CadmusCo_41:0f:d0 (08:00:27:41:0f:d0), Dst: CadmusCo_62:0e:57 (08:00:27:62:0e:57)
    Destination: CadmusCo_62:0e:57 (08:00:27:62:0e:57)
        Address: CadmusCo_62:0e:57 (08:00:27:62:0e:57)
        .... ..0. .... .... .... .... = LG bit: Globally unique address (factory default)
        .... ...0 .... .... .... .... = IG bit: Individual address (unicast)
    Source: CadmusCo_41:0f:d0 (08:00:27:41:0f:d0)
        Address: CadmusCo_41:0f:d0 (08:00:27:41:0f:d0)
        .... ..0. .... .... .... .... = LG bit: Globally unique address (factory default)
        .... ...0 .... .... .... .... = IG bit: Individual address (unicast)
    Type: IP (0x0800)
Internet Protocol Version 4, Src: 10.73.14.5 (10.73.14.5), Dst: 216.58.215.110 (216.58.215.110)
    Version: 4
    Header length: 20 bytes
    Differentiated Services Field: 0x00 (DSCP 0x00: Default; ECN: 0x00: Not-ECT (Not ECN-Capable Transport))
        0000 00.. = Differentiated Services Codepoint: Default (0x00)
        .... ..00 = Explicit Congestion Notification: Not-ECT (Not ECN-Capable Transport) (0x00)
    Total Length: 60
    Identification: 0x3d43 (15683)
    Flags: 0x00
        0... .... = Reserved bit: Not set
        .0.. .... = Don't fragment: Not set
        ..0. .... = More fragments: Not set
    Fragment offset: 0
    Time to live: 4
        [Expert Info (Note/Sequence): "Time To Live" only 4]
            [Message: "Time To Live" only 4]
            [Severity level: Note]
            [Group: Sequence]
    Protocol: UDP (17)
    Header checksum: 0xb177 [validation disabled]
        [Good: False]
        [Bad: False]
    Source: 10.73.14.5 (10.73.14.5)
    Destination: 216.58.215.110 (216.58.215.110)
User Datagram Protocol, Src Port: 53215 (53215), Dst Port: 33444 (33444)
    Source port: 53215 (53215)
    Destination port: 33444 (33444)
        [Expert Info (Chat/Sequence): Possible traceroute: hop #4, attempt #1]
            [Message: Possible traceroute: hop #4, attempt #1]
            [Severity level: Chat]
            [Group: Sequence]
    Length: 40
    Checksum: 0xc830 [validation disabled]
        [Good Checksum: False]
        [Bad Checksum: False]
Data (32 bytes)
    Data: 404142434445464748494a4b4c4d4e4f5051525354555657...
    [Length: 32]

0000  08 00 27 62 0e 57 08 00 27 41 0f d0 08 00 45 00   ..'b.W..'A....E.
0010  00 3c 3d 43 00 00 04 11 b1 77 0a 49 0e 05 d8 3a   .<=C.....w.I...:
0020  d7 6e cf df 82 a4 00 28 c8 30 40 41 42 43 44 45   .n.....(.0@ABCDE
0030  46 47 48 49 4a 4b 4c 4d 4e 4f 50 51 52 53 54 55   FGHIJKLMNOPQRSTU
0040  56 57 58 59 5a 5b 5c 5d 5e 5f                     VWXYZ[\]^_
No.     Time           Source                Destination           Protocol Length Info
     19 0.052635124    10.73.14.5            216.58.215.110        UDP      74     Source port: 52520  Destination port: 33445

Frame 19: 74 bytes on wire (592 bits), 74 bytes captured (592 bits) on interface 0
    Interface id: 0
    Encapsulation type: Ethernet (1)
    Arrival Time: Oct 23, 2022 15:55:38.813029410 MSK
    [Time shift for this packet: 0.000000000 seconds]
    Epoch Time: 1666529738.813029410 seconds
    [Time delta from previous captured frame: 0.000142537 seconds]
    [Time delta from previous displayed frame: 0.000142537 seconds]
    [Time since reference or first frame: 0.052635124 seconds]
    Frame Number: 19
    Frame Length: 74 bytes (592 bits)
    Capture Length: 74 bytes (592 bits)
    [Frame is marked: False]
    [Frame is ignored: False]
    [Protocols in frame: eth:ip:udp:data]
    [Coloring Rule Name: TTL low or unexpected]
    [Coloring Rule String: ( ! ip.dst == 224.0.0.0/4 && ip.ttl < 5 && !pim) || (ip.dst == 224.0.0.0/24 && ip.ttl != 1)]
Ethernet II, Src: CadmusCo_41:0f:d0 (08:00:27:41:0f:d0), Dst: CadmusCo_62:0e:57 (08:00:27:62:0e:57)
    Destination: CadmusCo_62:0e:57 (08:00:27:62:0e:57)
        Address: CadmusCo_62:0e:57 (08:00:27:62:0e:57)
        .... ..0. .... .... .... .... = LG bit: Globally unique address (factory default)
        .... ...0 .... .... .... .... = IG bit: Individual address (unicast)
    Source: CadmusCo_41:0f:d0 (08:00:27:41:0f:d0)
        Address: CadmusCo_41:0f:d0 (08:00:27:41:0f:d0)
        .... ..0. .... .... .... .... = LG bit: Globally unique address (factory default)
        .... ...0 .... .... .... .... = IG bit: Individual address (unicast)
    Type: IP (0x0800)
Internet Protocol Version 4, Src: 10.73.14.5 (10.73.14.5), Dst: 216.58.215.110 (216.58.215.110)
    Version: 4
    Header length: 20 bytes
    Differentiated Services Field: 0x00 (DSCP 0x00: Default; ECN: 0x00: Not-ECT (Not ECN-Capable Transport))
        0000 00.. = Differentiated Services Codepoint: Default (0x00)
        .... ..00 = Explicit Congestion Notification: Not-ECT (Not ECN-Capable Transport) (0x00)
    Total Length: 60
    Identification: 0x3d44 (15684)
    Flags: 0x00
        0... .... = Reserved bit: Not set
        .0.. .... = Don't fragment: Not set
        ..0. .... = More fragments: Not set
    Fragment offset: 0
    Time to live: 4
        [Expert Info (Note/Sequence): "Time To Live" only 4]
            [Message: "Time To Live" only 4]
            [Severity level: Note]
            [Group: Sequence]
    Protocol: UDP (17)
    Header checksum: 0xb176 [validation disabled]
        [Good: False]
        [Bad: False]
    Source: 10.73.14.5 (10.73.14.5)
    Destination: 216.58.215.110 (216.58.215.110)
User Datagram Protocol, Src Port: 52520 (52520), Dst Port: 33445 (33445)
    Source port: 52520 (52520)
    Destination port: 33445 (33445)
        [Expert Info (Chat/Sequence): Possible traceroute: hop #4, attempt #2]
            [Message: Possible traceroute: hop #4, attempt #2]
            [Severity level: Chat]
            [Group: Sequence]
    Length: 40
    Checksum: 0xc830 [validation disabled]
        [Good Checksum: False]
        [Bad Checksum: False]
Data (32 bytes)
    Data: 404142434445464748494a4b4c4d4e4f5051525354555657...
    [Length: 32]

0000  08 00 27 62 0e 57 08 00 27 41 0f d0 08 00 45 00   ..'b.W..'A....E.
0010  00 3c 3d 44 00 00 04 11 b1 76 0a 49 0e 05 d8 3a   .<=D.....v.I...:
0020  d7 6e cd 28 82 a5 00 28 c8 30 40 41 42 43 44 45   .n.(...(.0@ABCDE
0030  46 47 48 49 4a 4b 4c 4d 4e 4f 50 51 52 53 54 55   FGHIJKLMNOPQRSTU
0040  56 57 58 59 5a 5b 5c 5d 5e 5f                     VWXYZ[\]^_
No.     Time           Source                Destination           Protocol Length Info
     20 0.052778873    10.73.14.5            216.58.215.110        UDP      74     Source port: 48178  Destination port: 33446

Frame 20: 74 bytes on wire (592 bits), 74 bytes captured (592 bits) on interface 0
    Interface id: 0
    Encapsulation type: Ethernet (1)
    Arrival Time: Oct 23, 2022 15:55:38.813173159 MSK
    [Time shift for this packet: 0.000000000 seconds]
    Epoch Time: 1666529738.813173159 seconds
    [Time delta from previous captured frame: 0.000143749 seconds]
    [Time delta from previous displayed frame: 0.000143749 seconds]
    [Time since reference or first frame: 0.052778873 seconds]
    Frame Number: 20
    Frame Length: 74 bytes (592 bits)
    Capture Length: 74 bytes (592 bits)
    [Frame is marked: False]
    [Frame is ignored: False]
    [Protocols in frame: eth:ip:udp:data]
    [Coloring Rule Name: UDP]
    [Coloring Rule String: udp]
Ethernet II, Src: CadmusCo_41:0f:d0 (08:00:27:41:0f:d0), Dst: CadmusCo_62:0e:57 (08:00:27:62:0e:57)
    Destination: CadmusCo_62:0e:57 (08:00:27:62:0e:57)
        Address: CadmusCo_62:0e:57 (08:00:27:62:0e:57)
        .... ..0. .... .... .... .... = LG bit: Globally unique address (factory default)
        .... ...0 .... .... .... .... = IG bit: Individual address (unicast)
    Source: CadmusCo_41:0f:d0 (08:00:27:41:0f:d0)
        Address: CadmusCo_41:0f:d0 (08:00:27:41:0f:d0)
        .... ..0. .... .... .... .... = LG bit: Globally unique address (factory default)
        .... ...0 .... .... .... .... = IG bit: Individual address (unicast)
    Type: IP (0x0800)
Internet Protocol Version 4, Src: 10.73.14.5 (10.73.14.5), Dst: 216.58.215.110 (216.58.215.110)
    Version: 4
    Header length: 20 bytes
    Differentiated Services Field: 0x00 (DSCP 0x00: Default; ECN: 0x00: Not-ECT (Not ECN-Capable Transport))
        0000 00.. = Differentiated Services Codepoint: Default (0x00)
        .... ..00 = Explicit Congestion Notification: Not-ECT (Not ECN-Capable Transport) (0x00)
    Total Length: 60
    Identification: 0x3d45 (15685)
    Flags: 0x00
        0... .... = Reserved bit: Not set
        .0.. .... = Don't fragment: Not set
        ..0. .... = More fragments: Not set
    Fragment offset: 0
    Time to live: 5
    Protocol: UDP (17)
    Header checksum: 0xb075 [validation disabled]
        [Good: False]
        [Bad: False]
    Source: 10.73.14.5 (10.73.14.5)
    Destination: 216.58.215.110 (216.58.215.110)
User Datagram Protocol, Src Port: 48178 (48178), Dst Port: 33446 (33446)
    Source port: 48178 (48178)
    Destination port: 33446 (33446)
        [Expert Info (Chat/Sequence): Possible traceroute: hop #4, attempt #3]
            [Message: Possible traceroute: hop #4, attempt #3]
            [Severity level: Chat]
            [Group: Sequence]
    Length: 40
    Checksum: 0xc830 [validation disabled]
        [Good Checksum: False]
        [Bad Checksum: False]
Data (32 bytes)
    Data: 404142434445464748494a4b4c4d4e4f5051525354555657...
    [Length: 32]

0000  08 00 27 62 0e 57 08 00 27 41 0f d0 08 00 45 00   ..'b.W..'A....E.
0010  00 3c 3d 45 00 00 05 11 b0 75 0a 49 0e 05 d8 3a   .<=E.....u.I...:
0020  d7 6e bc 32 82 a6 00 28 c8 30 40 41 42 43 44 45   .n.2...(.0@ABCDE
0030  46 47 48 49 4a 4b 4c 4d 4e 4f 50 51 52 53 54 55   FGHIJKLMNOPQRSTU
0040  56 57 58 59 5a 5b 5c 5d 5e 5f                     VWXYZ[\]^_
No.     Time           Source                Destination           Protocol Length Info
     21 0.052910059    10.73.14.5            216.58.215.110        UDP      74     Source port: 36400  Destination port: 33447

Frame 21: 74 bytes on wire (592 bits), 74 bytes captured (592 bits) on interface 0
    Interface id: 0
    Encapsulation type: Ethernet (1)
    Arrival Time: Oct 23, 2022 15:55:38.813304345 MSK
    [Time shift for this packet: 0.000000000 seconds]
    Epoch Time: 1666529738.813304345 seconds
    [Time delta from previous captured frame: 0.000131186 seconds]
    [Time delta from previous displayed frame: 0.000131186 seconds]
    [Time since reference or first frame: 0.052910059 seconds]
    Frame Number: 21
    Frame Length: 74 bytes (592 bits)
    Capture Length: 74 bytes (592 bits)
    [Frame is marked: False]
    [Frame is ignored: False]
    [Protocols in frame: eth:ip:udp:data]
    [Coloring Rule Name: UDP]
    [Coloring Rule String: udp]
Ethernet II, Src: CadmusCo_41:0f:d0 (08:00:27:41:0f:d0), Dst: CadmusCo_62:0e:57 (08:00:27:62:0e:57)
    Destination: CadmusCo_62:0e:57 (08:00:27:62:0e:57)
        Address: CadmusCo_62:0e:57 (08:00:27:62:0e:57)
        .... ..0. .... .... .... .... = LG bit: Globally unique address (factory default)
        .... ...0 .... .... .... .... = IG bit: Individual address (unicast)
    Source: CadmusCo_41:0f:d0 (08:00:27:41:0f:d0)
        Address: CadmusCo_41:0f:d0 (08:00:27:41:0f:d0)
        .... ..0. .... .... .... .... = LG bit: Globally unique address (factory default)
        .... ...0 .... .... .... .... = IG bit: Individual address (unicast)
    Type: IP (0x0800)
Internet Protocol Version 4, Src: 10.73.14.5 (10.73.14.5), Dst: 216.58.215.110 (216.58.215.110)
    Version: 4
    Header length: 20 bytes
    Differentiated Services Field: 0x00 (DSCP 0x00: Default; ECN: 0x00: Not-ECT (Not ECN-Capable Transport))
        0000 00.. = Differentiated Services Codepoint: Default (0x00)
        .... ..00 = Explicit Congestion Notification: Not-ECT (Not ECN-Capable Transport) (0x00)
    Total Length: 60
    Identification: 0x3d46 (15686)
    Flags: 0x00
        0... .... = Reserved bit: Not set
        .0.. .... = Don't fragment: Not set
        ..0. .... = More fragments: Not set
    Fragment offset: 0
    Time to live: 5
    Protocol: UDP (17)
    Header checksum: 0xb074 [validation disabled]
        [Good: False]
        [Bad: False]
    Source: 10.73.14.5 (10.73.14.5)
    Destination: 216.58.215.110 (216.58.215.110)
User Datagram Protocol, Src Port: 36400 (36400), Dst Port: 33447 (33447)
    Source port: 36400 (36400)
    Destination port: 33447 (33447)
        [Expert Info (Chat/Sequence): Possible traceroute: hop #5, attempt #1]
            [Message: Possible traceroute: hop #5, attempt #1]
            [Severity level: Chat]
            [Group: Sequence]
    Length: 40
    Checksum: 0xc830 [validation disabled]
        [Good Checksum: False]
        [Bad Checksum: False]
Data (32 bytes)
    Data: 404142434445464748494a4b4c4d4e4f5051525354555657...
    [Length: 32]

0000  08 00 27 62 0e 57 08 00 27 41 0f d0 08 00 45 00   ..'b.W..'A....E.
0010  00 3c 3d 46 00 00 05 11 b0 74 0a 49 0e 05 d8 3a   .<=F.....t.I...:
0020  d7 6e 8e 30 82 a7 00 28 c8 30 40 41 42 43 44 45   .n.0...(.0@ABCDE
0030  46 47 48 49 4a 4b 4c 4d 4e 4f 50 51 52 53 54 55   FGHIJKLMNOPQRSTU
0040  56 57 58 59 5a 5b 5c 5d 5e 5f                     VWXYZ[\]^_
No.     Time           Source                Destination           Protocol Length Info
     22 0.053058635    10.73.14.5            216.58.215.110        UDP      74     Source port: 45748  Destination port: 33448

Frame 22: 74 bytes on wire (592 bits), 74 bytes captured (592 bits) on interface 0
    Interface id: 0
    Encapsulation type: Ethernet (1)
    Arrival Time: Oct 23, 2022 15:55:38.813452921 MSK
    [Time shift for this packet: 0.000000000 seconds]
    Epoch Time: 1666529738.813452921 seconds
    [Time delta from previous captured frame: 0.000148576 seconds]
    [Time delta from previous displayed frame: 0.000148576 seconds]
    [Time since reference or first frame: 0.053058635 seconds]
    Frame Number: 22
    Frame Length: 74 bytes (592 bits)
    Capture Length: 74 bytes (592 bits)
    [Frame is marked: False]
    [Frame is ignored: False]
    [Protocols in frame: eth:ip:udp:data]
    [Coloring Rule Name: UDP]
    [Coloring Rule String: udp]
Ethernet II, Src: CadmusCo_41:0f:d0 (08:00:27:41:0f:d0), Dst: CadmusCo_62:0e:57 (08:00:27:62:0e:57)
    Destination: CadmusCo_62:0e:57 (08:00:27:62:0e:57)
        Address: CadmusCo_62:0e:57 (08:00:27:62:0e:57)
        .... ..0. .... .... .... .... = LG bit: Globally unique address (factory default)
        .... ...0 .... .... .... .... = IG bit: Individual address (unicast)
    Source: CadmusCo_41:0f:d0 (08:00:27:41:0f:d0)
        Address: CadmusCo_41:0f:d0 (08:00:27:41:0f:d0)
        .... ..0. .... .... .... .... = LG bit: Globally unique address (factory default)
        .... ...0 .... .... .... .... = IG bit: Individual address (unicast)
    Type: IP (0x0800)
Internet Protocol Version 4, Src: 10.73.14.5 (10.73.14.5), Dst: 216.58.215.110 (216.58.215.110)
    Version: 4
    Header length: 20 bytes
    Differentiated Services Field: 0x00 (DSCP 0x00: Default; ECN: 0x00: Not-ECT (Not ECN-Capable Transport))
        0000 00.. = Differentiated Services Codepoint: Default (0x00)
        .... ..00 = Explicit Congestion Notification: Not-ECT (Not ECN-Capable Transport) (0x00)
    Total Length: 60
    Identification: 0x3d47 (15687)
    Flags: 0x00
        0... .... = Reserved bit: Not set
        .0.. .... = Don't fragment: Not set
        ..0. .... = More fragments: Not set
    Fragment offset: 0
    Time to live: 5
    Protocol: UDP (17)
    Header checksum: 0xb073 [validation disabled]
        [Good: False]
        [Bad: False]
    Source: 10.73.14.5 (10.73.14.5)
    Destination: 216.58.215.110 (216.58.215.110)
User Datagram Protocol, Src Port: 45748 (45748), Dst Port: 33448 (33448)
    Source port: 45748 (45748)
    Destination port: 33448 (33448)
        [Expert Info (Chat/Sequence): Possible traceroute: hop #5, attempt #2]
            [Message: Possible traceroute: hop #5, attempt #2]
            [Severity level: Chat]
            [Group: Sequence]
    Length: 40
    Checksum: 0xc830 [validation disabled]
        [Good Checksum: False]
        [Bad Checksum: False]
Data (32 bytes)
    Data: 404142434445464748494a4b4c4d4e4f5051525354555657...
    [Length: 32]

0000  08 00 27 62 0e 57 08 00 27 41 0f d0 08 00 45 00   ..'b.W..'A....E.
0010  00 3c 3d 47 00 00 05 11 b0 73 0a 49 0e 05 d8 3a   .<=G.....s.I...:
0020  d7 6e b2 b4 82 a8 00 28 c8 30 40 41 42 43 44 45   .n.....(.0@ABCDE
0030  46 47 48 49 4a 4b 4c 4d 4e 4f 50 51 52 53 54 55   FGHIJKLMNOPQRSTU
0040  56 57 58 59 5a 5b 5c 5d 5e 5f                     VWXYZ[\]^_
No.     Time           Source                Destination           Protocol Length Info
     23 0.053171508    10.73.14.5            216.58.215.110        UDP      74     Source port: 60389  Destination port: 33449

Frame 23: 74 bytes on wire (592 bits), 74 bytes captured (592 bits) on interface 0
    Interface id: 0
    Encapsulation type: Ethernet (1)
    Arrival Time: Oct 23, 2022 15:55:38.813565794 MSK
    [Time shift for this packet: 0.000000000 seconds]
    Epoch Time: 1666529738.813565794 seconds
    [Time delta from previous captured frame: 0.000112873 seconds]
    [Time delta from previous displayed frame: 0.000112873 seconds]
    [Time since reference or first frame: 0.053171508 seconds]
    Frame Number: 23
    Frame Length: 74 bytes (592 bits)
    Capture Length: 74 bytes (592 bits)
    [Frame is marked: False]
    [Frame is ignored: False]
    [Protocols in frame: eth:ip:udp:data]
    [Coloring Rule Name: UDP]
    [Coloring Rule String: udp]
Ethernet II, Src: CadmusCo_41:0f:d0 (08:00:27:41:0f:d0), Dst: CadmusCo_62:0e:57 (08:00:27:62:0e:57)
    Destination: CadmusCo_62:0e:57 (08:00:27:62:0e:57)
        Address: CadmusCo_62:0e:57 (08:00:27:62:0e:57)
        .... ..0. .... .... .... .... = LG bit: Globally unique address (factory default)
        .... ...0 .... .... .... .... = IG bit: Individual address (unicast)
    Source: CadmusCo_41:0f:d0 (08:00:27:41:0f:d0)
        Address: CadmusCo_41:0f:d0 (08:00:27:41:0f:d0)
        .... ..0. .... .... .... .... = LG bit: Globally unique address (factory default)
        .... ...0 .... .... .... .... = IG bit: Individual address (unicast)
    Type: IP (0x0800)
Internet Protocol Version 4, Src: 10.73.14.5 (10.73.14.5), Dst: 216.58.215.110 (216.58.215.110)
    Version: 4
    Header length: 20 bytes
    Differentiated Services Field: 0x00 (DSCP 0x00: Default; ECN: 0x00: Not-ECT (Not ECN-Capable Transport))
        0000 00.. = Differentiated Services Codepoint: Default (0x00)
        .... ..00 = Explicit Congestion Notification: Not-ECT (Not ECN-Capable Transport) (0x00)
    Total Length: 60
    Identification: 0x3d48 (15688)
    Flags: 0x00
        0... .... = Reserved bit: Not set
        .0.. .... = Don't fragment: Not set
        ..0. .... = More fragments: Not set
    Fragment offset: 0
    Time to live: 6
    Protocol: UDP (17)
    Header checksum: 0xaf72 [validation disabled]
        [Good: False]
        [Bad: False]
    Source: 10.73.14.5 (10.73.14.5)
    Destination: 216.58.215.110 (216.58.215.110)
User Datagram Protocol, Src Port: 60389 (60389), Dst Port: 33449 (33449)
    Source port: 60389 (60389)
    Destination port: 33449 (33449)
        [Expert Info (Chat/Sequence): Possible traceroute: hop #5, attempt #3]
            [Message: Possible traceroute: hop #5, attempt #3]
            [Severity level: Chat]
            [Group: Sequence]
    Length: 40
    Checksum: 0xc830 [validation disabled]
        [Good Checksum: False]
        [Bad Checksum: False]
Data (32 bytes)
    Data: 404142434445464748494a4b4c4d4e4f5051525354555657...
    [Length: 32]

0000  08 00 27 62 0e 57 08 00 27 41 0f d0 08 00 45 00   ..'b.W..'A....E.
0010  00 3c 3d 48 00 00 06 11 af 72 0a 49 0e 05 d8 3a   .<=H.....r.I...:
0020  d7 6e eb e5 82 a9 00 28 c8 30 40 41 42 43 44 45   .n.....(.0@ABCDE
0030  46 47 48 49 4a 4b 4c 4d 4e 4f 50 51 52 53 54 55   FGHIJKLMNOPQRSTU
0040  56 57 58 59 5a 5b 5c 5d 5e 5f                     VWXYZ[\]^_
No.     Time           Source                Destination           Protocol Length Info
     24 0.053411992    10.73.14.5            192.168.0.1           DNS      85     Standard query 0x6138  PTR 254.14.73.10.in-addr.arpa

Frame 24: 85 bytes on wire (680 bits), 85 bytes captured (680 bits) on interface 0
    Interface id: 0
    Encapsulation type: Ethernet (1)
    Arrival Time: Oct 23, 2022 15:55:38.813806278 MSK
    [Time shift for this packet: 0.000000000 seconds]
    Epoch Time: 1666529738.813806278 seconds
    [Time delta from previous captured frame: 0.000240484 seconds]
    [Time delta from previous displayed frame: 0.000240484 seconds]
    [Time since reference or first frame: 0.053411992 seconds]
    Frame Number: 24
    Frame Length: 85 bytes (680 bits)
    Capture Length: 85 bytes (680 bits)
    [Frame is marked: False]
    [Frame is ignored: False]
    [Protocols in frame: eth:ip:udp:dns]
    [Coloring Rule Name: UDP]
    [Coloring Rule String: udp]
Ethernet II, Src: CadmusCo_41:0f:d0 (08:00:27:41:0f:d0), Dst: CadmusCo_62:0e:57 (08:00:27:62:0e:57)
    Destination: CadmusCo_62:0e:57 (08:00:27:62:0e:57)
        Address: CadmusCo_62:0e:57 (08:00:27:62:0e:57)
        .... ..0. .... .... .... .... = LG bit: Globally unique address (factory default)
        .... ...0 .... .... .... .... = IG bit: Individual address (unicast)
    Source: CadmusCo_41:0f:d0 (08:00:27:41:0f:d0)
        Address: CadmusCo_41:0f:d0 (08:00:27:41:0f:d0)
        .... ..0. .... .... .... .... = LG bit: Globally unique address (factory default)
        .... ...0 .... .... .... .... = IG bit: Individual address (unicast)
    Type: IP (0x0800)
Internet Protocol Version 4, Src: 10.73.14.5 (10.73.14.5), Dst: 192.168.0.1 (192.168.0.1)
    Version: 4
    Header length: 20 bytes
    Differentiated Services Field: 0x00 (DSCP 0x00: Default; ECN: 0x00: Not-ECT (Not ECN-Capable Transport))
        0000 00.. = Differentiated Services Codepoint: Default (0x00)
        .... ..00 = Explicit Congestion Notification: Not-ECT (Not ECN-Capable Transport) (0x00)
    Total Length: 71
    Identification: 0x3ee3 (16099)
    Flags: 0x02 (Don't Fragment)
        0... .... = Reserved bit: Not set
        .1.. .... = Don't fragment: Set
        ..0. .... = More fragments: Not set
    Fragment offset: 0
    Time to live: 64
    Protocol: UDP (17)
    Header checksum: 0x22cc [validation disabled]
        [Good: False]
        [Bad: False]
    Source: 10.73.14.5 (10.73.14.5)
    Destination: 192.168.0.1 (192.168.0.1)
User Datagram Protocol, Src Port: 40823 (40823), Dst Port: domain (53)
    Source port: 40823 (40823)
    Destination port: domain (53)
    Length: 51
    Checksum: 0xd93b [validation disabled]
        [Good Checksum: False]
        [Bad Checksum: False]
Domain Name System (query)
    [Response In: 37]
    Transaction ID: 0x6138
    Flags: 0x0100 Standard query
        0... .... .... .... = Response: Message is a query
        .000 0... .... .... = Opcode: Standard query (0)
        .... ..0. .... .... = Truncated: Message is not truncated
        .... ...1 .... .... = Recursion desired: Do query recursively
        .... .... .0.. .... = Z: reserved (0)
        .... .... ...0 .... = Non-authenticated data: Unacceptable
    Questions: 1
    Answer RRs: 0
    Authority RRs: 0
    Additional RRs: 0
    Queries
        254.14.73.10.in-addr.arpa: type PTR, class IN
            Name: 254.14.73.10.in-addr.arpa
            Type: PTR (Domain name pointer)
            Class: IN (0x0001)

0000  08 00 27 62 0e 57 08 00 27 41 0f d0 08 00 45 00   ..'b.W..'A....E.
0010  00 47 3e e3 40 00 40 11 22 cc 0a 49 0e 05 c0 a8   .G>.@.@."..I....
0020  00 01 9f 77 00 35 00 33 d9 3b 61 38 01 00 00 01   ...w.5.3.;a8....
0030  00 00 00 00 00 00 03 32 35 34 02 31 34 02 37 33   .......254.14.73
0040  02 31 30 07 69 6e 2d 61 64 64 72 04 61 72 70 61   .10.in-addr.arpa
0050  00 00 0c 00 01                                    .....
No.     Time           Source                Destination           Protocol Length Info
     25 0.078631433    192.168.0.1           10.73.14.5            ICMP     102    Time-to-live exceeded (Time to live exceeded in transit)

Frame 25: 102 bytes on wire (816 bits), 102 bytes captured (816 bits) on interface 0
    Interface id: 0
    Encapsulation type: Ethernet (1)
    Arrival Time: Oct 23, 2022 15:55:38.839025719 MSK
    [Time shift for this packet: 0.000000000 seconds]
    Epoch Time: 1666529738.839025719 seconds
    [Time delta from previous captured frame: 0.025219441 seconds]
    [Time delta from previous displayed frame: 0.025219441 seconds]
    [Time since reference or first frame: 0.078631433 seconds]
    Frame Number: 25
    Frame Length: 102 bytes (816 bits)
    Capture Length: 102 bytes (816 bits)
    [Frame is marked: False]
    [Frame is ignored: False]
    [Protocols in frame: eth:ip:icmp:ip:udp:data]
    [Coloring Rule Name: ICMP errors]
    [Coloring Rule String: icmp.type eq 3 || icmp.type eq 4 || icmp.type eq 5 || icmp.type eq 11 || icmpv6.type eq 1 || icmpv6.type eq 2 || icmpv6.type eq 3 || icmpv6.type eq 4]
Ethernet II, Src: CadmusCo_62:0e:57 (08:00:27:62:0e:57), Dst: CadmusCo_41:0f:d0 (08:00:27:41:0f:d0)
    Destination: CadmusCo_41:0f:d0 (08:00:27:41:0f:d0)
        Address: CadmusCo_41:0f:d0 (08:00:27:41:0f:d0)
        .... ..0. .... .... .... .... = LG bit: Globally unique address (factory default)
        .... ...0 .... .... .... .... = IG bit: Individual address (unicast)
    Source: CadmusCo_62:0e:57 (08:00:27:62:0e:57)
        Address: CadmusCo_62:0e:57 (08:00:27:62:0e:57)
        .... ..0. .... .... .... .... = LG bit: Globally unique address (factory default)
        .... ...0 .... .... .... .... = IG bit: Individual address (unicast)
    Type: IP (0x0800)
Internet Protocol Version 4, Src: 192.168.0.1 (192.168.0.1), Dst: 10.73.14.5 (10.73.14.5)
    Version: 4
    Header length: 20 bytes
    Differentiated Services Field: 0xc0 (DSCP 0x30: Class Selector 6; ECN: 0x00: Not-ECT (Not ECN-Capable Transport))
        1100 00.. = Differentiated Services Codepoint: Class Selector 6 (0x30)
        .... ..00 = Explicit Congestion Notification: Not-ECT (Not ECN-Capable Transport) (0x00)
    Total Length: 88
    Identification: 0x9c71 (40049)
    Flags: 0x00
        0... .... = Reserved bit: Not set
        .0.. .... = Don't fragment: Not set
        ..0. .... = More fragments: Not set
    Fragment offset: 0
    Time to live: 63
    Protocol: ICMP (1)
    Header checksum: 0x057d [validation disabled]
        [Good: False]
        [Bad: False]
    Source: 192.168.0.1 (192.168.0.1)
    Destination: 10.73.14.5 (10.73.14.5)
Internet Control Message Protocol
    Type: 11 (Time-to-live exceeded)
    Code: 0 (Time to live exceeded in transit)
    Checksum: 0xbd30 [correct]
    Internet Protocol Version 4, Src: 10.73.14.5 (10.73.14.5), Dst: 216.58.215.110 (216.58.215.110)
        Version: 4
        Header length: 20 bytes
        Differentiated Services Field: 0x00 (DSCP 0x00: Default; ECN: 0x00: Not-ECT (Not ECN-Capable Transport))
            0000 00.. = Differentiated Services Codepoint: Default (0x00)
            .... ..00 = Explicit Congestion Notification: Not-ECT (Not ECN-Capable Transport) (0x00)
        Total Length: 60
        Identification: 0x3d3c (15676)
        Flags: 0x00
            0... .... = Reserved bit: Not set
            .0.. .... = Don't fragment: Not set
            ..0. .... = More fragments: Not set
        Fragment offset: 0
        Time to live: 1
            [Expert Info (Note/Sequence): "Time To Live" only 1]
                [Message: "Time To Live" only 1]
                [Severity level: Note]
                [Group: Sequence]
        Protocol: UDP (17)
        Header checksum: 0xb47e [validation disabled]
            [Good: False]
            [Bad: False]
        Source: 10.73.14.5 (10.73.14.5)
        Destination: 216.58.215.110 (216.58.215.110)
    User Datagram Protocol, Src Port: 38336 (38336), Dst Port: 33437 (33437)
        Source port: 38336 (38336)
        Destination port: 33437 (33437)
            [Expert Info (Chat/Sequence): Possible traceroute: hop #1, attempt #3]
                [Message: Possible traceroute: hop #1, attempt #3]
                [Severity level: Chat]
                [Group: Sequence]
        Length: 40
        Checksum: 0x2a44 [validation disabled]
            [Good Checksum: False]
            [Bad Checksum: False]
    Data (32 bytes)
        Data: 404142434445464748494a4b4c4d4e4f5051525354555657...
        [Length: 32]

0000  08 00 27 41 0f d0 08 00 27 62 0e 57 08 00 45 c0   ..'A....'b.W..E.
0010  00 58 9c 71 00 00 3f 01 05 7d c0 a8 00 01 0a 49   .X.q..?..}.....I
0020  0e 05 0b 00 bd 30 00 00 00 00 45 00 00 3c 3d 3c   .....0....E..<=<
0030  00 00 01 11 b4 7e 0a 49 0e 05 d8 3a d7 6e 95 c0   .....~.I...:.n..
0040  82 9d 00 28 2a 44 40 41 42 43 44 45 46 47 48 49   ...(*D@ABCDEFGHI
0050  4a 4b 4c 4d 4e 4f 50 51 52 53 54 55 56 57 58 59   JKLMNOPQRSTUVWXY
0060  5a 5b 5c 5d 5e 5f                                 Z[\]^_
No.     Time           Source                Destination           Protocol Length Info
     26 0.091082342    192.168.0.1           10.73.14.5            ICMP     102    Time-to-live exceeded (Time to live exceeded in transit)

Frame 26: 102 bytes on wire (816 bits), 102 bytes captured (816 bits) on interface 0
    Interface id: 0
    Encapsulation type: Ethernet (1)
    Arrival Time: Oct 23, 2022 15:55:38.851476628 MSK
    [Time shift for this packet: 0.000000000 seconds]
    Epoch Time: 1666529738.851476628 seconds
    [Time delta from previous captured frame: 0.012450909 seconds]
    [Time delta from previous displayed frame: 0.012450909 seconds]
    [Time since reference or first frame: 0.091082342 seconds]
    Frame Number: 26
    Frame Length: 102 bytes (816 bits)
    Capture Length: 102 bytes (816 bits)
    [Frame is marked: False]
    [Frame is ignored: False]
    [Protocols in frame: eth:ip:icmp:ip:udp:data]
    [Coloring Rule Name: ICMP errors]
    [Coloring Rule String: icmp.type eq 3 || icmp.type eq 4 || icmp.type eq 5 || icmp.type eq 11 || icmpv6.type eq 1 || icmpv6.type eq 2 || icmpv6.type eq 3 || icmpv6.type eq 4]
