No.     Time           Source                Destination           Protocol Length Info
      1 0.000000000    10.73.14.5            10.73.14.254          TCP      74     35588 → 7314 [SYN] Seq=0 Win=29200 Len=0 MSS=1460 SACK_PERM=1 TSval=199828 TSecr=0 WS=128

Frame 1: 74 bytes on wire (592 bits), 74 bytes captured (592 bits) on interface enp0s8, id 0
    Interface id: 0 (enp0s8)
        Interface name: enp0s8
    Encapsulation type: Ethernet (1)
    Arrival Time: Oct 25, 2022 18:33:14.840858223 EEST
    [Time shift for this packet: 0.000000000 seconds]
    Epoch Time: 1666711994.840858223 seconds
    [Time delta from previous captured frame: 0.000000000 seconds]
    [Time delta from previous displayed frame: 0.000000000 seconds]
    [Time since reference or first frame: 0.000000000 seconds]
    Frame Number: 1
    Frame Length: 74 bytes (592 bits)
    Capture Length: 74 bytes (592 bits)
    [Frame is marked: False]
    [Frame is ignored: False]
    [Protocols in frame: eth:ethertype:ip:tcp]
    [Coloring Rule Name: TCP SYN/FIN]
    [Coloring Rule String: tcp.flags & 0x02 || tcp.flags.fin == 1]
Ethernet II, Src: PcsCompu_41:0f:d0 (08:00:27:41:0f:d0), Dst: PcsCompu_62:0e:57 (08:00:27:62:0e:57)
    Destination: PcsCompu_62:0e:57 (08:00:27:62:0e:57)
        Address: PcsCompu_62:0e:57 (08:00:27:62:0e:57)
        .... ..0. .... .... .... .... = LG bit: Globally unique address (factory default)
        .... ...0 .... .... .... .... = IG bit: Individual address (unicast)
    Source: PcsCompu_41:0f:d0 (08:00:27:41:0f:d0)
        Address: PcsCompu_41:0f:d0 (08:00:27:41:0f:d0)
        .... ..0. .... .... .... .... = LG bit: Globally unique address (factory default)
        .... ...0 .... .... .... .... = IG bit: Individual address (unicast)
    Type: IPv4 (0x0800)
Internet Protocol Version 4, Src: 10.73.14.5, Dst: 10.73.14.254
    0100 .... = Version: 4
    .... 0101 = Header Length: 20 bytes (5)
    Differentiated Services Field: 0x00 (DSCP: CS0, ECN: Not-ECT)
        0000 00.. = Differentiated Services Codepoint: Default (0)
        .... ..00 = Explicit Congestion Notification: Not ECN-Capable Transport (0)
    Total Length: 60
    Identification: 0x3e63 (15971)
    Flags: 0x40, Don't fragment
        0... .... = Reserved bit: Not set
        .1.. .... = Don't fragment: Set
        ..0. .... = More fragments: Not set
    ...0 0000 0000 0000 = Fragment Offset: 0
    Time to Live: 64
    Protocol: TCP (6)
    Header Checksum: 0xcac4 [validation disabled]
    [Header checksum status: Unverified]
    Source Address: 10.73.14.5
    Destination Address: 10.73.14.254
Transmission Control Protocol, Src Port: 35588, Dst Port: 7314, Seq: 0, Len: 0
    Source Port: 35588
    Destination Port: 7314
    [Stream index: 0]
    [Conversation completeness: Incomplete, DATA (15)]
    [TCP Segment Len: 0]
    Sequence Number: 0    (relative sequence number)
    Sequence Number (raw): 2410885879
    [Next Sequence Number: 1    (relative sequence number)]
    Acknowledgment Number: 0
    Acknowledgment number (raw): 0
    1010 .... = Header Length: 40 bytes (10)
    Flags: 0x002 (SYN)
        000. .... .... = Reserved: Not set
        ...0 .... .... = Nonce: Not set
        .... 0... .... = Congestion Window Reduced (CWR): Not set
        .... .0.. .... = ECN-Echo: Not set
        .... ..0. .... = Urgent: Not set
        .... ...0 .... = Acknowledgment: Not set
        .... .... 0... = Push: Not set
        .... .... .0.. = Reset: Not set
        .... .... ..1. = Syn: Set
            [Expert Info (Chat/Sequence): Connection establish request (SYN): server port 7314]
                [Connection establish request (SYN): server port 7314]
                [Severity level: Chat]
                [Group: Sequence]
        .... .... ...0 = Fin: Not set
        [TCP Flags: ··········S·]
    Window: 29200
    [Calculated window size: 29200]
    Checksum: 0x2d83 [unverified]
    [Checksum Status: Unverified]
    Urgent Pointer: 0
    Options: (20 bytes), Maximum segment size, SACK permitted, Timestamps, No-Operation (NOP), Window scale
        TCP Option - Maximum segment size: 1460 bytes
            Kind: Maximum Segment Size (2)
            Length: 4
            MSS Value: 1460
        TCP Option - SACK permitted
            Kind: SACK Permitted (4)
            Length: 2
        TCP Option - Timestamps: TSval 199828, TSecr 0
            Kind: Time Stamp Option (8)
            Length: 10
            Timestamp value: 199828
            Timestamp echo reply: 0
        TCP Option - No-Operation (NOP)
            Kind: No-Operation (1)
        TCP Option - Window scale: 7 (multiply by 128)
            Kind: Window Scale (3)
            Length: 3
            Shift count: 7
            [Multiplier: 128]
    [Timestamps]
        [Time since first frame in this TCP stream: 0.000000000 seconds]
        [Time since previous frame in this TCP stream: 0.000000000 seconds]

0000  08 00 27 62 0e 57 08 00 27 41 0f d0 08 00 45 00   ..'b.W..'A....E.
0010  00 3c 3e 63 40 00 40 06 ca c4 0a 49 0e 05 0a 49   .<>c@.@....I...I
0020  0e fe 8b 04 1c 92 8f b3 32 f7 00 00 00 00 a0 02   ........2.......
0030  72 10 2d 83 00 00 02 04 05 b4 04 02 08 0a 00 03   r.-.............
0040  0c 94 00 00 00 00 01 03 03 07                     ..........

No.     Time           Source                Destination           Protocol Length Info
      2 0.000052091    10.73.14.254          10.73.14.5            TCP      74     7314 → 35588 [SYN, ACK] Seq=0 Ack=1 Win=65160 Len=0 MSS=1460 SACK_PERM=1 TSval=1241141781 TSecr=199828 WS=128

Frame 2: 74 bytes on wire (592 bits), 74 bytes captured (592 bits) on interface enp0s8, id 0
    Interface id: 0 (enp0s8)
        Interface name: enp0s8
    Encapsulation type: Ethernet (1)
    Arrival Time: Oct 25, 2022 18:33:14.840910314 EEST
    [Time shift for this packet: 0.000000000 seconds]
    Epoch Time: 1666711994.840910314 seconds
    [Time delta from previous captured frame: 0.000052091 seconds]
    [Time delta from previous displayed frame: 0.000052091 seconds]
    [Time since reference or first frame: 0.000052091 seconds]
    Frame Number: 2
    Frame Length: 74 bytes (592 bits)
    Capture Length: 74 bytes (592 bits)
    [Frame is marked: False]
    [Frame is ignored: False]
    [Protocols in frame: eth:ethertype:ip:tcp]
    [Coloring Rule Name: TCP SYN/FIN]
    [Coloring Rule String: tcp.flags & 0x02 || tcp.flags.fin == 1]
Ethernet II, Src: PcsCompu_62:0e:57 (08:00:27:62:0e:57), Dst: PcsCompu_41:0f:d0 (08:00:27:41:0f:d0)
    Destination: PcsCompu_41:0f:d0 (08:00:27:41:0f:d0)
        Address: PcsCompu_41:0f:d0 (08:00:27:41:0f:d0)
        .... ..0. .... .... .... .... = LG bit: Globally unique address (factory default)
        .... ...0 .... .... .... .... = IG bit: Individual address (unicast)
    Source: PcsCompu_62:0e:57 (08:00:27:62:0e:57)
        Address: PcsCompu_62:0e:57 (08:00:27:62:0e:57)
        .... ..0. .... .... .... .... = LG bit: Globally unique address (factory default)
        .... ...0 .... .... .... .... = IG bit: Individual address (unicast)
    Type: IPv4 (0x0800)
Internet Protocol Version 4, Src: 10.73.14.254, Dst: 10.73.14.5
    0100 .... = Version: 4
    .... 0101 = Header Length: 20 bytes (5)
    Differentiated Services Field: 0x00 (DSCP: CS0, ECN: Not-ECT)
        0000 00.. = Differentiated Services Codepoint: Default (0)
        .... ..00 = Explicit Congestion Notification: Not ECN-Capable Transport (0)
    Total Length: 60
    Identification: 0x0000 (0)
    Flags: 0x40, Don't fragment
        0... .... = Reserved bit: Not set
        .1.. .... = Don't fragment: Set
        ..0. .... = More fragments: Not set
    ...0 0000 0000 0000 = Fragment Offset: 0
    Time to Live: 64
    Protocol: TCP (6)
    Header Checksum: 0x0928 [validation disabled]
    [Header checksum status: Unverified]
    Source Address: 10.73.14.254
    Destination Address: 10.73.14.5
Transmission Control Protocol, Src Port: 7314, Dst Port: 35588, Seq: 0, Ack: 1, Len: 0
    Source Port: 7314
    Destination Port: 35588
    [Stream index: 0]
    [Conversation completeness: Incomplete, DATA (15)]
    [TCP Segment Len: 0]
    Sequence Number: 0    (relative sequence number)
    Sequence Number (raw): 1951751561
    [Next Sequence Number: 1    (relative sequence number)]
    Acknowledgment Number: 1    (relative ack number)
    Acknowledgment number (raw): 2410885880
    1010 .... = Header Length: 40 bytes (10)
    Flags: 0x012 (SYN, ACK)
        000. .... .... = Reserved: Not set
        ...0 .... .... = Nonce: Not set
        .... 0... .... = Congestion Window Reduced (CWR): Not set
        .... .0.. .... = ECN-Echo: Not set
        .... ..0. .... = Urgent: Not set
        .... ...1 .... = Acknowledgment: Set
        .... .... 0... = Push: Not set
        .... .... .0.. = Reset: Not set
        .... .... ..1. = Syn: Set
            [Expert Info (Chat/Sequence): Connection establish acknowledge (SYN+ACK): server port 7314]
                [Connection establish acknowledge (SYN+ACK): server port 7314]
                [Severity level: Chat]
                [Group: Sequence]
        .... .... ...0 = Fin: Not set
        [TCP Flags: ·······A··S·]
    Window: 65160
    [Calculated window size: 65160]
    Checksum: 0x31c3 [unverified]
    [Checksum Status: Unverified]
    Urgent Pointer: 0
    Options: (20 bytes), Maximum segment size, SACK permitted, Timestamps, No-Operation (NOP), Window scale
        TCP Option - Maximum segment size: 1460 bytes
            Kind: Maximum Segment Size (2)
            Length: 4
            MSS Value: 1460
        TCP Option - SACK permitted
            Kind: SACK Permitted (4)
            Length: 2
        TCP Option - Timestamps: TSval 1241141781, TSecr 199828
            Kind: Time Stamp Option (8)
            Length: 10
            Timestamp value: 1241141781
            Timestamp echo reply: 199828
        TCP Option - No-Operation (NOP)
            Kind: No-Operation (1)
        TCP Option - Window scale: 7 (multiply by 128)
            Kind: Window Scale (3)
            Length: 3
            Shift count: 7
            [Multiplier: 128]
    [Timestamps]
        [Time since first frame in this TCP stream: 0.000052091 seconds]
        [Time since previous frame in this TCP stream: 0.000052091 seconds]
    [SEQ/ACK analysis]
        [This is an ACK to the segment in frame: 1]
        [The RTT to ACK the segment was: 0.000052091 seconds]
        [iRTT: 0.000270823 seconds]

0000  08 00 27 41 0f d0 08 00 27 62 0e 57 08 00 45 00   ..'A....'b.W..E.
0010  00 3c 00 00 40 00 40 06 09 28 0a 49 0e fe 0a 49   .<..@.@..(.I...I
0020  0e 05 1c 92 8b 04 74 55 5d 89 8f b3 32 f8 a0 12   ......tU]...2...
0030  fe 88 31 c3 00 00 02 04 05 b4 04 02 08 0a 49 fa   ..1...........I.
0040  52 15 00 03 0c 94 01 03 03 07                     R.........

No.     Time           Source                Destination           Protocol Length Info
      3 0.000270823    10.73.14.5            10.73.14.254          TCP      66     35588 → 7314 [ACK] Seq=1 Ack=1 Win=29312 Len=0 TSval=199829 TSecr=1241141781

Frame 3: 66 bytes on wire (528 bits), 66 bytes captured (528 bits) on interface enp0s8, id 0
    Interface id: 0 (enp0s8)
        Interface name: enp0s8
    Encapsulation type: Ethernet (1)
    Arrival Time: Oct 25, 2022 18:33:14.841129046 EEST
    [Time shift for this packet: 0.000000000 seconds]
    Epoch Time: 1666711994.841129046 seconds
    [Time delta from previous captured frame: 0.000218732 seconds]
    [Time delta from previous displayed frame: 0.000218732 seconds]
    [Time since reference or first frame: 0.000270823 seconds]
    Frame Number: 3
    Frame Length: 66 bytes (528 bits)
    Capture Length: 66 bytes (528 bits)
    [Frame is marked: False]
    [Frame is ignored: False]
    [Protocols in frame: eth:ethertype:ip:tcp]
    [Coloring Rule Name: TCP]
    [Coloring Rule String: tcp]
Ethernet II, Src: PcsCompu_41:0f:d0 (08:00:27:41:0f:d0), Dst: PcsCompu_62:0e:57 (08:00:27:62:0e:57)
    Destination: PcsCompu_62:0e:57 (08:00:27:62:0e:57)
        Address: PcsCompu_62:0e:57 (08:00:27:62:0e:57)
        .... ..0. .... .... .... .... = LG bit: Globally unique address (factory default)
        .... ...0 .... .... .... .... = IG bit: Individual address (unicast)
    Source: PcsCompu_41:0f:d0 (08:00:27:41:0f:d0)
        Address: PcsCompu_41:0f:d0 (08:00:27:41:0f:d0)
        .... ..0. .... .... .... .... = LG bit: Globally unique address (factory default)
        .... ...0 .... .... .... .... = IG bit: Individual address (unicast)
    Type: IPv4 (0x0800)
Internet Protocol Version 4, Src: 10.73.14.5, Dst: 10.73.14.254
    0100 .... = Version: 4
    .... 0101 = Header Length: 20 bytes (5)
    Differentiated Services Field: 0x00 (DSCP: CS0, ECN: Not-ECT)
        0000 00.. = Differentiated Services Codepoint: Default (0)
        .... ..00 = Explicit Congestion Notification: Not ECN-Capable Transport (0)
    Total Length: 52
    Identification: 0x3e64 (15972)
    Flags: 0x40, Don't fragment
        0... .... = Reserved bit: Not set
        .1.. .... = Don't fragment: Set
        ..0. .... = More fragments: Not set
    ...0 0000 0000 0000 = Fragment Offset: 0
    Time to Live: 64
    Protocol: TCP (6)
    Header Checksum: 0xcacb [validation disabled]
    [Header checksum status: Unverified]
    Source Address: 10.73.14.5
    Destination Address: 10.73.14.254
Transmission Control Protocol, Src Port: 35588, Dst Port: 7314, Seq: 1, Ack: 1, Len: 0
    Source Port: 35588
    Destination Port: 7314
    [Stream index: 0]
    [Conversation completeness: Incomplete, DATA (15)]
    [TCP Segment Len: 0]
    Sequence Number: 1    (relative sequence number)
    Sequence Number (raw): 2410885880
    [Next Sequence Number: 1    (relative sequence number)]
    Acknowledgment Number: 1    (relative ack number)
    Acknowledgment number (raw): 1951751562
    1000 .... = Header Length: 32 bytes (8)
    Flags: 0x010 (ACK)
        000. .... .... = Reserved: Not set
        ...0 .... .... = Nonce: Not set
        .... 0... .... = Congestion Window Reduced (CWR): Not set
        .... .0.. .... = ECN-Echo: Not set
        .... ..0. .... = Urgent: Not set
        .... ...1 .... = Acknowledgment: Set
        .... .... 0... = Push: Not set
        .... .... .0.. = Reset: Not set
        .... .... ..0. = Syn: Not set
        .... .... ...0 = Fin: Not set
        [TCP Flags: ·······A····]
    Window: 229
    [Calculated window size: 29312]
    [Window size scaling factor: 128]
    Checksum: 0x5f7a [unverified]
    [Checksum Status: Unverified]
    Urgent Pointer: 0
    Options: (12 bytes), No-Operation (NOP), No-Operation (NOP), Timestamps
        TCP Option - No-Operation (NOP)
            Kind: No-Operation (1)
        TCP Option - No-Operation (NOP)
            Kind: No-Operation (1)
        TCP Option - Timestamps: TSval 199829, TSecr 1241141781
            Kind: Time Stamp Option (8)
            Length: 10
            Timestamp value: 199829
            Timestamp echo reply: 1241141781
    [Timestamps]
        [Time since first frame in this TCP stream: 0.000270823 seconds]
        [Time since previous frame in this TCP stream: 0.000218732 seconds]
    [SEQ/ACK analysis]
        [This is an ACK to the segment in frame: 2]
        [The RTT to ACK the segment was: 0.000218732 seconds]
        [iRTT: 0.000270823 seconds]

0000  08 00 27 62 0e 57 08 00 27 41 0f d0 08 00 45 00   ..'b.W..'A....E.
0010  00 34 3e 64 40 00 40 06 ca cb 0a 49 0e 05 0a 49   .4>d@.@....I...I
0020  0e fe 8b 04 1c 92 8f b3 32 f8 74 55 5d 8a 80 10   ........2.tU]...
0030  00 e5 5f 7a 00 00 01 01 08 0a 00 03 0c 95 49 fa   .._z..........I.
0040  52 15                                             R.

No.     Time           Source                Destination           Protocol Length Info
      4 0.010249645    10.73.14.5            10.73.14.254          TCP      87     35588 → 7314 [PSH, ACK] Seq=1 Ack=1 Win=29312 Len=21 TSval=199838 TSecr=1241141781

Frame 4: 87 bytes on wire (696 bits), 87 bytes captured (696 bits) on interface enp0s8, id 0
    Interface id: 0 (enp0s8)
        Interface name: enp0s8
    Encapsulation type: Ethernet (1)
    Arrival Time: Oct 25, 2022 18:33:14.851107868 EEST
    [Time shift for this packet: 0.000000000 seconds]
    Epoch Time: 1666711994.851107868 seconds
    [Time delta from previous captured frame: 0.009978822 seconds]
    [Time delta from previous displayed frame: 0.009978822 seconds]
    [Time since reference or first frame: 0.010249645 seconds]
    Frame Number: 4
    Frame Length: 87 bytes (696 bits)
    Capture Length: 87 bytes (696 bits)
    [Frame is marked: False]
    [Frame is ignored: False]
    [Protocols in frame: eth:ethertype:ip:tcp:data]
    [Coloring Rule Name: TCP]
    [Coloring Rule String: tcp]
Ethernet II, Src: PcsCompu_41:0f:d0 (08:00:27:41:0f:d0), Dst: PcsCompu_62:0e:57 (08:00:27:62:0e:57)
    Destination: PcsCompu_62:0e:57 (08:00:27:62:0e:57)
        Address: PcsCompu_62:0e:57 (08:00:27:62:0e:57)
        .... ..0. .... .... .... .... = LG bit: Globally unique address (factory default)
        .... ...0 .... .... .... .... = IG bit: Individual address (unicast)
    Source: PcsCompu_41:0f:d0 (08:00:27:41:0f:d0)
        Address: PcsCompu_41:0f:d0 (08:00:27:41:0f:d0)
        .... ..0. .... .... .... .... = LG bit: Globally unique address (factory default)
        .... ...0 .... .... .... .... = IG bit: Individual address (unicast)
    Type: IPv4 (0x0800)
Internet Protocol Version 4, Src: 10.73.14.5, Dst: 10.73.14.254
    0100 .... = Version: 4
    .... 0101 = Header Length: 20 bytes (5)
    Differentiated Services Field: 0x00 (DSCP: CS0, ECN: Not-ECT)
        0000 00.. = Differentiated Services Codepoint: Default (0)
        .... ..00 = Explicit Congestion Notification: Not ECN-Capable Transport (0)
    Total Length: 73
    Identification: 0x3e65 (15973)
    Flags: 0x40, Don't fragment
        0... .... = Reserved bit: Not set
        .1.. .... = Don't fragment: Set
        ..0. .... = More fragments: Not set
    ...0 0000 0000 0000 = Fragment Offset: 0
    Time to Live: 64
    Protocol: TCP (6)
    Header Checksum: 0xcab5 [validation disabled]
    [Header checksum status: Unverified]
    Source Address: 10.73.14.5
    Destination Address: 10.73.14.254
Transmission Control Protocol, Src Port: 35588, Dst Port: 7314, Seq: 1, Ack: 1, Len: 21
    Source Port: 35588
    Destination Port: 7314
    [Stream index: 0]
    [Conversation completeness: Incomplete, DATA (15)]
    [TCP Segment Len: 21]
    Sequence Number: 1    (relative sequence number)
    Sequence Number (raw): 2410885880
    [Next Sequence Number: 22    (relative sequence number)]
    Acknowledgment Number: 1    (relative ack number)
    Acknowledgment number (raw): 1951751562
    1000 .... = Header Length: 32 bytes (8)
    Flags: 0x018 (PSH, ACK)
        000. .... .... = Reserved: Not set
        ...0 .... .... = Nonce: Not set
        .... 0... .... = Congestion Window Reduced (CWR): Not set
        .... .0.. .... = ECN-Echo: Not set
        .... ..0. .... = Urgent: Not set
        .... ...1 .... = Acknowledgment: Set
        .... .... 1... = Push: Set
        .... .... .0.. = Reset: Not set
        .... .... ..0. = Syn: Not set
        .... .... ...0 = Fin: Not set
        [TCP Flags: ·······AP···]
    Window: 229
    [Calculated window size: 29312]
    [Window size scaling factor: 128]
    Checksum: 0x9bab [unverified]
    [Checksum Status: Unverified]
    Urgent Pointer: 0
    Options: (12 bytes), No-Operation (NOP), No-Operation (NOP), Timestamps
        TCP Option - No-Operation (NOP)
            Kind: No-Operation (1)
        TCP Option - No-Operation (NOP)
            Kind: No-Operation (1)
        TCP Option - Timestamps: TSval 199838, TSecr 1241141781
            Kind: Time Stamp Option (8)
            Length: 10
            Timestamp value: 199838
            Timestamp echo reply: 1241141781
    [Timestamps]
        [Time since first frame in this TCP stream: 0.010249645 seconds]
        [Time since previous frame in this TCP stream: 0.009978822 seconds]
    [SEQ/ACK analysis]
        [iRTT: 0.000270823 seconds]
        [Bytes in flight: 21]
        [Bytes sent since last PSH flag: 21]
    TCP payload (21 bytes)
Data (21 bytes)
    Data: 5353482d322e302d4f70656e5353485f372e340d0a
    [Length: 21]

0000  08 00 27 62 0e 57 08 00 27 41 0f d0 08 00 45 00   ..'b.W..'A....E.
0010  00 49 3e 65 40 00 40 06 ca b5 0a 49 0e 05 0a 49   .I>e@.@....I...I
0020  0e fe 8b 04 1c 92 8f b3 32 f8 74 55 5d 8a 80 18   ........2.tU]...
0030  00 e5 9b ab 00 00 01 01 08 0a 00 03 0c 9e 49 fa   ..............I.
0040  52 15 53 53 48 2d 32 2e 30 2d 4f 70 65 6e 53 53   R.SSH-2.0-OpenSS
0050  48 5f 37 2e 34 0d 0a                              H_7.4..

No.     Time           Source                Destination           Protocol Length Info
      5 0.010274763    10.73.14.254          10.73.14.5            TCP      66     7314 → 35588 [ACK] Seq=1 Ack=22 Win=65152 Len=0 TSval=1241141792 TSecr=199838

Frame 5: 66 bytes on wire (528 bits), 66 bytes captured (528 bits) on interface enp0s8, id 0
    Interface id: 0 (enp0s8)
        Interface name: enp0s8
    Encapsulation type: Ethernet (1)
    Arrival Time: Oct 25, 2022 18:33:14.851132986 EEST
    [Time shift for this packet: 0.000000000 seconds]
    Epoch Time: 1666711994.851132986 seconds
    [Time delta from previous captured frame: 0.000025118 seconds]
    [Time delta from previous displayed frame: 0.000025118 seconds]
    [Time since reference or first frame: 0.010274763 seconds]
    Frame Number: 5
    Frame Length: 66 bytes (528 bits)
    Capture Length: 66 bytes (528 bits)
    [Frame is marked: False]
    [Frame is ignored: False]
    [Protocols in frame: eth:ethertype:ip:tcp]
    [Coloring Rule Name: TCP]
    [Coloring Rule String: tcp]
Ethernet II, Src: PcsCompu_62:0e:57 (08:00:27:62:0e:57), Dst: PcsCompu_41:0f:d0 (08:00:27:41:0f:d0)
    Destination: PcsCompu_41:0f:d0 (08:00:27:41:0f:d0)
        Address: PcsCompu_41:0f:d0 (08:00:27:41:0f:d0)
        .... ..0. .... .... .... .... = LG bit: Globally unique address (factory default)
        .... ...0 .... .... .... .... = IG bit: Individual address (unicast)
    Source: PcsCompu_62:0e:57 (08:00:27:62:0e:57)
        Address: PcsCompu_62:0e:57 (08:00:27:62:0e:57)
        .... ..0. .... .... .... .... = LG bit: Globally unique address (factory default)
        .... ...0 .... .... .... .... = IG bit: Individual address (unicast)
    Type: IPv4 (0x0800)
Internet Protocol Version 4, Src: 10.73.14.254, Dst: 10.73.14.5
    0100 .... = Version: 4
    .... 0101 = Header Length: 20 bytes (5)
    Differentiated Services Field: 0x00 (DSCP: CS0, ECN: Not-ECT)
        0000 00.. = Differentiated Services Codepoint: Default (0)
        .... ..00 = Explicit Congestion Notification: Not ECN-Capable Transport (0)
    Total Length: 52
    Identification: 0x8ce9 (36073)
    Flags: 0x40, Don't fragment
        0... .... = Reserved bit: Not set
        .1.. .... = Don't fragment: Set
        ..0. .... = More fragments: Not set
    ...0 0000 0000 0000 = Fragment Offset: 0
    Time to Live: 64
    Protocol: TCP (6)
    Header Checksum: 0x7c46 [validation disabled]
    [Header checksum status: Unverified]
    Source Address: 10.73.14.254
    Destination Address: 10.73.14.5
Transmission Control Protocol, Src Port: 7314, Dst Port: 35588, Seq: 1, Ack: 22, Len: 0
    Source Port: 7314
    Destination Port: 35588
    [Stream index: 0]
    [Conversation completeness: Incomplete, DATA (15)]
    [TCP Segment Len: 0]
    Sequence Number: 1    (relative sequence number)
    Sequence Number (raw): 1951751562
    [Next Sequence Number: 1    (relative sequence number)]
    Acknowledgment Number: 22    (relative ack number)
    Acknowledgment number (raw): 2410885901
    1000 .... = Header Length: 32 bytes (8)
    Flags: 0x010 (ACK)
        000. .... .... = Reserved: Not set
        ...0 .... .... = Nonce: Not set
        .... 0... .... = Congestion Window Reduced (CWR): Not set
        .... .0.. .... = ECN-Echo: Not set
        .... ..0. .... = Urgent: Not set
        .... ...1 .... = Acknowledgment: Set
        .... .... 0... = Push: Not set
        .... .... .0.. = Reset: Not set
        .... .... ..0. = Syn: Not set
        .... .... ...0 = Fin: Not set
        [TCP Flags: ·······A····]
    Window: 509
    [Calculated window size: 65152]
    [Window size scaling factor: 128]
    Checksum: 0x31bb [unverified]
    [Checksum Status: Unverified]
    Urgent Pointer: 0
    Options: (12 bytes), No-Operation (NOP), No-Operation (NOP), Timestamps
        TCP Option - No-Operation (NOP)
            Kind: No-Operation (1)
        TCP Option - No-Operation (NOP)
            Kind: No-Operation (1)
        TCP Option - Timestamps: TSval 1241141792, TSecr 199838
            Kind: Time Stamp Option (8)
            Length: 10
            Timestamp value: 1241141792
            Timestamp echo reply: 199838
    [Timestamps]
        [Time since first frame in this TCP stream: 0.010274763 seconds]
        [Time since previous frame in this TCP stream: 0.000025118 seconds]
    [SEQ/ACK analysis]
        [This is an ACK to the segment in frame: 4]
        [The RTT to ACK the segment was: 0.000025118 seconds]
        [iRTT: 0.000270823 seconds]

0000  08 00 27 41 0f d0 08 00 27 62 0e 57 08 00 45 00   ..'A....'b.W..E.
0010  00 34 8c e9 40 00 40 06 7c 46 0a 49 0e fe 0a 49   .4..@.@.|F.I...I
0020  0e 05 1c 92 8b 04 74 55 5d 8a 8f b3 33 0d 80 10   ......tU]...3...
0030  01 fd 31 bb 00 00 01 01 08 0a 49 fa 52 20 00 03   ..1.......I.R ..
0040  0c 9e                                             ..

No.     Time           Source                Destination           Protocol Length Info
      6 0.026745208    10.73.14.254          10.73.14.5            TCP      98     7314 → 35588 [PSH, ACK] Seq=1 Ack=22 Win=65152 Len=32 TSval=1241141808 TSecr=199838

Frame 6: 98 bytes on wire (784 bits), 98 bytes captured (784 bits) on interface enp0s8, id 0
    Interface id: 0 (enp0s8)
        Interface name: enp0s8
    Encapsulation type: Ethernet (1)
    Arrival Time: Oct 25, 2022 18:33:14.867603431 EEST
    [Time shift for this packet: 0.000000000 seconds]
    Epoch Time: 1666711994.867603431 seconds
    [Time delta from previous captured frame: 0.016470445 seconds]
    [Time delta from previous displayed frame: 0.016470445 seconds]
    [Time since reference or first frame: 0.026745208 seconds]
    Frame Number: 6
    Frame Length: 98 bytes (784 bits)
    Capture Length: 98 bytes (784 bits)
    [Frame is marked: False]
    [Frame is ignored: False]
    [Protocols in frame: eth:ethertype:ip:tcp:data]
    [Coloring Rule Name: TCP]
    [Coloring Rule String: tcp]
Ethernet II, Src: PcsCompu_62:0e:57 (08:00:27:62:0e:57), Dst: PcsCompu_41:0f:d0 (08:00:27:41:0f:d0)
    Destination: PcsCompu_41:0f:d0 (08:00:27:41:0f:d0)
        Address: PcsCompu_41:0f:d0 (08:00:27:41:0f:d0)
        .... ..0. .... .... .... .... = LG bit: Globally unique address (factory default)
        .... ...0 .... .... .... .... = IG bit: Individual address (unicast)
    Source: PcsCompu_62:0e:57 (08:00:27:62:0e:57)
        Address: PcsCompu_62:0e:57 (08:00:27:62:0e:57)
        .... ..0. .... .... .... .... = LG bit: Globally unique address (factory default)
        .... ...0 .... .... .... .... = IG bit: Individual address (unicast)
    Type: IPv4 (0x0800)
Internet Protocol Version 4, Src: 10.73.14.254, Dst: 10.73.14.5
    0100 .... = Version: 4
    .... 0101 = Header Length: 20 bytes (5)
    Differentiated Services Field: 0x00 (DSCP: CS0, ECN: Not-ECT)
        0000 00.. = Differentiated Services Codepoint: Default (0)
        .... ..00 = Explicit Congestion Notification: Not ECN-Capable Transport (0)
    Total Length: 84
    Identification: 0x8cea (36074)
    Flags: 0x40, Don't fragment
        0... .... = Reserved bit: Not set
        .1.. .... = Don't fragment: Set
        ..0. .... = More fragments: Not set
    ...0 0000 0000 0000 = Fragment Offset: 0
    Time to Live: 64
    Protocol: TCP (6)
    Header Checksum: 0x7c25 [validation disabled]
    [Header checksum status: Unverified]
    Source Address: 10.73.14.254
    Destination Address: 10.73.14.5
Transmission Control Protocol, Src Port: 7314, Dst Port: 35588, Seq: 1, Ack: 22, Len: 32
    Source Port: 7314
    Destination Port: 35588
    [Stream index: 0]
    [Conversation completeness: Incomplete, DATA (15)]
    [TCP Segment Len: 32]
    Sequence Number: 1    (relative sequence number)
    Sequence Number (raw): 1951751562
    [Next Sequence Number: 33    (relative sequence number)]
    Acknowledgment Number: 22    (relative ack number)
    Acknowledgment number (raw): 2410885901
    1000 .... = Header Length: 32 bytes (8)
    Flags: 0x018 (PSH, ACK)
        000. .... .... = Reserved: Not set
        ...0 .... .... = Nonce: Not set
        .... 0... .... = Congestion Window Reduced (CWR): Not set
        .... .0.. .... = ECN-Echo: Not set
        .... ..0. .... = Urgent: Not set
        .... ...1 .... = Acknowledgment: Set
        .... .... 1... = Push: Set
        .... .... .0.. = Reset: Not set
        .... .... ..0. = Syn: Not set
        .... .... ...0 = Fin: Not set
        [TCP Flags: ·······AP···]
    Window: 509
    [Calculated window size: 65152]
    [Window size scaling factor: 128]
    Checksum: 0x31db [unverified]
    [Checksum Status: Unverified]
    Urgent Pointer: 0
    Options: (12 bytes), No-Operation (NOP), No-Operation (NOP), Timestamps
        TCP Option - No-Operation (NOP)
            Kind: No-Operation (1)
        TCP Option - No-Operation (NOP)
            Kind: No-Operation (1)
        TCP Option - Timestamps: TSval 1241141808, TSecr 199838
            Kind: Time Stamp Option (8)
            Length: 10
            Timestamp value: 1241141808
            Timestamp echo reply: 199838
    [Timestamps]
        [Time since first frame in this TCP stream: 0.026745208 seconds]
        [Time since previous frame in this TCP stream: 0.016470445 seconds]
    [SEQ/ACK analysis]
        [iRTT: 0.000270823 seconds]
        [Bytes in flight: 32]
        [Bytes sent since last PSH flag: 32]
    TCP payload (32 bytes)
Data (32 bytes)
    Data: 5353482d322e302d4f70656e5353485f382e397031205562756e74752d330d0a
    [Length: 32]

0000  08 00 27 41 0f d0 08 00 27 62 0e 57 08 00 45 00   ..'A....'b.W..E.
0010  00 54 8c ea 40 00 40 06 7c 25 0a 49 0e fe 0a 49   .T..@.@.|%.I...I
0020  0e 05 1c 92 8b 04 74 55 5d 8a 8f b3 33 0d 80 18   ......tU]...3...
0030  01 fd 31 db 00 00 01 01 08 0a 49 fa 52 30 00 03   ..1.......I.R0..
0040  0c 9e 53 53 48 2d 32 2e 30 2d 4f 70 65 6e 53 53   ..SSH-2.0-OpenSS
0050  48 5f 38 2e 39 70 31 20 55 62 75 6e 74 75 2d 33   H_8.9p1 Ubuntu-3
0060  0d 0a                                             ..

No.     Time           Source                Destination           Protocol Length Info
      7 0.026983066    10.73.14.5            10.73.14.254          TCP      66     35588 → 7314 [ACK] Seq=22 Ack=33 Win=29312 Len=0 TSval=199855 TSecr=1241141808

Frame 7: 66 bytes on wire (528 bits), 66 bytes captured (528 bits) on interface enp0s8, id 0
    Interface id: 0 (enp0s8)
        Interface name: enp0s8
    Encapsulation type: Ethernet (1)
    Arrival Time: Oct 25, 2022 18:33:14.867841289 EEST
    [Time shift for this packet: 0.000000000 seconds]
    Epoch Time: 1666711994.867841289 seconds
    [Time delta from previous captured frame: 0.000237858 seconds]
    [Time delta from previous displayed frame: 0.000237858 seconds]
    [Time since reference or first frame: 0.026983066 seconds]
    Frame Number: 7
    Frame Length: 66 bytes (528 bits)
    Capture Length: 66 bytes (528 bits)
    [Frame is marked: False]
    [Frame is ignored: False]
    [Protocols in frame: eth:ethertype:ip:tcp]
    [Coloring Rule Name: TCP]
    [Coloring Rule String: tcp]
Ethernet II, Src: PcsCompu_41:0f:d0 (08:00:27:41:0f:d0), Dst: PcsCompu_62:0e:57 (08:00:27:62:0e:57)
    Destination: PcsCompu_62:0e:57 (08:00:27:62:0e:57)
        Address: PcsCompu_62:0e:57 (08:00:27:62:0e:57)
        .... ..0. .... .... .... .... = LG bit: Globally unique address (factory default)
        .... ...0 .... .... .... .... = IG bit: Individual address (unicast)
    Source: PcsCompu_41:0f:d0 (08:00:27:41:0f:d0)
        Address: PcsCompu_41:0f:d0 (08:00:27:41:0f:d0)
        .... ..0. .... .... .... .... = LG bit: Globally unique address (factory default)
        .... ...0 .... .... .... .... = IG bit: Individual address (unicast)
    Type: IPv4 (0x0800)
Internet Protocol Version 4, Src: 10.73.14.5, Dst: 10.73.14.254
    0100 .... = Version: 4
    .... 0101 = Header Length: 20 bytes (5)
    Differentiated Services Field: 0x00 (DSCP: CS0, ECN: Not-ECT)
        0000 00.. = Differentiated Services Codepoint: Default (0)
        .... ..00 = Explicit Congestion Notification: Not ECN-Capable Transport (0)
    Total Length: 52
    Identification: 0x3e66 (15974)
    Flags: 0x40, Don't fragment
        0... .... = Reserved bit: Not set
        .1.. .... = Don't fragment: Set
        ..0. .... = More fragments: Not set
    ...0 0000 0000 0000 = Fragment Offset: 0
    Time to Live: 64
    Protocol: TCP (6)
    Header Checksum: 0xcac9 [validation disabled]
    [Header checksum status: Unverified]
    Source Address: 10.73.14.5
    Destination Address: 10.73.14.254
Transmission Control Protocol, Src Port: 35588, Dst Port: 7314, Seq: 22, Ack: 33, Len: 0
    Source Port: 35588
    Destination Port: 7314
    [Stream index: 0]
    [Conversation completeness: Incomplete, DATA (15)]
    [TCP Segment Len: 0]
    Sequence Number: 22    (relative sequence number)
    Sequence Number (raw): 2410885901
    [Next Sequence Number: 22    (relative sequence number)]
    Acknowledgment Number: 33    (relative ack number)
    Acknowledgment number (raw): 1951751594
    1000 .... = Header Length: 32 bytes (8)
    Flags: 0x010 (ACK)
        000. .... .... = Reserved: Not set
        ...0 .... .... = Nonce: Not set
        .... 0... .... = Congestion Window Reduced (CWR): Not set
        .... .0.. .... = ECN-Echo: Not set
        .... ..0. .... = Urgent: Not set
        .... ...1 .... = Acknowledgment: Set
        .... .... 0... = Push: Not set
        .... .... .0.. = Reset: Not set
        .... .... ..0. = Syn: Not set
        .... .... ...0 = Fin: Not set
        [TCP Flags: ·······A····]
    Window: 229
    [Calculated window size: 29312]
    [Window size scaling factor: 128]
    Checksum: 0x5f10 [unverified]
    [Checksum Status: Unverified]
    Urgent Pointer: 0
    Options: (12 bytes), No-Operation (NOP), No-Operation (NOP), Timestamps
        TCP Option - No-Operation (NOP)
            Kind: No-Operation (1)
        TCP Option - No-Operation (NOP)
            Kind: No-Operation (1)
        TCP Option - Timestamps: TSval 199855, TSecr 1241141808
            Kind: Time Stamp Option (8)
            Length: 10
            Timestamp value: 199855
            Timestamp echo reply: 1241141808
    [Timestamps]
        [Time since first frame in this TCP stream: 0.026983066 seconds]
        [Time since previous frame in this TCP stream: 0.000237858 seconds]
    [SEQ/ACK analysis]
        [This is an ACK to the segment in frame: 6]
        [The RTT to ACK the segment was: 0.000237858 seconds]
        [iRTT: 0.000270823 seconds]

0000  08 00 27 62 0e 57 08 00 27 41 0f d0 08 00 45 00   ..'b.W..'A....E.
0010  00 34 3e 66 40 00 40 06 ca c9 0a 49 0e 05 0a 49   .4>f@.@....I...I
0020  0e fe 8b 04 1c 92 8f b3 33 0d 74 55 5d aa 80 10   ........3.tU]...
0030  00 e5 5f 10 00 00 01 01 08 0a 00 03 0c af 49 fa   .._...........I.
0040  52 30                                             R0

No.     Time           Source                Destination           Protocol Length Info
      8 0.036842590    10.73.14.5            10.73.14.254          TCP      1562   35588 → 7314 [PSH, ACK] Seq=22 Ack=33 Win=29312 Len=1496 TSval=199865 TSecr=1241141808

Frame 8: 1562 bytes on wire (12496 bits), 1562 bytes captured (12496 bits) on interface enp0s8, id 0
    Interface id: 0 (enp0s8)
        Interface name: enp0s8
    Encapsulation type: Ethernet (1)
    Arrival Time: Oct 25, 2022 18:33:14.877700813 EEST
    [Time shift for this packet: 0.000000000 seconds]
    Epoch Time: 1666711994.877700813 seconds
    [Time delta from previous captured frame: 0.009859524 seconds]
    [Time delta from previous displayed frame: 0.009859524 seconds]
    [Time since reference or first frame: 0.036842590 seconds]
    Frame Number: 8
    Frame Length: 1562 bytes (12496 bits)
    Capture Length: 1562 bytes (12496 bits)
    [Frame is marked: False]
    [Frame is ignored: False]
    [Protocols in frame: eth:ethertype:ip:tcp:data]
    [Coloring Rule Name: TCP]
    [Coloring Rule String: tcp]
Ethernet II, Src: PcsCompu_41:0f:d0 (08:00:27:41:0f:d0), Dst: PcsCompu_62:0e:57 (08:00:27:62:0e:57)
    Destination: PcsCompu_62:0e:57 (08:00:27:62:0e:57)
        Address: PcsCompu_62:0e:57 (08:00:27:62:0e:57)
        .... ..0. .... .... .... .... = LG bit: Globally unique address (factory default)
        .... ...0 .... .... .... .... = IG bit: Individual address (unicast)
    Source: PcsCompu_41:0f:d0 (08:00:27:41:0f:d0)
        Address: PcsCompu_41:0f:d0 (08:00:27:41:0f:d0)
        .... ..0. .... .... .... .... = LG bit: Globally unique address (factory default)
        .... ...0 .... .... .... .... = IG bit: Individual address (unicast)
    Type: IPv4 (0x0800)
Internet Protocol Version 4, Src: 10.73.14.5, Dst: 10.73.14.254
    0100 .... = Version: 4
    .... 0101 = Header Length: 20 bytes (5)
    Differentiated Services Field: 0x00 (DSCP: CS0, ECN: Not-ECT)
        0000 00.. = Differentiated Services Codepoint: Default (0)
        .... ..00 = Explicit Congestion Notification: Not ECN-Capable Transport (0)
    Total Length: 1548
    Identification: 0x3e67 (15975)
    Flags: 0x40, Don't fragment
        0... .... = Reserved bit: Not set
        .1.. .... = Don't fragment: Set
        ..0. .... = More fragments: Not set
    ...0 0000 0000 0000 = Fragment Offset: 0
    Time to Live: 64
    Protocol: TCP (6)
    Header Checksum: 0xc4f0 [validation disabled]
    [Header checksum status: Unverified]
    Source Address: 10.73.14.5
    Destination Address: 10.73.14.254
Transmission Control Protocol, Src Port: 35588, Dst Port: 7314, Seq: 22, Ack: 33, Len: 1496
    Source Port: 35588
    Destination Port: 7314
    [Stream index: 0]
    [Conversation completeness: Incomplete, DATA (15)]
    [TCP Segment Len: 1496]
    Sequence Number: 22    (relative sequence number)
    Sequence Number (raw): 2410885901
    [Next Sequence Number: 1518    (relative sequence number)]
    Acknowledgment Number: 33    (relative ack number)
    Acknowledgment number (raw): 1951751594
    1000 .... = Header Length: 32 bytes (8)
    Flags: 0x018 (PSH, ACK)
        000. .... .... = Reserved: Not set
        ...0 .... .... = Nonce: Not set
        .... 0... .... = Congestion Window Reduced (CWR): Not set
        .... .0.. .... = ECN-Echo: Not set
        .... ..0. .... = Urgent: Not set
        .... ...1 .... = Acknowledgment: Set
        .... .... 1... = Push: Set
        .... .... .0.. = Reset: Not set
        .... .... ..0. = Syn: Not set
        .... .... ...0 = Fin: Not set
        [TCP Flags: ·······AP···]
    Window: 229
    [Calculated window size: 29312]
    [Window size scaling factor: 128]
    Checksum: 0x3793 [unverified]
    [Checksum Status: Unverified]
    Urgent Pointer: 0
    Options: (12 bytes), No-Operation (NOP), No-Operation (NOP), Timestamps
        TCP Option - No-Operation (NOP)
            Kind: No-Operation (1)
        TCP Option - No-Operation (NOP)
            Kind: No-Operation (1)
        TCP Option - Timestamps: TSval 199865, TSecr 1241141808
            Kind: Time Stamp Option (8)
            Length: 10
            Timestamp value: 199865
            Timestamp echo reply: 1241141808
    [Timestamps]
        [Time since first frame in this TCP stream: 0.036842590 seconds]
        [Time since previous frame in this TCP stream: 0.009859524 seconds]
    [SEQ/ACK analysis]
        [iRTT: 0.000270823 seconds]
        [Bytes in flight: 1496]
        [Bytes sent since last PSH flag: 1496]
    TCP payload (1496 bytes)
Data (1496 bytes)
    Data: 000005d40b14931141abbfba035d7a150e5efdd516b00000014b63757276653235353139…
    [Length: 1496]

0000  08 00 27 62 0e 57 08 00 27 41 0f d0 08 00 45 00   ..'b.W..'A....E.
0010  06 0c 3e 67 40 00 40 06 c4 f0 0a 49 0e 05 0a 49   ..>g@.@....I...I
0020  0e fe 8b 04 1c 92 8f b3 33 0d 74 55 5d aa 80 18   ........3.tU]...
0030  00 e5 37 93 00 00 01 01 08 0a 00 03 0c b9 49 fa   ..7...........I.
0040  52 30 00 00 05 d4 0b 14 93 11 41 ab bf ba 03 5d   R0........A....]
0050  7a 15 0e 5e fd d5 16 b0 00 00 01 4b 63 75 72 76   z..^.......Kcurv
0060  65 32 35 35 31 39 2d 73 68 61 32 35 36 2c 63 75   e25519-sha256,cu
0070  72 76 65 32 35 35 31 39 2d 73 68 61 32 35 36 40   rve25519-sha256@
0080  6c 69 62 73 73 68 2e 6f 72 67 2c 65 63 64 68 2d   libssh.org,ecdh-
0090  73 68 61 32 2d 6e 69 73 74 70 32 35 36 2c 65 63   sha2-nistp256,ec
00a0  64 68 2d 73 68 61 32 2d 6e 69 73 74 70 33 38 34   dh-sha2-nistp384
00b0  2c 65 63 64 68 2d 73 68 61 32 2d 6e 69 73 74 70   ,ecdh-sha2-nistp
00c0  35 32 31 2c 64 69 66 66 69 65 2d 68 65 6c 6c 6d   521,diffie-hellm
00d0  61 6e 2d 67 72 6f 75 70 2d 65 78 63 68 61 6e 67   an-group-exchang
00e0  65 2d 73 68 61 32 35 36 2c 64 69 66 66 69 65 2d   e-sha256,diffie-
00f0  68 65 6c 6c 6d 61 6e 2d 67 72 6f 75 70 31 36 2d   hellman-group16-
0100  73 68 61 35 31 32 2c 64 69 66 66 69 65 2d 68 65   sha512,diffie-he
0110  6c 6c 6d 61 6e 2d 67 72 6f 75 70 31 38 2d 73 68   llman-group18-sh
0120  61 35 31 32 2c 64 69 66 66 69 65 2d 68 65 6c 6c   a512,diffie-hell
0130  6d 61 6e 2d 67 72 6f 75 70 2d 65 78 63 68 61 6e   man-group-exchan
0140  67 65 2d 73 68 61 31 2c 64 69 66 66 69 65 2d 68   ge-sha1,diffie-h
0150  65 6c 6c 6d 61 6e 2d 67 72 6f 75 70 31 34 2d 73   ellman-group14-s
0160  68 61 32 35 36 2c 64 69 66 66 69 65 2d 68 65 6c   ha256,diffie-hel
0170  6c 6d 61 6e 2d 67 72 6f 75 70 31 34 2d 73 68 61   lman-group14-sha
0180  31 2c 64 69 66 66 69 65 2d 68 65 6c 6c 6d 61 6e   1,diffie-hellman
0190  2d 67 72 6f 75 70 31 2d 73 68 61 31 2c 65 78 74   -group1-sha1,ext
01a0  2d 69 6e 66 6f 2d 63 00 00 01 47 65 63 64 73 61   -info-c...Gecdsa
01b0  2d 73 68 61 32 2d 6e 69 73 74 70 32 35 36 2d 63   -sha2-nistp256-c
01c0  65 72 74 2d 76 30 31 40 6f 70 65 6e 73 73 68 2e   ert-v01@openssh.
01d0  63 6f 6d 2c 65 63 64 73 61 2d 73 68 61 32 2d 6e   com,ecdsa-sha2-n
01e0  69 73 74 70 33 38 34 2d 63 65 72 74 2d 76 30 31   istp384-cert-v01
01f0  40 6f 70 65 6e 73 73 68 2e 63 6f 6d 2c 65 63 64   @openssh.com,ecd
0200  73 61 2d 73 68 61 32 2d 6e 69 73 74 70 35 32 31   sa-sha2-nistp521
0210  2d 63 65 72 74 2d 76 30 31 40 6f 70 65 6e 73 73   -cert-v01@openss
0220  68 2e 63 6f 6d 2c 65 63 64 73 61 2d 73 68 61 32   h.com,ecdsa-sha2
0230  2d 6e 69 73 74 70 32 35 36 2c 65 63 64 73 61 2d   -nistp256,ecdsa-
0240  73 68 61 32 2d 6e 69 73 74 70 33 38 34 2c 65 63   sha2-nistp384,ec
0250  64 73 61 2d 73 68 61 32 2d 6e 69 73 74 70 35 32   dsa-sha2-nistp52
0260  31 2c 73 73 68 2d 65 64 32 35 35 31 39 2d 63 65   1,ssh-ed25519-ce
0270  72 74 2d 76 30 31 40 6f 70 65 6e 73 73 68 2e 63   rt-v01@openssh.c
0280  6f 6d 2c 73 73 68 2d 72 73 61 2d 63 65 72 74 2d   om,ssh-rsa-cert-
0290  76 30 31 40 6f 70 65 6e 73 73 68 2e 63 6f 6d 2c   v01@openssh.com,
02a0  73 73 68 2d 64 73 73 2d 63 65 72 74 2d 76 30 31   ssh-dss-cert-v01
02b0  40 6f 70 65 6e 73 73 68 2e 63 6f 6d 2c 73 73 68   @openssh.com,ssh
02c0  2d 65 64 32 35 35 31 39 2c 72 73 61 2d 73 68 61   -ed25519,rsa-sha
02d0  32 2d 35 31 32 2c 72 73 61 2d 73 68 61 32 2d 32   2-512,rsa-sha2-2
02e0  35 36 2c 73 73 68 2d 72 73 61 2c 73 73 68 2d 64   56,ssh-rsa,ssh-d
02f0  73 73 00 00 00 8d 63 68 61 63 68 61 32 30 2d 70   ss....chacha20-p
0300  6f 6c 79 31 33 30 35 40 6f 70 65 6e 73 73 68 2e   oly1305@openssh.
0310  63 6f 6d 2c 61 65 73 31 32 38 2d 63 74 72 2c 61   com,aes128-ctr,a
0320  65 73 31 39 32 2d 63 74 72 2c 61 65 73 32 35 36   es192-ctr,aes256
0330  2d 63 74 72 2c 61 65 73 31 32 38 2d 67 63 6d 40   -ctr,aes128-gcm@
0340  6f 70 65 6e 73 73 68 2e 63 6f 6d 2c 61 65 73 32   openssh.com,aes2
0350  35 36 2d 67 63 6d 40 6f 70 65 6e 73 73 68 2e 63   56-gcm@openssh.c
0360  6f 6d 2c 61 65 73 31 32 38 2d 63 62 63 2c 61 65   om,aes128-cbc,ae
0370  73 31 39 32 2d 63 62 63 2c 61 65 73 32 35 36 2d   s192-cbc,aes256-
0380  63 62 63 00 00 00 8d 63 68 61 63 68 61 32 30 2d   cbc....chacha20-
0390  70 6f 6c 79 31 33 30 35 40 6f 70 65 6e 73 73 68   poly1305@openssh
03a0  2e 63 6f 6d 2c 61 65 73 31 32 38 2d 63 74 72 2c   .com,aes128-ctr,
03b0  61 65 73 31 39 32 2d 63 74 72 2c 61 65 73 32 35   aes192-ctr,aes25
03c0  36 2d 63 74 72 2c 61 65 73 31 32 38 2d 67 63 6d   6-ctr,aes128-gcm
03d0  40 6f 70 65 6e 73 73 68 2e 63 6f 6d 2c 61 65 73   @openssh.com,aes
03e0  32 35 36 2d 67 63 6d 40 6f 70 65 6e 73 73 68 2e   256-gcm@openssh.
03f0  63 6f 6d 2c 61 65 73 31 32 38 2d 63 62 63 2c 61   com,aes128-cbc,a
0400  65 73 31 39 32 2d 63 62 63 2c 61 65 73 32 35 36   es192-cbc,aes256
0410  2d 63 62 63 00 00 00 d5 75 6d 61 63 2d 36 34 2d   -cbc....umac-64-
0420  65 74 6d 40 6f 70 65 6e 73 73 68 2e 63 6f 6d 2c   etm@openssh.com,
0430  75 6d 61 63 2d 31 32 38 2d 65 74 6d 40 6f 70 65   umac-128-etm@ope
0440  6e 73 73 68 2e 63 6f 6d 2c 68 6d 61 63 2d 73 68   nssh.com,hmac-sh
0450  61 32 2d 32 35 36 2d 65 74 6d 40 6f 70 65 6e 73   a2-256-etm@opens
0460  73 68 2e 63 6f 6d 2c 68 6d 61 63 2d 73 68 61 32   sh.com,hmac-sha2
0470  2d 35 31 32 2d 65 74 6d 40 6f 70 65 6e 73 73 68   -512-etm@openssh
0480  2e 63 6f 6d 2c 68 6d 61 63 2d 73 68 61 31 2d 65   .com,hmac-sha1-e
0490  74 6d 40 6f 70 65 6e 73 73 68 2e 63 6f 6d 2c 75   tm@openssh.com,u
04a0  6d 61 63 2d 36 34 40 6f 70 65 6e 73 73 68 2e 63   mac-64@openssh.c
04b0  6f 6d 2c 75 6d 61 63 2d 31 32 38 40 6f 70 65 6e   om,umac-128@open
04c0  73 73 68 2e 63 6f 6d 2c 68 6d 61 63 2d 73 68 61   ssh.com,hmac-sha
04d0  32 2d 32 35 36 2c 68 6d 61 63 2d 73 68 61 32 2d   2-256,hmac-sha2-
04e0  35 31 32 2c 68 6d 61 63 2d 73 68 61 31 00 00 00   512,hmac-sha1...
04f0  d5 75 6d 61 63 2d 36 34 2d 65 74 6d 40 6f 70 65   .umac-64-etm@ope
0500  6e 73 73 68 2e 63 6f 6d 2c 75 6d 61 63 2d 31 32   nssh.com,umac-12
0510  38 2d 65 74 6d 40 6f 70 65 6e 73 73 68 2e 63 6f   8-etm@openssh.co
0520  6d 2c 68 6d 61 63 2d 73 68 61 32 2d 32 35 36 2d   m,hmac-sha2-256-
0530  65 74 6d 40 6f 70 65 6e 73 73 68 2e 63 6f 6d 2c   etm@openssh.com,
0540  68 6d 61 63 2d 73 68 61 32 2d 35 31 32 2d 65 74   hmac-sha2-512-et
0550  6d 40 6f 70 65 6e 73 73 68 2e 63 6f 6d 2c 68 6d   m@openssh.com,hm
0560  61 63 2d 73 68 61 31 2d 65 74 6d 40 6f 70 65 6e   ac-sha1-etm@open
0570  73 73 68 2e 63 6f 6d 2c 75 6d 61 63 2d 36 34 40   ssh.com,umac-64@
0580  6f 70 65 6e 73 73 68 2e 63 6f 6d 2c 75 6d 61 63   openssh.com,umac
0590  2d 31 32 38 40 6f 70 65 6e 73 73 68 2e 63 6f 6d   -128@openssh.com
05a0  2c 68 6d 61 63 2d 73 68 61 32 2d 32 35 36 2c 68   ,hmac-sha2-256,h
05b0  6d 61 63 2d 73 68 61 32 2d 35 31 32 2c 68 6d 61   mac-sha2-512,hma
05c0  63 2d 73 68 61 31 00 00 00 1a 6e 6f 6e 65 2c 7a   c-sha1....none,z
05d0  6c 69 62 40 6f 70 65 6e 73 73 68 2e 63 6f 6d 2c   lib@openssh.com,
05e0  7a 6c 69 62 00 00 00 1a 6e 6f 6e 65 2c 7a 6c 69   zlib....none,zli
05f0  62 40 6f 70 65 6e 73 73 68 2e 63 6f 6d 2c 7a 6c   b@openssh.com,zl
0600  69 62 00 00 00 00 00 00 00 00 00 00 00 00 00 00   ib..............
0610  00 00 00 00 00 00 00 00 00 00                     ..........

No.     Time           Source                Destination           Protocol Length Info
      9 0.046787787    10.73.14.5            10.73.14.254          TCP      114    [TCP Retransmission] 35588 → 7314 [PSH, ACK] Seq=1470 Ack=33 Win=29312 Len=48 TSval=199875 TSecr=1241141808

Frame 9: 114 bytes on wire (912 bits), 114 bytes captured (912 bits) on interface enp0s8, id 0
    Interface id: 0 (enp0s8)
        Interface name: enp0s8
    Encapsulation type: Ethernet (1)
    Arrival Time: Oct 25, 2022 18:33:14.887646010 EEST
    [Time shift for this packet: 0.000000000 seconds]
    Epoch Time: 1666711994.887646010 seconds
    [Time delta from previous captured frame: 0.009945197 seconds]
    [Time delta from previous displayed frame: 0.009945197 seconds]
    [Time since reference or first frame: 0.046787787 seconds]
    Frame Number: 9
    Frame Length: 114 bytes (912 bits)
    Capture Length: 114 bytes (912 bits)
    [Frame is marked: False]
    [Frame is ignored: False]
    [Protocols in frame: eth:ethertype:ip:tcp]
    [Coloring Rule Name: Bad TCP]
    [Coloring Rule String: tcp.analysis.flags && !tcp.analysis.window_update && !tcp.analysis.keep_alive && !tcp.analysis.keep_alive_ack]
Ethernet II, Src: PcsCompu_41:0f:d0 (08:00:27:41:0f:d0), Dst: PcsCompu_62:0e:57 (08:00:27:62:0e:57)
    Destination: PcsCompu_62:0e:57 (08:00:27:62:0e:57)
        Address: PcsCompu_62:0e:57 (08:00:27:62:0e:57)
        .... ..0. .... .... .... .... = LG bit: Globally unique address (factory default)
        .... ...0 .... .... .... .... = IG bit: Individual address (unicast)
    Source: PcsCompu_41:0f:d0 (08:00:27:41:0f:d0)
        Address: PcsCompu_41:0f:d0 (08:00:27:41:0f:d0)
        .... ..0. .... .... .... .... = LG bit: Globally unique address (factory default)
        .... ...0 .... .... .... .... = IG bit: Individual address (unicast)
    Type: IPv4 (0x0800)
Internet Protocol Version 4, Src: 10.73.14.5, Dst: 10.73.14.254
    0100 .... = Version: 4
    .... 0101 = Header Length: 20 bytes (5)
    Differentiated Services Field: 0x00 (DSCP: CS0, ECN: Not-ECT)
        0000 00.. = Differentiated Services Codepoint: Default (0)
        .... ..00 = Explicit Congestion Notification: Not ECN-Capable Transport (0)
    Total Length: 100
    Identification: 0x3e69 (15977)
    Flags: 0x40, Don't fragment
        0... .... = Reserved bit: Not set
        .1.. .... = Don't fragment: Set
        ..0. .... = More fragments: Not set
    ...0 0000 0000 0000 = Fragment Offset: 0
    Time to Live: 64
    Protocol: TCP (6)
    Header Checksum: 0xca96 [validation disabled]
    [Header checksum status: Unverified]
    Source Address: 10.73.14.5
    Destination Address: 10.73.14.254
Transmission Control Protocol, Src Port: 35588, Dst Port: 7314, Seq: 1470, Ack: 33, Len: 48
    Source Port: 35588
    Destination Port: 7314
    [Stream index: 0]
    [Conversation completeness: Incomplete, DATA (15)]
    [TCP Segment Len: 48]
    Sequence Number: 1470    (relative sequence number)
    Sequence Number (raw): 2410887349
    [Next Sequence Number: 1518    (relative sequence number)]
    Acknowledgment Number: 33    (relative ack number)
    Acknowledgment number (raw): 1951751594
    1000 .... = Header Length: 32 bytes (8)
    Flags: 0x018 (PSH, ACK)
        000. .... .... = Reserved: Not set
        ...0 .... .... = Nonce: Not set
        .... 0... .... = Congestion Window Reduced (CWR): Not set
        .... .0.. .... = ECN-Echo: Not set
        .... ..0. .... = Urgent: Not set
        .... ...1 .... = Acknowledgment: Set
        .... .... 1... = Push: Set
        .... .... .0.. = Reset: Not set
        .... .... ..0. = Syn: Not set
        .... .... ...0 = Fin: Not set
        [TCP Flags: ·······AP···]
    Window: 229
    [Calculated window size: 29312]
    [Window size scaling factor: 128]
    Checksum: 0x8aa7 [unverified]
    [Checksum Status: Unverified]
    Urgent Pointer: 0
    Options: (12 bytes), No-Operation (NOP), No-Operation (NOP), Timestamps
        TCP Option - No-Operation (NOP)
            Kind: No-Operation (1)
        TCP Option - No-Operation (NOP)
            Kind: No-Operation (1)
        TCP Option - Timestamps: TSval 199875, TSecr 1241141808
            Kind: Time Stamp Option (8)
            Length: 10
            Timestamp value: 199875
            Timestamp echo reply: 1241141808
    [Timestamps]
        [Time since first frame in this TCP stream: 0.046787787 seconds]
        [Time since previous frame in this TCP stream: 0.009945197 seconds]
    [SEQ/ACK analysis]
        [iRTT: 0.000270823 seconds]
        [Bytes in flight: 1496]
        [Bytes sent since last PSH flag: 48]
        [TCP Analysis Flags]
            [Expert Info (Note/Sequence): This frame is a (suspected) retransmission]
                [This frame is a (suspected) retransmission]
                [Severity level: Note]
                [Group: Sequence]
            [The RTO for this segment was: 0.009945197 seconds]
            [RTO based on delta from frame: 8]
    TCP payload (48 bytes)
    Retransmitted TCP segment data (48 bytes)

0000  08 00 27 62 0e 57 08 00 27 41 0f d0 08 00 45 00   ..'b.W..'A....E.
0010  00 64 3e 69 40 00 40 06 ca 96 0a 49 0e 05 0a 49   .d>i@.@....I...I
0020  0e fe 8b 04 1c 92 8f b3 38 b5 74 55 5d aa 80 18   ........8.tU]...
0030  00 e5 8a a7 00 00 01 01 08 0a 00 03 0c c3 49 fa   ..............I.
0040  52 30 6e 65 2c 7a 6c 69 62 40 6f 70 65 6e 73 73   R0ne,zlib@openss
0050  68 2e 63 6f 6d 2c 7a 6c 69 62 00 00 00 00 00 00   h.com,zlib......
0060  00 00 00 00 00 00 00 00 00 00 00 00 00 00 00 00   ................
0070  00 00                                             ..

No.     Time           Source                Destination           Protocol Length Info
     10 0.046799015    10.73.14.254          10.73.14.5            TCP      78     7314 → 35588 [ACK] Seq=33 Ack=1518 Win=64128 Len=0 TSval=1241141828 TSecr=199865 SLE=1470 SRE=1518

Frame 10: 78 bytes on wire (624 bits), 78 bytes captured (624 bits) on interface enp0s8, id 0
    Interface id: 0 (enp0s8)
        Interface name: enp0s8
    Encapsulation type: Ethernet (1)
    Arrival Time: Oct 25, 2022 18:33:14.887657238 EEST
    [Time shift for this packet: 0.000000000 seconds]
    Epoch Time: 1666711994.887657238 seconds
    [Time delta from previous captured frame: 0.000011228 seconds]
    [Time delta from previous displayed frame: 0.000011228 seconds]
    [Time since reference or first frame: 0.046799015 seconds]
    Frame Number: 10
    Frame Length: 78 bytes (624 bits)
    Capture Length: 78 bytes (624 bits)
    [Frame is marked: False]
    [Frame is ignored: False]
    [Protocols in frame: eth:ethertype:ip:tcp]
    [Coloring Rule Name: TCP]
    [Coloring Rule String: tcp]
Ethernet II, Src: PcsCompu_62:0e:57 (08:00:27:62:0e:57), Dst: PcsCompu_41:0f:d0 (08:00:27:41:0f:d0)
    Destination: PcsCompu_41:0f:d0 (08:00:27:41:0f:d0)
        Address: PcsCompu_41:0f:d0 (08:00:27:41:0f:d0)
        .... ..0. .... .... .... .... = LG bit: Globally unique address (factory default)
        .... ...0 .... .... .... .... = IG bit: Individual address (unicast)
    Source: PcsCompu_62:0e:57 (08:00:27:62:0e:57)
        Address: PcsCompu_62:0e:57 (08:00:27:62:0e:57)
        .... ..0. .... .... .... .... = LG bit: Globally unique address (factory default)
        .... ...0 .... .... .... .... = IG bit: Individual address (unicast)
    Type: IPv4 (0x0800)
Internet Protocol Version 4, Src: 10.73.14.254, Dst: 10.73.14.5
    0100 .... = Version: 4
    .... 0101 = Header Length: 20 bytes (5)
    Differentiated Services Field: 0x00 (DSCP: CS0, ECN: Not-ECT)
        0000 00.. = Differentiated Services Codepoint: Default (0)
        .... ..00 = Explicit Congestion Notification: Not ECN-Capable Transport (0)
    Total Length: 64
    Identification: 0x8ceb (36075)
    Flags: 0x40, Don't fragment
        0... .... = Reserved bit: Not set
        .1.. .... = Don't fragment: Set
        ..0. .... = More fragments: Not set
    ...0 0000 0000 0000 = Fragment Offset: 0
    Time to Live: 64
    Protocol: TCP (6)
    Header Checksum: 0x7c38 [validation disabled]
    [Header checksum status: Unverified]
    Source Address: 10.73.14.254
    Destination Address: 10.73.14.5
Transmission Control Protocol, Src Port: 7314, Dst Port: 35588, Seq: 33, Ack: 1518, Len: 0
    Source Port: 7314
    Destination Port: 35588
    [Stream index: 0]
    [Conversation completeness: Incomplete, DATA (15)]
    [TCP Segment Len: 0]
    Sequence Number: 33    (relative sequence number)
    Sequence Number (raw): 1951751594
    [Next Sequence Number: 33    (relative sequence number)]
    Acknowledgment Number: 1518    (relative ack number)
    Acknowledgment number (raw): 2410887397
    1011 .... = Header Length: 44 bytes (11)
    Flags: 0x010 (ACK)
        000. .... .... = Reserved: Not set
        ...0 .... .... = Nonce: Not set
        .... 0... .... = Congestion Window Reduced (CWR): Not set
        .... .0.. .... = ECN-Echo: Not set
        .... ..0. .... = Urgent: Not set
        .... ...1 .... = Acknowledgment: Set
        .... .... 0... = Push: Not set
        .... .... .0.. = Reset: Not set
        .... .... ..0. = Syn: Not set
        .... .... ...0 = Fin: Not set
        [TCP Flags: ·······A····]
    Window: 501
    [Calculated window size: 64128]
    [Window size scaling factor: 128]
    Checksum: 0x31c7 [unverified]
    [Checksum Status: Unverified]
    Urgent Pointer: 0
    Options: (24 bytes), No-Operation (NOP), No-Operation (NOP), Timestamps, No-Operation (NOP), No-Operation (NOP), SACK
        TCP Option - No-Operation (NOP)
            Kind: No-Operation (1)
        TCP Option - No-Operation (NOP)
            Kind: No-Operation (1)
        TCP Option - Timestamps: TSval 1241141828, TSecr 199865
            Kind: Time Stamp Option (8)
            Length: 10
            Timestamp value: 1241141828
            Timestamp echo reply: 199865
        TCP Option - No-Operation (NOP)
            Kind: No-Operation (1)
        TCP Option - No-Operation (NOP)
            Kind: No-Operation (1)
        TCP Option - SACK 1470-1518
            Kind: SACK (5)
            Length: 10
            left edge = 1470 (relative)
            right edge = 1518 (relative)
            [TCP SACK Count: 1]
            [D-SACK Left Edge = 1470 (relative)]
            [D-SACK Right Edge = 1518 (relative)]
            D-SACK Sequence
                [Expert Info (Warning/Sequence): D-SACK Sequence]
                    [D-SACK Sequence]
                    [Severity level: Warning]
                    [Group: Sequence]
    [Timestamps]
        [Time since first frame in this TCP stream: 0.046799015 seconds]
        [Time since previous frame in this TCP stream: 0.000011228 seconds]
    [SEQ/ACK analysis]
        [This is an ACK to the segment in frame: 8]
        [The RTT to ACK the segment was: 0.009956425 seconds]
        [iRTT: 0.000270823 seconds]

0000  08 00 27 41 0f d0 08 00 27 62 0e 57 08 00 45 00   ..'A....'b.W..E.
0010  00 40 8c eb 40 00 40 06 7c 38 0a 49 0e fe 0a 49   .@..@.@.|8.I...I
0020  0e 05 1c 92 8b 04 74 55 5d aa 8f b3 38 e5 b0 10   ......tU]...8...
0030  01 f5 31 c7 00 00 01 01 08 0a 49 fa 52 44 00 03   ..1.......I.RD..
0040  0c b9 01 01 05 0a 8f b3 38 b5 8f b3 38 e5         ........8...8.

No.     Time           Source                Destination           Protocol Length Info
     11 0.047061255    10.73.14.254          10.73.14.5            TCP      1146   7314 → 35588 [PSH, ACK] Seq=33 Ack=1518 Win=64128 Len=1080 TSval=1241141828 TSecr=199865

Frame 11: 1146 bytes on wire (9168 bits), 1146 bytes captured (9168 bits) on interface enp0s8, id 0
    Interface id: 0 (enp0s8)
        Interface name: enp0s8
    Encapsulation type: Ethernet (1)
    Arrival Time: Oct 25, 2022 18:33:14.887919478 EEST
    [Time shift for this packet: 0.000000000 seconds]
    Epoch Time: 1666711994.887919478 seconds
    [Time delta from previous captured frame: 0.000262240 seconds]
    [Time delta from previous displayed frame: 0.000262240 seconds]
    [Time since reference or first frame: 0.047061255 seconds]
    Frame Number: 11
    Frame Length: 1146 bytes (9168 bits)
    Capture Length: 1146 bytes (9168 bits)
    [Frame is marked: False]
    [Frame is ignored: False]
    [Protocols in frame: eth:ethertype:ip:tcp:data]
    [Coloring Rule Name: TCP]
    [Coloring Rule String: tcp]
Ethernet II, Src: PcsCompu_62:0e:57 (08:00:27:62:0e:57), Dst: PcsCompu_41:0f:d0 (08:00:27:41:0f:d0)
    Destination: PcsCompu_41:0f:d0 (08:00:27:41:0f:d0)
        Address: PcsCompu_41:0f:d0 (08:00:27:41:0f:d0)
        .... ..0. .... .... .... .... = LG bit: Globally unique address (factory default)
        .... ...0 .... .... .... .... = IG bit: Individual address (unicast)
    Source: PcsCompu_62:0e:57 (08:00:27:62:0e:57)
        Address: PcsCompu_62:0e:57 (08:00:27:62:0e:57)
        .... ..0. .... .... .... .... = LG bit: Globally unique address (factory default)
        .... ...0 .... .... .... .... = IG bit: Individual address (unicast)
    Type: IPv4 (0x0800)
Internet Protocol Version 4, Src: 10.73.14.254, Dst: 10.73.14.5
    0100 .... = Version: 4
    .... 0101 = Header Length: 20 bytes (5)
    Differentiated Services Field: 0x00 (DSCP: CS0, ECN: Not-ECT)
        0000 00.. = Differentiated Services Codepoint: Default (0)
        .... ..00 = Explicit Congestion Notification: Not ECN-Capable Transport (0)
    Total Length: 1132
    Identification: 0x8cec (36076)
    Flags: 0x40, Don't fragment
        0... .... = Reserved bit: Not set
        .1.. .... = Don't fragment: Set
        ..0. .... = More fragments: Not set
    ...0 0000 0000 0000 = Fragment Offset: 0
    Time to Live: 64
    Protocol: TCP (6)
    Header Checksum: 0x780b [validation disabled]
    [Header checksum status: Unverified]
    Source Address: 10.73.14.254
    Destination Address: 10.73.14.5
Transmission Control Protocol, Src Port: 7314, Dst Port: 35588, Seq: 33, Ack: 1518, Len: 1080
    Source Port: 7314
    Destination Port: 35588
    [Stream index: 0]
    [Conversation completeness: Incomplete, DATA (15)]
    [TCP Segment Len: 1080]
    Sequence Number: 33    (relative sequence number)
    Sequence Number (raw): 1951751594
    [Next Sequence Number: 1113    (relative sequence number)]
    Acknowledgment Number: 1518    (relative ack number)
    Acknowledgment number (raw): 2410887397
    1000 .... = Header Length: 32 bytes (8)
    Flags: 0x018 (PSH, ACK)
        000. .... .... = Reserved: Not set
        ...0 .... .... = Nonce: Not set
        .... 0... .... = Congestion Window Reduced (CWR): Not set
        .... .0.. .... = ECN-Echo: Not set
        .... ..0. .... = Urgent: Not set
        .... ...1 .... = Acknowledgment: Set
        .... .... 1... = Push: Set
        .... .... .0.. = Reset: Not set
        .... .... ..0. = Syn: Not set
        .... .... ...0 = Fin: Not set
        [TCP Flags: ·······AP···]
    Window: 501
    [Calculated window size: 64128]
    [Window size scaling factor: 128]
    Checksum: 0x35f3 [unverified]
    [Checksum Status: Unverified]
    Urgent Pointer: 0
    Options: (12 bytes), No-Operation (NOP), No-Operation (NOP), Timestamps
        TCP Option - No-Operation (NOP)
            Kind: No-Operation (1)
        TCP Option - No-Operation (NOP)
            Kind: No-Operation (1)
        TCP Option - Timestamps: TSval 1241141828, TSecr 199865
            Kind: Time Stamp Option (8)
            Length: 10
            Timestamp value: 1241141828
            Timestamp echo reply: 199865
    [Timestamps]
        [Time since first frame in this TCP stream: 0.047061255 seconds]
        [Time since previous frame in this TCP stream: 0.000262240 seconds]
    [SEQ/ACK analysis]
        [iRTT: 0.000270823 seconds]
        [Bytes in flight: 1080]
        [Bytes sent since last PSH flag: 1080]
    TCP payload (1080 bytes)
Data (1080 bytes)
    Data: 0000043407149a3e722ff837f2a421a3461bd7a85fae0000010963757276653235353139…
    [Length: 1080]

0000  08 00 27 41 0f d0 08 00 27 62 0e 57 08 00 45 00   ..'A....'b.W..E.
0010  04 6c 8c ec 40 00 40 06 78 0b 0a 49 0e fe 0a 49   .l..@.@.x..I...I
0020  0e 05 1c 92 8b 04 74 55 5d aa 8f b3 38 e5 80 18   ......tU]...8...
0030  01 f5 35 f3 00 00 01 01 08 0a 49 fa 52 44 00 03   ..5.......I.RD..
0040  0c b9 00 00 04 34 07 14 9a 3e 72 2f f8 37 f2 a4   .....4...>r/.7..
0050  21 a3 46 1b d7 a8 5f ae 00 00 01 09 63 75 72 76   !.F..._.....curv
0060  65 32 35 35 31 39 2d 73 68 61 32 35 36 2c 63 75   e25519-sha256,cu
0070  72 76 65 32 35 35 31 39 2d 73 68 61 32 35 36 40   rve25519-sha256@
0080  6c 69 62 73 73 68 2e 6f 72 67 2c 65 63 64 68 2d   libssh.org,ecdh-
0090  73 68 61 32 2d 6e 69 73 74 70 32 35 36 2c 65 63   sha2-nistp256,ec
00a0  64 68 2d 73 68 61 32 2d 6e 69 73 74 70 33 38 34   dh-sha2-nistp384
00b0  2c 65 63 64 68 2d 73 68 61 32 2d 6e 69 73 74 70   ,ecdh-sha2-nistp
00c0  35 32 31 2c 73 6e 74 72 75 70 37 36 31 78 32 35   521,sntrup761x25
00d0  35 31 39 2d 73 68 61 35 31 32 40 6f 70 65 6e 73   519-sha512@opens
00e0  73 68 2e 63 6f 6d 2c 64 69 66 66 69 65 2d 68 65   sh.com,diffie-he
00f0  6c 6c 6d 61 6e 2d 67 72 6f 75 70 2d 65 78 63 68   llman-group-exch
0100  61 6e 67 65 2d 73 68 61 32 35 36 2c 64 69 66 66   ange-sha256,diff
0110  69 65 2d 68 65 6c 6c 6d 61 6e 2d 67 72 6f 75 70   ie-hellman-group
0120  31 36 2d 73 68 61 35 31 32 2c 64 69 66 66 69 65   16-sha512,diffie
0130  2d 68 65 6c 6c 6d 61 6e 2d 67 72 6f 75 70 31 38   -hellman-group18
0140  2d 73 68 61 35 31 32 2c 64 69 66 66 69 65 2d 68   -sha512,diffie-h
0150  65 6c 6c 6d 61 6e 2d 67 72 6f 75 70 31 34 2d 73   ellman-group14-s
0160  68 61 32 35 36 00 00 00 39 72 73 61 2d 73 68 61   ha256...9rsa-sha
0170  32 2d 35 31 32 2c 72 73 61 2d 73 68 61 32 2d 32   2-512,rsa-sha2-2
0180  35 36 2c 65 63 64 73 61 2d 73 68 61 32 2d 6e 69   56,ecdsa-sha2-ni
0190  73 74 70 32 35 36 2c 73 73 68 2d 65 64 32 35 35   stp256,ssh-ed255
01a0  31 39 00 00 00 6c 63 68 61 63 68 61 32 30 2d 70   19...lchacha20-p
01b0  6f 6c 79 31 33 30 35 40 6f 70 65 6e 73 73 68 2e   oly1305@openssh.
01c0  63 6f 6d 2c 61 65 73 31 32 38 2d 63 74 72 2c 61   com,aes128-ctr,a
01d0  65 73 31 39 32 2d 63 74 72 2c 61 65 73 32 35 36   es192-ctr,aes256
01e0  2d 63 74 72 2c 61 65 73 31 32 38 2d 67 63 6d 40   -ctr,aes128-gcm@
01f0  6f 70 65 6e 73 73 68 2e 63 6f 6d 2c 61 65 73 32   openssh.com,aes2
0200  35 36 2d 67 63 6d 40 6f 70 65 6e 73 73 68 2e 63   56-gcm@openssh.c
0210  6f 6d 00 00 00 6c 63 68 61 63 68 61 32 30 2d 70   om...lchacha20-p
0220  6f 6c 79 31 33 30 35 40 6f 70 65 6e 73 73 68 2e   oly1305@openssh.
0230  63 6f 6d 2c 61 65 73 31 32 38 2d 63 74 72 2c 61   com,aes128-ctr,a
0240  65 73 31 39 32 2d 63 74 72 2c 61 65 73 32 35 36   es192-ctr,aes256
0250  2d 63 74 72 2c 61 65 73 31 32 38 2d 67 63 6d 40   -ctr,aes128-gcm@
0260  6f 70 65 6e 73 73 68 2e 63 6f 6d 2c 61 65 73 32   openssh.com,aes2
0270  35 36 2d 67 63 6d 40 6f 70 65 6e 73 73 68 2e 63   56-gcm@openssh.c
0280  6f 6d 00 00 00 d5 75 6d 61 63 2d 36 34 2d 65 74   om....umac-64-et
0290  6d 40 6f 70 65 6e 73 73 68 2e 63 6f 6d 2c 75 6d   m@openssh.com,um
02a0  61 63 2d 31 32 38 2d 65 74 6d 40 6f 70 65 6e 73   ac-128-etm@opens
02b0  73 68 2e 63 6f 6d 2c 68 6d 61 63 2d 73 68 61 32   sh.com,hmac-sha2
02c0  2d 32 35 36 2d 65 74 6d 40 6f 70 65 6e 73 73 68   -256-etm@openssh
02d0  2e 63 6f 6d 2c 68 6d 61 63 2d 73 68 61 32 2d 35   .com,hmac-sha2-5
02e0  31 32 2d 65 74 6d 40 6f 70 65 6e 73 73 68 2e 63   12-etm@openssh.c
02f0  6f 6d 2c 68 6d 61 63 2d 73 68 61 31 2d 65 74 6d   om,hmac-sha1-etm
0300  40 6f 70 65 6e 73 73 68 2e 63 6f 6d 2c 75 6d 61   @openssh.com,uma
0310  63 2d 36 34 40 6f 70 65 6e 73 73 68 2e 63 6f 6d   c-64@openssh.com
0320  2c 75 6d 61 63 2d 31 32 38 40 6f 70 65 6e 73 73   ,umac-128@openss
0330  68 2e 63 6f 6d 2c 68 6d 61 63 2d 73 68 61 32 2d   h.com,hmac-sha2-
0340  32 35 36 2c 68 6d 61 63 2d 73 68 61 32 2d 35 31   256,hmac-sha2-51
0350  32 2c 68 6d 61 63 2d 73 68 61 31 00 00 00 d5 75   2,hmac-sha1....u
0360  6d 61 63 2d 36 34 2d 65 74 6d 40 6f 70 65 6e 73   mac-64-etm@opens
0370  73 68 2e 63 6f 6d 2c 75 6d 61 63 2d 31 32 38 2d   sh.com,umac-128-
0380  65 74 6d 40 6f 70 65 6e 73 73 68 2e 63 6f 6d 2c   etm@openssh.com,
0390  68 6d 61 63 2d 73 68 61 32 2d 32 35 36 2d 65 74   hmac-sha2-256-et
03a0  6d 40 6f 70 65 6e 73 73 68 2e 63 6f 6d 2c 68 6d   m@openssh.com,hm
03b0  61 63 2d 73 68 61 32 2d 35 31 32 2d 65 74 6d 40   ac-sha2-512-etm@
03c0  6f 70 65 6e 73 73 68 2e 63 6f 6d 2c 68 6d 61 63   openssh.com,hmac
03d0  2d 73 68 61 31 2d 65 74 6d 40 6f 70 65 6e 73 73   -sha1-etm@openss
03e0  68 2e 63 6f 6d 2c 75 6d 61 63 2d 36 34 40 6f 70   h.com,umac-64@op
03f0  65 6e 73 73 68 2e 63 6f 6d 2c 75 6d 61 63 2d 31   enssh.com,umac-1
0400  32 38 40 6f 70 65 6e 73 73 68 2e 63 6f 6d 2c 68   28@openssh.com,h
0410  6d 61 63 2d 73 68 61 32 2d 32 35 36 2c 68 6d 61   mac-sha2-256,hma
0420  63 2d 73 68 61 32 2d 35 31 32 2c 68 6d 61 63 2d   c-sha2-512,hmac-
0430  73 68 61 31 00 00 00 15 6e 6f 6e 65 2c 7a 6c 69   sha1....none,zli
0440  62 40 6f 70 65 6e 73 73 68 2e 63 6f 6d 00 00 00   b@openssh.com...
0450  15 6e 6f 6e 65 2c 7a 6c 69 62 40 6f 70 65 6e 73   .none,zlib@opens
0460  73 68 2e 63 6f 6d 00 00 00 00 00 00 00 00 00 00   sh.com..........
0470  00 00 00 00 00 00 00 00 00 00                     ..........

No.     Time           Source                Destination           Protocol Length Info
     12 0.051748194    10.73.14.5            10.73.14.254          TCP      114    35588 → 7314 [PSH, ACK] Seq=1518 Ack=1113 Win=31360 Len=48 TSval=199880 TSecr=1241141828

Frame 12: 114 bytes on wire (912 bits), 114 bytes captured (912 bits) on interface enp0s8, id 0
    Interface id: 0 (enp0s8)
        Interface name: enp0s8
    Encapsulation type: Ethernet (1)
    Arrival Time: Oct 25, 2022 18:33:14.892606417 EEST
    [Time shift for this packet: 0.000000000 seconds]
    Epoch Time: 1666711994.892606417 seconds
    [Time delta from previous captured frame: 0.004686939 seconds]
    [Time delta from previous displayed frame: 0.004686939 seconds]
    [Time since reference or first frame: 0.051748194 seconds]
    Frame Number: 12
    Frame Length: 114 bytes (912 bits)
    Capture Length: 114 bytes (912 bits)
    [Frame is marked: False]
    [Frame is ignored: False]
    [Protocols in frame: eth:ethertype:ip:tcp:data]
    [Coloring Rule Name: TCP]
    [Coloring Rule String: tcp]
Ethernet II, Src: PcsCompu_41:0f:d0 (08:00:27:41:0f:d0), Dst: PcsCompu_62:0e:57 (08:00:27:62:0e:57)
    Destination: PcsCompu_62:0e:57 (08:00:27:62:0e:57)
        Address: PcsCompu_62:0e:57 (08:00:27:62:0e:57)
        .... ..0. .... .... .... .... = LG bit: Globally unique address (factory default)
        .... ...0 .... .... .... .... = IG bit: Individual address (unicast)
    Source: PcsCompu_41:0f:d0 (08:00:27:41:0f:d0)
        Address: PcsCompu_41:0f:d0 (08:00:27:41:0f:d0)
        .... ..0. .... .... .... .... = LG bit: Globally unique address (factory default)
        .... ...0 .... .... .... .... = IG bit: Individual address (unicast)
    Type: IPv4 (0x0800)
Internet Protocol Version 4, Src: 10.73.14.5, Dst: 10.73.14.254
    0100 .... = Version: 4
    .... 0101 = Header Length: 20 bytes (5)
    Differentiated Services Field: 0x00 (DSCP: CS0, ECN: Not-ECT)
        0000 00.. = Differentiated Services Codepoint: Default (0)
        .... ..00 = Explicit Congestion Notification: Not ECN-Capable Transport (0)
    Total Length: 100
    Identification: 0x3e6a (15978)
    Flags: 0x40, Don't fragment
        0... .... = Reserved bit: Not set
        .1.. .... = Don't fragment: Set
        ..0. .... = More fragments: Not set
    ...0 0000 0000 0000 = Fragment Offset: 0
    Time to Live: 64
    Protocol: TCP (6)
    Header Checksum: 0xca95 [validation disabled]
    [Header checksum status: Unverified]
    Source Address: 10.73.14.5
    Destination Address: 10.73.14.254
Transmission Control Protocol, Src Port: 35588, Dst Port: 7314, Seq: 1518, Ack: 1113, Len: 48
    Source Port: 35588
    Destination Port: 7314
    [Stream index: 0]
    [Conversation completeness: Incomplete, DATA (15)]
    [TCP Segment Len: 48]
    Sequence Number: 1518    (relative sequence number)
    Sequence Number (raw): 2410887397
    [Next Sequence Number: 1566    (relative sequence number)]
    Acknowledgment Number: 1113    (relative ack number)
    Acknowledgment number (raw): 1951752674
    1000 .... = Header Length: 32 bytes (8)
    Flags: 0x018 (PSH, ACK)
        000. .... .... = Reserved: Not set
        ...0 .... .... = Nonce: Not set
        .... 0... .... = Congestion Window Reduced (CWR): Not set
        .... .0.. .... = ECN-Echo: Not set
        .... ..0. .... = Urgent: Not set
        .... ...1 .... = Acknowledgment: Set
        .... .... 1... = Push: Set
        .... .... .0.. = Reset: Not set
        .... .... ..0. = Syn: Not set
        .... .... ...0 = Fin: Not set
        [TCP Flags: ·······AP···]
    Window: 245
    [Calculated window size: 31360]
    [Window size scaling factor: 128]
    Checksum: 0x84ed [unverified]
    [Checksum Status: Unverified]
    Urgent Pointer: 0
    Options: (12 bytes), No-Operation (NOP), No-Operation (NOP), Timestamps
        TCP Option - No-Operation (NOP)
            Kind: No-Operation (1)
        TCP Option - No-Operation (NOP)
            Kind: No-Operation (1)
        TCP Option - Timestamps: TSval 199880, TSecr 1241141828
            Kind: Time Stamp Option (8)
            Length: 10
            Timestamp value: 199880
            Timestamp echo reply: 1241141828
    [Timestamps]
        [Time since first frame in this TCP stream: 0.051748194 seconds]
        [Time since previous frame in this TCP stream: 0.004686939 seconds]
    [SEQ/ACK analysis]
        [This is an ACK to the segment in frame: 11]
        [The RTT to ACK the segment was: 0.004686939 seconds]
        [iRTT: 0.000270823 seconds]
        [Bytes in flight: 48]
        [Bytes sent since last PSH flag: 48]
    TCP payload (48 bytes)
Data (48 bytes)
    Data: 0000002c061e00000020e07bfaef2b5eb70d7e6db1f87bc8322043a06e37645616dab30f…
    [Length: 48]

0000  08 00 27 62 0e 57 08 00 27 41 0f d0 08 00 45 00   ..'b.W..'A....E.
0010  00 64 3e 6a 40 00 40 06 ca 95 0a 49 0e 05 0a 49   .d>j@.@....I...I
0020  0e fe 8b 04 1c 92 8f b3 38 e5 74 55 61 e2 80 18   ........8.tUa...
0030  00 f5 84 ed 00 00 01 01 08 0a 00 03 0c c8 49 fa   ..............I.
0040  52 44 00 00 00 2c 06 1e 00 00 00 20 e0 7b fa ef   RD...,..... .{..
0050  2b 5e b7 0d 7e 6d b1 f8 7b c8 32 20 43 a0 6e 37   +^..~m..{.2 C.n7
0060  64 56 16 da b3 0f 84 c6 a2 ff 25 2f 00 00 00 00   dV........%/....
0070  00 00                                             ..

No.     Time           Source                Destination           Protocol Length Info
     13 0.071864936    10.73.14.254          10.73.14.5            TCP      662    7314 → 35588 [PSH, ACK] Seq=1113 Ack=1566 Win=64128 Len=596 TSval=1241141853 TSecr=199880

Frame 13: 662 bytes on wire (5296 bits), 662 bytes captured (5296 bits) on interface enp0s8, id 0
    Interface id: 0 (enp0s8)
        Interface name: enp0s8
    Encapsulation type: Ethernet (1)
    Arrival Time: Oct 25, 2022 18:33:14.912723159 EEST
    [Time shift for this packet: 0.000000000 seconds]
    Epoch Time: 1666711994.912723159 seconds
    [Time delta from previous captured frame: 0.020116742 seconds]
    [Time delta from previous displayed frame: 0.020116742 seconds]
    [Time since reference or first frame: 0.071864936 seconds]
    Frame Number: 13
    Frame Length: 662 bytes (5296 bits)
    Capture Length: 662 bytes (5296 bits)
    [Frame is marked: False]
    [Frame is ignored: False]
    [Protocols in frame: eth:ethertype:ip:tcp:data]
    [Coloring Rule Name: TCP]
    [Coloring Rule String: tcp]
Ethernet II, Src: PcsCompu_62:0e:57 (08:00:27:62:0e:57), Dst: PcsCompu_41:0f:d0 (08:00:27:41:0f:d0)
    Destination: PcsCompu_41:0f:d0 (08:00:27:41:0f:d0)
        Address: PcsCompu_41:0f:d0 (08:00:27:41:0f:d0)
        .... ..0. .... .... .... .... = LG bit: Globally unique address (factory default)
        .... ...0 .... .... .... .... = IG bit: Individual address (unicast)
    Source: PcsCompu_62:0e:57 (08:00:27:62:0e:57)
        Address: PcsCompu_62:0e:57 (08:00:27:62:0e:57)
        .... ..0. .... .... .... .... = LG bit: Globally unique address (factory default)
        .... ...0 .... .... .... .... = IG bit: Individual address (unicast)
    Type: IPv4 (0x0800)
Internet Protocol Version 4, Src: 10.73.14.254, Dst: 10.73.14.5
    0100 .... = Version: 4
    .... 0101 = Header Length: 20 bytes (5)
    Differentiated Services Field: 0x00 (DSCP: CS0, ECN: Not-ECT)
        0000 00.. = Differentiated Services Codepoint: Default (0)
        .... ..00 = Explicit Congestion Notification: Not ECN-Capable Transport (0)
    Total Length: 648
    Identification: 0x8ced (36077)
    Flags: 0x40, Don't fragment
        0... .... = Reserved bit: Not set
        .1.. .... = Don't fragment: Set
        ..0. .... = More fragments: Not set
    ...0 0000 0000 0000 = Fragment Offset: 0
    Time to Live: 64
    Protocol: TCP (6)
    Header Checksum: 0x79ee [validation disabled]
    [Header checksum status: Unverified]
    Source Address: 10.73.14.254
    Destination Address: 10.73.14.5
Transmission Control Protocol, Src Port: 7314, Dst Port: 35588, Seq: 1113, Ack: 1566, Len: 596
    Source Port: 7314
    Destination Port: 35588
    [Stream index: 0]
    [Conversation completeness: Incomplete, DATA (15)]
    [TCP Segment Len: 596]
    Sequence Number: 1113    (relative sequence number)
    Sequence Number (raw): 1951752674
    [Next Sequence Number: 1709    (relative sequence number)]
    Acknowledgment Number: 1566    (relative ack number)
    Acknowledgment number (raw): 2410887445
    1000 .... = Header Length: 32 bytes (8)
    Flags: 0x018 (PSH, ACK)
        000. .... .... = Reserved: Not set
        ...0 .... .... = Nonce: Not set
        .... 0... .... = Congestion Window Reduced (CWR): Not set
        .... .0.. .... = ECN-Echo: Not set
        .... ..0. .... = Urgent: Not set
        .... ...1 .... = Acknowledgment: Set
        .... .... 1... = Push: Set
        .... .... .0.. = Reset: Not set
        .... .... ..0. = Syn: Not set
        .... .... ...0 = Fin: Not set
        [TCP Flags: ·······AP···]
    Window: 501
    [Calculated window size: 64128]
    [Window size scaling factor: 128]
    Checksum: 0x340f [unverified]
    [Checksum Status: Unverified]
    Urgent Pointer: 0
    Options: (12 bytes), No-Operation (NOP), No-Operation (NOP), Timestamps
        TCP Option - No-Operation (NOP)
            Kind: No-Operation (1)
        TCP Option - No-Operation (NOP)
            Kind: No-Operation (1)
        TCP Option - Timestamps: TSval 1241141853, TSecr 199880
            Kind: Time Stamp Option (8)
            Length: 10
            Timestamp value: 1241141853
            Timestamp echo reply: 199880
    [Timestamps]
        [Time since first frame in this TCP stream: 0.071864936 seconds]
        [Time since previous frame in this TCP stream: 0.020116742 seconds]
    [SEQ/ACK analysis]
        [This is an ACK to the segment in frame: 12]
        [The RTT to ACK the segment was: 0.020116742 seconds]
        [iRTT: 0.000270823 seconds]
        [Bytes in flight: 596]
        [Bytes sent since last PSH flag: 596]
    TCP payload (596 bytes)
Data (596 bytes)
    Data: 000001040b1f000000680000001365636473612d736861322d6e69737470323536000000…
    [Length: 596]

0000  08 00 27 41 0f d0 08 00 27 62 0e 57 08 00 45 00   ..'A....'b.W..E.
0010  02 88 8c ed 40 00 40 06 79 ee 0a 49 0e fe 0a 49   ....@.@.y..I...I
0020  0e 05 1c 92 8b 04 74 55 61 e2 8f b3 39 15 80 18   ......tUa...9...
0030  01 f5 34 0f 00 00 01 01 08 0a 49 fa 52 5d 00 03   ..4.......I.R]..
0040  0c c8 00 00 01 04 0b 1f 00 00 00 68 00 00 00 13   ...........h....
0050  65 63 64 73 61 2d 73 68 61 32 2d 6e 69 73 74 70   ecdsa-sha2-nistp
0060  32 35 36 00 00 00 08 6e 69 73 74 70 32 35 36 00   256....nistp256.
0070  00 00 41 04 9b 15 0f 82 86 40 a0 04 d9 6a 0b 9a   ..A......@...j..
0080  90 08 2f 93 47 65 f6 2d 2e 09 3c cc 67 5e b3 d6   ../.Ge.-..<.g^..
0090  5f 8a dd e7 7b 84 77 65 8f 32 93 8b f6 4a 88 05   _...{.we.2...J..
00a0  af fe a6 60 08 d2 d8 60 ba e2 d8 d9 51 04 6c e6   ...`...`....Q.l.
00b0  78 9c 80 68 00 00 00 20 71 5a 9d 77 db c3 4f d1   x..h... qZ.w..O.
00c0  f1 c7 7b af 0e b4 2f 1e ce f8 08 f9 ac 21 f0 54   ..{.../......!.T
00d0  2b 46 6b d7 33 b3 87 03 00 00 00 63 00 00 00 13   +Fk.3......c....
00e0  65 63 64 73 61 2d 73 68 61 32 2d 6e 69 73 74 70   ecdsa-sha2-nistp
00f0  32 35 36 00 00 00 48 00 00 00 20 03 97 ae 39 64   256...H... ...9d
0100  63 4d ad 9f d2 12 99 25 4b fe c9 63 17 85 93 cc   cM.....%K..c....
0110  04 7a 8d 81 53 da 92 97 0f 37 7d 00 00 00 20 3c   .z..S....7}... <
0120  99 92 70 de 49 68 b2 59 82 0f 66 10 70 6d 01 eb   ..p.Ih.Y..f.pm..
0130  1d f1 49 b8 03 26 42 36 4e 6c 92 c5 bb e6 6c 00   ..I..&B6Nl....l.
0140  00 00 00 00 00 00 00 00 00 00 00 00 00 0c 0a 15   ................
0150  00 00 00 00 00 00 00 00 00 00 73 34 8c d8 be 63   ..........s4...c
0160  db 8a 18 0a 5b 76 a9 d0 c6 16 96 a3 60 c3 cb d8   ....[v......`...
0170  2f a6 a8 9a 5a 37 2f 3d 03 1a dc 8b 33 c2 8e 3b   /...Z7/=....3..;
0180  75 72 24 6e d6 1b 3b 29 be 85 08 e0 e4 ed f4 5b   ur$n..;).......[
0190  e0 04 f0 21 72 67 c1 d8 4f 80 e5 3d e6 4b ce f6   ...!rg..O..=.K..
01a0  d6 72 7f ba 09 42 2c 1a ff da 43 10 e8 c8 76 c4   .r...B,...C...v.
01b0  5f 18 36 68 f3 9a 3e 77 d5 45 f8 9f 5b 44 cb c4   _.6h..>w.E..[D..
01c0  00 15 5f 80 3d d0 56 28 2e e5 66 bd 84 5d 5a 56   .._.=.V(..f..]ZV
01d0  66 8c 0c ad 31 53 ae 6f 71 c8 9d 93 f4 bc 4b 6e   f...1S.oq.....Kn
01e0  b9 8d 42 b5 2a 05 01 c4 2c 54 20 f2 0a 2e e1 20   ..B.*...,T .... 
01f0  28 0a 21 ed c7 a1 c3 ab 5d 29 8d 92 53 62 04 a9   (.!.....])..Sb..
0200  bc 1c b3 39 0b ee 25 d1 0b f9 0a 1d f8 ff 70 e1   ...9..%.......p.
0210  4a 29 e0 4f d5 e0 ef 3c 64 0f 6e 67 f1 df 43 8e   J).O...<d.ng..C.
0220  13 10 1b 3f 1b 62 c1 7d f3 b9 1e cb 05 2f 45 6d   ...?.b.}...../Em
0230  1b ca 50 37 f6 2f f2 c8 02 58 59 83 d4 73 22 75   ..P7./...XY..s"u
0240  31 11 23 a0 61 c6 98 51 48 87 0e 64 8b 14 c6 ff   1.#.a..QH..d....
0250  de 4e ff b6 7c b5 5f a7 5b 94 40 2b 91 7f 4e 32   .N..|._.[.@+..N2
0260  f7 99 ac e2 02 ce 82 11 f8 8d 34 4f 7b 7d 76 d1   ..........4O{}v.
0270  0c 17 ec 2f 0a f0 71 4b 36 57 33 30 34 32 ec f8   .../..qK6W3042..
0280  09 21 f5 82 53 59 3e af ec d3 b1 f0 6c 1f b3 c8   .!..SY>.....l...
0290  61 4f c8 59 8f a8                                 aO.Y..

No.     Time           Source                Destination           Protocol Length Info
     14 0.082654219    10.73.14.5            10.73.14.254          TCP      82     35588 → 7314 [PSH, ACK] Seq=1566 Ack=1709 Win=33536 Len=16 TSval=199910 TSecr=1241141853

Frame 14: 82 bytes on wire (656 bits), 82 bytes captured (656 bits) on interface enp0s8, id 0
    Interface id: 0 (enp0s8)
        Interface name: enp0s8
    Encapsulation type: Ethernet (1)
    Arrival Time: Oct 25, 2022 18:33:14.923512442 EEST
    [Time shift for this packet: 0.000000000 seconds]
    Epoch Time: 1666711994.923512442 seconds
    [Time delta from previous captured frame: 0.010789283 seconds]
    [Time delta from previous displayed frame: 0.010789283 seconds]
    [Time since reference or first frame: 0.082654219 seconds]
    Frame Number: 14
    Frame Length: 82 bytes (656 bits)
    Capture Length: 82 bytes (656 bits)
    [Frame is marked: False]
    [Frame is ignored: False]
    [Protocols in frame: eth:ethertype:ip:tcp:data]
    [Coloring Rule Name: TCP]
    [Coloring Rule String: tcp]
Ethernet II, Src: PcsCompu_41:0f:d0 (08:00:27:41:0f:d0), Dst: PcsCompu_62:0e:57 (08:00:27:62:0e:57)
    Destination: PcsCompu_62:0e:57 (08:00:27:62:0e:57)
        Address: PcsCompu_62:0e:57 (08:00:27:62:0e:57)
        .... ..0. .... .... .... .... = LG bit: Globally unique address (factory default)
        .... ...0 .... .... .... .... = IG bit: Individual address (unicast)
    Source: PcsCompu_41:0f:d0 (08:00:27:41:0f:d0)
        Address: PcsCompu_41:0f:d0 (08:00:27:41:0f:d0)
        .... ..0. .... .... .... .... = LG bit: Globally unique address (factory default)
        .... ...0 .... .... .... .... = IG bit: Individual address (unicast)
    Type: IPv4 (0x0800)
Internet Protocol Version 4, Src: 10.73.14.5, Dst: 10.73.14.254
    0100 .... = Version: 4
    .... 0101 = Header Length: 20 bytes (5)
    Differentiated Services Field: 0x00 (DSCP: CS0, ECN: Not-ECT)
        0000 00.. = Differentiated Services Codepoint: Default (0)
        .... ..00 = Explicit Congestion Notification: Not ECN-Capable Transport (0)
    Total Length: 68
    Identification: 0x3e6b (15979)
    Flags: 0x40, Don't fragment
        0... .... = Reserved bit: Not set
        .1.. .... = Don't fragment: Set
        ..0. .... = More fragments: Not set
    ...0 0000 0000 0000 = Fragment Offset: 0
    Time to Live: 64
    Protocol: TCP (6)
    Header Checksum: 0xcab4 [validation disabled]
    [Header checksum status: Unverified]
    Source Address: 10.73.14.5
    Destination Address: 10.73.14.254
Transmission Control Protocol, Src Port: 35588, Dst Port: 7314, Seq: 1566, Ack: 1709, Len: 16
    Source Port: 35588
    Destination Port: 7314
    [Stream index: 0]
    [Conversation completeness: Incomplete, DATA (15)]
    [TCP Segment Len: 16]
    Sequence Number: 1566    (relative sequence number)
    Sequence Number (raw): 2410887445
    [Next Sequence Number: 1582    (relative sequence number)]
    Acknowledgment Number: 1709    (relative ack number)
    Acknowledgment number (raw): 1951753270
    1000 .... = Header Length: 32 bytes (8)
    Flags: 0x018 (PSH, ACK)
        000. .... .... = Reserved: Not set
        ...0 .... .... = Nonce: Not set
        .... 0... .... = Congestion Window Reduced (CWR): Not set
        .... .0.. .... = ECN-Echo: Not set
        .... ..0. .... = Urgent: Not set
        .... ...1 .... = Acknowledgment: Set
        .... .... 1... = Push: Set
        .... .... .0.. = Reset: Not set
        .... .... ..0. = Syn: Not set
        .... .... ...0 = Fin: Not set
        [TCP Flags: ·······AP···]
    Window: 262
    [Calculated window size: 33536]
    [Window size scaling factor: 128]
    Checksum: 0x47be [unverified]
    [Checksum Status: Unverified]
    Urgent Pointer: 0
    Options: (12 bytes), No-Operation (NOP), No-Operation (NOP), Timestamps
        TCP Option - No-Operation (NOP)
            Kind: No-Operation (1)
        TCP Option - No-Operation (NOP)
            Kind: No-Operation (1)
        TCP Option - Timestamps: TSval 199910, TSecr 1241141853
            Kind: Time Stamp Option (8)
            Length: 10
            Timestamp value: 199910
            Timestamp echo reply: 1241141853
    [Timestamps]
        [Time since first frame in this TCP stream: 0.082654219 seconds]
        [Time since previous frame in this TCP stream: 0.010789283 seconds]
    [SEQ/ACK analysis]
        [This is an ACK to the segment in frame: 13]
        [The RTT to ACK the segment was: 0.010789283 seconds]
        [iRTT: 0.000270823 seconds]
        [Bytes in flight: 16]
        [Bytes sent since last PSH flag: 16]
    TCP payload (16 bytes)
Data (16 bytes)
    Data: 0000000c0a1500000000000000000000
    [Length: 16]

0000  08 00 27 62 0e 57 08 00 27 41 0f d0 08 00 45 00   ..'b.W..'A....E.
0010  00 44 3e 6b 40 00 40 06 ca b4 0a 49 0e 05 0a 49   .D>k@.@....I...I
0020  0e fe 8b 04 1c 92 8f b3 39 15 74 55 64 36 80 18   ........9.tUd6..
0030  01 06 47 be 00 00 01 01 08 0a 00 03 0c e6 49 fa   ..G...........I.
0040  52 5d 00 00 00 0c 0a 15 00 00 00 00 00 00 00 00   R]..............
0050  00 00                                             ..

No.     Time           Source                Destination           Protocol Length Info
     15 0.125860269    10.73.14.254          10.73.14.5            TCP      66     7314 → 35588 [ACK] Seq=1709 Ack=1582 Win=64128 Len=0 TSval=1241141907 TSecr=199910

Frame 15: 66 bytes on wire (528 bits), 66 bytes captured (528 bits) on interface enp0s8, id 0
    Interface id: 0 (enp0s8)
        Interface name: enp0s8
    Encapsulation type: Ethernet (1)
    Arrival Time: Oct 25, 2022 18:33:14.966718492 EEST
    [Time shift for this packet: 0.000000000 seconds]
    Epoch Time: 1666711994.966718492 seconds
    [Time delta from previous captured frame: 0.043206050 seconds]
    [Time delta from previous displayed frame: 0.043206050 seconds]
    [Time since reference or first frame: 0.125860269 seconds]
    Frame Number: 15
    Frame Length: 66 bytes (528 bits)
    Capture Length: 66 bytes (528 bits)
    [Frame is marked: False]
    [Frame is ignored: False]
    [Protocols in frame: eth:ethertype:ip:tcp]
    [Coloring Rule Name: TCP]
    [Coloring Rule String: tcp]
Ethernet II, Src: PcsCompu_62:0e:57 (08:00:27:62:0e:57), Dst: PcsCompu_41:0f:d0 (08:00:27:41:0f:d0)
    Destination: PcsCompu_41:0f:d0 (08:00:27:41:0f:d0)
        Address: PcsCompu_41:0f:d0 (08:00:27:41:0f:d0)
        .... ..0. .... .... .... .... = LG bit: Globally unique address (factory default)
        .... ...0 .... .... .... .... = IG bit: Individual address (unicast)
    Source: PcsCompu_62:0e:57 (08:00:27:62:0e:57)
        Address: PcsCompu_62:0e:57 (08:00:27:62:0e:57)
        .... ..0. .... .... .... .... = LG bit: Globally unique address (factory default)
        .... ...0 .... .... .... .... = IG bit: Individual address (unicast)
    Type: IPv4 (0x0800)
Internet Protocol Version 4, Src: 10.73.14.254, Dst: 10.73.14.5
    0100 .... = Version: 4
    .... 0101 = Header Length: 20 bytes (5)
    Differentiated Services Field: 0x00 (DSCP: CS0, ECN: Not-ECT)
        0000 00.. = Differentiated Services Codepoint: Default (0)
        .... ..00 = Explicit Congestion Notification: Not ECN-Capable Transport (0)
    Total Length: 52
    Identification: 0x8cee (36078)
    Flags: 0x40, Don't fragment
        0... .... = Reserved bit: Not set
        .1.. .... = Don't fragment: Set
        ..0. .... = More fragments: Not set
    ...0 0000 0000 0000 = Fragment Offset: 0
    Time to Live: 64
    Protocol: TCP (6)
    Header Checksum: 0x7c41 [validation disabled]
    [Header checksum status: Unverified]
    Source Address: 10.73.14.254
    Destination Address: 10.73.14.5
Transmission Control Protocol, Src Port: 7314, Dst Port: 35588, Seq: 1709, Ack: 1582, Len: 0
    Source Port: 7314
    Destination Port: 35588
    [Stream index: 0]
    [Conversation completeness: Incomplete, DATA (15)]
    [TCP Segment Len: 0]
    Sequence Number: 1709    (relative sequence number)
    Sequence Number (raw): 1951753270
    [Next Sequence Number: 1709    (relative sequence number)]
    Acknowledgment Number: 1582    (relative ack number)
    Acknowledgment number (raw): 2410887461
    1000 .... = Header Length: 32 bytes (8)
    Flags: 0x010 (ACK)
        000. .... .... = Reserved: Not set
        ...0 .... .... = Nonce: Not set
        .... 0... .... = Congestion Window Reduced (CWR): Not set
        .... .0.. .... = ECN-Echo: Not set
        .... ..0. .... = Urgent: Not set
        .... ...1 .... = Acknowledgment: Set
        .... .... 0... = Push: Not set
        .... .... .0.. = Reset: Not set
        .... .... ..0. = Syn: Not set
        .... .... ...0 = Fin: Not set
        [TCP Flags: ·······A····]
    Window: 501
    [Calculated window size: 64128]
    [Window size scaling factor: 128]
    Checksum: 0x31bb [unverified]
    [Checksum Status: Unverified]
    Urgent Pointer: 0
    Options: (12 bytes), No-Operation (NOP), No-Operation (NOP), Timestamps
        TCP Option - No-Operation (NOP)
            Kind: No-Operation (1)
        TCP Option - No-Operation (NOP)
            Kind: No-Operation (1)
        TCP Option - Timestamps: TSval 1241141907, TSecr 199910
            Kind: Time Stamp Option (8)
            Length: 10
            Timestamp value: 1241141907
            Timestamp echo reply: 199910
    [Timestamps]
        [Time since first frame in this TCP stream: 0.125860269 seconds]
        [Time since previous frame in this TCP stream: 0.043206050 seconds]
    [SEQ/ACK analysis]
        [This is an ACK to the segment in frame: 14]
        [The RTT to ACK the segment was: 0.043206050 seconds]
        [iRTT: 0.000270823 seconds]

0000  08 00 27 41 0f d0 08 00 27 62 0e 57 08 00 45 00   ..'A....'b.W..E.
0010  00 34 8c ee 40 00 40 06 7c 41 0a 49 0e fe 0a 49   .4..@.@.|A.I...I
0020  0e 05 1c 92 8b 04 74 55 64 36 8f b3 39 25 80 10   ......tUd6..9%..
0030  01 f5 31 bb 00 00 01 01 08 0a 49 fa 52 93 00 03   ..1.......I.R...
0040  0c e6                                             ..

No.     Time           Source                Destination           Protocol Length Info
     16 0.126237976    10.73.14.5            10.73.14.254          TCP      110    35588 → 7314 [PSH, ACK] Seq=1582 Ack=1709 Win=33536 Len=44 TSval=199954 TSecr=1241141907

Frame 16: 110 bytes on wire (880 bits), 110 bytes captured (880 bits) on interface enp0s8, id 0
    Interface id: 0 (enp0s8)
        Interface name: enp0s8
    Encapsulation type: Ethernet (1)
    Arrival Time: Oct 25, 2022 18:33:14.967096199 EEST
    [Time shift for this packet: 0.000000000 seconds]
    Epoch Time: 1666711994.967096199 seconds
    [Time delta from previous captured frame: 0.000377707 seconds]
    [Time delta from previous displayed frame: 0.000377707 seconds]
    [Time since reference or first frame: 0.126237976 seconds]
    Frame Number: 16
    Frame Length: 110 bytes (880 bits)
    Capture Length: 110 bytes (880 bits)
    [Frame is marked: False]
    [Frame is ignored: False]
    [Protocols in frame: eth:ethertype:ip:tcp:data]
    [Coloring Rule Name: TCP]
    [Coloring Rule String: tcp]
Ethernet II, Src: PcsCompu_41:0f:d0 (08:00:27:41:0f:d0), Dst: PcsCompu_62:0e:57 (08:00:27:62:0e:57)
    Destination: PcsCompu_62:0e:57 (08:00:27:62:0e:57)
        Address: PcsCompu_62:0e:57 (08:00:27:62:0e:57)
        .... ..0. .... .... .... .... = LG bit: Globally unique address (factory default)
        .... ...0 .... .... .... .... = IG bit: Individual address (unicast)
    Source: PcsCompu_41:0f:d0 (08:00:27:41:0f:d0)
        Address: PcsCompu_41:0f:d0 (08:00:27:41:0f:d0)
        .... ..0. .... .... .... .... = LG bit: Globally unique address (factory default)
        .... ...0 .... .... .... .... = IG bit: Individual address (unicast)
    Type: IPv4 (0x0800)
Internet Protocol Version 4, Src: 10.73.14.5, Dst: 10.73.14.254
    0100 .... = Version: 4
    .... 0101 = Header Length: 20 bytes (5)
    Differentiated Services Field: 0x00 (DSCP: CS0, ECN: Not-ECT)
        0000 00.. = Differentiated Services Codepoint: Default (0)
        .... ..00 = Explicit Congestion Notification: Not ECN-Capable Transport (0)
    Total Length: 96
    Identification: 0x3e6c (15980)
    Flags: 0x40, Don't fragment
        0... .... = Reserved bit: Not set
        .1.. .... = Don't fragment: Set
        ..0. .... = More fragments: Not set
    ...0 0000 0000 0000 = Fragment Offset: 0
    Time to Live: 64
    Protocol: TCP (6)
    Header Checksum: 0xca97 [validation disabled]
    [Header checksum status: Unverified]
    Source Address: 10.73.14.5
    Destination Address: 10.73.14.254
Transmission Control Protocol, Src Port: 35588, Dst Port: 7314, Seq: 1582, Ack: 1709, Len: 44
    Source Port: 35588
    Destination Port: 7314
    [Stream index: 0]
    [Conversation completeness: Incomplete, DATA (15)]
    [TCP Segment Len: 44]
    Sequence Number: 1582    (relative sequence number)
    Sequence Number (raw): 2410887461
    [Next Sequence Number: 1626    (relative sequence number)]
    Acknowledgment Number: 1709    (relative ack number)
    Acknowledgment number (raw): 1951753270
    1000 .... = Header Length: 32 bytes (8)
    Flags: 0x018 (PSH, ACK)
        000. .... .... = Reserved: Not set
        ...0 .... .... = Nonce: Not set
        .... 0... .... = Congestion Window Reduced (CWR): Not set
        .... .0.. .... = ECN-Echo: Not set
        .... ..0. .... = Urgent: Not set
        .... ...1 .... = Acknowledgment: Set
        .... .... 1... = Push: Set
        .... .... .0.. = Reset: Not set
        .... .... ..0. = Syn: Not set
        .... .... ...0 = Fin: Not set
        [TCP Flags: ·······AP···]
    Window: 262
    [Calculated window size: 33536]
    [Window size scaling factor: 128]
    Checksum: 0x60d9 [unverified]
    [Checksum Status: Unverified]
    Urgent Pointer: 0
    Options: (12 bytes), No-Operation (NOP), No-Operation (NOP), Timestamps
        TCP Option - No-Operation (NOP)
            Kind: No-Operation (1)
        TCP Option - No-Operation (NOP)
            Kind: No-Operation (1)
        TCP Option - Timestamps: TSval 199954, TSecr 1241141907
            Kind: Time Stamp Option (8)
            Length: 10
            Timestamp value: 199954
            Timestamp echo reply: 1241141907
    [Timestamps]
        [Time since first frame in this TCP stream: 0.126237976 seconds]
        [Time since previous frame in this TCP stream: 0.000377707 seconds]
    [SEQ/ACK analysis]
        [iRTT: 0.000270823 seconds]
        [Bytes in flight: 44]
        [Bytes sent since last PSH flag: 44]
    TCP payload (44 bytes)
Data (44 bytes)
    Data: 750381dd54b9a3a55cb74124ed427ae3cf046711ec2402e24db345d97f5d445f7f8c19ef…
    [Length: 44]

0000  08 00 27 62 0e 57 08 00 27 41 0f d0 08 00 45 00   ..'b.W..'A....E.
0010  00 60 3e 6c 40 00 40 06 ca 97 0a 49 0e 05 0a 49   .`>l@.@....I...I
0020  0e fe 8b 04 1c 92 8f b3 39 25 74 55 64 36 80 18   ........9%tUd6..
0030  01 06 60 d9 00 00 01 01 08 0a 00 03 0d 12 49 fa   ..`...........I.
0040  52 93 75 03 81 dd 54 b9 a3 a5 5c b7 41 24 ed 42   R.u...T...\.A$.B
0050  7a e3 cf 04 67 11 ec 24 02 e2 4d b3 45 d9 7f 5d   z...g..$..M.E..]
0060  44 5f 7f 8c 19 ef 0a 4b 2f 3e 61 98 4a 32         D_.....K/>a.J2

No.     Time           Source                Destination           Protocol Length Info
     17 0.126256169    10.73.14.254          10.73.14.5            TCP      66     7314 → 35588 [ACK] Seq=1709 Ack=1626 Win=64128 Len=0 TSval=1241141907 TSecr=199954

Frame 17: 66 bytes on wire (528 bits), 66 bytes captured (528 bits) on interface enp0s8, id 0
    Interface id: 0 (enp0s8)
        Interface name: enp0s8
    Encapsulation type: Ethernet (1)
    Arrival Time: Oct 25, 2022 18:33:14.967114392 EEST
    [Time shift for this packet: 0.000000000 seconds]
    Epoch Time: 1666711994.967114392 seconds
    [Time delta from previous captured frame: 0.000018193 seconds]
    [Time delta from previous displayed frame: 0.000018193 seconds]
    [Time since reference or first frame: 0.126256169 seconds]
    Frame Number: 17
    Frame Length: 66 bytes (528 bits)
    Capture Length: 66 bytes (528 bits)
    [Frame is marked: False]
    [Frame is ignored: False]
    [Protocols in frame: eth:ethertype:ip:tcp]
    [Coloring Rule Name: TCP]
    [Coloring Rule String: tcp]
Ethernet II, Src: PcsCompu_62:0e:57 (08:00:27:62:0e:57), Dst: PcsCompu_41:0f:d0 (08:00:27:41:0f:d0)
    Destination: PcsCompu_41:0f:d0 (08:00:27:41:0f:d0)
        Address: PcsCompu_41:0f:d0 (08:00:27:41:0f:d0)
        .... ..0. .... .... .... .... = LG bit: Globally unique address (factory default)
        .... ...0 .... .... .... .... = IG bit: Individual address (unicast)
    Source: PcsCompu_62:0e:57 (08:00:27:62:0e:57)
        Address: PcsCompu_62:0e:57 (08:00:27:62:0e:57)
        .... ..0. .... .... .... .... = LG bit: Globally unique address (factory default)
        .... ...0 .... .... .... .... = IG bit: Individual address (unicast)
    Type: IPv4 (0x0800)
Internet Protocol Version 4, Src: 10.73.14.254, Dst: 10.73.14.5
    0100 .... = Version: 4
    .... 0101 = Header Length: 20 bytes (5)
    Differentiated Services Field: 0x00 (DSCP: CS0, ECN: Not-ECT)
        0000 00.. = Differentiated Services Codepoint: Default (0)
        .... ..00 = Explicit Congestion Notification: Not ECN-Capable Transport (0)
    Total Length: 52
    Identification: 0x8cef (36079)
    Flags: 0x40, Don't fragment
        0... .... = Reserved bit: Not set
        .1.. .... = Don't fragment: Set
        ..0. .... = More fragments: Not set
    ...0 0000 0000 0000 = Fragment Offset: 0
    Time to Live: 64
    Protocol: TCP (6)
    Header Checksum: 0x7c40 [validation disabled]
    [Header checksum status: Unverified]
    Source Address: 10.73.14.254
    Destination Address: 10.73.14.5
Transmission Control Protocol, Src Port: 7314, Dst Port: 35588, Seq: 1709, Ack: 1626, Len: 0
    Source Port: 7314
    Destination Port: 35588
    [Stream index: 0]
    [Conversation completeness: Incomplete, DATA (15)]
    [TCP Segment Len: 0]
    Sequence Number: 1709    (relative sequence number)
    Sequence Number (raw): 1951753270
