No.     Time           Source                Destination           Protocol Length Info
      1 0.000000000    10.2.73.5             10.2.73.254           TCP      74     33534 → 7314 [SYN] Seq=0 Win=64240 Len=0 MSS=1460 SACK_PERM=1 TSval=2302645301 TSecr=0 WS=128

Frame 1: 74 bytes on wire (592 bits), 74 bytes captured (592 bits) on interface enp0s9, id 0
    Interface id: 0 (enp0s9)
        Interface name: enp0s9
    Encapsulation type: Ethernet (1)
    Arrival Time: Oct 25, 2022 18:45:27.797993465 EEST
    [Time shift for this packet: 0.000000000 seconds]
    Epoch Time: 1666712727.797993465 seconds
    [Time delta from previous captured frame: 0.000000000 seconds]
    [Time delta from previous displayed frame: 0.000000000 seconds]
    [Time since reference or first frame: 0.000000000 seconds]
    Frame Number: 1
    Frame Length: 74 bytes (592 bits)
    Capture Length: 74 bytes (592 bits)
    [Frame is marked: False]
    [Frame is ignored: False]
    [Protocols in frame: eth:ethertype:ip:tcp]
    [Coloring Rule Name: TCP SYN/FIN]
    [Coloring Rule String: tcp.flags & 0x02 || tcp.flags.fin == 1]
Ethernet II, Src: PcsCompu_57:5f:a0 (08:00:27:57:5f:a0), Dst: PcsCompu_9f:a5:ba (08:00:27:9f:a5:ba)
    Destination: PcsCompu_9f:a5:ba (08:00:27:9f:a5:ba)
        Address: PcsCompu_9f:a5:ba (08:00:27:9f:a5:ba)
        .... ..0. .... .... .... .... = LG bit: Globally unique address (factory default)
        .... ...0 .... .... .... .... = IG bit: Individual address (unicast)
    Source: PcsCompu_57:5f:a0 (08:00:27:57:5f:a0)
        Address: PcsCompu_57:5f:a0 (08:00:27:57:5f:a0)
        .... ..0. .... .... .... .... = LG bit: Globally unique address (factory default)
        .... ...0 .... .... .... .... = IG bit: Individual address (unicast)
    Type: IPv4 (0x0800)
Internet Protocol Version 4, Src: 10.2.73.5, Dst: 10.2.73.254
    0100 .... = Version: 4
    .... 0101 = Header Length: 20 bytes (5)
    Differentiated Services Field: 0x10 (DSCP: Unknown, ECN: Not-ECT)
        0001 00.. = Differentiated Services Codepoint: Unknown (4)
        .... ..00 = Explicit Congestion Notification: Not ECN-Capable Transport (0)
    Total Length: 60
    Identification: 0x79d1 (31185)
    Flags: 0x40, Don't fragment
        0... .... = Reserved bit: Not set
        .1.. .... = Don't fragment: Set
        ..0. .... = More fragments: Not set
    ...0 0000 0000 0000 = Fragment Offset: 0
    Time to Live: 64
    Protocol: TCP (6)
    Header Checksum: 0x19d4 [validation disabled]
    [Header checksum status: Unverified]
    Source Address: 10.2.73.5
    Destination Address: 10.2.73.254
Transmission Control Protocol, Src Port: 33534, Dst Port: 7314, Seq: 0, Len: 0
    Source Port: 33534
    Destination Port: 7314
    [Stream index: 0]
    [Conversation completeness: Incomplete, DATA (15)]
    [TCP Segment Len: 0]
    Sequence Number: 0    (relative sequence number)
    Sequence Number (raw): 2967450955
    [Next Sequence Number: 1    (relative sequence number)]
    Acknowledgment Number: 0
    Acknowledgment number (raw): 0
    1010 .... = Header Length: 40 bytes (10)
    Flags: 0x002 (SYN)
        000. .... .... = Reserved: Not set
        ...0 .... .... = Nonce: Not set
        .... 0... .... = Congestion Window Reduced (CWR): Not set
        .... .0.. .... = ECN-Echo: Not set
        .... ..0. .... = Urgent: Not set
        .... ...0 .... = Acknowledgment: Not set
        .... .... 0... = Push: Not set
        .... .... .0.. = Reset: Not set
        .... .... ..1. = Syn: Set
            [Expert Info (Chat/Sequence): Connection establish request (SYN): server port 7314]
                [Connection establish request (SYN): server port 7314]
                [Severity level: Chat]
                [Group: Sequence]
        .... .... ...0 = Fin: Not set
        [TCP Flags: ··········S·]
    Window: 64240
    [Calculated window size: 64240]
    Checksum: 0x82d7 [unverified]
    [Checksum Status: Unverified]
    Urgent Pointer: 0
    Options: (20 bytes), Maximum segment size, SACK permitted, Timestamps, No-Operation (NOP), Window scale
        TCP Option - Maximum segment size: 1460 bytes
            Kind: Maximum Segment Size (2)
            Length: 4
            MSS Value: 1460
        TCP Option - SACK permitted
            Kind: SACK Permitted (4)
            Length: 2
        TCP Option - Timestamps: TSval 2302645301, TSecr 0
            Kind: Time Stamp Option (8)
            Length: 10
            Timestamp value: 2302645301
            Timestamp echo reply: 0
        TCP Option - No-Operation (NOP)
            Kind: No-Operation (1)
        TCP Option - Window scale: 7 (multiply by 128)
            Kind: Window Scale (3)
            Length: 3
            Shift count: 7
            [Multiplier: 128]
    [Timestamps]
        [Time since first frame in this TCP stream: 0.000000000 seconds]
        [Time since previous frame in this TCP stream: 0.000000000 seconds]

0000  08 00 27 9f a5 ba 08 00 27 57 5f a0 08 00 45 10   ..'.....'W_...E.
0010  00 3c 79 d1 40 00 40 06 19 d4 0a 02 49 05 0a 02   .<y.@.@.....I...
0020  49 fe 82 fe 1c 92 b0 df b5 4b 00 00 00 00 a0 02   I........K......
0030  fa f0 82 d7 00 00 02 04 05 b4 04 02 08 0a 89 3f   ...............?
0040  94 35 00 00 00 00 01 03 03 07                     .5........

No.     Time           Source                Destination           Protocol Length Info
      2 0.000044290    10.2.73.254           10.2.73.5             TCP      74     7314 → 33534 [SYN, ACK] Seq=0 Ack=1 Win=65160 Len=0 MSS=1460 SACK_PERM=1 TSval=4158925857 TSecr=2302645301 WS=128

Frame 2: 74 bytes on wire (592 bits), 74 bytes captured (592 bits) on interface enp0s9, id 0
    Interface id: 0 (enp0s9)
        Interface name: enp0s9
    Encapsulation type: Ethernet (1)
    Arrival Time: Oct 25, 2022 18:45:27.798037755 EEST
    [Time shift for this packet: 0.000000000 seconds]
    Epoch Time: 1666712727.798037755 seconds
    [Time delta from previous captured frame: 0.000044290 seconds]
    [Time delta from previous displayed frame: 0.000044290 seconds]
    [Time since reference or first frame: 0.000044290 seconds]
    Frame Number: 2
    Frame Length: 74 bytes (592 bits)
    Capture Length: 74 bytes (592 bits)
    [Frame is marked: False]
    [Frame is ignored: False]
    [Protocols in frame: eth:ethertype:ip:tcp]
    [Coloring Rule Name: TCP SYN/FIN]
    [Coloring Rule String: tcp.flags & 0x02 || tcp.flags.fin == 1]
Ethernet II, Src: PcsCompu_9f:a5:ba (08:00:27:9f:a5:ba), Dst: PcsCompu_57:5f:a0 (08:00:27:57:5f:a0)
    Destination: PcsCompu_57:5f:a0 (08:00:27:57:5f:a0)
        Address: PcsCompu_57:5f:a0 (08:00:27:57:5f:a0)
        .... ..0. .... .... .... .... = LG bit: Globally unique address (factory default)
        .... ...0 .... .... .... .... = IG bit: Individual address (unicast)
    Source: PcsCompu_9f:a5:ba (08:00:27:9f:a5:ba)
        Address: PcsCompu_9f:a5:ba (08:00:27:9f:a5:ba)
        .... ..0. .... .... .... .... = LG bit: Globally unique address (factory default)
        .... ...0 .... .... .... .... = IG bit: Individual address (unicast)
    Type: IPv4 (0x0800)
Internet Protocol Version 4, Src: 10.2.73.254, Dst: 10.2.73.5
    0100 .... = Version: 4
    .... 0101 = Header Length: 20 bytes (5)
    Differentiated Services Field: 0x00 (DSCP: CS0, ECN: Not-ECT)
        0000 00.. = Differentiated Services Codepoint: Default (0)
        .... ..00 = Explicit Congestion Notification: Not ECN-Capable Transport (0)
    Total Length: 60
    Identification: 0x0000 (0)
    Flags: 0x40, Don't fragment
        0... .... = Reserved bit: Not set
        .1.. .... = Don't fragment: Set
        ..0. .... = More fragments: Not set
    ...0 0000 0000 0000 = Fragment Offset: 0
    Time to Live: 64
    Protocol: TCP (6)
    Header Checksum: 0x93b5 [validation disabled]
    [Header checksum status: Unverified]
    Source Address: 10.2.73.254
    Destination Address: 10.2.73.5
Transmission Control Protocol, Src Port: 7314, Dst Port: 33534, Seq: 0, Ack: 1, Len: 0
    Source Port: 7314
    Destination Port: 33534
    [Stream index: 0]
    [Conversation completeness: Incomplete, DATA (15)]
    [TCP Segment Len: 0]
    Sequence Number: 0    (relative sequence number)
    Sequence Number (raw): 3944899253
    [Next Sequence Number: 1    (relative sequence number)]
    Acknowledgment Number: 1    (relative ack number)
    Acknowledgment number (raw): 2967450956
    1010 .... = Header Length: 40 bytes (10)
    Flags: 0x012 (SYN, ACK)
        000. .... .... = Reserved: Not set
        ...0 .... .... = Nonce: Not set
        .... 0... .... = Congestion Window Reduced (CWR): Not set
        .... .0.. .... = ECN-Echo: Not set
        .... ..0. .... = Urgent: Not set
        .... ...1 .... = Acknowledgment: Set
        .... .... 0... = Push: Not set
        .... .... .0.. = Reset: Not set
        .... .... ..1. = Syn: Set
            [Expert Info (Chat/Sequence): Connection establish acknowledge (SYN+ACK): server port 7314]
                [Connection establish acknowledge (SYN+ACK): server port 7314]
                [Severity level: Chat]
                [Group: Sequence]
        .... .... ...0 = Fin: Not set
        [TCP Flags: ·······A··S·]
    Window: 65160
    [Calculated window size: 65160]
    Checksum: 0xa735 [unverified]
    [Checksum Status: Unverified]
    Urgent Pointer: 0
    Options: (20 bytes), Maximum segment size, SACK permitted, Timestamps, No-Operation (NOP), Window scale
        TCP Option - Maximum segment size: 1460 bytes
            Kind: Maximum Segment Size (2)
            Length: 4
            MSS Value: 1460
        TCP Option - SACK permitted
            Kind: SACK Permitted (4)
            Length: 2
        TCP Option - Timestamps: TSval 4158925857, TSecr 2302645301
            Kind: Time Stamp Option (8)
            Length: 10
            Timestamp value: 4158925857
            Timestamp echo reply: 2302645301
        TCP Option - No-Operation (NOP)
            Kind: No-Operation (1)
        TCP Option - Window scale: 7 (multiply by 128)
            Kind: Window Scale (3)
            Length: 3
            Shift count: 7
            [Multiplier: 128]
    [Timestamps]
        [Time since first frame in this TCP stream: 0.000044290 seconds]
        [Time since previous frame in this TCP stream: 0.000044290 seconds]
    [SEQ/ACK analysis]
        [This is an ACK to the segment in frame: 1]
        [The RTT to ACK the segment was: 0.000044290 seconds]
        [iRTT: 0.000245667 seconds]

0000  08 00 27 57 5f a0 08 00 27 9f a5 ba 08 00 45 00   ..'W_...'.....E.
0010  00 3c 00 00 40 00 40 06 93 b5 0a 02 49 fe 0a 02   .<..@.@.....I...
0020  49 05 1c 92 82 fe eb 22 62 b5 b0 df b5 4c a0 12   I......"b....L..
0030  fe 88 a7 35 00 00 02 04 05 b4 04 02 08 0a f7 e4   ...5............
0040  2c 21 89 3f 94 35 01 03 03 07                     ,!.?.5....

No.     Time           Source                Destination           Protocol Length Info
      3 0.000245667    10.2.73.5             10.2.73.254           TCP      66     33534 → 7314 [ACK] Seq=1 Ack=1 Win=64256 Len=0 TSval=2302645302 TSecr=4158925857

Frame 3: 66 bytes on wire (528 bits), 66 bytes captured (528 bits) on interface enp0s9, id 0
    Interface id: 0 (enp0s9)
        Interface name: enp0s9
    Encapsulation type: Ethernet (1)
    Arrival Time: Oct 25, 2022 18:45:27.798239132 EEST
    [Time shift for this packet: 0.000000000 seconds]
    Epoch Time: 1666712727.798239132 seconds
    [Time delta from previous captured frame: 0.000201377 seconds]
    [Time delta from previous displayed frame: 0.000201377 seconds]
    [Time since reference or first frame: 0.000245667 seconds]
    Frame Number: 3
    Frame Length: 66 bytes (528 bits)
    Capture Length: 66 bytes (528 bits)
    [Frame is marked: False]
    [Frame is ignored: False]
    [Protocols in frame: eth:ethertype:ip:tcp]
    [Coloring Rule Name: TCP]
    [Coloring Rule String: tcp]
Ethernet II, Src: PcsCompu_57:5f:a0 (08:00:27:57:5f:a0), Dst: PcsCompu_9f:a5:ba (08:00:27:9f:a5:ba)
    Destination: PcsCompu_9f:a5:ba (08:00:27:9f:a5:ba)
        Address: PcsCompu_9f:a5:ba (08:00:27:9f:a5:ba)
        .... ..0. .... .... .... .... = LG bit: Globally unique address (factory default)
        .... ...0 .... .... .... .... = IG bit: Individual address (unicast)
    Source: PcsCompu_57:5f:a0 (08:00:27:57:5f:a0)
        Address: PcsCompu_57:5f:a0 (08:00:27:57:5f:a0)
        .... ..0. .... .... .... .... = LG bit: Globally unique address (factory default)
        .... ...0 .... .... .... .... = IG bit: Individual address (unicast)
    Type: IPv4 (0x0800)
Internet Protocol Version 4, Src: 10.2.73.5, Dst: 10.2.73.254
    0100 .... = Version: 4
    .... 0101 = Header Length: 20 bytes (5)
    Differentiated Services Field: 0x10 (DSCP: Unknown, ECN: Not-ECT)
        0001 00.. = Differentiated Services Codepoint: Unknown (4)
        .... ..00 = Explicit Congestion Notification: Not ECN-Capable Transport (0)
    Total Length: 52
    Identification: 0x79d2 (31186)
    Flags: 0x40, Don't fragment
        0... .... = Reserved bit: Not set
        .1.. .... = Don't fragment: Set
        ..0. .... = More fragments: Not set
    ...0 0000 0000 0000 = Fragment Offset: 0
    Time to Live: 64
    Protocol: TCP (6)
    Header Checksum: 0x19db [validation disabled]
    [Header checksum status: Unverified]
    Source Address: 10.2.73.5
    Destination Address: 10.2.73.254
Transmission Control Protocol, Src Port: 33534, Dst Port: 7314, Seq: 1, Ack: 1, Len: 0
    Source Port: 33534
    Destination Port: 7314
    [Stream index: 0]
    [Conversation completeness: Incomplete, DATA (15)]
    [TCP Segment Len: 0]
    Sequence Number: 1    (relative sequence number)
    Sequence Number (raw): 2967450956
    [Next Sequence Number: 1    (relative sequence number)]
    Acknowledgment Number: 1    (relative ack number)
    Acknowledgment number (raw): 3944899254
    1000 .... = Header Length: 32 bytes (8)
    Flags: 0x010 (ACK)
        000. .... .... = Reserved: Not set
        ...0 .... .... = Nonce: Not set
        .... 0... .... = Congestion Window Reduced (CWR): Not set
        .... .0.. .... = ECN-Echo: Not set
        .... ..0. .... = Urgent: Not set
        .... ...1 .... = Acknowledgment: Set
        .... .... 0... = Push: Not set
        .... .... .0.. = Reset: Not set
        .... .... ..0. = Syn: Not set
        .... .... ...0 = Fin: Not set
        [TCP Flags: ·······A····]
    Window: 502
    [Calculated window size: 64256]
    [Window size scaling factor: 128]
    Checksum: 0x38ae [unverified]
    [Checksum Status: Unverified]
    Urgent Pointer: 0
    Options: (12 bytes), No-Operation (NOP), No-Operation (NOP), Timestamps
        TCP Option - No-Operation (NOP)
            Kind: No-Operation (1)
        TCP Option - No-Operation (NOP)
            Kind: No-Operation (1)
        TCP Option - Timestamps: TSval 2302645302, TSecr 4158925857
            Kind: Time Stamp Option (8)
            Length: 10
            Timestamp value: 2302645302
            Timestamp echo reply: 4158925857
    [Timestamps]
        [Time since first frame in this TCP stream: 0.000245667 seconds]
        [Time since previous frame in this TCP stream: 0.000201377 seconds]
    [SEQ/ACK analysis]
        [This is an ACK to the segment in frame: 2]
        [The RTT to ACK the segment was: 0.000201377 seconds]
        [iRTT: 0.000245667 seconds]

0000  08 00 27 9f a5 ba 08 00 27 57 5f a0 08 00 45 10   ..'.....'W_...E.
0010  00 34 79 d2 40 00 40 06 19 db 0a 02 49 05 0a 02   .4y.@.@.....I...
0020  49 fe 82 fe 1c 92 b0 df b5 4c eb 22 62 b6 80 10   I........L."b...
0030  01 f6 38 ae 00 00 01 01 08 0a 89 3f 94 36 f7 e4   ..8........?.6..
0040  2c 21                                             ,!

No.     Time           Source                Destination           Protocol Length Info
      4 0.010863159    10.2.73.5             10.2.73.254           TCP      98     33534 → 7314 [PSH, ACK] Seq=1 Ack=1 Win=64256 Len=32 TSval=2302645312 TSecr=4158925857

Frame 4: 98 bytes on wire (784 bits), 98 bytes captured (784 bits) on interface enp0s9, id 0
    Interface id: 0 (enp0s9)
        Interface name: enp0s9
    Encapsulation type: Ethernet (1)
    Arrival Time: Oct 25, 2022 18:45:27.808856624 EEST
    [Time shift for this packet: 0.000000000 seconds]
    Epoch Time: 1666712727.808856624 seconds
    [Time delta from previous captured frame: 0.010617492 seconds]
    [Time delta from previous displayed frame: 0.010617492 seconds]
    [Time since reference or first frame: 0.010863159 seconds]
    Frame Number: 4
    Frame Length: 98 bytes (784 bits)
    Capture Length: 98 bytes (784 bits)
    [Frame is marked: False]
    [Frame is ignored: False]
    [Protocols in frame: eth:ethertype:ip:tcp:data]
    [Coloring Rule Name: TCP]
    [Coloring Rule String: tcp]
Ethernet II, Src: PcsCompu_57:5f:a0 (08:00:27:57:5f:a0), Dst: PcsCompu_9f:a5:ba (08:00:27:9f:a5:ba)
    Destination: PcsCompu_9f:a5:ba (08:00:27:9f:a5:ba)
        Address: PcsCompu_9f:a5:ba (08:00:27:9f:a5:ba)
        .... ..0. .... .... .... .... = LG bit: Globally unique address (factory default)
        .... ...0 .... .... .... .... = IG bit: Individual address (unicast)
    Source: PcsCompu_57:5f:a0 (08:00:27:57:5f:a0)
        Address: PcsCompu_57:5f:a0 (08:00:27:57:5f:a0)
        .... ..0. .... .... .... .... = LG bit: Globally unique address (factory default)
        .... ...0 .... .... .... .... = IG bit: Individual address (unicast)
    Type: IPv4 (0x0800)
Internet Protocol Version 4, Src: 10.2.73.5, Dst: 10.2.73.254
    0100 .... = Version: 4
    .... 0101 = Header Length: 20 bytes (5)
    Differentiated Services Field: 0x10 (DSCP: Unknown, ECN: Not-ECT)
        0001 00.. = Differentiated Services Codepoint: Unknown (4)
        .... ..00 = Explicit Congestion Notification: Not ECN-Capable Transport (0)
    Total Length: 84
    Identification: 0x79d3 (31187)
    Flags: 0x40, Don't fragment
        0... .... = Reserved bit: Not set
        .1.. .... = Don't fragment: Set
        ..0. .... = More fragments: Not set
    ...0 0000 0000 0000 = Fragment Offset: 0
    Time to Live: 64
    Protocol: TCP (6)
    Header Checksum: 0x19ba [validation disabled]
    [Header checksum status: Unverified]
    Source Address: 10.2.73.5
    Destination Address: 10.2.73.254
Transmission Control Protocol, Src Port: 33534, Dst Port: 7314, Seq: 1, Ack: 1, Len: 32
    Source Port: 33534
    Destination Port: 7314
    [Stream index: 0]
    [Conversation completeness: Incomplete, DATA (15)]
    [TCP Segment Len: 32]
    Sequence Number: 1    (relative sequence number)
    Sequence Number (raw): 2967450956
    [Next Sequence Number: 33    (relative sequence number)]
    Acknowledgment Number: 1    (relative ack number)
    Acknowledgment number (raw): 3944899254
    1000 .... = Header Length: 32 bytes (8)
    Flags: 0x018 (PSH, ACK)
        000. .... .... = Reserved: Not set
        ...0 .... .... = Nonce: Not set
        .... 0... .... = Congestion Window Reduced (CWR): Not set
        .... .0.. .... = ECN-Echo: Not set
        .... ..0. .... = Urgent: Not set
        .... ...1 .... = Acknowledgment: Set
        .... .... 1... = Push: Set
        .... .... .0.. = Reset: Not set
        .... .... ..0. = Syn: Not set
        .... .... ...0 = Fin: Not set
        [TCP Flags: ·······AP···]
    Window: 502
    [Calculated window size: 64256]
    [Window size scaling factor: 128]
    Checksum: 0xcdcc [unverified]
    [Checksum Status: Unverified]
    Urgent Pointer: 0
    Options: (12 bytes), No-Operation (NOP), No-Operation (NOP), Timestamps
        TCP Option - No-Operation (NOP)
            Kind: No-Operation (1)
        TCP Option - No-Operation (NOP)
            Kind: No-Operation (1)
        TCP Option - Timestamps: TSval 2302645312, TSecr 4158925857
            Kind: Time Stamp Option (8)
            Length: 10
            Timestamp value: 2302645312
            Timestamp echo reply: 4158925857
    [Timestamps]
        [Time since first frame in this TCP stream: 0.010863159 seconds]
        [Time since previous frame in this TCP stream: 0.010617492 seconds]
    [SEQ/ACK analysis]
        [iRTT: 0.000245667 seconds]
        [Bytes in flight: 32]
        [Bytes sent since last PSH flag: 32]
    TCP payload (32 bytes)
Data (32 bytes)
    Data: 5353482d322e302d4f70656e5353485f382e397031205562756e74752d330d0a
    [Length: 32]

0000  08 00 27 9f a5 ba 08 00 27 57 5f a0 08 00 45 10   ..'.....'W_...E.
0010  00 54 79 d3 40 00 40 06 19 ba 0a 02 49 05 0a 02   .Ty.@.@.....I...
0020  49 fe 82 fe 1c 92 b0 df b5 4c eb 22 62 b6 80 18   I........L."b...
0030  01 f6 cd cc 00 00 01 01 08 0a 89 3f 94 40 f7 e4   ...........?.@..
0040  2c 21 53 53 48 2d 32 2e 30 2d 4f 70 65 6e 53 53   ,!SSH-2.0-OpenSS
0050  48 5f 38 2e 39 70 31 20 55 62 75 6e 74 75 2d 33   H_8.9p1 Ubuntu-3
0060  0d 0a                                             ..

No.     Time           Source                Destination           Protocol Length Info
      5 0.010878277    10.2.73.254           10.2.73.5             TCP      66     7314 → 33534 [ACK] Seq=1 Ack=33 Win=65152 Len=0 TSval=4158925868 TSecr=2302645312

Frame 5: 66 bytes on wire (528 bits), 66 bytes captured (528 bits) on interface enp0s9, id 0
    Interface id: 0 (enp0s9)
        Interface name: enp0s9
    Encapsulation type: Ethernet (1)
    Arrival Time: Oct 25, 2022 18:45:27.808871742 EEST
    [Time shift for this packet: 0.000000000 seconds]
    Epoch Time: 1666712727.808871742 seconds
    [Time delta from previous captured frame: 0.000015118 seconds]
    [Time delta from previous displayed frame: 0.000015118 seconds]
    [Time since reference or first frame: 0.010878277 seconds]
    Frame Number: 5
    Frame Length: 66 bytes (528 bits)
    Capture Length: 66 bytes (528 bits)
    [Frame is marked: False]
    [Frame is ignored: False]
    [Protocols in frame: eth:ethertype:ip:tcp]
    [Coloring Rule Name: TCP]
    [Coloring Rule String: tcp]
Ethernet II, Src: PcsCompu_9f:a5:ba (08:00:27:9f:a5:ba), Dst: PcsCompu_57:5f:a0 (08:00:27:57:5f:a0)
    Destination: PcsCompu_57:5f:a0 (08:00:27:57:5f:a0)
        Address: PcsCompu_57:5f:a0 (08:00:27:57:5f:a0)
        .... ..0. .... .... .... .... = LG bit: Globally unique address (factory default)
        .... ...0 .... .... .... .... = IG bit: Individual address (unicast)
    Source: PcsCompu_9f:a5:ba (08:00:27:9f:a5:ba)
        Address: PcsCompu_9f:a5:ba (08:00:27:9f:a5:ba)
        .... ..0. .... .... .... .... = LG bit: Globally unique address (factory default)
        .... ...0 .... .... .... .... = IG bit: Individual address (unicast)
    Type: IPv4 (0x0800)
Internet Protocol Version 4, Src: 10.2.73.254, Dst: 10.2.73.5
    0100 .... = Version: 4
    .... 0101 = Header Length: 20 bytes (5)
    Differentiated Services Field: 0x00 (DSCP: CS0, ECN: Not-ECT)
        0000 00.. = Differentiated Services Codepoint: Default (0)
        .... ..00 = Explicit Congestion Notification: Not ECN-Capable Transport (0)
    Total Length: 52
    Identification: 0xf28d (62093)
    Flags: 0x40, Don't fragment
        0... .... = Reserved bit: Not set
        .1.. .... = Don't fragment: Set
        ..0. .... = More fragments: Not set
    ...0 0000 0000 0000 = Fragment Offset: 0
    Time to Live: 64
    Protocol: TCP (6)
    Header Checksum: 0xa12f [validation disabled]
    [Header checksum status: Unverified]
    Source Address: 10.2.73.254
    Destination Address: 10.2.73.5
Transmission Control Protocol, Src Port: 7314, Dst Port: 33534, Seq: 1, Ack: 33, Len: 0
    Source Port: 7314
    Destination Port: 33534
    [Stream index: 0]
    [Conversation completeness: Incomplete, DATA (15)]
    [TCP Segment Len: 0]
    Sequence Number: 1    (relative sequence number)
    Sequence Number (raw): 3944899254
    [Next Sequence Number: 1    (relative sequence number)]
    Acknowledgment Number: 33    (relative ack number)
    Acknowledgment number (raw): 2967450988
    1000 .... = Header Length: 32 bytes (8)
    Flags: 0x010 (ACK)
        000. .... .... = Reserved: Not set
        ...0 .... .... = Nonce: Not set
        .... 0... .... = Congestion Window Reduced (CWR): Not set
        .... .0.. .... = ECN-Echo: Not set
        .... ..0. .... = Urgent: Not set
        .... ...1 .... = Acknowledgment: Set
        .... .... 0... = Push: Not set
        .... .... .0.. = Reset: Not set
        .... .... ..0. = Syn: Not set
        .... .... ...0 = Fin: Not set
        [TCP Flags: ·······A····]
    Window: 509
    [Calculated window size: 65152]
    [Window size scaling factor: 128]
    Checksum: 0xa72d [unverified]
    [Checksum Status: Unverified]
    Urgent Pointer: 0
    Options: (12 bytes), No-Operation (NOP), No-Operation (NOP), Timestamps
        TCP Option - No-Operation (NOP)
            Kind: No-Operation (1)
        TCP Option - No-Operation (NOP)
            Kind: No-Operation (1)
        TCP Option - Timestamps: TSval 4158925868, TSecr 2302645312
            Kind: Time Stamp Option (8)
            Length: 10
            Timestamp value: 4158925868
            Timestamp echo reply: 2302645312
    [Timestamps]
        [Time since first frame in this TCP stream: 0.010878277 seconds]
        [Time since previous frame in this TCP stream: 0.000015118 seconds]
    [SEQ/ACK analysis]
        [This is an ACK to the segment in frame: 4]
        [The RTT to ACK the segment was: 0.000015118 seconds]
        [iRTT: 0.000245667 seconds]

0000  08 00 27 57 5f a0 08 00 27 9f a5 ba 08 00 45 00   ..'W_...'.....E.
0010  00 34 f2 8d 40 00 40 06 a1 2f 0a 02 49 fe 0a 02   .4..@.@../..I...
0020  49 05 1c 92 82 fe eb 22 62 b6 b0 df b5 6c 80 10   I......"b....l..
0030  01 fd a7 2d 00 00 01 01 08 0a f7 e4 2c 2c 89 3f   ...-........,,.?
0040  94 40                                             .@

No.     Time           Source                Destination           Protocol Length Info
      6 0.177136756    10.2.73.254           10.2.73.5             TCP      98     7314 → 33534 [PSH, ACK] Seq=1 Ack=33 Win=65152 Len=32 TSval=4158926035 TSecr=2302645312

Frame 6: 98 bytes on wire (784 bits), 98 bytes captured (784 bits) on interface enp0s9, id 0
    Interface id: 0 (enp0s9)
        Interface name: enp0s9
    Encapsulation type: Ethernet (1)
    Arrival Time: Oct 25, 2022 18:45:27.975130221 EEST
    [Time shift for this packet: 0.000000000 seconds]
    Epoch Time: 1666712727.975130221 seconds
    [Time delta from previous captured frame: 0.166258479 seconds]
    [Time delta from previous displayed frame: 0.166258479 seconds]
    [Time since reference or first frame: 0.177136756 seconds]
    Frame Number: 6
    Frame Length: 98 bytes (784 bits)
    Capture Length: 98 bytes (784 bits)
    [Frame is marked: False]
    [Frame is ignored: False]
    [Protocols in frame: eth:ethertype:ip:tcp:data]
    [Coloring Rule Name: TCP]
    [Coloring Rule String: tcp]
Ethernet II, Src: PcsCompu_9f:a5:ba (08:00:27:9f:a5:ba), Dst: PcsCompu_57:5f:a0 (08:00:27:57:5f:a0)
    Destination: PcsCompu_57:5f:a0 (08:00:27:57:5f:a0)
        Address: PcsCompu_57:5f:a0 (08:00:27:57:5f:a0)
        .... ..0. .... .... .... .... = LG bit: Globally unique address (factory default)
        .... ...0 .... .... .... .... = IG bit: Individual address (unicast)
    Source: PcsCompu_9f:a5:ba (08:00:27:9f:a5:ba)
        Address: PcsCompu_9f:a5:ba (08:00:27:9f:a5:ba)
        .... ..0. .... .... .... .... = LG bit: Globally unique address (factory default)
        .... ...0 .... .... .... .... = IG bit: Individual address (unicast)
    Type: IPv4 (0x0800)
Internet Protocol Version 4, Src: 10.2.73.254, Dst: 10.2.73.5
    0100 .... = Version: 4
    .... 0101 = Header Length: 20 bytes (5)
    Differentiated Services Field: 0x00 (DSCP: CS0, ECN: Not-ECT)
        0000 00.. = Differentiated Services Codepoint: Default (0)
        .... ..00 = Explicit Congestion Notification: Not ECN-Capable Transport (0)
    Total Length: 84
    Identification: 0xf28e (62094)
    Flags: 0x40, Don't fragment
        0... .... = Reserved bit: Not set
        .1.. .... = Don't fragment: Set
        ..0. .... = More fragments: Not set
    ...0 0000 0000 0000 = Fragment Offset: 0
    Time to Live: 64
    Protocol: TCP (6)
    Header Checksum: 0xa10e [validation disabled]
    [Header checksum status: Unverified]
    Source Address: 10.2.73.254
    Destination Address: 10.2.73.5
Transmission Control Protocol, Src Port: 7314, Dst Port: 33534, Seq: 1, Ack: 33, Len: 32
    Source Port: 7314
    Destination Port: 33534
    [Stream index: 0]
    [Conversation completeness: Incomplete, DATA (15)]
    [TCP Segment Len: 32]
    Sequence Number: 1    (relative sequence number)
    Sequence Number (raw): 3944899254
    [Next Sequence Number: 33    (relative sequence number)]
    Acknowledgment Number: 33    (relative ack number)
    Acknowledgment number (raw): 2967450988
    1000 .... = Header Length: 32 bytes (8)
    Flags: 0x018 (PSH, ACK)
        000. .... .... = Reserved: Not set
        ...0 .... .... = Nonce: Not set
        .... 0... .... = Congestion Window Reduced (CWR): Not set
        .... .0.. .... = ECN-Echo: Not set
        .... ..0. .... = Urgent: Not set
        .... ...1 .... = Acknowledgment: Set
        .... .... 1... = Push: Set
        .... .... .0.. = Reset: Not set
        .... .... ..0. = Syn: Not set
        .... .... ...0 = Fin: Not set
        [TCP Flags: ·······AP···]
    Window: 509
    [Calculated window size: 65152]
    [Window size scaling factor: 128]
    Checksum: 0xa74d [unverified]
    [Checksum Status: Unverified]
    Urgent Pointer: 0
    Options: (12 bytes), No-Operation (NOP), No-Operation (NOP), Timestamps
        TCP Option - No-Operation (NOP)
            Kind: No-Operation (1)
        TCP Option - No-Operation (NOP)
            Kind: No-Operation (1)
        TCP Option - Timestamps: TSval 4158926035, TSecr 2302645312
            Kind: Time Stamp Option (8)
            Length: 10
            Timestamp value: 4158926035
            Timestamp echo reply: 2302645312
    [Timestamps]
        [Time since first frame in this TCP stream: 0.177136756 seconds]
        [Time since previous frame in this TCP stream: 0.166258479 seconds]
    [SEQ/ACK analysis]
        [iRTT: 0.000245667 seconds]
        [Bytes in flight: 32]
        [Bytes sent since last PSH flag: 32]
    TCP payload (32 bytes)
Data (32 bytes)
    Data: 5353482d322e302d4f70656e5353485f382e397031205562756e74752d330d0a
    [Length: 32]

0000  08 00 27 57 5f a0 08 00 27 9f a5 ba 08 00 45 00   ..'W_...'.....E.
0010  00 54 f2 8e 40 00 40 06 a1 0e 0a 02 49 fe 0a 02   .T..@.@.....I...
0020  49 05 1c 92 82 fe eb 22 62 b6 b0 df b5 6c 80 18   I......"b....l..
0030  01 fd a7 4d 00 00 01 01 08 0a f7 e4 2c d3 89 3f   ...M........,..?
0040  94 40 53 53 48 2d 32 2e 30 2d 4f 70 65 6e 53 53   .@SSH-2.0-OpenSS
0050  48 5f 38 2e 39 70 31 20 55 62 75 6e 74 75 2d 33   H_8.9p1 Ubuntu-3
0060  0d 0a                                             ..

No.     Time           Source                Destination           Protocol Length Info
      7 0.177615544    10.2.73.5             10.2.73.254           TCP      66     33534 → 7314 [ACK] Seq=33 Ack=33 Win=64256 Len=0 TSval=2302645479 TSecr=4158926035

Frame 7: 66 bytes on wire (528 bits), 66 bytes captured (528 bits) on interface enp0s9, id 0
    Interface id: 0 (enp0s9)
        Interface name: enp0s9
    Encapsulation type: Ethernet (1)
    Arrival Time: Oct 25, 2022 18:45:27.975609009 EEST
    [Time shift for this packet: 0.000000000 seconds]
    Epoch Time: 1666712727.975609009 seconds
    [Time delta from previous captured frame: 0.000478788 seconds]
    [Time delta from previous displayed frame: 0.000478788 seconds]
    [Time since reference or first frame: 0.177615544 seconds]
    Frame Number: 7
    Frame Length: 66 bytes (528 bits)
    Capture Length: 66 bytes (528 bits)
    [Frame is marked: False]
    [Frame is ignored: False]
    [Protocols in frame: eth:ethertype:ip:tcp]
    [Coloring Rule Name: TCP]
    [Coloring Rule String: tcp]
Ethernet II, Src: PcsCompu_57:5f:a0 (08:00:27:57:5f:a0), Dst: PcsCompu_9f:a5:ba (08:00:27:9f:a5:ba)
    Destination: PcsCompu_9f:a5:ba (08:00:27:9f:a5:ba)
        Address: PcsCompu_9f:a5:ba (08:00:27:9f:a5:ba)
        .... ..0. .... .... .... .... = LG bit: Globally unique address (factory default)
        .... ...0 .... .... .... .... = IG bit: Individual address (unicast)
    Source: PcsCompu_57:5f:a0 (08:00:27:57:5f:a0)
        Address: PcsCompu_57:5f:a0 (08:00:27:57:5f:a0)
        .... ..0. .... .... .... .... = LG bit: Globally unique address (factory default)
        .... ...0 .... .... .... .... = IG bit: Individual address (unicast)
    Type: IPv4 (0x0800)
Internet Protocol Version 4, Src: 10.2.73.5, Dst: 10.2.73.254
    0100 .... = Version: 4
    .... 0101 = Header Length: 20 bytes (5)
    Differentiated Services Field: 0x10 (DSCP: Unknown, ECN: Not-ECT)
        0001 00.. = Differentiated Services Codepoint: Unknown (4)
        .... ..00 = Explicit Congestion Notification: Not ECN-Capable Transport (0)
    Total Length: 52
    Identification: 0x79d4 (31188)
    Flags: 0x40, Don't fragment
        0... .... = Reserved bit: Not set
        .1.. .... = Don't fragment: Set
        ..0. .... = More fragments: Not set
    ...0 0000 0000 0000 = Fragment Offset: 0
    Time to Live: 64
    Protocol: TCP (6)
    Header Checksum: 0x19d9 [validation disabled]
    [Header checksum status: Unverified]
    Source Address: 10.2.73.5
    Destination Address: 10.2.73.254
Transmission Control Protocol, Src Port: 33534, Dst Port: 7314, Seq: 33, Ack: 33, Len: 0
    Source Port: 33534
    Destination Port: 7314
    [Stream index: 0]
    [Conversation completeness: Incomplete, DATA (15)]
    [TCP Segment Len: 0]
    Sequence Number: 33    (relative sequence number)
    Sequence Number (raw): 2967450988
    [Next Sequence Number: 33    (relative sequence number)]
    Acknowledgment Number: 33    (relative ack number)
    Acknowledgment number (raw): 3944899286
    1000 .... = Header Length: 32 bytes (8)
    Flags: 0x010 (ACK)
        000. .... .... = Reserved: Not set
        ...0 .... .... = Nonce: Not set
        .... 0... .... = Congestion Window Reduced (CWR): Not set
        .... .0.. .... = ECN-Echo: Not set
        .... ..0. .... = Urgent: Not set
        .... ...1 .... = Acknowledgment: Set
        .... .... 0... = Push: Not set
        .... .... .0.. = Reset: Not set
        .... .... ..0. = Syn: Not set
        .... .... ...0 = Fin: Not set
        [TCP Flags: ·······A····]
    Window: 502
    [Calculated window size: 64256]
    [Window size scaling factor: 128]
    Checksum: 0x370b [unverified]
    [Checksum Status: Unverified]
    Urgent Pointer: 0
    Options: (12 bytes), No-Operation (NOP), No-Operation (NOP), Timestamps
        TCP Option - No-Operation (NOP)
            Kind: No-Operation (1)
        TCP Option - No-Operation (NOP)
            Kind: No-Operation (1)
        TCP Option - Timestamps: TSval 2302645479, TSecr 4158926035
            Kind: Time Stamp Option (8)
            Length: 10
            Timestamp value: 2302645479
            Timestamp echo reply: 4158926035
    [Timestamps]
        [Time since first frame in this TCP stream: 0.177615544 seconds]
        [Time since previous frame in this TCP stream: 0.000478788 seconds]
    [SEQ/ACK analysis]
        [This is an ACK to the segment in frame: 6]
        [The RTT to ACK the segment was: 0.000478788 seconds]
        [iRTT: 0.000245667 seconds]

0000  08 00 27 9f a5 ba 08 00 27 57 5f a0 08 00 45 10   ..'.....'W_...E.
0010  00 34 79 d4 40 00 40 06 19 d9 0a 02 49 05 0a 02   .4y.@.@.....I...
0020  49 fe 82 fe 1c 92 b0 df b5 6c eb 22 62 d6 80 10   I........l."b...
0030  01 f6 37 0b 00 00 01 01 08 0a 89 3f 94 e7 f7 e4   ..7........?....
0040  2c d3                                             ,.

No.     Time           Source                Destination           Protocol Length Info
      8 0.179415182    10.2.73.254           10.2.73.5             TCP      1146   7314 → 33534 [PSH, ACK] Seq=33 Ack=33 Win=65152 Len=1080 TSval=4158926037 TSecr=2302645479

Frame 8: 1146 bytes on wire (9168 bits), 1146 bytes captured (9168 bits) on interface enp0s9, id 0
    Interface id: 0 (enp0s9)
        Interface name: enp0s9
    Encapsulation type: Ethernet (1)
    Arrival Time: Oct 25, 2022 18:45:27.977408647 EEST
    [Time shift for this packet: 0.000000000 seconds]
    Epoch Time: 1666712727.977408647 seconds
    [Time delta from previous captured frame: 0.001799638 seconds]
    [Time delta from previous displayed frame: 0.001799638 seconds]
    [Time since reference or first frame: 0.179415182 seconds]
    Frame Number: 8
    Frame Length: 1146 bytes (9168 bits)
    Capture Length: 1146 bytes (9168 bits)
    [Frame is marked: False]
    [Frame is ignored: False]
    [Protocols in frame: eth:ethertype:ip:tcp:data]
    [Coloring Rule Name: TCP]
    [Coloring Rule String: tcp]
Ethernet II, Src: PcsCompu_9f:a5:ba (08:00:27:9f:a5:ba), Dst: PcsCompu_57:5f:a0 (08:00:27:57:5f:a0)
    Destination: PcsCompu_57:5f:a0 (08:00:27:57:5f:a0)
        Address: PcsCompu_57:5f:a0 (08:00:27:57:5f:a0)
        .... ..0. .... .... .... .... = LG bit: Globally unique address (factory default)
        .... ...0 .... .... .... .... = IG bit: Individual address (unicast)
    Source: PcsCompu_9f:a5:ba (08:00:27:9f:a5:ba)
        Address: PcsCompu_9f:a5:ba (08:00:27:9f:a5:ba)
        .... ..0. .... .... .... .... = LG bit: Globally unique address (factory default)
        .... ...0 .... .... .... .... = IG bit: Individual address (unicast)
    Type: IPv4 (0x0800)
Internet Protocol Version 4, Src: 10.2.73.254, Dst: 10.2.73.5
    0100 .... = Version: 4
    .... 0101 = Header Length: 20 bytes (5)
    Differentiated Services Field: 0x00 (DSCP: CS0, ECN: Not-ECT)
        0000 00.. = Differentiated Services Codepoint: Default (0)
        .... ..00 = Explicit Congestion Notification: Not ECN-Capable Transport (0)
    Total Length: 1132
    Identification: 0xf28f (62095)
    Flags: 0x40, Don't fragment
        0... .... = Reserved bit: Not set
        .1.. .... = Don't fragment: Set
        ..0. .... = More fragments: Not set
    ...0 0000 0000 0000 = Fragment Offset: 0
    Time to Live: 64
    Protocol: TCP (6)
    Header Checksum: 0x9cf5 [validation disabled]
    [Header checksum status: Unverified]
    Source Address: 10.2.73.254
    Destination Address: 10.2.73.5
Transmission Control Protocol, Src Port: 7314, Dst Port: 33534, Seq: 33, Ack: 33, Len: 1080
    Source Port: 7314
    Destination Port: 33534
    [Stream index: 0]
    [Conversation completeness: Incomplete, DATA (15)]
    [TCP Segment Len: 1080]
    Sequence Number: 33    (relative sequence number)
    Sequence Number (raw): 3944899286
    [Next Sequence Number: 1113    (relative sequence number)]
    Acknowledgment Number: 33    (relative ack number)
    Acknowledgment number (raw): 2967450988
    1000 .... = Header Length: 32 bytes (8)
    Flags: 0x018 (PSH, ACK)
        000. .... .... = Reserved: Not set
        ...0 .... .... = Nonce: Not set
        .... 0... .... = Congestion Window Reduced (CWR): Not set
        .... .0.. .... = ECN-Echo: Not set
        .... ..0. .... = Urgent: Not set
        .... ...1 .... = Acknowledgment: Set
        .... .... 1... = Push: Set
        .... .... .0.. = Reset: Not set
        .... .... ..0. = Syn: Not set
        .... .... ...0 = Fin: Not set
        [TCP Flags: ·······AP···]
    Window: 509
    [Calculated window size: 65152]
    [Window size scaling factor: 128]
    Checksum: 0xab65 [unverified]
    [Checksum Status: Unverified]
    Urgent Pointer: 0
    Options: (12 bytes), No-Operation (NOP), No-Operation (NOP), Timestamps
        TCP Option - No-Operation (NOP)
            Kind: No-Operation (1)
        TCP Option - No-Operation (NOP)
            Kind: No-Operation (1)
        TCP Option - Timestamps: TSval 4158926037, TSecr 2302645479
            Kind: Time Stamp Option (8)
            Length: 10
            Timestamp value: 4158926037
            Timestamp echo reply: 2302645479
    [Timestamps]
        [Time since first frame in this TCP stream: 0.179415182 seconds]
        [Time since previous frame in this TCP stream: 0.001799638 seconds]
    [SEQ/ACK analysis]
        [iRTT: 0.000245667 seconds]
        [Bytes in flight: 1080]
        [Bytes sent since last PSH flag: 1080]
    TCP payload (1080 bytes)
Data (1080 bytes)
    Data: 000004340714d8fe150ccc8e611c9d8b9491fda2dead0000010963757276653235353139…
    [Length: 1080]

0000  08 00 27 57 5f a0 08 00 27 9f a5 ba 08 00 45 00   ..'W_...'.....E.
0010  04 6c f2 8f 40 00 40 06 9c f5 0a 02 49 fe 0a 02   .l..@.@.....I...
0020  49 05 1c 92 82 fe eb 22 62 d6 b0 df b5 6c 80 18   I......"b....l..
0030  01 fd ab 65 00 00 01 01 08 0a f7 e4 2c d5 89 3f   ...e........,..?
0040  94 e7 00 00 04 34 07 14 d8 fe 15 0c cc 8e 61 1c   .....4........a.
0050  9d 8b 94 91 fd a2 de ad 00 00 01 09 63 75 72 76   ............curv
0060  65 32 35 35 31 39 2d 73 68 61 32 35 36 2c 63 75   e25519-sha256,cu
0070  72 76 65 32 35 35 31 39 2d 73 68 61 32 35 36 40   rve25519-sha256@
0080  6c 69 62 73 73 68 2e 6f 72 67 2c 65 63 64 68 2d   libssh.org,ecdh-
0090  73 68 61 32 2d 6e 69 73 74 70 32 35 36 2c 65 63   sha2-nistp256,ec
00a0  64 68 2d 73 68 61 32 2d 6e 69 73 74 70 33 38 34   dh-sha2-nistp384
00b0  2c 65 63 64 68 2d 73 68 61 32 2d 6e 69 73 74 70   ,ecdh-sha2-nistp
00c0  35 32 31 2c 73 6e 74 72 75 70 37 36 31 78 32 35   521,sntrup761x25
00d0  35 31 39 2d 73 68 61 35 31 32 40 6f 70 65 6e 73   519-sha512@opens
00e0  73 68 2e 63 6f 6d 2c 64 69 66 66 69 65 2d 68 65   sh.com,diffie-he
00f0  6c 6c 6d 61 6e 2d 67 72 6f 75 70 2d 65 78 63 68   llman-group-exch
0100  61 6e 67 65 2d 73 68 61 32 35 36 2c 64 69 66 66   ange-sha256,diff
0110  69 65 2d 68 65 6c 6c 6d 61 6e 2d 67 72 6f 75 70   ie-hellman-group
0120  31 36 2d 73 68 61 35 31 32 2c 64 69 66 66 69 65   16-sha512,diffie
0130  2d 68 65 6c 6c 6d 61 6e 2d 67 72 6f 75 70 31 38   -hellman-group18
0140  2d 73 68 61 35 31 32 2c 64 69 66 66 69 65 2d 68   -sha512,diffie-h
0150  65 6c 6c 6d 61 6e 2d 67 72 6f 75 70 31 34 2d 73   ellman-group14-s
0160  68 61 32 35 36 00 00 00 39 72 73 61 2d 73 68 61   ha256...9rsa-sha
0170  32 2d 35 31 32 2c 72 73 61 2d 73 68 61 32 2d 32   2-512,rsa-sha2-2
0180  35 36 2c 65 63 64 73 61 2d 73 68 61 32 2d 6e 69   56,ecdsa-sha2-ni
0190  73 74 70 32 35 36 2c 73 73 68 2d 65 64 32 35 35   stp256,ssh-ed255
01a0  31 39 00 00 00 6c 63 68 61 63 68 61 32 30 2d 70   19...lchacha20-p
01b0  6f 6c 79 31 33 30 35 40 6f 70 65 6e 73 73 68 2e   oly1305@openssh.
01c0  63 6f 6d 2c 61 65 73 31 32 38 2d 63 74 72 2c 61   com,aes128-ctr,a
01d0  65 73 31 39 32 2d 63 74 72 2c 61 65 73 32 35 36   es192-ctr,aes256
01e0  2d 63 74 72 2c 61 65 73 31 32 38 2d 67 63 6d 40   -ctr,aes128-gcm@
01f0  6f 70 65 6e 73 73 68 2e 63 6f 6d 2c 61 65 73 32   openssh.com,aes2
0200  35 36 2d 67 63 6d 40 6f 70 65 6e 73 73 68 2e 63   56-gcm@openssh.c
0210  6f 6d 00 00 00 6c 63 68 61 63 68 61 32 30 2d 70   om...lchacha20-p
0220  6f 6c 79 31 33 30 35 40 6f 70 65 6e 73 73 68 2e   oly1305@openssh.
0230  63 6f 6d 2c 61 65 73 31 32 38 2d 63 74 72 2c 61   com,aes128-ctr,a
0240  65 73 31 39 32 2d 63 74 72 2c 61 65 73 32 35 36   es192-ctr,aes256
0250  2d 63 74 72 2c 61 65 73 31 32 38 2d 67 63 6d 40   -ctr,aes128-gcm@
0260  6f 70 65 6e 73 73 68 2e 63 6f 6d 2c 61 65 73 32   openssh.com,aes2
0270  35 36 2d 67 63 6d 40 6f 70 65 6e 73 73 68 2e 63   56-gcm@openssh.c
0280  6f 6d 00 00 00 d5 75 6d 61 63 2d 36 34 2d 65 74   om....umac-64-et
0290  6d 40 6f 70 65 6e 73 73 68 2e 63 6f 6d 2c 75 6d   m@openssh.com,um
02a0  61 63 2d 31 32 38 2d 65 74 6d 40 6f 70 65 6e 73   ac-128-etm@opens
02b0  73 68 2e 63 6f 6d 2c 68 6d 61 63 2d 73 68 61 32   sh.com,hmac-sha2
02c0  2d 32 35 36 2d 65 74 6d 40 6f 70 65 6e 73 73 68   -256-etm@openssh
02d0  2e 63 6f 6d 2c 68 6d 61 63 2d 73 68 61 32 2d 35   .com,hmac-sha2-5
02e0  31 32 2d 65 74 6d 40 6f 70 65 6e 73 73 68 2e 63   12-etm@openssh.c
02f0  6f 6d 2c 68 6d 61 63 2d 73 68 61 31 2d 65 74 6d   om,hmac-sha1-etm
0300  40 6f 70 65 6e 73 73 68 2e 63 6f 6d 2c 75 6d 61   @openssh.com,uma
0310  63 2d 36 34 40 6f 70 65 6e 73 73 68 2e 63 6f 6d   c-64@openssh.com
0320  2c 75 6d 61 63 2d 31 32 38 40 6f 70 65 6e 73 73   ,umac-128@openss
0330  68 2e 63 6f 6d 2c 68 6d 61 63 2d 73 68 61 32 2d   h.com,hmac-sha2-
0340  32 35 36 2c 68 6d 61 63 2d 73 68 61 32 2d 35 31   256,hmac-sha2-51
0350  32 2c 68 6d 61 63 2d 73 68 61 31 00 00 00 d5 75   2,hmac-sha1....u
0360  6d 61 63 2d 36 34 2d 65 74 6d 40 6f 70 65 6e 73   mac-64-etm@opens
0370  73 68 2e 63 6f 6d 2c 75 6d 61 63 2d 31 32 38 2d   sh.com,umac-128-
0380  65 74 6d 40 6f 70 65 6e 73 73 68 2e 63 6f 6d 2c   etm@openssh.com,
0390  68 6d 61 63 2d 73 68 61 32 2d 32 35 36 2d 65 74   hmac-sha2-256-et
03a0  6d 40 6f 70 65 6e 73 73 68 2e 63 6f 6d 2c 68 6d   m@openssh.com,hm
03b0  61 63 2d 73 68 61 32 2d 35 31 32 2d 65 74 6d 40   ac-sha2-512-etm@
03c0  6f 70 65 6e 73 73 68 2e 63 6f 6d 2c 68 6d 61 63   openssh.com,hmac
03d0  2d 73 68 61 31 2d 65 74 6d 40 6f 70 65 6e 73 73   -sha1-etm@openss
03e0  68 2e 63 6f 6d 2c 75 6d 61 63 2d 36 34 40 6f 70   h.com,umac-64@op
03f0  65 6e 73 73 68 2e 63 6f 6d 2c 75 6d 61 63 2d 31   enssh.com,umac-1
0400  32 38 40 6f 70 65 6e 73 73 68 2e 63 6f 6d 2c 68   28@openssh.com,h
0410  6d 61 63 2d 73 68 61 32 2d 32 35 36 2c 68 6d 61   mac-sha2-256,hma
0420  63 2d 73 68 61 32 2d 35 31 32 2c 68 6d 61 63 2d   c-sha2-512,hmac-
0430  73 68 61 31 00 00 00 15 6e 6f 6e 65 2c 7a 6c 69   sha1....none,zli
0440  62 40 6f 70 65 6e 73 73 68 2e 63 6f 6d 00 00 00   b@openssh.com...
0450  15 6e 6f 6e 65 2c 7a 6c 69 62 40 6f 70 65 6e 73   .none,zlib@opens
0460  73 68 2e 63 6f 6d 00 00 00 00 00 00 00 00 00 00   sh.com..........
0470  00 00 00 00 00 00 00 00 00 00                     ..........

No.     Time           Source                Destination           Protocol Length Info
      9 0.179717054    10.2.73.5             10.2.73.254           TCP      66     33534 → 7314 [ACK] Seq=33 Ack=1113 Win=64128 Len=0 TSval=2302645481 TSecr=4158926037

Frame 9: 66 bytes on wire (528 bits), 66 bytes captured (528 bits) on interface enp0s9, id 0
    Interface id: 0 (enp0s9)
        Interface name: enp0s9
    Encapsulation type: Ethernet (1)
    Arrival Time: Oct 25, 2022 18:45:27.977710519 EEST
    [Time shift for this packet: 0.000000000 seconds]
    Epoch Time: 1666712727.977710519 seconds
    [Time delta from previous captured frame: 0.000301872 seconds]
    [Time delta from previous displayed frame: 0.000301872 seconds]
    [Time since reference or first frame: 0.179717054 seconds]
    Frame Number: 9
    Frame Length: 66 bytes (528 bits)
    Capture Length: 66 bytes (528 bits)
    [Frame is marked: False]
    [Frame is ignored: False]
    [Protocols in frame: eth:ethertype:ip:tcp]
    [Coloring Rule Name: TCP]
    [Coloring Rule String: tcp]
Ethernet II, Src: PcsCompu_57:5f:a0 (08:00:27:57:5f:a0), Dst: PcsCompu_9f:a5:ba (08:00:27:9f:a5:ba)
    Destination: PcsCompu_9f:a5:ba (08:00:27:9f:a5:ba)
        Address: PcsCompu_9f:a5:ba (08:00:27:9f:a5:ba)
        .... ..0. .... .... .... .... = LG bit: Globally unique address (factory default)
        .... ...0 .... .... .... .... = IG bit: Individual address (unicast)
    Source: PcsCompu_57:5f:a0 (08:00:27:57:5f:a0)
        Address: PcsCompu_57:5f:a0 (08:00:27:57:5f:a0)
        .... ..0. .... .... .... .... = LG bit: Globally unique address (factory default)
        .... ...0 .... .... .... .... = IG bit: Individual address (unicast)
    Type: IPv4 (0x0800)
Internet Protocol Version 4, Src: 10.2.73.5, Dst: 10.2.73.254
    0100 .... = Version: 4
    .... 0101 = Header Length: 20 bytes (5)
    Differentiated Services Field: 0x10 (DSCP: Unknown, ECN: Not-ECT)
        0001 00.. = Differentiated Services Codepoint: Unknown (4)
        .... ..00 = Explicit Congestion Notification: Not ECN-Capable Transport (0)
    Total Length: 52
    Identification: 0x79d5 (31189)
    Flags: 0x40, Don't fragment
        0... .... = Reserved bit: Not set
        .1.. .... = Don't fragment: Set
        ..0. .... = More fragments: Not set
    ...0 0000 0000 0000 = Fragment Offset: 0
    Time to Live: 64
    Protocol: TCP (6)
    Header Checksum: 0x19d8 [validation disabled]
    [Header checksum status: Unverified]
    Source Address: 10.2.73.5
    Destination Address: 10.2.73.254
Transmission Control Protocol, Src Port: 33534, Dst Port: 7314, Seq: 33, Ack: 1113, Len: 0
    Source Port: 33534
    Destination Port: 7314
    [Stream index: 0]
    [Conversation completeness: Incomplete, DATA (15)]
    [TCP Segment Len: 0]
    Sequence Number: 33    (relative sequence number)
    Sequence Number (raw): 2967450988
    [Next Sequence Number: 33    (relative sequence number)]
    Acknowledgment Number: 1113    (relative ack number)
    Acknowledgment number (raw): 3944900366
    1000 .... = Header Length: 32 bytes (8)
    Flags: 0x010 (ACK)
        000. .... .... = Reserved: Not set
        ...0 .... .... = Nonce: Not set
        .... 0... .... = Congestion Window Reduced (CWR): Not set
        .... .0.. .... = ECN-Echo: Not set
        .... ..0. .... = Urgent: Not set
        .... ...1 .... = Acknowledgment: Set
        .... .... 0... = Push: Not set
        .... .... .0.. = Reset: Not set
        .... .... ..0. = Syn: Not set
        .... .... ...0 = Fin: Not set
        [TCP Flags: ·······A····]
    Window: 501
    [Calculated window size: 64128]
    [Window size scaling factor: 128]
    Checksum: 0x32d0 [unverified]
    [Checksum Status: Unverified]
    Urgent Pointer: 0
    Options: (12 bytes), No-Operation (NOP), No-Operation (NOP), Timestamps
        TCP Option - No-Operation (NOP)
            Kind: No-Operation (1)
        TCP Option - No-Operation (NOP)
            Kind: No-Operation (1)
        TCP Option - Timestamps: TSval 2302645481, TSecr 4158926037
            Kind: Time Stamp Option (8)
            Length: 10
            Timestamp value: 2302645481
            Timestamp echo reply: 4158926037
    [Timestamps]
        [Time since first frame in this TCP stream: 0.179717054 seconds]
        [Time since previous frame in this TCP stream: 0.000301872 seconds]
    [SEQ/ACK analysis]
        [This is an ACK to the segment in frame: 8]
        [The RTT to ACK the segment was: 0.000301872 seconds]
        [iRTT: 0.000245667 seconds]

0000  08 00 27 9f a5 ba 08 00 27 57 5f a0 08 00 45 10   ..'.....'W_...E.
0010  00 34 79 d5 40 00 40 06 19 d8 0a 02 49 05 0a 02   .4y.@.@.....I...
0020  49 fe 82 fe 1c 92 b0 df b5 6c eb 22 67 0e 80 10   I........l."g...
0030  01 f5 32 d0 00 00 01 01 08 0a 89 3f 94 e9 f7 e4   ..2........?....
0040  2c d5                                             ,.

No.     Time           Source                Destination           Protocol Length Info
     10 0.198594859    10.2.73.5             10.2.73.254           TCP      1570   33534 → 7314 [PSH, ACK] Seq=33 Ack=1113 Win=64128 Len=1504 TSval=2302645500 TSecr=4158926037

Frame 10: 1570 bytes on wire (12560 bits), 1570 bytes captured (12560 bits) on interface enp0s9, id 0
    Interface id: 0 (enp0s9)
        Interface name: enp0s9
    Encapsulation type: Ethernet (1)
    Arrival Time: Oct 25, 2022 18:45:27.996588324 EEST
    [Time shift for this packet: 0.000000000 seconds]
    Epoch Time: 1666712727.996588324 seconds
    [Time delta from previous captured frame: 0.018877805 seconds]
    [Time delta from previous displayed frame: 0.018877805 seconds]
    [Time since reference or first frame: 0.198594859 seconds]
    Frame Number: 10
    Frame Length: 1570 bytes (12560 bits)
    Capture Length: 1570 bytes (12560 bits)
    [Frame is marked: False]
    [Frame is ignored: False]
    [Protocols in frame: eth:ethertype:ip:tcp:data]
    [Coloring Rule Name: TCP]
    [Coloring Rule String: tcp]
Ethernet II, Src: PcsCompu_57:5f:a0 (08:00:27:57:5f:a0), Dst: PcsCompu_9f:a5:ba (08:00:27:9f:a5:ba)
    Destination: PcsCompu_9f:a5:ba (08:00:27:9f:a5:ba)
        Address: PcsCompu_9f:a5:ba (08:00:27:9f:a5:ba)
        .... ..0. .... .... .... .... = LG bit: Globally unique address (factory default)
        .... ...0 .... .... .... .... = IG bit: Individual address (unicast)
    Source: PcsCompu_57:5f:a0 (08:00:27:57:5f:a0)
        Address: PcsCompu_57:5f:a0 (08:00:27:57:5f:a0)
        .... ..0. .... .... .... .... = LG bit: Globally unique address (factory default)
        .... ...0 .... .... .... .... = IG bit: Individual address (unicast)
    Type: IPv4 (0x0800)
Internet Protocol Version 4, Src: 10.2.73.5, Dst: 10.2.73.254
    0100 .... = Version: 4
    .... 0101 = Header Length: 20 bytes (5)
    Differentiated Services Field: 0x10 (DSCP: Unknown, ECN: Not-ECT)
        0001 00.. = Differentiated Services Codepoint: Unknown (4)
        .... ..00 = Explicit Congestion Notification: Not ECN-Capable Transport (0)
    Total Length: 1556
    Identification: 0x79d6 (31190)
    Flags: 0x40, Don't fragment
        0... .... = Reserved bit: Not set
        .1.. .... = Don't fragment: Set
        ..0. .... = More fragments: Not set
    ...0 0000 0000 0000 = Fragment Offset: 0
    Time to Live: 64
    Protocol: TCP (6)
    Header Checksum: 0x13f7 [validation disabled]
    [Header checksum status: Unverified]
    Source Address: 10.2.73.5
    Destination Address: 10.2.73.254
Transmission Control Protocol, Src Port: 33534, Dst Port: 7314, Seq: 33, Ack: 1113, Len: 1504
    Source Port: 33534
    Destination Port: 7314
    [Stream index: 0]
    [Conversation completeness: Incomplete, DATA (15)]
    [TCP Segment Len: 1504]
    Sequence Number: 33    (relative sequence number)
    Sequence Number (raw): 2967450988
    [Next Sequence Number: 1537    (relative sequence number)]
    Acknowledgment Number: 1113    (relative ack number)
    Acknowledgment number (raw): 3944900366
    1000 .... = Header Length: 32 bytes (8)
    Flags: 0x018 (PSH, ACK)
        000. .... .... = Reserved: Not set
        ...0 .... .... = Nonce: Not set
        .... 0... .... = Congestion Window Reduced (CWR): Not set
        .... .0.. .... = ECN-Echo: Not set
        .... ..0. .... = Urgent: Not set
        .... ...1 .... = Acknowledgment: Set
        .... .... 1... = Push: Set
        .... .... .0.. = Reset: Not set
        .... .... ..0. = Syn: Not set
        .... .... ...0 = Fin: Not set
        [TCP Flags: ·······AP···]
    Window: 501
    [Calculated window size: 64128]
    [Window size scaling factor: 128]
    Checksum: 0xad0d [unverified]
    [Checksum Status: Unverified]
    Urgent Pointer: 0
    Options: (12 bytes), No-Operation (NOP), No-Operation (NOP), Timestamps
        TCP Option - No-Operation (NOP)
            Kind: No-Operation (1)
        TCP Option - No-Operation (NOP)
            Kind: No-Operation (1)
        TCP Option - Timestamps: TSval 2302645500, TSecr 4158926037
            Kind: Time Stamp Option (8)
            Length: 10
            Timestamp value: 2302645500
            Timestamp echo reply: 4158926037
    [Timestamps]
        [Time since first frame in this TCP stream: 0.198594859 seconds]
        [Time since previous frame in this TCP stream: 0.018877805 seconds]
    [SEQ/ACK analysis]
        [iRTT: 0.000245667 seconds]
        [Bytes in flight: 1504]
        [Bytes sent since last PSH flag: 1504]
    TCP payload (1504 bytes)
Data (1504 bytes)
    Data: 000005dc041455117e00b39be49e934e91c963f2579e0000011463757276653235353139…
    [Length: 1504]

0000  08 00 27 9f a5 ba 08 00 27 57 5f a0 08 00 45 10   ..'.....'W_...E.
0010  06 14 79 d6 40 00 40 06 13 f7 0a 02 49 05 0a 02   ..y.@.@.....I...
0020  49 fe 82 fe 1c 92 b0 df b5 6c eb 22 67 0e 80 18   I........l."g...
0030  01 f5 ad 0d 00 00 01 01 08 0a 89 3f 94 fc f7 e4   ...........?....
0040  2c d5 00 00 05 dc 04 14 55 11 7e 00 b3 9b e4 9e   ,.......U.~.....
0050  93 4e 91 c9 63 f2 57 9e 00 00 01 14 63 75 72 76   .N..c.W.....curv
0060  65 32 35 35 31 39 2d 73 68 61 32 35 36 2c 63 75   e25519-sha256,cu
0070  72 76 65 32 35 35 31 39 2d 73 68 61 32 35 36 40   rve25519-sha256@
0080  6c 69 62 73 73 68 2e 6f 72 67 2c 65 63 64 68 2d   libssh.org,ecdh-
0090  73 68 61 32 2d 6e 69 73 74 70 32 35 36 2c 65 63   sha2-nistp256,ec
00a0  64 68 2d 73 68 61 32 2d 6e 69 73 74 70 33 38 34   dh-sha2-nistp384
00b0  2c 65 63 64 68 2d 73 68 61 32 2d 6e 69 73 74 70   ,ecdh-sha2-nistp
00c0  35 32 31 2c 73 6e 74 72 75 70 37 36 31 78 32 35   521,sntrup761x25
00d0  35 31 39 2d 73 68 61 35 31 32 40 6f 70 65 6e 73   519-sha512@opens
00e0  73 68 2e 63 6f 6d 2c 64 69 66 66 69 65 2d 68 65   sh.com,diffie-he
00f0  6c 6c 6d 61 6e 2d 67 72 6f 75 70 2d 65 78 63 68   llman-group-exch
0100  61 6e 67 65 2d 73 68 61 32 35 36 2c 64 69 66 66   ange-sha256,diff
0110  69 65 2d 68 65 6c 6c 6d 61 6e 2d 67 72 6f 75 70   ie-hellman-group
0120  31 36 2d 73 68 61 35 31 32 2c 64 69 66 66 69 65   16-sha512,diffie
0130  2d 68 65 6c 6c 6d 61 6e 2d 67 72 6f 75 70 31 38   -hellman-group18
0140  2d 73 68 61 35 31 32 2c 64 69 66 66 69 65 2d 68   -sha512,diffie-h
0150  65 6c 6c 6d 61 6e 2d 67 72 6f 75 70 31 34 2d 73   ellman-group14-s
0160  68 61 32 35 36 2c 65 78 74 2d 69 6e 66 6f 2d 63   ha256,ext-info-c
0170  00 00 01 cf 73 73 68 2d 65 64 32 35 35 31 39 2d   ....ssh-ed25519-
0180  63 65 72 74 2d 76 30 31 40 6f 70 65 6e 73 73 68   cert-v01@openssh
0190  2e 63 6f 6d 2c 65 63 64 73 61 2d 73 68 61 32 2d   .com,ecdsa-sha2-
01a0  6e 69 73 74 70 32 35 36 2d 63 65 72 74 2d 76 30   nistp256-cert-v0
01b0  31 40 6f 70 65 6e 73 73 68 2e 63 6f 6d 2c 65 63   1@openssh.com,ec
01c0  64 73 61 2d 73 68 61 32 2d 6e 69 73 74 70 33 38   dsa-sha2-nistp38
01d0  34 2d 63 65 72 74 2d 76 30 31 40 6f 70 65 6e 73   4-cert-v01@opens
01e0  73 68 2e 63 6f 6d 2c 65 63 64 73 61 2d 73 68 61   sh.com,ecdsa-sha
01f0  32 2d 6e 69 73 74 70 35 32 31 2d 63 65 72 74 2d   2-nistp521-cert-
0200  76 30 31 40 6f 70 65 6e 73 73 68 2e 63 6f 6d 2c   v01@openssh.com,
0210  73 6b 2d 73 73 68 2d 65 64 32 35 35 31 39 2d 63   sk-ssh-ed25519-c
0220  65 72 74 2d 76 30 31 40 6f 70 65 6e 73 73 68 2e   ert-v01@openssh.
0230  63 6f 6d 2c 73 6b 2d 65 63 64 73 61 2d 73 68 61   com,sk-ecdsa-sha
0240  32 2d 6e 69 73 74 70 32 35 36 2d 63 65 72 74 2d   2-nistp256-cert-
0250  76 30 31 40 6f 70 65 6e 73 73 68 2e 63 6f 6d 2c   v01@openssh.com,
0260  72 73 61 2d 73 68 61 32 2d 35 31 32 2d 63 65 72   rsa-sha2-512-cer
0270  74 2d 76 30 31 40 6f 70 65 6e 73 73 68 2e 63 6f   t-v01@openssh.co
0280  6d 2c 72 73 61 2d 73 68 61 32 2d 32 35 36 2d 63   m,rsa-sha2-256-c
0290  65 72 74 2d 76 30 31 40 6f 70 65 6e 73 73 68 2e   ert-v01@openssh.
02a0  63 6f 6d 2c 73 73 68 2d 65 64 32 35 35 31 39 2c   com,ssh-ed25519,
02b0  65 63 64 73 61 2d 73 68 61 32 2d 6e 69 73 74 70   ecdsa-sha2-nistp
02c0  32 35 36 2c 65 63 64 73 61 2d 73 68 61 32 2d 6e   256,ecdsa-sha2-n
02d0  69 73 74 70 33 38 34 2c 65 63 64 73 61 2d 73 68   istp384,ecdsa-sh
02e0  61 32 2d 6e 69 73 74 70 35 32 31 2c 73 6b 2d 73   a2-nistp521,sk-s
02f0  73 68 2d 65 64 32 35 35 31 39 40 6f 70 65 6e 73   sh-ed25519@opens
0300  73 68 2e 63 6f 6d 2c 73 6b 2d 65 63 64 73 61 2d   sh.com,sk-ecdsa-
0310  73 68 61 32 2d 6e 69 73 74 70 32 35 36 40 6f 70   sha2-nistp256@op
0320  65 6e 73 73 68 2e 63 6f 6d 2c 72 73 61 2d 73 68   enssh.com,rsa-sh
0330  61 32 2d 35 31 32 2c 72 73 61 2d 73 68 61 32 2d   a2-512,rsa-sha2-
0340  32 35 36 00 00 00 6c 63 68 61 63 68 61 32 30 2d   256...lchacha20-
0350  70 6f 6c 79 31 33 30 35 40 6f 70 65 6e 73 73 68   poly1305@openssh
0360  2e 63 6f 6d 2c 61 65 73 31 32 38 2d 63 74 72 2c   .com,aes128-ctr,
0370  61 65 73 31 39 32 2d 63 74 72 2c 61 65 73 32 35   aes192-ctr,aes25
0380  36 2d 63 74 72 2c 61 65 73 31 32 38 2d 67 63 6d   6-ctr,aes128-gcm
0390  40 6f 70 65 6e 73 73 68 2e 63 6f 6d 2c 61 65 73   @openssh.com,aes
03a0  32 35 36 2d 67 63 6d 40 6f 70 65 6e 73 73 68 2e   256-gcm@openssh.
03b0  63 6f 6d 00 00 00 6c 63 68 61 63 68 61 32 30 2d   com...lchacha20-
03c0  70 6f 6c 79 31 33 30 35 40 6f 70 65 6e 73 73 68   poly1305@openssh
03d0  2e 63 6f 6d 2c 61 65 73 31 32 38 2d 63 74 72 2c   .com,aes128-ctr,
03e0  61 65 73 31 39 32 2d 63 74 72 2c 61 65 73 32 35   aes192-ctr,aes25
03f0  36 2d 63 74 72 2c 61 65 73 31 32 38 2d 67 63 6d   6-ctr,aes128-gcm
0400  40 6f 70 65 6e 73 73 68 2e 63 6f 6d 2c 61 65 73   @openssh.com,aes
0410  32 35 36 2d 67 63 6d 40 6f 70 65 6e 73 73 68 2e   256-gcm@openssh.
0420  63 6f 6d 00 00 00 d5 75 6d 61 63 2d 36 34 2d 65   com....umac-64-e
0430  74 6d 40 6f 70 65 6e 73 73 68 2e 63 6f 6d 2c 75   tm@openssh.com,u
0440  6d 61 63 2d 31 32 38 2d 65 74 6d 40 6f 70 65 6e   mac-128-etm@open
0450  73 73 68 2e 63 6f 6d 2c 68 6d 61 63 2d 73 68 61   ssh.com,hmac-sha
0460  32 2d 32 35 36 2d 65 74 6d 40 6f 70 65 6e 73 73   2-256-etm@openss
0470  68 2e 63 6f 6d 2c 68 6d 61 63 2d 73 68 61 32 2d   h.com,hmac-sha2-
0480  35 31 32 2d 65 74 6d 40 6f 70 65 6e 73 73 68 2e   512-etm@openssh.
0490  63 6f 6d 2c 68 6d 61 63 2d 73 68 61 31 2d 65 74   com,hmac-sha1-et
04a0  6d 40 6f 70 65 6e 73 73 68 2e 63 6f 6d 2c 75 6d   m@openssh.com,um
04b0  61 63 2d 36 34 40 6f 70 65 6e 73 73 68 2e 63 6f   ac-64@openssh.co
04c0  6d 2c 75 6d 61 63 2d 31 32 38 40 6f 70 65 6e 73   m,umac-128@opens
04d0  73 68 2e 63 6f 6d 2c 68 6d 61 63 2d 73 68 61 32   sh.com,hmac-sha2
04e0  2d 32 35 36 2c 68 6d 61 63 2d 73 68 61 32 2d 35   -256,hmac-sha2-5
04f0  31 32 2c 68 6d 61 63 2d 73 68 61 31 00 00 00 d5   12,hmac-sha1....
0500  75 6d 61 63 2d 36 34 2d 65 74 6d 40 6f 70 65 6e   umac-64-etm@open
0510  73 73 68 2e 63 6f 6d 2c 75 6d 61 63 2d 31 32 38   ssh.com,umac-128
0520  2d 65 74 6d 40 6f 70 65 6e 73 73 68 2e 63 6f 6d   -etm@openssh.com
0530  2c 68 6d 61 63 2d 73 68 61 32 2d 32 35 36 2d 65   ,hmac-sha2-256-e
0540  74 6d 40 6f 70 65 6e 73 73 68 2e 63 6f 6d 2c 68   tm@openssh.com,h
0550  6d 61 63 2d 73 68 61 32 2d 35 31 32 2d 65 74 6d   mac-sha2-512-etm
0560  40 6f 70 65 6e 73 73 68 2e 63 6f 6d 2c 68 6d 61   @openssh.com,hma
0570  63 2d 73 68 61 31 2d 65 74 6d 40 6f 70 65 6e 73   c-sha1-etm@opens
0580  73 68 2e 63 6f 6d 2c 75 6d 61 63 2d 36 34 40 6f   sh.com,umac-64@o
0590  70 65 6e 73 73 68 2e 63 6f 6d 2c 75 6d 61 63 2d   penssh.com,umac-
05a0  31 32 38 40 6f 70 65 6e 73 73 68 2e 63 6f 6d 2c   128@openssh.com,
05b0  68 6d 61 63 2d 73 68 61 32 2d 32 35 36 2c 68 6d   hmac-sha2-256,hm
05c0  61 63 2d 73 68 61 32 2d 35 31 32 2c 68 6d 61 63   ac-sha2-512,hmac
05d0  2d 73 68 61 31 00 00 00 1a 6e 6f 6e 65 2c 7a 6c   -sha1....none,zl
05e0  69 62 40 6f 70 65 6e 73 73 68 2e 63 6f 6d 2c 7a   ib@openssh.com,z
05f0  6c 69 62 00 00 00 1a 6e 6f 6e 65 2c 7a 6c 69 62   lib....none,zlib
0600  40 6f 70 65 6e 73 73 68 2e 63 6f 6d 2c 7a 6c 69   @openssh.com,zli
0610  62 00 00 00 00 00 00 00 00 00 00 00 00 00 00 00   b...............
0620  00 00                                             ..

No.     Time           Source                Destination           Protocol Length Info
     11 0.198608989    10.2.73.254           10.2.73.5             TCP      66     7314 → 33534 [ACK] Seq=1113 Ack=1537 Win=64128 Len=0 TSval=4158926056 TSecr=2302645500

Frame 11: 66 bytes on wire (528 bits), 66 bytes captured (528 bits) on interface enp0s9, id 0
    Interface id: 0 (enp0s9)
        Interface name: enp0s9
    Encapsulation type: Ethernet (1)
    Arrival Time: Oct 25, 2022 18:45:27.996602454 EEST
    [Time shift for this packet: 0.000000000 seconds]
    Epoch Time: 1666712727.996602454 seconds
    [Time delta from previous captured frame: 0.000014130 seconds]
    [Time delta from previous displayed frame: 0.000014130 seconds]
    [Time since reference or first frame: 0.198608989 seconds]
    Frame Number: 11
    Frame Length: 66 bytes (528 bits)
    Capture Length: 66 bytes (528 bits)
    [Frame is marked: False]
    [Frame is ignored: False]
    [Protocols in frame: eth:ethertype:ip:tcp]
    [Coloring Rule Name: TCP]
    [Coloring Rule String: tcp]
Ethernet II, Src: PcsCompu_9f:a5:ba (08:00:27:9f:a5:ba), Dst: PcsCompu_57:5f:a0 (08:00:27:57:5f:a0)
    Destination: PcsCompu_57:5f:a0 (08:00:27:57:5f:a0)
        Address: PcsCompu_57:5f:a0 (08:00:27:57:5f:a0)
        .... ..0. .... .... .... .... = LG bit: Globally unique address (factory default)
        .... ...0 .... .... .... .... = IG bit: Individual address (unicast)
    Source: PcsCompu_9f:a5:ba (08:00:27:9f:a5:ba)
        Address: PcsCompu_9f:a5:ba (08:00:27:9f:a5:ba)
        .... ..0. .... .... .... .... = LG bit: Globally unique address (factory default)
        .... ...0 .... .... .... .... = IG bit: Individual address (unicast)
    Type: IPv4 (0x0800)
Internet Protocol Version 4, Src: 10.2.73.254, Dst: 10.2.73.5
    0100 .... = Version: 4
    .... 0101 = Header Length: 20 bytes (5)
    Differentiated Services Field: 0x00 (DSCP: CS0, ECN: Not-ECT)
        0000 00.. = Differentiated Services Codepoint: Default (0)
        .... ..00 = Explicit Congestion Notification: Not ECN-Capable Transport (0)
    Total Length: 52
    Identification: 0xf290 (62096)
    Flags: 0x40, Don't fragment
        0... .... = Reserved bit: Not set
        .1.. .... = Don't fragment: Set
        ..0. .... = More fragments: Not set
    ...0 0000 0000 0000 = Fragment Offset: 0
    Time to Live: 64
    Protocol: TCP (6)
    Header Checksum: 0xa12c [validation disabled]
    [Header checksum status: Unverified]
    Source Address: 10.2.73.254
    Destination Address: 10.2.73.5
Transmission Control Protocol, Src Port: 7314, Dst Port: 33534, Seq: 1113, Ack: 1537, Len: 0
    Source Port: 7314
    Destination Port: 33534
    [Stream index: 0]
    [Conversation completeness: Incomplete, DATA (15)]
    [TCP Segment Len: 0]
    Sequence Number: 1113    (relative sequence number)
    Sequence Number (raw): 3944900366
    [Next Sequence Number: 1113    (relative sequence number)]
    Acknowledgment Number: 1537    (relative ack number)
    Acknowledgment number (raw): 2967452492
    1000 .... = Header Length: 32 bytes (8)
    Flags: 0x010 (ACK)
        000. .... .... = Reserved: Not set
        ...0 .... .... = Nonce: Not set
        .... 0... .... = Congestion Window Reduced (CWR): Not set
        .... .0.. .... = ECN-Echo: Not set
        .... ..0. .... = Urgent: Not set
        .... ...1 .... = Acknowledgment: Set
        .... .... 0... = Push: Not set
        .... .... .0.. = Reset: Not set
        .... .... ..0. = Syn: Not set
        .... .... ...0 = Fin: Not set
        [TCP Flags: ·······A····]
    Window: 501
    [Calculated window size: 64128]
    [Window size scaling factor: 128]
    Checksum: 0xa72d [unverified]
    [Checksum Status: Unverified]
    Urgent Pointer: 0
    Options: (12 bytes), No-Operation (NOP), No-Operation (NOP), Timestamps
        TCP Option - No-Operation (NOP)
            Kind: No-Operation (1)
        TCP Option - No-Operation (NOP)
            Kind: No-Operation (1)
        TCP Option - Timestamps: TSval 4158926056, TSecr 2302645500
            Kind: Time Stamp Option (8)
            Length: 10
            Timestamp value: 4158926056
            Timestamp echo reply: 2302645500
    [Timestamps]
        [Time since first frame in this TCP stream: 0.198608989 seconds]
        [Time since previous frame in this TCP stream: 0.000014130 seconds]
    [SEQ/ACK analysis]
        [This is an ACK to the segment in frame: 10]
        [The RTT to ACK the segment was: 0.000014130 seconds]
        [iRTT: 0.000245667 seconds]

0000  08 00 27 57 5f a0 08 00 27 9f a5 ba 08 00 45 00   ..'W_...'.....E.
0010  00 34 f2 90 40 00 40 06 a1 2c 0a 02 49 fe 0a 02   .4..@.@..,..I...
0020  49 05 1c 92 82 fe eb 22 67 0e b0 df bb 4c 80 10   I......"g....L..
0030  01 f5 a7 2d 00 00 01 01 08 0a f7 e4 2c e8 89 3f   ...-........,..?
0040  94 fc                                             ..

No.     Time           Source                Destination           Protocol Length Info
     12 0.206046614    10.2.73.5             10.2.73.254           TCP      114    33534 → 7314 [PSH, ACK] Seq=1537 Ack=1113 Win=64128 Len=48 TSval=2302645507 TSecr=4158926056

Frame 12: 114 bytes on wire (912 bits), 114 bytes captured (912 bits) on interface enp0s9, id 0
    Interface id: 0 (enp0s9)
        Interface name: enp0s9
    Encapsulation type: Ethernet (1)
    Arrival Time: Oct 25, 2022 18:45:28.004040079 EEST
    [Time shift for this packet: 0.000000000 seconds]
    Epoch Time: 1666712728.004040079 seconds
    [Time delta from previous captured frame: 0.007437625 seconds]
    [Time delta from previous displayed frame: 0.007437625 seconds]
    [Time since reference or first frame: 0.206046614 seconds]
    Frame Number: 12
    Frame Length: 114 bytes (912 bits)
    Capture Length: 114 bytes (912 bits)
    [Frame is marked: False]
    [Frame is ignored: False]
    [Protocols in frame: eth:ethertype:ip:tcp:data]
    [Coloring Rule Name: TCP]
    [Coloring Rule String: tcp]
Ethernet II, Src: PcsCompu_57:5f:a0 (08:00:27:57:5f:a0), Dst: PcsCompu_9f:a5:ba (08:00:27:9f:a5:ba)
    Destination: PcsCompu_9f:a5:ba (08:00:27:9f:a5:ba)
        Address: PcsCompu_9f:a5:ba (08:00:27:9f:a5:ba)
        .... ..0. .... .... .... .... = LG bit: Globally unique address (factory default)
        .... ...0 .... .... .... .... = IG bit: Individual address (unicast)
    Source: PcsCompu_57:5f:a0 (08:00:27:57:5f:a0)
        Address: PcsCompu_57:5f:a0 (08:00:27:57:5f:a0)
        .... ..0. .... .... .... .... = LG bit: Globally unique address (factory default)
        .... ...0 .... .... .... .... = IG bit: Individual address (unicast)
    Type: IPv4 (0x0800)
Internet Protocol Version 4, Src: 10.2.73.5, Dst: 10.2.73.254
    0100 .... = Version: 4
    .... 0101 = Header Length: 20 bytes (5)
    Differentiated Services Field: 0x10 (DSCP: Unknown, ECN: Not-ECT)
        0001 00.. = Differentiated Services Codepoint: Unknown (4)
        .... ..00 = Explicit Congestion Notification: Not ECN-Capable Transport (0)
    Total Length: 100
    Identification: 0x79d8 (31192)
    Flags: 0x40, Don't fragment
        0... .... = Reserved bit: Not set
        .1.. .... = Don't fragment: Set
        ..0. .... = More fragments: Not set
    ...0 0000 0000 0000 = Fragment Offset: 0
    Time to Live: 64
    Protocol: TCP (6)
    Header Checksum: 0x19a5 [validation disabled]
    [Header checksum status: Unverified]
    Source Address: 10.2.73.5
    Destination Address: 10.2.73.254
Transmission Control Protocol, Src Port: 33534, Dst Port: 7314, Seq: 1537, Ack: 1113, Len: 48
    Source Port: 33534
    Destination Port: 7314
    [Stream index: 0]
    [Conversation completeness: Incomplete, DATA (15)]
    [TCP Segment Len: 48]
    Sequence Number: 1537    (relative sequence number)
    Sequence Number (raw): 2967452492
    [Next Sequence Number: 1585    (relative sequence number)]
    Acknowledgment Number: 1113    (relative ack number)
    Acknowledgment number (raw): 3944900366
    1000 .... = Header Length: 32 bytes (8)
    Flags: 0x018 (PSH, ACK)
        000. .... .... = Reserved: Not set
        ...0 .... .... = Nonce: Not set
        .... 0... .... = Congestion Window Reduced (CWR): Not set
        .... .0.. .... = ECN-Echo: Not set
        .... ..0. .... = Urgent: Not set
        .... ...1 .... = Acknowledgment: Set
        .... .... 1... = Push: Set
        .... .... .0.. = Reset: Not set
        .... .... ..0. = Syn: Not set
        .... .... ...0 = Fin: Not set
        [TCP Flags: ·······AP···]
    Window: 501
    [Calculated window size: 64128]
    [Window size scaling factor: 128]
    Checksum: 0x4967 [unverified]
    [Checksum Status: Unverified]
    Urgent Pointer: 0
    Options: (12 bytes), No-Operation (NOP), No-Operation (NOP), Timestamps
        TCP Option - No-Operation (NOP)
            Kind: No-Operation (1)
        TCP Option - No-Operation (NOP)
            Kind: No-Operation (1)
        TCP Option - Timestamps: TSval 2302645507, TSecr 4158926056
            Kind: Time Stamp Option (8)
            Length: 10
            Timestamp value: 2302645507
            Timestamp echo reply: 4158926056
    [Timestamps]
        [Time since first frame in this TCP stream: 0.206046614 seconds]
        [Time since previous frame in this TCP stream: 0.007437625 seconds]
    [SEQ/ACK analysis]
        [iRTT: 0.000245667 seconds]
        [Bytes in flight: 48]
        [Bytes sent since last PSH flag: 48]
    TCP payload (48 bytes)
Data (48 bytes)
    Data: 0000002c061e00000020ca8fd84b093765a968690ec7117802c861137a7ac84993195cc3…
    [Length: 48]

0000  08 00 27 9f a5 ba 08 00 27 57 5f a0 08 00 45 10   ..'.....'W_...E.
0010  00 64 79 d8 40 00 40 06 19 a5 0a 02 49 05 0a 02   .dy.@.@.....I...
0020  49 fe 82 fe 1c 92 b0 df bb 4c eb 22 67 0e 80 18   I........L."g...
0030  01 f5 49 67 00 00 01 01 08 0a 89 3f 95 03 f7 e4   ..Ig.......?....
0040  2c e8 00 00 00 2c 06 1e 00 00 00 20 ca 8f d8 4b   ,....,..... ...K
0050  09 37 65 a9 68 69 0e c7 11 78 02 c8 61 13 7a 7a   .7e.hi...x..a.zz
0060  c8 49 93 19 5c c3 63 a5 e5 d2 62 60 00 00 00 00   .I..\.c...b`....
0070  00 00                                             ..

No.     Time           Source                Destination           Protocol Length Info
     13 0.206058355    10.2.73.254           10.2.73.5             TCP      66     7314 → 33534 [ACK] Seq=1113 Ack=1585 Win=64128 Len=0 TSval=4158926063 TSecr=2302645507

Frame 13: 66 bytes on wire (528 bits), 66 bytes captured (528 bits) on interface enp0s9, id 0
    Interface id: 0 (enp0s9)
        Interface name: enp0s9
    Encapsulation type: Ethernet (1)
    Arrival Time: Oct 25, 2022 18:45:28.004051820 EEST
    [Time shift for this packet: 0.000000000 seconds]
    Epoch Time: 1666712728.004051820 seconds
    [Time delta from previous captured frame: 0.000011741 seconds]
    [Time delta from previous displayed frame: 0.000011741 seconds]
    [Time since reference or first frame: 0.206058355 seconds]
    Frame Number: 13
    Frame Length: 66 bytes (528 bits)
    Capture Length: 66 bytes (528 bits)
    [Frame is marked: False]
    [Frame is ignored: False]
    [Protocols in frame: eth:ethertype:ip:tcp]
    [Coloring Rule Name: TCP]
    [Coloring Rule String: tcp]
Ethernet II, Src: PcsCompu_9f:a5:ba (08:00:27:9f:a5:ba), Dst: PcsCompu_57:5f:a0 (08:00:27:57:5f:a0)
    Destination: PcsCompu_57:5f:a0 (08:00:27:57:5f:a0)
        Address: PcsCompu_57:5f:a0 (08:00:27:57:5f:a0)
        .... ..0. .... .... .... .... = LG bit: Globally unique address (factory default)
        .... ...0 .... .... .... .... = IG bit: Individual address (unicast)
    Source: PcsCompu_9f:a5:ba (08:00:27:9f:a5:ba)
        Address: PcsCompu_9f:a5:ba (08:00:27:9f:a5:ba)
        .... ..0. .... .... .... .... = LG bit: Globally unique address (factory default)
        .... ...0 .... .... .... .... = IG bit: Individual address (unicast)
    Type: IPv4 (0x0800)
Internet Protocol Version 4, Src: 10.2.73.254, Dst: 10.2.73.5
    0100 .... = Version: 4
    .... 0101 = Header Length: 20 bytes (5)
    Differentiated Services Field: 0x00 (DSCP: CS0, ECN: Not-ECT)
        0000 00.. = Differentiated Services Codepoint: Default (0)
        .... ..00 = Explicit Congestion Notification: Not ECN-Capable Transport (0)
    Total Length: 52
    Identification: 0xf291 (62097)
    Flags: 0x40, Don't fragment
        0... .... = Reserved bit: Not set
        .1.. .... = Don't fragment: Set
        ..0. .... = More fragments: Not set
    ...0 0000 0000 0000 = Fragment Offset: 0
    Time to Live: 64
    Protocol: TCP (6)
    Header Checksum: 0xa12b [validation disabled]
    [Header checksum status: Unverified]
    Source Address: 10.2.73.254
    Destination Address: 10.2.73.5
Transmission Control Protocol, Src Port: 7314, Dst Port: 33534, Seq: 1113, Ack: 1585, Len: 0
    Source Port: 7314
    Destination Port: 33534
    [Stream index: 0]
    [Conversation completeness: Incomplete, DATA (15)]
    [TCP Segment Len: 0]
    Sequence Number: 1113    (relative sequence number)
    Sequence Number (raw): 3944900366
    [Next Sequence Number: 1113    (relative sequence number)]
    Acknowledgment Number: 1585    (relative ack number)
    Acknowledgment number (raw): 2967452540
    1000 .... = Header Length: 32 bytes (8)
    Flags: 0x010 (ACK)
        000. .... .... = Reserved: Not set
        ...0 .... .... = Nonce: Not set
        .... 0... .... = Congestion Window Reduced (CWR): Not set
        .... .0.. .... = ECN-Echo: Not set
        .... ..0. .... = Urgent: Not set
        .... ...1 .... = Acknowledgment: Set
        .... .... 0... = Push: Not set
        .... .... .0.. = Reset: Not set
        .... .... ..0. = Syn: Not set
        .... .... ...0 = Fin: Not set
        [TCP Flags: ·······A····]
    Window: 501
    [Calculated window size: 64128]
    [Window size scaling factor: 128]
    Checksum: 0xa72d [unverified]
    [Checksum Status: Unverified]
    Urgent Pointer: 0
    Options: (12 bytes), No-Operation (NOP), No-Operation (NOP), Timestamps
        TCP Option - No-Operation (NOP)
            Kind: No-Operation (1)
        TCP Option - No-Operation (NOP)
            Kind: No-Operation (1)
        TCP Option - Timestamps: TSval 4158926063, TSecr 2302645507
            Kind: Time Stamp Option (8)
            Length: 10
            Timestamp value: 4158926063
            Timestamp echo reply: 2302645507
    [Timestamps]
        [Time since first frame in this TCP stream: 0.206058355 seconds]
        [Time since previous frame in this TCP stream: 0.000011741 seconds]
    [SEQ/ACK analysis]
        [This is an ACK to the segment in frame: 12]
        [The RTT to ACK the segment was: 0.000011741 seconds]
        [iRTT: 0.000245667 seconds]

0000  08 00 27 57 5f a0 08 00 27 9f a5 ba 08 00 45 00   ..'W_...'.....E.
0010  00 34 f2 91 40 00 40 06 a1 2b 0a 02 49 fe 0a 02   .4..@.@..+..I...
0020  49 05 1c 92 82 fe eb 22 67 0e b0 df bb 7c 80 10   I......"g....|..
0030  01 f5 a7 2d 00 00 01 01 08 0a f7 e4 2c ef 89 3f   ...-........,..?
0040  95 03                                             ..

No.     Time           Source                Destination           Protocol Length Info
     14 0.219242239    10.2.73.254           10.2.73.5             TCP      590    7314 → 33534 [PSH, ACK] Seq=1113 Ack=1585 Win=64128 Len=524 TSval=4158926077 TSecr=2302645507

Frame 14: 590 bytes on wire (4720 bits), 590 bytes captured (4720 bits) on interface enp0s9, id 0
    Interface id: 0 (enp0s9)
        Interface name: enp0s9
    Encapsulation type: Ethernet (1)
    Arrival Time: Oct 25, 2022 18:45:28.017235704 EEST
    [Time shift for this packet: 0.000000000 seconds]
    Epoch Time: 1666712728.017235704 seconds
    [Time delta from previous captured frame: 0.013183884 seconds]
    [Time delta from previous displayed frame: 0.013183884 seconds]
    [Time since reference or first frame: 0.219242239 seconds]
    Frame Number: 14
    Frame Length: 590 bytes (4720 bits)
    Capture Length: 590 bytes (4720 bits)
    [Frame is marked: False]
    [Frame is ignored: False]
    [Protocols in frame: eth:ethertype:ip:tcp:data]
    [Coloring Rule Name: TCP]
    [Coloring Rule String: tcp]
Ethernet II, Src: PcsCompu_9f:a5:ba (08:00:27:9f:a5:ba), Dst: PcsCompu_57:5f:a0 (08:00:27:57:5f:a0)
    Destination: PcsCompu_57:5f:a0 (08:00:27:57:5f:a0)
        Address: PcsCompu_57:5f:a0 (08:00:27:57:5f:a0)
        .... ..0. .... .... .... .... = LG bit: Globally unique address (factory default)
        .... ...0 .... .... .... .... = IG bit: Individual address (unicast)
    Source: PcsCompu_9f:a5:ba (08:00:27:9f:a5:ba)
        Address: PcsCompu_9f:a5:ba (08:00:27:9f:a5:ba)
        .... ..0. .... .... .... .... = LG bit: Globally unique address (factory default)
        .... ...0 .... .... .... .... = IG bit: Individual address (unicast)
    Type: IPv4 (0x0800)
Internet Protocol Version 4, Src: 10.2.73.254, Dst: 10.2.73.5
    0100 .... = Version: 4
    .... 0101 = Header Length: 20 bytes (5)
    Differentiated Services Field: 0x00 (DSCP: CS0, ECN: Not-ECT)
        0000 00.. = Differentiated Services Codepoint: Default (0)
        .... ..00 = Explicit Congestion Notification: Not ECN-Capable Transport (0)
    Total Length: 576
    Identification: 0xf292 (62098)
    Flags: 0x40, Don't fragment
        0... .... = Reserved bit: Not set
        .1.. .... = Don't fragment: Set
        ..0. .... = More fragments: Not set
    ...0 0000 0000 0000 = Fragment Offset: 0
    Time to Live: 64
    Protocol: TCP (6)
    Header Checksum: 0x9f1e [validation disabled]
    [Header checksum status: Unverified]
    Source Address: 10.2.73.254
    Destination Address: 10.2.73.5
Transmission Control Protocol, Src Port: 7314, Dst Port: 33534, Seq: 1113, Ack: 1585, Len: 524
    Source Port: 7314
    Destination Port: 33534
    [Stream index: 0]
    [Conversation completeness: Incomplete, DATA (15)]
    [TCP Segment Len: 524]
    Sequence Number: 1113    (relative sequence number)
    Sequence Number (raw): 3944900366
    [Next Sequence Number: 1637    (relative sequence number)]
    Acknowledgment Number: 1585    (relative ack number)
    Acknowledgment number (raw): 2967452540
    1000 .... = Header Length: 32 bytes (8)
    Flags: 0x018 (PSH, ACK)
        000. .... .... = Reserved: Not set
        ...0 .... .... = Nonce: Not set
        .... 0... .... = Congestion Window Reduced (CWR): Not set
        .... .0.. .... = ECN-Echo: Not set
        .... ..0. .... = Urgent: Not set
        .... ...1 .... = Acknowledgment: Set
        .... .... 1... = Push: Set
        .... .... .0.. = Reset: Not set
        .... .... ..0. = Syn: Not set
        .... .... ...0 = Fin: Not set
        [TCP Flags: ·······AP···]
    Window: 501
    [Calculated window size: 64128]
    [Window size scaling factor: 128]
    Checksum: 0xa939 [unverified]
    [Checksum Status: Unverified]
    Urgent Pointer: 0
    Options: (12 bytes), No-Operation (NOP), No-Operation (NOP), Timestamps
        TCP Option - No-Operation (NOP)
            Kind: No-Operation (1)
        TCP Option - No-Operation (NOP)
            Kind: No-Operation (1)
        TCP Option - Timestamps: TSval 4158926077, TSecr 2302645507
            Kind: Time Stamp Option (8)
            Length: 10
            Timestamp value: 4158926077
            Timestamp echo reply: 2302645507
    [Timestamps]
        [Time since first frame in this TCP stream: 0.219242239 seconds]
        [Time since previous frame in this TCP stream: 0.013183884 seconds]
    [SEQ/ACK analysis]
        [iRTT: 0.000245667 seconds]
        [Bytes in flight: 524]
        [Bytes sent since last PSH flag: 524]
    TCP payload (524 bytes)
Data (524 bytes)
    Data: 000000bc081f000000330000000b7373682d6564323535313900000020e5d598d08de011…
    [Length: 524]

0000  08 00 27 57 5f a0 08 00 27 9f a5 ba 08 00 45 00   ..'W_...'.....E.
0010  02 40 f2 92 40 00 40 06 9f 1e 0a 02 49 fe 0a 02   .@..@.@.....I...
0020  49 05 1c 92 82 fe eb 22 67 0e b0 df bb 7c 80 18   I......"g....|..
0030  01 f5 a9 39 00 00 01 01 08 0a f7 e4 2c fd 89 3f   ...9........,..?
0040  95 03 00 00 00 bc 08 1f 00 00 00 33 00 00 00 0b   ...........3....
0050  73 73 68 2d 65 64 32 35 35 31 39 00 00 00 20 e5   ssh-ed25519... .
0060  d5 98 d0 8d e0 11 e7 4c e6 96 d2 a5 19 0d 3d 4e   .......L......=N
0070  4a b9 7a 92 e2 5f a0 b2 4e 95 63 95 64 c1 39 00   J.z.._..N.c.d.9.
0080  00 00 20 85 2f f2 b3 f3 53 40 28 7b f0 6a 17 4c   .. ./...S@({.j.L
0090  b6 1b dd 70 5a 30 cc 44 b1 18 4e 0b e9 49 b2 2f   ...pZ0.D..N..I./
00a0  15 ad 39 00 00 00 53 00 00 00 0b 73 73 68 2d 65   ..9...S....ssh-e
00b0  64 32 35 35 31 39 00 00 00 40 b5 8b 42 d7 bb 80   d25519...@..B...
00c0  25 54 28 f4 27 55 a8 c6 af 4d a0 b8 20 93 fd a8   %T(.'U...M.. ...
00d0  f9 33 80 ab 1e 67 31 5f 7f 47 84 4d 60 49 84 91   .3...g1_.G.M`I..
00e0  d8 27 12 22 9a 29 37 90 d4 9a 1b 49 fc db 07 8f   .'.".)7....I....
00f0  e9 c7 0b 23 88 47 8f cc 12 0a 00 00 00 00 00 00   ...#.G..........
0100  00 00 00 00 00 0c 0a 15 00 00 00 00 00 00 00 00   ................
0110  00 00 ad 32 4b 60 2a 07 84 f5 6e fc 30 c0 cd 90   ...2K`*...n.0...
0120  d8 a3 79 45 18 9c 8a aa 21 90 ed f1 09 cd 8d d1   ..yE....!.......
0130  11 bf ec 6e 98 b0 ee 2d fe e9 14 a3 bd 53 ed 49   ...n...-.....S.I
0140  78 04 87 ed 47 03 d9 5d 41 a4 2a 58 bb c1 84 44   x...G..]A.*X...D
0150  a8 11 2c 81 93 4f 5c 58 d8 4f 5a 88 5e 0a 97 68   ..,..O\X.OZ.^..h
0160  ea 0b de 87 f2 c0 55 d6 62 02 83 3c e3 71 96 32   ......U.b..<.q.2
0170  cb 5b 51 63 e6 ea f4 e3 81 5c 76 0f bf 44 45 b4   .[Qc.....\v..DE.
0180  d7 90 73 0a c9 07 e1 f5 07 16 57 9e df 66 30 d5   ..s.......W..f0.
0190  05 d1 d9 a2 f6 1b 76 c0 52 43 b7 ba c9 1d 32 e2   ......v.RC....2.
01a0  74 79 52 99 e4 ad 03 58 72 73 ce a9 93 61 cf 62   tyR....Xrs...a.b
01b0  a7 f1 4b fa 51 46 2a 64 09 cf 81 f0 03 16 0a 1d   ..K.QF*d........
01c0  fc a0 21 ee be 78 6e 1a 68 29 da 7a 02 81 39 fc   ..!..xn.h).z..9.
01d0  8f 6b 4e 0b 74 46 3f 1d a0 b1 db 2f e8 74 46 00   .kN.tF?..../.tF.
01e0  30 e9 03 41 cd 14 01 ce 74 d7 57 8a 94 17 f0 bd   0..A....t.W.....
01f0  78 ae 31 6d 0a a9 e5 fc 9f 17 76 b9 38 7a 5d 30   x.1m......v.8z]0
0200  f7 11 a6 09 c7 59 f9 d3 39 bc fa 3d b4 f4 0e b4   .....Y..9..=....
0210  05 14 b8 d0 92 28 5a 75 14 6c 33 a9 78 1e 3f 3b   .....(Zu.l3.x.?;
0220  af 0f 6d 36 6f 79 a9 3d 1c dc f6 31 a6 c1 68 7b   ..m6oy.=...1..h{
0230  61 4f ae 1b a9 aa 03 4f 54 f7 70 a2 10 d4 ef f7   aO.....OT.p.....
0240  51 56 93 ee 91 da 1f 67 eb bc a2 1d d8 15         QV.....g......

No.     Time           Source                Destination           Protocol Length Info
     15 0.230680154    10.2.73.5             10.2.73.254           TCP      82     33534 → 7314 [PSH, ACK] Seq=1585 Ack=1637 Win=64128 Len=16 TSval=2302645532 TSecr=4158926077

Frame 15: 82 bytes on wire (656 bits), 82 bytes captured (656 bits) on interface enp0s9, id 0
    Interface id: 0 (enp0s9)
        Interface name: enp0s9
    Encapsulation type: Ethernet (1)
    Arrival Time: Oct 25, 2022 18:45:28.028673619 EEST
    [Time shift for this packet: 0.000000000 seconds]
    Epoch Time: 1666712728.028673619 seconds
    [Time delta from previous captured frame: 0.011437915 seconds]
    [Time delta from previous displayed frame: 0.011437915 seconds]
    [Time since reference or first frame: 0.230680154 seconds]
    Frame Number: 15
    Frame Length: 82 bytes (656 bits)
    Capture Length: 82 bytes (656 bits)
    [Frame is marked: False]
    [Frame is ignored: False]
    [Protocols in frame: eth:ethertype:ip:tcp:data]
    [Coloring Rule Name: TCP]
    [Coloring Rule String: tcp]
Ethernet II, Src: PcsCompu_57:5f:a0 (08:00:27:57:5f:a0), Dst: PcsCompu_9f:a5:ba (08:00:27:9f:a5:ba)
    Destination: PcsCompu_9f:a5:ba (08:00:27:9f:a5:ba)
        Address: PcsCompu_9f:a5:ba (08:00:27:9f:a5:ba)
        .... ..0. .... .... .... .... = LG bit: Globally unique address (factory default)
        .... ...0 .... .... .... .... = IG bit: Individual address (unicast)
    Source: PcsCompu_57:5f:a0 (08:00:27:57:5f:a0)
        Address: PcsCompu_57:5f:a0 (08:00:27:57:5f:a0)
        .... ..0. .... .... .... .... = LG bit: Globally unique address (factory default)
        .... ...0 .... .... .... .... = IG bit: Individual address (unicast)
    Type: IPv4 (0x0800)
Internet Protocol Version 4, Src: 10.2.73.5, Dst: 10.2.73.254
    0100 .... = Version: 4
    .... 0101 = Header Length: 20 bytes (5)
    Differentiated Services Field: 0x10 (DSCP: Unknown, ECN: Not-ECT)
        0001 00.. = Differentiated Services Codepoint: Unknown (4)
        .... ..00 = Explicit Congestion Notification: Not ECN-Capable Transport (0)
    Total Length: 68
    Identification: 0x79d9 (31193)
    Flags: 0x40, Don't fragment
        0... .... = Reserved bit: Not set
        .1.. .... = Don't fragment: Set
        ..0. .... = More fragments: Not set
    ...0 0000 0000 0000 = Fragment Offset: 0
    Time to Live: 64
    Protocol: TCP (6)
    Header Checksum: 0x19c4 [validation disabled]
    [Header checksum status: Unverified]
    Source Address: 10.2.73.5
    Destination Address: 10.2.73.254
Transmission Control Protocol, Src Port: 33534, Dst Port: 7314, Seq: 1585, Ack: 1637, Len: 16
    Source Port: 33534
    Destination Port: 7314
    [Stream index: 0]
    [Conversation completeness: Incomplete, DATA (15)]
    [TCP Segment Len: 16]
    Sequence Number: 1585    (relative sequence number)
    Sequence Number (raw): 2967452540
    [Next Sequence Number: 1601    (relative sequence number)]
    Acknowledgment Number: 1637    (relative ack number)
    Acknowledgment number (raw): 3944900890
    1000 .... = Header Length: 32 bytes (8)
    Flags: 0x018 (PSH, ACK)
        000. .... .... = Reserved: Not set
        ...0 .... .... = Nonce: Not set
        .... 0... .... = Congestion Window Reduced (CWR): Not set
        .... .0.. .... = ECN-Echo: Not set
        .... ..0. .... = Urgent: Not set
        .... ...1 .... = Acknowledgment: Set
        .... .... 1... = Push: Set
        .... .... .0.. = Reset: Not set
        .... .... ..0. = Syn: Not set
        .... .... ...0 = Fin: Not set
        [TCP Flags: ·······AP···]
    Window: 501
    [Calculated window size: 64128]
    [Window size scaling factor: 128]
    Checksum: 0x2020 [unverified]
    [Checksum Status: Unverified]
    Urgent Pointer: 0
    Options: (12 bytes), No-Operation (NOP), No-Operation (NOP), Timestamps
        TCP Option - No-Operation (NOP)
            Kind: No-Operation (1)
        TCP Option - No-Operation (NOP)
            Kind: No-Operation (1)
        TCP Option - Timestamps: TSval 2302645532, TSecr 4158926077
            Kind: Time Stamp Option (8)
            Length: 10
            Timestamp value: 2302645532
            Timestamp echo reply: 4158926077
    [Timestamps]
        [Time since first frame in this TCP stream: 0.230680154 seconds]
        [Time since previous frame in this TCP stream: 0.011437915 seconds]
    [SEQ/ACK analysis]
        [This is an ACK to the segment in frame: 14]
        [The RTT to ACK the segment was: 0.011437915 seconds]
        [iRTT: 0.000245667 seconds]
        [Bytes in flight: 16]
        [Bytes sent since last PSH flag: 16]
    TCP payload (16 bytes)
Data (16 bytes)
    Data: 0000000c0a1500000000000000000000
    [Length: 16]

0000  08 00 27 9f a5 ba 08 00 27 57 5f a0 08 00 45 10   ..'.....'W_...E.
0010  00 44 79 d9 40 00 40 06 19 c4 0a 02 49 05 0a 02   .Dy.@.@.....I...
0020  49 fe 82 fe 1c 92 b0 df bb 7c eb 22 69 1a 80 18   I........|."i...
0030  01 f5 20 20 00 00 01 01 08 0a 89 3f 95 1c f7 e4   ..  .......?....
0040  2c fd 00 00 00 0c 0a 15 00 00 00 00 00 00 00 00   ,...............
0050  00 00                                             ..

No.     Time           Source                Destination           Protocol Length Info
     16 0.273299142    10.2.73.254           10.2.73.5             TCP      66     7314 → 33534 [ACK] Seq=1637 Ack=1601 Win=64128 Len=0 TSval=4158926131 TSecr=2302645532

Frame 16: 66 bytes on wire (528 bits), 66 bytes captured (528 bits) on interface enp0s9, id 0
    Interface id: 0 (enp0s9)
        Interface name: enp0s9
    Encapsulation type: Ethernet (1)
    Arrival Time: Oct 25, 2022 18:45:28.071292607 EEST
    [Time shift for this packet: 0.000000000 seconds]
    Epoch Time: 1666712728.071292607 seconds
    [Time delta from previous captured frame: 0.042618988 seconds]
    [Time delta from previous displayed frame: 0.042618988 seconds]
    [Time since reference or first frame: 0.273299142 seconds]
    Frame Number: 16
    Frame Length: 66 bytes (528 bits)
    Capture Length: 66 bytes (528 bits)
    [Frame is marked: False]
    [Frame is ignored: False]
    [Protocols in frame: eth:ethertype:ip:tcp]
    [Coloring Rule Name: TCP]
    [Coloring Rule String: tcp]
Ethernet II, Src: PcsCompu_9f:a5:ba (08:00:27:9f:a5:ba), Dst: PcsCompu_57:5f:a0 (08:00:27:57:5f:a0)
    Destination: PcsCompu_57:5f:a0 (08:00:27:57:5f:a0)
        Address: PcsCompu_57:5f:a0 (08:00:27:57:5f:a0)
        .... ..0. .... .... .... .... = LG bit: Globally unique address (factory default)
        .... ...0 .... .... .... .... = IG bit: Individual address (unicast)
    Source: PcsCompu_9f:a5:ba (08:00:27:9f:a5:ba)
        Address: PcsCompu_9f:a5:ba (08:00:27:9f:a5:ba)
        .... ..0. .... .... .... .... = LG bit: Globally unique address (factory default)
        .... ...0 .... .... .... .... = IG bit: Individual address (unicast)
    Type: IPv4 (0x0800)
Internet Protocol Version 4, Src: 10.2.73.254, Dst: 10.2.73.5
    0100 .... = Version: 4
    .... 0101 = Header Length: 20 bytes (5)
    Differentiated Services Field: 0x00 (DSCP: CS0, ECN: Not-ECT)
        0000 00.. = Differentiated Services Codepoint: Default (0)
        .... ..00 = Explicit Congestion Notification: Not ECN-Capable Transport (0)
    Total Length: 52
    Identification: 0xf293 (62099)
    Flags: 0x40, Don't fragment
        0... .... = Reserved bit: Not set
        .1.. .... = Don't fragment: Set
        ..0. .... = More fragments: Not set
    ...0 0000 0000 0000 = Fragment Offset: 0
    Time to Live: 64
    Protocol: TCP (6)
    Header Checksum: 0xa129 [validation disabled]
    [Header checksum status: Unverified]
    Source Address: 10.2.73.254
    Destination Address: 10.2.73.5
Transmission Control Protocol, Src Port: 7314, Dst Port: 33534, Seq: 1637, Ack: 1601, Len: 0
    Source Port: 7314
    Destination Port: 33534
    [Stream index: 0]
    [Conversation completeness: Incomplete, DATA (15)]
    [TCP Segment Len: 0]
    Sequence Number: 1637    (relative sequence number)
    Sequence Number (raw): 3944900890
    [Next Sequence Number: 1637    (relative sequence number)]
    Acknowledgment Number: 1601    (relative ack number)
    Acknowledgment number (raw): 2967452556
    1000 .... = Header Length: 32 bytes (8)
    Flags: 0x010 (ACK)
        000. .... .... = Reserved: Not set
        ...0 .... .... = Nonce: Not set
        .... 0... .... = Congestion Window Reduced (CWR): Not set
        .... .0.. .... = ECN-Echo: Not set
        .... ..0. .... = Urgent: Not set
        .... ...1 .... = Acknowledgment: Set
        .... .... 0... = Push: Not set
        .... .... .0.. = Reset: Not set
        .... .... ..0. = Syn: Not set
        .... .... ...0 = Fin: Not set
        [TCP Flags: ·······A····]
    Window: 501
    [Calculated window size: 64128]
    [Window size scaling factor: 128]
    Checksum: 0xa72d [unverified]
    [Checksum Status: Unverified]
    Urgent Pointer: 0
    Options: (12 bytes), No-Operation (NOP), No-Operation (NOP), Timestamps
        TCP Option - No-Operation (NOP)
            Kind: No-Operation (1)
        TCP Option - No-Operation (NOP)
            Kind: No-Operation (1)
        TCP Option - Timestamps: TSval 4158926131, TSecr 2302645532
            Kind: Time Stamp Option (8)
            Length: 10
            Timestamp value: 4158926131
            Timestamp echo reply: 2302645532
    [Timestamps]
        [Time since first frame in this TCP stream: 0.273299142 seconds]
        [Time since previous frame in this TCP stream: 0.042618988 seconds]
    [SEQ/ACK analysis]
        [This is an ACK to the segment in frame: 15]
        [The RTT to ACK the segment was: 0.042618988 seconds]
        [iRTT: 0.000245667 seconds]

0000  08 00 27 57 5f a0 08 00 27 9f a5 ba 08 00 45 00   ..'W_...'.....E.
0010  00 34 f2 93 40 00 40 06 a1 29 0a 02 49 fe 0a 02   .4..@.@..)..I...
0020  49 05 1c 92 82 fe eb 22 69 1a b0 df bb 8c 80 10   I......"i.......
0030  01 f5 a7 2d 00 00 01 01 08 0a f7 e4 2d 33 89 3f   ...-........-3.?
0040  95 1c                                             ..

No.     Time           Source                Destination           Protocol Length Info
     17 0.273530912    10.2.73.5             10.2.73.254           TCP      110    33534 → 7314 [PSH, ACK] Seq=1601 Ack=1637 Win=64128 Len=44 TSval=2302645575 TSecr=4158926131

Frame 17: 110 bytes on wire (880 bits), 110 bytes captured (880 bits) on interface enp0s9, id 0
    Interface id: 0 (enp0s9)
        Interface name: enp0s9
    Encapsulation type: Ethernet (1)
    Arrival Time: Oct 25, 2022 18:45:28.071524377 EEST
    [Time shift for this packet: 0.000000000 seconds]
    Epoch Time: 1666712728.071524377 seconds
    [Time delta from previous captured frame: 0.000231770 seconds]
    [Time delta from previous displayed frame: 0.000231770 seconds]
    [Time since reference or first frame: 0.273530912 seconds]
    Frame Number: 17
    Frame Length: 110 bytes (880 bits)
    Capture Length: 110 bytes (880 bits)
    [Frame is marked: False]
    [Frame is ignored: False]
    [Protocols in frame: eth:ethertype:ip:tcp:data]
    [Coloring Rule Name: TCP]
    [Coloring Rule String: tcp]
Ethernet II, Src: PcsCompu_57:5f:a0 (08:00:27:57:5f:a0), Dst: PcsCompu_9f:a5:ba (08:00:27:9f:a5:ba)
    Destination: PcsCompu_9f:a5:ba (08:00:27:9f:a5:ba)
        Address: PcsCompu_9f:a5:ba (08:00:27:9f:a5:ba)
        .... ..0. .... .... .... .... = LG bit: Globally unique address (factory default)
        .... ...0 .... .... .... .... = IG bit: Individual address (unicast)
    Source: PcsCompu_57:5f:a0 (08:00:27:57:5f:a0)
        Address: PcsCompu_57:5f:a0 (08:00:27:57:5f:a0)
        .... ..0. .... .... .... .... = LG bit: Globally unique address (factory default)
        .... ...0 .... .... .... .... = IG bit: Individual address (unicast)
    Type: IPv4 (0x0800)
Internet Protocol Version 4, Src: 10.2.73.5, Dst: 10.2.73.254
    0100 .... = Version: 4
    .... 0101 = Header Length: 20 bytes (5)
    Differentiated Services Field: 0x10 (DSCP: Unknown, ECN: Not-ECT)
        0001 00.. = Differentiated Services Codepoint: Unknown (4)
        .... ..00 = Explicit Congestion Notification: Not ECN-Capable Transport (0)
    Total Length: 96
    Identification: 0x79da (31194)
    Flags: 0x40, Don't fragment
        0... .... = Reserved bit: Not set
        .1.. .... = Don't fragment: Set
        ..0. .... = More fragments: Not set
    ...0 0000 0000 0000 = Fragment Offset: 0
    Time to Live: 64
    Protocol: TCP (6)
    Header Checksum: 0x19a7 [validation disabled]
    [Header checksum status: Unverified]
    Source Address: 10.2.73.5
    Destination Address: 10.2.73.254
Transmission Control Protocol, Src Port: 33534, Dst Port: 7314, Seq: 1601, Ack: 1637, Len: 44
    Source Port: 33534
    Destination Port: 7314
    [Stream index: 0]
    [Conversation completeness: Incomplete, DATA (15)]
    [TCP Segment Len: 44]
    Sequence Number: 1601    (relative sequence number)
    Sequence Number (raw): 2967452556
    [Next Sequence Number: 1645    (relative sequence number)]
    Acknowledgment Number: 1637    (relative ack number)
    Acknowledgment number (raw): 3944900890
    1000 .... = Header Length: 32 bytes (8)
    Flags: 0x018 (PSH, ACK)
        000. .... .... = Reserved: Not set
        ...0 .... .... = Nonce: Not set
        .... 0... .... = Congestion Window Reduced (CWR): Not set
        .... .0.. .... = ECN-Echo: Not set
        .... ..0. .... = Urgent: Not set
        .... ...1 .... = Acknowledgment: Set
        .... .... 1... = Push: Set
        .... .... .0.. = Reset: Not set
        .... .... ..0. = Syn: Not set
        .... .... ...0 = Fin: Not set
        [TCP Flags: ·······AP···]
    Window: 501
    [Calculated window size: 64128]
    [Window size scaling factor: 128]
    Checksum: 0xf61a [unverified]
    [Checksum Status: Unverified]
    Urgent Pointer: 0
    Options: (12 bytes), No-Operation (NOP), No-Operation (NOP), Timestamps
        TCP Option - No-Operation (NOP)
            Kind: No-Operation (1)
        TCP Option - No-Operation (NOP)
            Kind: No-Operation (1)
        TCP Option - Timestamps: TSval 2302645575, TSecr 4158926131
            Kind: Time Stamp Option (8)
            Length: 10
            Timestamp value: 2302645575
            Timestamp echo reply: 4158926131
    [Timestamps]
        [Time since first frame in this TCP stream: 0.273530912 seconds]
        [Time since previous frame in this TCP stream: 0.000231770 seconds]
    [SEQ/ACK analysis]
        [iRTT: 0.000245667 seconds]
        [Bytes in flight: 44]
        [Bytes sent since last PSH flag: 44]
    TCP payload (44 bytes)
Data (44 bytes)
    Data: e2fa0ce53d40c33e5aecfe37786c165df50e22c3c3ca352b3c662a97867944dcc0dcadbd…
    [Length: 44]

0000  08 00 27 9f a5 ba 08 00 27 57 5f a0 08 00 45 10   ..'.....'W_...E.
0010  00 60 79 da 40 00 40 06 19 a7 0a 02 49 05 0a 02   .`y.@.@.....I...
0020  49 fe 82 fe 1c 92 b0 df bb 8c eb 22 69 1a 80 18   I.........."i...
